{
  "abi": [
    {
      "inputs": [
        {
          "internalType": "address",
          "name": "_usdcAddress",
          "type": "address"
        },
        {
          "internalType": "address",
          "name": "initialOwner",
          "type": "address"
        }
      ],
      "stateMutability": "nonpayable",
      "type": "constructor"
    },
    {
      "inputs": [
        {
          "internalType": "address",
          "name": "owner",
          "type": "address"
        }
      ],
      "name": "OwnableInvalidOwner",
      "type": "error"
    },
    {
      "inputs": [
        {
          "internalType": "address",
          "name": "account",
          "type": "address"
        }
      ],
      "name": "OwnableUnauthorizedAccount",
      "type": "error"
    },
    {
      "anonymous": false,
      "inputs": [
        {
          "indexed": false,
          "internalType": "uint256",
          "name": "newFeeNumerator",
          "type": "uint256"
        }
      ],
      "name": "FeeUpdated",
      "type": "event"
    },
    {
      "anonymous": false,
      "inputs": [
        {
          "indexed": true,
          "internalType": "address",
          "name": "owner",
          "type": "address"
        },
        {
          "indexed": false,
          "internalType": "uint256",
          "name": "amount",
          "type": "uint256"
        }
      ],
      "name": "FeesWithdrawn",
      "type": "event"
    },
    {
      "anonymous": false,
      "inputs": [
        {
          "indexed": true,
          "internalType": "address",
          "name": "previousOwner",
          "type": "address"
        },
        {
          "indexed": true,
          "internalType": "address",
          "name": "newOwner",
          "type": "address"
        }
      ],
      "name": "OwnershipTransferred",
      "type": "event"
    },
    {
      "anonymous": false,
      "inputs": [
        {
          "indexed": true,
          "internalType": "address",
          "name": "sender",
          "type": "address"
        },
        {
          "indexed": true,
          "internalType": "address",
          "name": "creator",
          "type": "address"
        },
        {
          "indexed": false,
          "internalType": "uint256",
          "name": "amount",
          "type": "uint256"
        },
        {
          "indexed": false,
          "internalType": "string",
          "name": "paymentType",
          "type": "string"
        },
        {
          "indexed": false,
          "internalType": "string",
          "name": "context",
          "type": "string"
        }
      ],
      "name": "PaymentProcessed",
      "type": "event"
    },
    {
      "inputs": [],
      "name": "FEE_DENOMINATOR",
      "outputs": [
        {
          "internalType": "uint256",
          "name": "",
          "type": "uint256"
        }
      ],
      "stateMutability": "view",
      "type": "function"
    },
    {
      "inputs": [
        {
          "internalType": "address[]",
          "name": "creators",
          "type": "address[]"
        },
        {
          "internalType": "uint256[]",
          "name": "amounts",
          "type": "uint256[]"
        },
        {
          "internalType": "string[]",
          "name": "paymentTypes",
          "type": "string[]"
        },
        {
          "internalType": "string[]",
          "name": "contexts",
          "type": "string[]"
        }
      ],
      "name": "batchPayCreators",
      "outputs": [],
      "stateMutability": "nonpayable",
      "type": "function"
    },
    {
      "inputs": [],
      "name": "feeNumerator",
      "outputs": [
        {
          "internalType": "uint256",
          "name": "",
          "type": "uint256"
        }
      ],
      "stateMutability": "view",
      "type": "function"
    },
    {
      "inputs": [],
      "name": "owner",
      "outputs": [
        {
          "internalType": "address",
          "name": "",
          "type": "address"
        }
      ],
      "stateMutability": "view",
      "type": "function"
    },
    {
      "inputs": [
        {
          "internalType": "address",
          "name": "creator",
          "type": "address"
        },
        {
          "internalType": "uint256",
          "name": "amount",
          "type": "uint256"
        },
        {
          "internalType": "string",
          "name": "paymentType",
          "type": "string"
        },
        {
          "internalType": "string",
          "name": "context",
          "type": "string"
        }
      ],
      "name": "payCreator",
      "outputs": [],
      "stateMutability": "nonpayable",
      "type": "function"
    },
    {
      "inputs": [],
      "name": "renounceOwnership",
      "outputs": [],
      "stateMutability": "nonpayable",
      "type": "function"
    },
    {
      "inputs": [
        {
          "internalType": "uint256",
          "name": "_newFeeNumerator",
          "type": "uint256"
        }
      ],
      "name": "setFeeNumerator",
      "outputs": [],
      "stateMutability": "nonpayable",
      "type": "function"
    },
    {
      "inputs": [
        {
          "internalType": "address",
          "name": "newOwner",
          "type": "address"
        }
      ],
      "name": "transferOwnership",
      "outputs": [],
      "stateMutability": "nonpayable",
      "type": "function"
    },
    {
      "inputs": [],
      "name": "usdc",
      "outputs": [
        {
          "internalType": "contract IERC20",
          "name": "",
          "type": "address"
        }
      ],
      "stateMutability": "view",
      "type": "function"
    },
    {
      "inputs": [],
      "name": "withdrawFees",
      "outputs": [],
      "stateMutability": "nonpayable",
      "type": "function"
    }
  ],
  "devdoc": {
    "details": "Handles incoming x402 micropayments and tips in USDC, deducting a 1.5% platform fee.",
    "errors": {
      "OwnableInvalidOwner(address)": [
        {
          "details": "The owner is not a valid owner account. (eg. `address(0)`)"
        }
      ],
      "OwnableUnauthorizedAccount(address)": [
        {
          "details": "The caller account is not authorized to perform an operation."
        }
      ]
    },
    "kind": "dev",
    "methods": {
      "batchPayCreators(address[],uint256[],string[],string[])": {
        "details": "Process a batch of micropayments (useful for agent operators)."
      },
      "owner()": {
        "details": "Returns the address of the current owner."
      },
      "payCreator(address,uint256,string,string)": {
        "details": "Process a human tip or agent micropayment.",
        "params": {
          "amount": "The total payment amount in USDC (6 decimals).",
          "context": "Optional context or query string from the agent.",
          "creator": "The content creator receiving the funds.",
          "paymentType": "E.g., \"human\" or \"agent\"."
        }
      },
      "renounceOwnership()": {
        "details": "Leaves the contract without owner. It will not be possible to call `onlyOwner` functions. Can only be called by the current owner. NOTE: Renouncing ownership will leave the contract without an owner, thereby disabling any functionality that is only available to the owner."
      },
      "setFeeNumerator(uint256)": {
        "details": "Update the platform fee percentage. Maximum allowed fee is 10%."
      },
      "transferOwnership(address)": {
        "details": "Transfers ownership of the contract to a new account (`newOwner`). Can only be called by the current owner."
      },
      "withdrawFees()": {
        "details": "Allows the owner to withdraw accumulated platform fees."
      }
    },
    "title": "AgentTipEscrow",
    "version": 1
  },
  "evm": {
    "assembly": "    /* \"AgentTipEscrow.sol\":295:3427  contract AgentTipEscrow is Ownable {... */\n  mstore(0x40, 0x80)\n    /* \"AgentTipEscrow.sol\":442:444  15 */\n  0x0f\n    /* \"AgentTipEscrow.sol\":412:444  uint256 public feeNumerator = 15 */\n  0x02\n  sstore\n    /* \"AgentTipEscrow.sol\":750:872  constructor(address _usdcAddress, address initialOwner) Ownable(initialOwner) {... */\n  callvalue\n  dup1\n  iszero\n  tag_1\n  jumpi\n  revert(0x00, 0x00)\ntag_1:\n  pop\n  mload(0x40)\n  sub(codesize, bytecodeSize)\n  dup1\n  bytecodeSize\n  dup4\n  codecopy\n  dup2\n  dup2\n  add\n  0x40\n  mstore\n  dup2\n  add\n  swap1\n  tag_2\n  swap2\n  swap1\n  tag_3\n  jump\t// in\ntag_2:\n    /* \"AgentTipEscrow.sol\":814:826  initialOwner */\n  dup1\n    /* \"@openzeppelin/contracts/access/Ownable.sol\":1297:1298   */\n  0x00\n    /* \"@openzeppelin/contracts/access/Ownable.sol\":1273:1299   */\n  0xffffffffffffffffffffffffffffffffffffffff\n  and\n    /* \"@openzeppelin/contracts/access/Ownable.sol\":1273:1285   */\n  dup2\n    /* \"@openzeppelin/contracts/access/Ownable.sol\":1273:1299   */\n  0xffffffffffffffffffffffffffffffffffffffff\n  and\n  sub\n    /* \"@openzeppelin/contracts/access/Ownable.sol\":1269:1364   */\n  tag_7\n  jumpi\n    /* \"@openzeppelin/contracts/access/Ownable.sol\":1350:1351   */\n  0x00\n    /* \"@openzeppelin/contracts/access/Ownable.sol\":1322:1353   */\n  mload(0x40)\n  0x1e4fbdf700000000000000000000000000000000000000000000000000000000\n  dup2\n  mstore\n  0x04\n  add\n  tag_8\n  swap2\n  swap1\n  tag_9\n  jump\t// in\ntag_8:\n  mload(0x40)\n  dup1\n  swap2\n  sub\n  swap1\n  revert\n    /* \"@openzeppelin/contracts/access/Ownable.sol\":1269:1364   */\ntag_7:\n    /* \"@openzeppelin/contracts/access/Ownable.sol\":1373:1405   */\n  tag_10\n    /* \"@openzeppelin/contracts/access/Ownable.sol\":1392:1404   */\n  dup2\n    /* \"@openzeppelin/contracts/access/Ownable.sol\":1373:1391   */\n  shl(0x20, tag_11)\n    /* \"@openzeppelin/contracts/access/Ownable.sol\":1373:1405   */\n  0x20\n  shr\n  jump\t// in\ntag_10:\n    /* \"@openzeppelin/contracts/access/Ownable.sol\":1225:1412   */\n  pop\n    /* \"AgentTipEscrow.sol\":852:864  _usdcAddress */\n  dup2\n    /* \"AgentTipEscrow.sol\":838:842  usdc */\n  0x01\n  0x00\n    /* \"AgentTipEscrow.sol\":838:865  usdc = IERC20(_usdcAddress) */\n  0x0100\n  exp\n  dup2\n  sload\n  dup2\n  0xffffffffffffffffffffffffffffffffffffffff\n  mul\n  not\n  and\n  swap1\n  dup4\n  0xffffffffffffffffffffffffffffffffffffffff\n  and\n  mul\n  or\n  swap1\n  sstore\n  pop\n    /* \"AgentTipEscrow.sol\":750:872  constructor(address _usdcAddress, address initialOwner) Ownable(initialOwner) {... */\n  pop\n  pop\n    /* \"AgentTipEscrow.sol\":295:3427  contract AgentTipEscrow is Ownable {... */\n  jump(tag_13)\n    /* \"@openzeppelin/contracts/access/Ownable.sol\":2912:3099   */\ntag_11:\n    /* \"@openzeppelin/contracts/access/Ownable.sol\":2985:3001   */\n  0x00\n    /* \"@openzeppelin/contracts/access/Ownable.sol\":3004:3010   */\n  0x00\n  0x00\n  swap1\n  sload\n  swap1\n  0x0100\n  exp\n  swap1\n  div\n  0xffffffffffffffffffffffffffffffffffffffff\n  and\n    /* \"@openzeppelin/contracts/access/Ownable.sol\":2985:3010   */\n  swap1\n  pop\n    /* \"@openzeppelin/contracts/access/Ownable.sol\":3029:3037   */\n  dup2\n    /* \"@openzeppelin/contracts/access/Ownable.sol\":3020:3026   */\n  0x00\n  0x00\n    /* \"@openzeppelin/contracts/access/Ownable.sol\":3020:3037   */\n  0x0100\n  exp\n  dup2\n  sload\n  dup2\n  0xffffffffffffffffffffffffffffffffffffffff\n  mul\n  not\n  and\n  swap1\n  dup4\n  0xffffffffffffffffffffffffffffffffffffffff\n  and\n  mul\n  or\n  swap1\n  sstore\n  pop\n    /* \"@openzeppelin/contracts/access/Ownable.sol\":3083:3091   */\n  dup2\n    /* \"@openzeppelin/contracts/access/Ownable.sol\":3052:3092   */\n  0xffffffffffffffffffffffffffffffffffffffff\n  and\n    /* \"@openzeppelin/contracts/access/Ownable.sol\":3073:3081   */\n  dup2\n    /* \"@openzeppelin/contracts/access/Ownable.sol\":3052:3092   */\n  0xffffffffffffffffffffffffffffffffffffffff\n  and\n  0x8be0079c531659141344cd1fd0a4f28419497f9722a3daafe3b4186f6b6457e0\n  mload(0x40)\n  mload(0x40)\n  dup1\n  swap2\n  sub\n  swap1\n  log3\n    /* \"@openzeppelin/contracts/access/Ownable.sol\":2975:3099   */\n  pop\n    /* \"@openzeppelin/contracts/access/Ownable.sol\":2912:3099   */\n  pop\n  jump\t// out\n    /* \"#utility.yul\":88:205   */\ntag_16:\n    /* \"#utility.yul\":197:198   */\n  0x00\n    /* \"#utility.yul\":194:195   */\n  0x00\n    /* \"#utility.yul\":187:199   */\n  revert\n    /* \"#utility.yul\":334:460   */\ntag_18:\n    /* \"#utility.yul\":371:378   */\n  0x00\n    /* \"#utility.yul\":411:453   */\n  0xffffffffffffffffffffffffffffffffffffffff\n    /* \"#utility.yul\":404:409   */\n  dup3\n    /* \"#utility.yul\":400:454   */\n  and\n    /* \"#utility.yul\":389:454   */\n  swap1\n  pop\n    /* \"#utility.yul\":334:460   */\n  swap2\n  swap1\n  pop\n  jump\t// out\n    /* \"#utility.yul\":466:562   */\ntag_19:\n    /* \"#utility.yul\":503:510   */\n  0x00\n    /* \"#utility.yul\":532:556   */\n  tag_29\n    /* \"#utility.yul\":550:555   */\n  dup3\n    /* \"#utility.yul\":532:556   */\n  tag_18\n  jump\t// in\ntag_29:\n    /* \"#utility.yul\":521:556   */\n  swap1\n  pop\n    /* \"#utility.yul\":466:562   */\n  swap2\n  swap1\n  pop\n  jump\t// out\n    /* \"#utility.yul\":568:690   */\ntag_20:\n    /* \"#utility.yul\":641:665   */\n  tag_31\n    /* \"#utility.yul\":659:664   */\n  dup2\n    /* \"#utility.yul\":641:665   */\n  tag_19\n  jump\t// in\ntag_31:\n    /* \"#utility.yul\":634:639   */\n  dup2\n    /* \"#utility.yul\":631:666   */\n  eq\n    /* \"#utility.yul\":621:684   */\n  tag_32\n  jumpi\n    /* \"#utility.yul\":680:681   */\n  0x00\n    /* \"#utility.yul\":677:678   */\n  0x00\n    /* \"#utility.yul\":670:682   */\n  revert\n    /* \"#utility.yul\":621:684   */\ntag_32:\n    /* \"#utility.yul\":568:690   */\n  pop\n  jump\t// out\n    /* \"#utility.yul\":696:839   */\ntag_21:\n    /* \"#utility.yul\":753:758   */\n  0x00\n    /* \"#utility.yul\":784:790   */\n  dup2\n    /* \"#utility.yul\":778:791   */\n  mload\n    /* \"#utility.yul\":769:791   */\n  swap1\n  pop\n    /* \"#utility.yul\":800:833   */\n  tag_34\n    /* \"#utility.yul\":827:832   */\n  dup2\n    /* \"#utility.yul\":800:833   */\n  tag_20\n  jump\t// in\ntag_34:\n    /* \"#utility.yul\":696:839   */\n  swap3\n  swap2\n  pop\n  pop\n  jump\t// out\n    /* \"#utility.yul\":845:1352   */\ntag_3:\n    /* \"#utility.yul\":924:930   */\n  0x00\n    /* \"#utility.yul\":932:938   */\n  0x00\n    /* \"#utility.yul\":981:983   */\n  0x40\n    /* \"#utility.yul\":969:978   */\n  dup4\n    /* \"#utility.yul\":960:967   */\n  dup6\n    /* \"#utility.yul\":956:979   */\n  sub\n    /* \"#utility.yul\":952:984   */\n  slt\n    /* \"#utility.yul\":949:1068   */\n  iszero\n  tag_36\n  jumpi\n    /* \"#utility.yul\":987:1066   */\n  tag_37\n  tag_16\n  jump\t// in\ntag_37:\n    /* \"#utility.yul\":949:1068   */\ntag_36:\n    /* \"#utility.yul\":1107:1108   */\n  0x00\n    /* \"#utility.yul\":1132:1196   */\n  tag_38\n    /* \"#utility.yul\":1188:1195   */\n  dup6\n    /* \"#utility.yul\":1179:1185   */\n  dup3\n    /* \"#utility.yul\":1168:1177   */\n  dup7\n    /* \"#utility.yul\":1164:1186   */\n  add\n    /* \"#utility.yul\":1132:1196   */\n  tag_21\n  jump\t// in\ntag_38:\n    /* \"#utility.yul\":1122:1196   */\n  swap3\n  pop\n    /* \"#utility.yul\":1078:1206   */\n  pop\n    /* \"#utility.yul\":1245:1247   */\n  0x20\n    /* \"#utility.yul\":1271:1335   */\n  tag_39\n    /* \"#utility.yul\":1327:1334   */\n  dup6\n    /* \"#utility.yul\":1318:1324   */\n  dup3\n    /* \"#utility.yul\":1307:1316   */\n  dup7\n    /* \"#utility.yul\":1303:1325   */\n  add\n    /* \"#utility.yul\":1271:1335   */\n  tag_21\n  jump\t// in\ntag_39:\n    /* \"#utility.yul\":1261:1335   */\n  swap2\n  pop\n    /* \"#utility.yul\":1216:1345   */\n  pop\n    /* \"#utility.yul\":845:1352   */\n  swap3\n  pop\n  swap3\n  swap1\n  pop\n  jump\t// out\n    /* \"#utility.yul\":1358:1476   */\ntag_22:\n    /* \"#utility.yul\":1445:1469   */\n  tag_41\n    /* \"#utility.yul\":1463:1468   */\n  dup2\n    /* \"#utility.yul\":1445:1469   */\n  tag_19\n  jump\t// in\ntag_41:\n    /* \"#utility.yul\":1440:1443   */\n  dup3\n    /* \"#utility.yul\":1433:1470   */\n  mstore\n    /* \"#utility.yul\":1358:1476   */\n  pop\n  pop\n  jump\t// out\n    /* \"#utility.yul\":1482:1704   */\ntag_9:\n    /* \"#utility.yul\":1575:1579   */\n  0x00\n    /* \"#utility.yul\":1613:1615   */\n  0x20\n    /* \"#utility.yul\":1602:1611   */\n  dup3\n    /* \"#utility.yul\":1598:1616   */\n  add\n    /* \"#utility.yul\":1590:1616   */\n  swap1\n  pop\n    /* \"#utility.yul\":1626:1697   */\n  tag_43\n    /* \"#utility.yul\":1694:1695   */\n  0x00\n    /* \"#utility.yul\":1683:1692   */\n  dup4\n    /* \"#utility.yul\":1679:1696   */\n  add\n    /* \"#utility.yul\":1670:1676   */\n  dup5\n    /* \"#utility.yul\":1626:1697   */\n  tag_22\n  jump\t// in\ntag_43:\n    /* \"#utility.yul\":1482:1704   */\n  swap3\n  swap2\n  pop\n  pop\n  jump\t// out\n    /* \"AgentTipEscrow.sol\":295:3427  contract AgentTipEscrow is Ownable {... */\ntag_13:\n  dataSize(sub_0)\n  dup1\n  dataOffset(sub_0)\n  0x00\n  codecopy\n  0x00\n  return\nstop\n\nsub_0: assembly {\n        /* \"AgentTipEscrow.sol\":295:3427  contract AgentTipEscrow is Ownable {... */\n      mstore(0x40, 0x80)\n      callvalue\n      dup1\n      iszero\n      tag_1\n      jumpi\n      revert(0x00, 0x00)\n    tag_1:\n      pop\n      jumpi(tag_2, lt(calldatasize, 0x04))\n      shr(0xe0, calldataload(0x00))\n      dup1\n      0xa45db911\n      gt\n      tag_13\n      jumpi\n      dup1\n      0xa45db911\n      eq\n      tag_8\n      jumpi\n      dup1\n      0xba0cdff8\n      eq\n      tag_9\n      jumpi\n      dup1\n      0xd73792a9\n      eq\n      tag_10\n      jumpi\n      dup1\n      0xe86dea4a\n      eq\n      tag_11\n      jumpi\n      dup1\n      0xf2fde38b\n      eq\n      tag_12\n      jumpi\n      jump(tag_2)\n    tag_13:\n      dup1\n      0x3e413bee\n      eq\n      tag_3\n      jumpi\n      dup1\n      0x476343ee\n      eq\n      tag_4\n      jumpi\n      dup1\n      0x5adbdfe8\n      eq\n      tag_5\n      jumpi\n      dup1\n      0x715018a6\n      eq\n      tag_6\n      jumpi\n      dup1\n      0x8da5cb5b\n      eq\n      tag_7\n      jumpi\n    tag_2:\n      revert(0x00, 0x00)\n        /* \"AgentTipEscrow.sol\":336:354  IERC20 public usdc */\n    tag_3:\n      tag_14\n      tag_15\n      jump\t// in\n    tag_14:\n      mload(0x40)\n      tag_16\n      swap2\n      swap1\n      tag_17\n      jump\t// in\n    tag_16:\n      mload(0x40)\n      dup1\n      swap2\n      sub\n      swap1\n      return\n        /* \"AgentTipEscrow.sol\":2813:3099  function withdrawFees() external onlyOwner {... */\n    tag_4:\n      tag_18\n      tag_19\n      jump\t// in\n    tag_18:\n      stop\n        /* \"AgentTipEscrow.sol\":2157:2723  function batchPayCreators(... */\n    tag_5:\n      tag_20\n      0x04\n      dup1\n      calldatasize\n      sub\n      dup2\n      add\n      swap1\n      tag_21\n      swap2\n      swap1\n      tag_22\n      jump\t// in\n    tag_21:\n      tag_23\n      jump\t// in\n    tag_20:\n      stop\n        /* \"@openzeppelin/contracts/access/Ownable.sol\":2293:2394   */\n    tag_6:\n      tag_24\n      tag_25\n      jump\t// in\n    tag_24:\n      stop\n        /* \"@openzeppelin/contracts/access/Ownable.sol\":1638:1723   */\n    tag_7:\n      tag_26\n      tag_27\n      jump\t// in\n    tag_26:\n      mload(0x40)\n      tag_28\n      swap2\n      swap1\n      tag_29\n      jump\t// in\n    tag_28:\n      mload(0x40)\n      dup1\n      swap2\n      sub\n      swap1\n      return\n        /* \"AgentTipEscrow.sol\":3197:3425  function setFeeNumerator(uint256 _newFeeNumerator) external onlyOwner {... */\n    tag_8:\n      tag_30\n      0x04\n      dup1\n      calldatasize\n      sub\n      dup2\n      add\n      swap1\n      tag_31\n      swap2\n      swap1\n      tag_32\n      jump\t// in\n    tag_31:\n      tag_33\n      jump\t// in\n    tag_30:\n      stop\n        /* \"AgentTipEscrow.sol\":1203:2060  function payCreator(... */\n    tag_9:\n      tag_34\n      0x04\n      dup1\n      calldatasize\n      sub\n      dup2\n      add\n      swap1\n      tag_35\n      swap2\n      swap1\n      tag_36\n      jump\t// in\n    tag_35:\n      tag_37\n      jump\t// in\n    tag_34:\n      stop\n        /* \"AgentTipEscrow.sol\":360:406  uint256 public constant FEE_DENOMINATOR = 1000 */\n    tag_10:\n      tag_38\n      tag_39\n      jump\t// in\n    tag_38:\n      mload(0x40)\n      tag_40\n      swap2\n      swap1\n      tag_41\n      jump\t// in\n    tag_40:\n      mload(0x40)\n      dup1\n      swap2\n      sub\n      swap1\n      return\n        /* \"AgentTipEscrow.sol\":412:444  uint256 public feeNumerator = 15 */\n    tag_11:\n      tag_42\n      tag_43\n      jump\t// in\n    tag_42:\n      mload(0x40)\n      tag_44\n      swap2\n      swap1\n      tag_41\n      jump\t// in\n    tag_44:\n      mload(0x40)\n      dup1\n      swap2\n      sub\n      swap1\n      return\n        /* \"@openzeppelin/contracts/access/Ownable.sol\":2543:2758   */\n    tag_12:\n      tag_45\n      0x04\n      dup1\n      calldatasize\n      sub\n      dup2\n      add\n      swap1\n      tag_46\n      swap2\n      swap1\n      tag_47\n      jump\t// in\n    tag_46:\n      tag_48\n      jump\t// in\n    tag_45:\n      stop\n        /* \"AgentTipEscrow.sol\":336:354  IERC20 public usdc */\n    tag_15:\n      0x01\n      0x00\n      swap1\n      sload\n      swap1\n      0x0100\n      exp\n      swap1\n      div\n      0xffffffffffffffffffffffffffffffffffffffff\n      and\n      dup2\n      jump\t// out\n        /* \"AgentTipEscrow.sol\":2813:3099  function withdrawFees() external onlyOwner {... */\n    tag_19:\n        /* \"@openzeppelin/contracts/access/Ownable.sol\":1531:1544   */\n      tag_50\n        /* \"@openzeppelin/contracts/access/Ownable.sol\":1531:1542   */\n      tag_51\n        /* \"@openzeppelin/contracts/access/Ownable.sol\":1531:1544   */\n      jump\t// in\n    tag_50:\n        /* \"AgentTipEscrow.sol\":2866:2881  uint256 balance */\n      0x00\n        /* \"AgentTipEscrow.sol\":2884:2888  usdc */\n      0x01\n      0x00\n      swap1\n      sload\n      swap1\n      0x0100\n      exp\n      swap1\n      div\n      0xffffffffffffffffffffffffffffffffffffffff\n      and\n        /* \"AgentTipEscrow.sol\":2884:2898  usdc.balanceOf */\n      0xffffffffffffffffffffffffffffffffffffffff\n      and\n      0x70a08231\n        /* \"AgentTipEscrow.sol\":2907:2911  this */\n      address\n        /* \"AgentTipEscrow.sol\":2884:2913  usdc.balanceOf(address(this)) */\n      mload(0x40)\n      dup3\n      0xffffffff\n      and\n      0xe0\n      shl\n      dup2\n      mstore\n      0x04\n      add\n      tag_53\n      swap2\n      swap1\n      tag_29\n      jump\t// in\n    tag_53:\n      0x20\n      mload(0x40)\n      dup1\n      dup4\n      sub\n      dup2\n      dup7\n      gas\n      staticcall\n      iszero\n      dup1\n      iszero\n      tag_55\n      jumpi\n      returndatacopy(0x00, 0x00, returndatasize)\n      revert(0x00, returndatasize)\n    tag_55:\n      pop\n      pop\n      pop\n      pop\n      mload(0x40)\n      returndatasize\n      not(0x1f)\n      0x1f\n      dup3\n      add\n      and\n      dup3\n      add\n      dup1\n      0x40\n      mstore\n      pop\n      dup2\n      add\n      swap1\n      tag_56\n      swap2\n      swap1\n      tag_57\n      jump\t// in\n    tag_56:\n        /* \"AgentTipEscrow.sol\":2866:2913  uint256 balance = usdc.balanceOf(address(this)) */\n      swap1\n      pop\n        /* \"AgentTipEscrow.sol\":2941:2942  0 */\n      0x00\n        /* \"AgentTipEscrow.sol\":2931:2938  balance */\n      dup2\n        /* \"AgentTipEscrow.sol\":2931:2942  balance > 0 */\n      gt\n        /* \"AgentTipEscrow.sol\":2923:2966  require(balance > 0, \"No fees to withdraw\") */\n      tag_58\n      jumpi\n      mload(0x40)\n      0x08c379a000000000000000000000000000000000000000000000000000000000\n      dup2\n      mstore\n      0x04\n      add\n      tag_59\n      swap1\n      tag_60\n      jump\t// in\n    tag_59:\n      mload(0x40)\n      dup1\n      swap2\n      sub\n      swap1\n      revert\n    tag_58:\n        /* \"AgentTipEscrow.sol\":2993:2997  usdc */\n      0x01\n      0x00\n      swap1\n      sload\n      swap1\n      0x0100\n      exp\n      swap1\n      div\n      0xffffffffffffffffffffffffffffffffffffffff\n      and\n        /* \"AgentTipEscrow.sol\":2993:3006  usdc.transfer */\n      0xffffffffffffffffffffffffffffffffffffffff\n      and\n      0xa9059cbb\n        /* \"AgentTipEscrow.sol\":3007:3014  owner() */\n      tag_61\n        /* \"AgentTipEscrow.sol\":3007:3012  owner */\n      tag_27\n        /* \"AgentTipEscrow.sol\":3007:3014  owner() */\n      jump\t// in\n    tag_61:\n        /* \"AgentTipEscrow.sol\":3016:3023  balance */\n      dup4\n        /* \"AgentTipEscrow.sol\":2993:3024  usdc.transfer(owner(), balance) */\n      mload(0x40)\n      dup4\n      0xffffffff\n      and\n      0xe0\n      shl\n      dup2\n      mstore\n      0x04\n      add\n      tag_62\n      swap3\n      swap2\n      swap1\n      tag_63\n      jump\t// in\n    tag_62:\n      0x20\n      mload(0x40)\n      dup1\n      dup4\n      sub\n      dup2\n      0x00\n      dup8\n      gas\n      call\n      iszero\n      dup1\n      iszero\n      tag_65\n      jumpi\n      returndatacopy(0x00, 0x00, returndatasize)\n      revert(0x00, returndatasize)\n    tag_65:\n      pop\n      pop\n      pop\n      pop\n      mload(0x40)\n      returndatasize\n      not(0x1f)\n      0x1f\n      dup3\n      add\n      and\n      dup3\n      add\n      dup1\n      0x40\n      mstore\n      pop\n      dup2\n      add\n      swap1\n      tag_66\n      swap2\n      swap1\n      tag_67\n      jump\t// in\n    tag_66:\n        /* \"AgentTipEscrow.sol\":2985:3046  require(usdc.transfer(owner(), balance), \"Withdrawal failed\") */\n      tag_68\n      jumpi\n      mload(0x40)\n      0x08c379a000000000000000000000000000000000000000000000000000000000\n      dup2\n      mstore\n      0x04\n      add\n      tag_69\n      swap1\n      tag_70\n      jump\t// in\n    tag_69:\n      mload(0x40)\n      dup1\n      swap2\n      sub\n      swap1\n      revert\n    tag_68:\n        /* \"AgentTipEscrow.sol\":3075:3082  owner() */\n      tag_71\n        /* \"AgentTipEscrow.sol\":3075:3080  owner */\n      tag_27\n        /* \"AgentTipEscrow.sol\":3075:3082  owner() */\n      jump\t// in\n    tag_71:\n        /* \"AgentTipEscrow.sol\":3061:3092  FeesWithdrawn(owner(), balance) */\n      0xffffffffffffffffffffffffffffffffffffffff\n      and\n      0xc0819c13be868895eb93e40eaceb96de976442fa1d404e5c55f14bb65a8c489a\n        /* \"AgentTipEscrow.sol\":3084:3091  balance */\n      dup3\n        /* \"AgentTipEscrow.sol\":3061:3092  FeesWithdrawn(owner(), balance) */\n      mload(0x40)\n      tag_72\n      swap2\n      swap1\n      tag_41\n      jump\t// in\n    tag_72:\n      mload(0x40)\n      dup1\n      swap2\n      sub\n      swap1\n      log2\n        /* \"AgentTipEscrow.sol\":2856:3099  {... */\n      pop\n        /* \"AgentTipEscrow.sol\":2813:3099  function withdrawFees() external onlyOwner {... */\n      jump\t// out\n        /* \"AgentTipEscrow.sol\":2157:2723  function batchPayCreators(... */\n    tag_23:\n        /* \"AgentTipEscrow.sol\":2397:2404  amounts */\n      dup6\n      dup6\n        /* \"AgentTipEscrow.sol\":2397:2411  amounts.length */\n      swap1\n      pop\n        /* \"AgentTipEscrow.sol\":2378:2386  creators */\n      dup9\n      dup9\n        /* \"AgentTipEscrow.sol\":2378:2393  creators.length */\n      swap1\n      pop\n        /* \"AgentTipEscrow.sol\":2378:2411  creators.length == amounts.length */\n      eq\n        /* \"AgentTipEscrow.sol\":2378:2464  creators.length == amounts.length &&... */\n      dup1\n      iszero\n      tag_74\n      jumpi\n      pop\n        /* \"AgentTipEscrow.sol\":2445:2457  paymentTypes */\n      dup4\n      dup4\n        /* \"AgentTipEscrow.sol\":2445:2464  paymentTypes.length */\n      swap1\n      pop\n        /* \"AgentTipEscrow.sol\":2427:2434  amounts */\n      dup7\n      dup7\n        /* \"AgentTipEscrow.sol\":2427:2441  amounts.length */\n      swap1\n      pop\n        /* \"AgentTipEscrow.sol\":2427:2464  amounts.length == paymentTypes.length */\n      eq\n        /* \"AgentTipEscrow.sol\":2378:2464  creators.length == amounts.length &&... */\n    tag_74:\n        /* \"AgentTipEscrow.sol\":2378:2518  creators.length == amounts.length &&... */\n      dup1\n      iszero\n      tag_75\n      jumpi\n      pop\n        /* \"AgentTipEscrow.sol\":2503:2511  contexts */\n      dup2\n      dup2\n        /* \"AgentTipEscrow.sol\":2503:2518  contexts.length */\n      swap1\n      pop\n        /* \"AgentTipEscrow.sol\":2480:2492  paymentTypes */\n      dup5\n      dup5\n        /* \"AgentTipEscrow.sol\":2480:2499  paymentTypes.length */\n      swap1\n      pop\n        /* \"AgentTipEscrow.sol\":2480:2518  paymentTypes.length == contexts.length */\n      eq\n        /* \"AgentTipEscrow.sol\":2378:2518  creators.length == amounts.length &&... */\n    tag_75:\n        /* \"AgentTipEscrow.sol\":2357:2565  require(... */\n      tag_76\n      jumpi\n      mload(0x40)\n      0x08c379a000000000000000000000000000000000000000000000000000000000\n      dup2\n      mstore\n      0x04\n      add\n      tag_77\n      swap1\n      tag_78\n      jump\t// in\n    tag_77:\n      mload(0x40)\n      dup1\n      swap2\n      sub\n      swap1\n      revert\n    tag_76:\n        /* \"AgentTipEscrow.sol\":2581:2590  uint256 i */\n      0x00\n        /* \"AgentTipEscrow.sol\":2593:2594  0 */\n      0x00\n        /* \"AgentTipEscrow.sol\":2581:2594  uint256 i = 0 */\n      swap1\n      pop\n        /* \"AgentTipEscrow.sol\":2576:2717  for (uint256 i = 0; i < creators.length; i++) {... */\n    tag_79:\n        /* \"AgentTipEscrow.sol\":2600:2608  creators */\n      dup9\n      dup9\n        /* \"AgentTipEscrow.sol\":2600:2615  creators.length */\n      swap1\n      pop\n        /* \"AgentTipEscrow.sol\":2596:2597  i */\n      dup2\n        /* \"AgentTipEscrow.sol\":2596:2615  i < creators.length */\n      lt\n        /* \"AgentTipEscrow.sol\":2576:2717  for (uint256 i = 0; i < creators.length; i++) {... */\n      iszero\n      tag_80\n      jumpi\n        /* \"AgentTipEscrow.sol\":2636:2640  this */\n      address\n        /* \"AgentTipEscrow.sol\":2636:2651  this.payCreator */\n      0xffffffffffffffffffffffffffffffffffffffff\n      and\n      0xba0cdff8\n        /* \"AgentTipEscrow.sol\":2652:2660  creators */\n      dup11\n      dup11\n        /* \"AgentTipEscrow.sol\":2661:2662  i */\n      dup5\n        /* \"AgentTipEscrow.sol\":2652:2663  creators[i] */\n      dup2\n      dup2\n      lt\n      tag_82\n      jumpi\n      tag_83\n      tag_84\n      jump\t// in\n    tag_83:\n    tag_82:\n      swap1\n      pop\n      0x20\n      mul\n      add\n      0x20\n      dup2\n      add\n      swap1\n      tag_85\n      swap2\n      swap1\n      tag_47\n      jump\t// in\n    tag_85:\n        /* \"AgentTipEscrow.sol\":2665:2672  amounts */\n      dup10\n      dup10\n        /* \"AgentTipEscrow.sol\":2673:2674  i */\n      dup6\n        /* \"AgentTipEscrow.sol\":2665:2675  amounts[i] */\n      dup2\n      dup2\n      lt\n      tag_86\n      jumpi\n      tag_87\n      tag_84\n      jump\t// in\n    tag_87:\n    tag_86:\n      swap1\n      pop\n      0x20\n      mul\n      add\n      calldataload\n        /* \"AgentTipEscrow.sol\":2677:2689  paymentTypes */\n      dup9\n      dup9\n        /* \"AgentTipEscrow.sol\":2690:2691  i */\n      dup7\n        /* \"AgentTipEscrow.sol\":2677:2692  paymentTypes[i] */\n      dup2\n      dup2\n      lt\n      tag_88\n      jumpi\n      tag_89\n      tag_84\n      jump\t// in\n    tag_89:\n    tag_88:\n      swap1\n      pop\n      0x20\n      mul\n      dup2\n      add\n      swap1\n      tag_90\n      swap2\n      swap1\n      tag_91\n      jump\t// in\n    tag_90:\n        /* \"AgentTipEscrow.sol\":2694:2702  contexts */\n      dup9\n      dup9\n        /* \"AgentTipEscrow.sol\":2703:2704  i */\n      dup9\n        /* \"AgentTipEscrow.sol\":2694:2705  contexts[i] */\n      dup2\n      dup2\n      lt\n      tag_92\n      jumpi\n      tag_93\n      tag_84\n      jump\t// in\n    tag_93:\n    tag_92:\n      swap1\n      pop\n      0x20\n      mul\n      dup2\n      add\n      swap1\n      tag_94\n      swap2\n      swap1\n      tag_91\n      jump\t// in\n    tag_94:\n        /* \"AgentTipEscrow.sol\":2636:2706  this.payCreator(creators[i], amounts[i], paymentTypes[i], contexts[i]) */\n      mload(0x40)\n      dup8\n      0xffffffff\n      and\n      0xe0\n      shl\n      dup2\n      mstore\n      0x04\n      add\n      tag_95\n      swap7\n      swap6\n      swap5\n      swap4\n      swap3\n      swap2\n      swap1\n      tag_96\n      jump\t// in\n    tag_95:\n      0x00\n      mload(0x40)\n      dup1\n      dup4\n      sub\n      dup2\n      0x00\n      dup8\n      dup1\n      extcodesize\n      iszero\n      dup1\n      iszero\n      tag_97\n      jumpi\n      revert(0x00, 0x00)\n    tag_97:\n      pop\n      gas\n      call\n      iszero\n      dup1\n      iszero\n      tag_99\n      jumpi\n      returndatacopy(0x00, 0x00, returndatasize)\n      revert(0x00, returndatasize)\n    tag_99:\n      pop\n      pop\n      pop\n      pop\n        /* \"AgentTipEscrow.sol\":2617:2620  i++ */\n      dup1\n      dup1\n      0x01\n      add\n      swap2\n      pop\n      pop\n        /* \"AgentTipEscrow.sol\":2576:2717  for (uint256 i = 0; i < creators.length; i++) {... */\n      jump(tag_79)\n    tag_80:\n      pop\n        /* \"AgentTipEscrow.sol\":2157:2723  function batchPayCreators(... */\n      pop\n      pop\n      pop\n      pop\n      pop\n      pop\n      pop\n      pop\n      jump\t// out\n        /* \"@openzeppelin/contracts/access/Ownable.sol\":2293:2394   */\n    tag_25:\n        /* \"@openzeppelin/contracts/access/Ownable.sol\":1531:1544   */\n      tag_101\n        /* \"@openzeppelin/contracts/access/Ownable.sol\":1531:1542   */\n      tag_51\n        /* \"@openzeppelin/contracts/access/Ownable.sol\":1531:1544   */\n      jump\t// in\n    tag_101:\n        /* \"@openzeppelin/contracts/access/Ownable.sol\":2357:2387   */\n      tag_103\n        /* \"@openzeppelin/contracts/access/Ownable.sol\":2384:2385   */\n      0x00\n        /* \"@openzeppelin/contracts/access/Ownable.sol\":2357:2375   */\n      tag_104\n        /* \"@openzeppelin/contracts/access/Ownable.sol\":2357:2387   */\n      jump\t// in\n    tag_103:\n        /* \"@openzeppelin/contracts/access/Ownable.sol\":2293:2394   */\n      jump\t// out\n        /* \"@openzeppelin/contracts/access/Ownable.sol\":1638:1723   */\n    tag_27:\n        /* \"@openzeppelin/contracts/access/Ownable.sol\":1684:1691   */\n      0x00\n        /* \"@openzeppelin/contracts/access/Ownable.sol\":1710:1716   */\n      0x00\n      0x00\n      swap1\n      sload\n      swap1\n      0x0100\n      exp\n      swap1\n      div\n      0xffffffffffffffffffffffffffffffffffffffff\n      and\n        /* \"@openzeppelin/contracts/access/Ownable.sol\":1703:1716   */\n      swap1\n      pop\n        /* \"@openzeppelin/contracts/access/Ownable.sol\":1638:1723   */\n      swap1\n      jump\t// out\n        /* \"AgentTipEscrow.sol\":3197:3425  function setFeeNumerator(uint256 _newFeeNumerator) external onlyOwner {... */\n    tag_33:\n        /* \"@openzeppelin/contracts/access/Ownable.sol\":1531:1544   */\n      tag_107\n        /* \"@openzeppelin/contracts/access/Ownable.sol\":1531:1542   */\n      tag_51\n        /* \"@openzeppelin/contracts/access/Ownable.sol\":1531:1544   */\n      jump\t// in\n    tag_107:\n        /* \"AgentTipEscrow.sol\":3305:3308  100 */\n      0x64\n        /* \"AgentTipEscrow.sol\":3285:3301  _newFeeNumerator */\n      dup2\n        /* \"AgentTipEscrow.sol\":3285:3308  _newFeeNumerator <= 100 */\n      gt\n      iszero\n        /* \"AgentTipEscrow.sol\":3277:3334  require(_newFeeNumerator <= 100, \"Fee cannot exceed 10%\") */\n      tag_109\n      jumpi\n      mload(0x40)\n      0x08c379a000000000000000000000000000000000000000000000000000000000\n      dup2\n      mstore\n      0x04\n      add\n      tag_110\n      swap1\n      tag_111\n      jump\t// in\n    tag_110:\n      mload(0x40)\n      dup1\n      swap2\n      sub\n      swap1\n      revert\n    tag_109:\n        /* \"AgentTipEscrow.sol\":3359:3375  _newFeeNumerator */\n      dup1\n        /* \"AgentTipEscrow.sol\":3344:3356  feeNumerator */\n      0x02\n        /* \"AgentTipEscrow.sol\":3344:3375  feeNumerator = _newFeeNumerator */\n      dup2\n      swap1\n      sstore\n      pop\n        /* \"AgentTipEscrow.sol\":3390:3418  FeeUpdated(_newFeeNumerator) */\n      0x8c4d35e54a3f2ef1134138fd8ea3daee6a3c89e10d2665996babdf70261e2c76\n        /* \"AgentTipEscrow.sol\":3401:3417  _newFeeNumerator */\n      dup2\n        /* \"AgentTipEscrow.sol\":3390:3418  FeeUpdated(_newFeeNumerator) */\n      mload(0x40)\n      tag_112\n      swap2\n      swap1\n      tag_41\n      jump\t// in\n    tag_112:\n      mload(0x40)\n      dup1\n      swap2\n      sub\n      swap1\n      log1\n        /* \"AgentTipEscrow.sol\":3197:3425  function setFeeNumerator(uint256 _newFeeNumerator) external onlyOwner {... */\n      pop\n      jump\t// out\n        /* \"AgentTipEscrow.sol\":1203:2060  function payCreator(... */\n    tag_37:\n        /* \"AgentTipEscrow.sol\":1384:1385  0 */\n      0x00\n        /* \"AgentTipEscrow.sol\":1375:1381  amount */\n      dup6\n        /* \"AgentTipEscrow.sol\":1375:1385  amount > 0 */\n      gt\n        /* \"AgentTipEscrow.sol\":1367:1419  require(amount > 0, \"Amount must be greater than 0\") */\n      tag_114\n      jumpi\n      mload(0x40)\n      0x08c379a000000000000000000000000000000000000000000000000000000000\n      dup2\n      mstore\n      0x04\n      add\n      tag_115\n      swap1\n      tag_116\n      jump\t// in\n    tag_115:\n      mload(0x40)\n      dup1\n      swap2\n      sub\n      swap1\n      revert\n    tag_114:\n        /* \"AgentTipEscrow.sol\":1456:1457  0 */\n      0x00\n        /* \"AgentTipEscrow.sol\":1437:1458  creator != address(0) */\n      0xffffffffffffffffffffffffffffffffffffffff\n      and\n        /* \"AgentTipEscrow.sol\":1437:1444  creator */\n      dup7\n        /* \"AgentTipEscrow.sol\":1437:1458  creator != address(0) */\n      0xffffffffffffffffffffffffffffffffffffffff\n      and\n      sub\n        /* \"AgentTipEscrow.sol\":1429:1486  require(creator != address(0), \"Invalid creator address\") */\n      tag_117\n      jumpi\n      mload(0x40)\n      0x08c379a000000000000000000000000000000000000000000000000000000000\n      dup2\n      mstore\n      0x04\n      add\n      tag_118\n      swap1\n      tag_119\n      jump\t// in\n    tag_118:\n      mload(0x40)\n      dup1\n      swap2\n      sub\n      swap1\n      revert\n    tag_117:\n        /* \"AgentTipEscrow.sol\":1531:1542  uint256 fee */\n      0x00\n        /* \"AgentTipEscrow.sol\":402:406  1000 */\n      0x03e8\n        /* \"AgentTipEscrow.sol\":1555:1567  feeNumerator */\n      sload(0x02)\n        /* \"AgentTipEscrow.sol\":1546:1552  amount */\n      dup8\n        /* \"AgentTipEscrow.sol\":1546:1567  amount * feeNumerator */\n      tag_120\n      swap2\n      swap1\n      tag_121\n      jump\t// in\n    tag_120:\n        /* \"AgentTipEscrow.sol\":1545:1586  (amount * feeNumerator) / FEE_DENOMINATOR */\n      tag_122\n      swap2\n      swap1\n      tag_123\n      jump\t// in\n    tag_122:\n        /* \"AgentTipEscrow.sol\":1531:1586  uint256 fee = (amount * feeNumerator) / FEE_DENOMINATOR */\n      swap1\n      pop\n        /* \"AgentTipEscrow.sol\":1596:1617  uint256 creatorAmount */\n      0x00\n        /* \"AgentTipEscrow.sol\":1629:1632  fee */\n      dup2\n        /* \"AgentTipEscrow.sol\":1620:1626  amount */\n      dup8\n        /* \"AgentTipEscrow.sol\":1620:1632  amount - fee */\n      tag_124\n      swap2\n      swap1\n      tag_125\n      jump\t// in\n    tag_124:\n        /* \"AgentTipEscrow.sol\":1596:1632  uint256 creatorAmount = amount - fee */\n      swap1\n      pop\n        /* \"AgentTipEscrow.sol\":1719:1723  usdc */\n      0x01\n      0x00\n      swap1\n      sload\n      swap1\n      0x0100\n      exp\n      swap1\n      div\n      0xffffffffffffffffffffffffffffffffffffffff\n      and\n        /* \"AgentTipEscrow.sol\":1719:1736  usdc.transferFrom */\n      0xffffffffffffffffffffffffffffffffffffffff\n      and\n      0x23b872dd\n        /* \"AgentTipEscrow.sol\":1737:1747  msg.sender */\n      caller\n        /* \"AgentTipEscrow.sol\":1757:1761  this */\n      address\n        /* \"AgentTipEscrow.sol\":1764:1770  amount */\n      dup11\n        /* \"AgentTipEscrow.sol\":1719:1771  usdc.transferFrom(msg.sender, address(this), amount) */\n      mload(0x40)\n      dup5\n      0xffffffff\n      and\n      0xe0\n      shl\n      dup2\n      mstore\n      0x04\n      add\n      tag_126\n      swap4\n      swap3\n      swap2\n      swap1\n      tag_127\n      jump\t// in\n    tag_126:\n      0x20\n      mload(0x40)\n      dup1\n      dup4\n      sub\n      dup2\n      0x00\n      dup8\n      gas\n      call\n      iszero\n      dup1\n      iszero\n      tag_129\n      jumpi\n      returndatacopy(0x00, 0x00, returndatasize)\n      revert(0x00, returndatasize)\n    tag_129:\n      pop\n      pop\n      pop\n      pop\n      mload(0x40)\n      returndatasize\n      not(0x1f)\n      0x1f\n      dup3\n      add\n      and\n      dup3\n      add\n      dup1\n      0x40\n      mstore\n      pop\n      dup2\n      add\n      swap1\n      tag_130\n      swap2\n      swap1\n      tag_67\n      jump\t// in\n    tag_130:\n        /* \"AgentTipEscrow.sol\":1698:1812  require(... */\n      tag_131\n      jumpi\n      mload(0x40)\n      0x08c379a000000000000000000000000000000000000000000000000000000000\n      dup2\n      mstore\n      0x04\n      add\n      tag_132\n      swap1\n      tag_133\n      jump\t// in\n    tag_132:\n      mload(0x40)\n      dup1\n      swap2\n      sub\n      swap1\n      revert\n    tag_131:\n        /* \"AgentTipEscrow.sol\":1884:1888  usdc */\n      0x01\n      0x00\n      swap1\n      sload\n      swap1\n      0x0100\n      exp\n      swap1\n      div\n      0xffffffffffffffffffffffffffffffffffffffff\n      and\n        /* \"AgentTipEscrow.sol\":1884:1897  usdc.transfer */\n      0xffffffffffffffffffffffffffffffffffffffff\n      and\n      0xa9059cbb\n        /* \"AgentTipEscrow.sol\":1898:1905  creator */\n      dup10\n        /* \"AgentTipEscrow.sol\":1907:1920  creatorAmount */\n      dup4\n        /* \"AgentTipEscrow.sol\":1884:1921  usdc.transfer(creator, creatorAmount) */\n      mload(0x40)\n      dup4\n      0xffffffff\n      and\n      0xe0\n      shl\n      dup2\n      mstore\n      0x04\n      add\n      tag_134\n      swap3\n      swap2\n      swap1\n      tag_63\n      jump\t// in\n    tag_134:\n      0x20\n      mload(0x40)\n      dup1\n      dup4\n      sub\n      dup2\n      0x00\n      dup8\n      gas\n      call\n      iszero\n      dup1\n      iszero\n      tag_136\n      jumpi\n      returndatacopy(0x00, 0x00, returndatasize)\n      revert(0x00, returndatasize)\n    tag_136:\n      pop\n      pop\n      pop\n      pop\n      mload(0x40)\n      returndatasize\n      not(0x1f)\n      0x1f\n      dup3\n      add\n      and\n      dup3\n      add\n      dup1\n      0x40\n      mstore\n      pop\n      dup2\n      add\n      swap1\n      tag_137\n      swap2\n      swap1\n      tag_67\n      jump\t// in\n    tag_137:\n        /* \"AgentTipEscrow.sol\":1863:1970  require(... */\n      tag_138\n      jumpi\n      mload(0x40)\n      0x08c379a000000000000000000000000000000000000000000000000000000000\n      dup2\n      mstore\n      0x04\n      add\n      tag_139\n      swap1\n      tag_140\n      jump\t// in\n    tag_139:\n      mload(0x40)\n      dup1\n      swap2\n      sub\n      swap1\n      revert\n    tag_138:\n        /* \"AgentTipEscrow.sol\":2015:2022  creator */\n      dup8\n        /* \"AgentTipEscrow.sol\":1986:2053  PaymentProcessed(msg.sender, creator, amount, paymentType, context) */\n      0xffffffffffffffffffffffffffffffffffffffff\n      and\n        /* \"AgentTipEscrow.sol\":2003:2013  msg.sender */\n      caller\n        /* \"AgentTipEscrow.sol\":1986:2053  PaymentProcessed(msg.sender, creator, amount, paymentType, context) */\n      0xffffffffffffffffffffffffffffffffffffffff\n      and\n      0x38958a3a126a58267c31f8037918bca000084e404c20dccbe64b6d1b5db61263\n        /* \"AgentTipEscrow.sol\":2024:2030  amount */\n      dup10\n        /* \"AgentTipEscrow.sol\":2032:2043  paymentType */\n      dup10\n      dup10\n        /* \"AgentTipEscrow.sol\":2045:2052  context */\n      dup10\n      dup10\n        /* \"AgentTipEscrow.sol\":1986:2053  PaymentProcessed(msg.sender, creator, amount, paymentType, context) */\n      mload(0x40)\n      tag_141\n      swap6\n      swap5\n      swap4\n      swap3\n      swap2\n      swap1\n      tag_142\n      jump\t// in\n    tag_141:\n      mload(0x40)\n      dup1\n      swap2\n      sub\n      swap1\n      log3\n        /* \"AgentTipEscrow.sol\":1357:2060  {... */\n      pop\n      pop\n        /* \"AgentTipEscrow.sol\":1203:2060  function payCreator(... */\n      pop\n      pop\n      pop\n      pop\n      pop\n      pop\n      jump\t// out\n        /* \"AgentTipEscrow.sol\":360:406  uint256 public constant FEE_DENOMINATOR = 1000 */\n    tag_39:\n        /* \"AgentTipEscrow.sol\":402:406  1000 */\n      0x03e8\n        /* \"AgentTipEscrow.sol\":360:406  uint256 public constant FEE_DENOMINATOR = 1000 */\n      dup2\n      jump\t// out\n        /* \"AgentTipEscrow.sol\":412:444  uint256 public feeNumerator = 15 */\n    tag_43:\n      sload(0x02)\n      dup2\n      jump\t// out\n        /* \"@openzeppelin/contracts/access/Ownable.sol\":2543:2758   */\n    tag_48:\n        /* \"@openzeppelin/contracts/access/Ownable.sol\":1531:1544   */\n      tag_144\n        /* \"@openzeppelin/contracts/access/Ownable.sol\":1531:1542   */\n      tag_51\n        /* \"@openzeppelin/contracts/access/Ownable.sol\":1531:1544   */\n      jump\t// in\n    tag_144:\n        /* \"@openzeppelin/contracts/access/Ownable.sol\":2647:2648   */\n      0x00\n        /* \"@openzeppelin/contracts/access/Ownable.sol\":2627:2649   */\n      0xffffffffffffffffffffffffffffffffffffffff\n      and\n        /* \"@openzeppelin/contracts/access/Ownable.sol\":2627:2635   */\n      dup2\n        /* \"@openzeppelin/contracts/access/Ownable.sol\":2627:2649   */\n      0xffffffffffffffffffffffffffffffffffffffff\n      and\n      sub\n        /* \"@openzeppelin/contracts/access/Ownable.sol\":2623:2714   */\n      tag_146\n      jumpi\n        /* \"@openzeppelin/contracts/access/Ownable.sol\":2700:2701   */\n      0x00\n        /* \"@openzeppelin/contracts/access/Ownable.sol\":2672:2703   */\n      mload(0x40)\n      0x1e4fbdf700000000000000000000000000000000000000000000000000000000\n      dup2\n      mstore\n      0x04\n      add\n      tag_147\n      swap2\n      swap1\n      tag_29\n      jump\t// in\n    tag_147:\n      mload(0x40)\n      dup1\n      swap2\n      sub\n      swap1\n      revert\n        /* \"@openzeppelin/contracts/access/Ownable.sol\":2623:2714   */\n    tag_146:\n        /* \"@openzeppelin/contracts/access/Ownable.sol\":2723:2751   */\n      tag_148\n        /* \"@openzeppelin/contracts/access/Ownable.sol\":2742:2750   */\n      dup2\n        /* \"@openzeppelin/contracts/access/Ownable.sol\":2723:2741   */\n      tag_104\n        /* \"@openzeppelin/contracts/access/Ownable.sol\":2723:2751   */\n      jump\t// in\n    tag_148:\n        /* \"@openzeppelin/contracts/access/Ownable.sol\":2543:2758   */\n      pop\n      jump\t// out\n        /* \"@openzeppelin/contracts/access/Ownable.sol\":1796:1958   */\n    tag_51:\n        /* \"@openzeppelin/contracts/access/Ownable.sol\":1866:1878   */\n      tag_150\n        /* \"@openzeppelin/contracts/access/Ownable.sol\":1866:1876   */\n      tag_151\n        /* \"@openzeppelin/contracts/access/Ownable.sol\":1866:1878   */\n      jump\t// in\n    tag_150:\n        /* \"@openzeppelin/contracts/access/Ownable.sol\":1855:1878   */\n      0xffffffffffffffffffffffffffffffffffffffff\n      and\n        /* \"@openzeppelin/contracts/access/Ownable.sol\":1855:1862   */\n      tag_152\n        /* \"@openzeppelin/contracts/access/Ownable.sol\":1855:1860   */\n      tag_27\n        /* \"@openzeppelin/contracts/access/Ownable.sol\":1855:1862   */\n      jump\t// in\n    tag_152:\n        /* \"@openzeppelin/contracts/access/Ownable.sol\":1855:1878   */\n      0xffffffffffffffffffffffffffffffffffffffff\n      and\n      eq\n        /* \"@openzeppelin/contracts/access/Ownable.sol\":1851:1952   */\n      tag_153\n      jumpi\n        /* \"@openzeppelin/contracts/access/Ownable.sol\":1928:1940   */\n      tag_154\n        /* \"@openzeppelin/contracts/access/Ownable.sol\":1928:1938   */\n      tag_151\n        /* \"@openzeppelin/contracts/access/Ownable.sol\":1928:1940   */\n      jump\t// in\n    tag_154:\n        /* \"@openzeppelin/contracts/access/Ownable.sol\":1901:1941   */\n      mload(0x40)\n      0x118cdaa700000000000000000000000000000000000000000000000000000000\n      dup2\n      mstore\n      0x04\n      add\n      tag_155\n      swap2\n      swap1\n      tag_29\n      jump\t// in\n    tag_155:\n      mload(0x40)\n      dup1\n      swap2\n      sub\n      swap1\n      revert\n        /* \"@openzeppelin/contracts/access/Ownable.sol\":1851:1952   */\n    tag_153:\n        /* \"@openzeppelin/contracts/access/Ownable.sol\":1796:1958   */\n      jump\t// out\n        /* \"@openzeppelin/contracts/access/Ownable.sol\":2912:3099   */\n    tag_104:\n        /* \"@openzeppelin/contracts/access/Ownable.sol\":2985:3001   */\n      0x00\n        /* \"@openzeppelin/contracts/access/Ownable.sol\":3004:3010   */\n      0x00\n      0x00\n      swap1\n      sload\n      swap1\n      0x0100\n      exp\n      swap1\n      div\n      0xffffffffffffffffffffffffffffffffffffffff\n      and\n        /* \"@openzeppelin/contracts/access/Ownable.sol\":2985:3010   */\n      swap1\n      pop\n        /* \"@openzeppelin/contracts/access/Ownable.sol\":3029:3037   */\n      dup2\n        /* \"@openzeppelin/contracts/access/Ownable.sol\":3020:3026   */\n      0x00\n      0x00\n        /* \"@openzeppelin/contracts/access/Ownable.sol\":3020:3037   */\n      0x0100\n      exp\n      dup2\n      sload\n      dup2\n      0xffffffffffffffffffffffffffffffffffffffff\n      mul\n      not\n      and\n      swap1\n      dup4\n      0xffffffffffffffffffffffffffffffffffffffff\n      and\n      mul\n      or\n      swap1\n      sstore\n      pop\n        /* \"@openzeppelin/contracts/access/Ownable.sol\":3083:3091   */\n      dup2\n        /* \"@openzeppelin/contracts/access/Ownable.sol\":3052:3092   */\n      0xffffffffffffffffffffffffffffffffffffffff\n      and\n        /* \"@openzeppelin/contracts/access/Ownable.sol\":3073:3081   */\n      dup2\n        /* \"@openzeppelin/contracts/access/Ownable.sol\":3052:3092   */\n      0xffffffffffffffffffffffffffffffffffffffff\n      and\n      0x8be0079c531659141344cd1fd0a4f28419497f9722a3daafe3b4186f6b6457e0\n      mload(0x40)\n      mload(0x40)\n      dup1\n      swap2\n      sub\n      swap1\n      log3\n        /* \"@openzeppelin/contracts/access/Ownable.sol\":2975:3099   */\n      pop\n        /* \"@openzeppelin/contracts/access/Ownable.sol\":2912:3099   */\n      pop\n      jump\t// out\n        /* \"@openzeppelin/contracts/utils/Context.sol\":656:752   */\n    tag_151:\n        /* \"@openzeppelin/contracts/utils/Context.sol\":709:716   */\n      0x00\n        /* \"@openzeppelin/contracts/utils/Context.sol\":735:745   */\n      caller\n        /* \"@openzeppelin/contracts/utils/Context.sol\":728:745   */\n      swap1\n      pop\n        /* \"@openzeppelin/contracts/utils/Context.sol\":656:752   */\n      swap1\n      jump\t// out\n        /* \"#utility.yul\":7:133   */\n    tag_158:\n        /* \"#utility.yul\":44:51   */\n      0x00\n        /* \"#utility.yul\":84:126   */\n      0xffffffffffffffffffffffffffffffffffffffff\n        /* \"#utility.yul\":77:82   */\n      dup3\n        /* \"#utility.yul\":73:127   */\n      and\n        /* \"#utility.yul\":62:127   */\n      swap1\n      pop\n        /* \"#utility.yul\":7:133   */\n      swap2\n      swap1\n      pop\n      jump\t// out\n        /* \"#utility.yul\":139:199   */\n    tag_159:\n        /* \"#utility.yul\":167:170   */\n      0x00\n        /* \"#utility.yul\":188:193   */\n      dup2\n        /* \"#utility.yul\":181:193   */\n      swap1\n      pop\n        /* \"#utility.yul\":139:199   */\n      swap2\n      swap1\n      pop\n      jump\t// out\n        /* \"#utility.yul\":205:347   */\n    tag_160:\n        /* \"#utility.yul\":255:264   */\n      0x00\n        /* \"#utility.yul\":288:341   */\n      tag_215\n        /* \"#utility.yul\":306:340   */\n      tag_216\n        /* \"#utility.yul\":315:339   */\n      tag_217\n        /* \"#utility.yul\":333:338   */\n      dup5\n        /* \"#utility.yul\":315:339   */\n      tag_158\n      jump\t// in\n    tag_217:\n        /* \"#utility.yul\":306:340   */\n      tag_159\n      jump\t// in\n    tag_216:\n        /* \"#utility.yul\":288:341   */\n      tag_158\n      jump\t// in\n    tag_215:\n        /* \"#utility.yul\":275:341   */\n      swap1\n      pop\n        /* \"#utility.yul\":205:347   */\n      swap2\n      swap1\n      pop\n      jump\t// out\n        /* \"#utility.yul\":353:479   */\n    tag_161:\n        /* \"#utility.yul\":403:412   */\n      0x00\n        /* \"#utility.yul\":436:473   */\n      tag_219\n        /* \"#utility.yul\":467:472   */\n      dup3\n        /* \"#utility.yul\":436:473   */\n      tag_160\n      jump\t// in\n    tag_219:\n        /* \"#utility.yul\":423:473   */\n      swap1\n      pop\n        /* \"#utility.yul\":353:479   */\n      swap2\n      swap1\n      pop\n      jump\t// out\n        /* \"#utility.yul\":485:625   */\n    tag_162:\n        /* \"#utility.yul\":549:558   */\n      0x00\n        /* \"#utility.yul\":582:619   */\n      tag_221\n        /* \"#utility.yul\":613:618   */\n      dup3\n        /* \"#utility.yul\":582:619   */\n      tag_161\n      jump\t// in\n    tag_221:\n        /* \"#utility.yul\":569:619   */\n      swap1\n      pop\n        /* \"#utility.yul\":485:625   */\n      swap2\n      swap1\n      pop\n      jump\t// out\n        /* \"#utility.yul\":631:790   */\n    tag_163:\n        /* \"#utility.yul\":732:783   */\n      tag_223\n        /* \"#utility.yul\":777:782   */\n      dup2\n        /* \"#utility.yul\":732:783   */\n      tag_162\n      jump\t// in\n    tag_223:\n        /* \"#utility.yul\":727:730   */\n      dup3\n        /* \"#utility.yul\":720:784   */\n      mstore\n        /* \"#utility.yul\":631:790   */\n      pop\n      pop\n      jump\t// out\n        /* \"#utility.yul\":796:1046   */\n    tag_17:\n        /* \"#utility.yul\":903:907   */\n      0x00\n        /* \"#utility.yul\":941:943   */\n      0x20\n        /* \"#utility.yul\":930:939   */\n      dup3\n        /* \"#utility.yul\":926:944   */\n      add\n        /* \"#utility.yul\":918:944   */\n      swap1\n      pop\n        /* \"#utility.yul\":954:1039   */\n      tag_225\n        /* \"#utility.yul\":1036:1037   */\n      0x00\n        /* \"#utility.yul\":1025:1034   */\n      dup4\n        /* \"#utility.yul\":1021:1038   */\n      add\n        /* \"#utility.yul\":1012:1018   */\n      dup5\n        /* \"#utility.yul\":954:1039   */\n      tag_163\n      jump\t// in\n    tag_225:\n        /* \"#utility.yul\":796:1046   */\n      swap3\n      swap2\n      pop\n      pop\n      jump\t// out\n        /* \"#utility.yul\":1133:1250   */\n    tag_165:\n        /* \"#utility.yul\":1242:1243   */\n      0x00\n        /* \"#utility.yul\":1239:1240   */\n      0x00\n        /* \"#utility.yul\":1232:1244   */\n      revert\n        /* \"#utility.yul\":1256:1373   */\n    tag_166:\n        /* \"#utility.yul\":1365:1366   */\n      0x00\n        /* \"#utility.yul\":1362:1363   */\n      0x00\n        /* \"#utility.yul\":1355:1367   */\n      revert\n        /* \"#utility.yul\":1379:1496   */\n    tag_167:\n        /* \"#utility.yul\":1488:1489   */\n      0x00\n        /* \"#utility.yul\":1485:1486   */\n      0x00\n        /* \"#utility.yul\":1478:1490   */\n      revert\n        /* \"#utility.yul\":1502:1619   */\n    tag_168:\n        /* \"#utility.yul\":1611:1612   */\n      0x00\n        /* \"#utility.yul\":1608:1609   */\n      0x00\n        /* \"#utility.yul\":1601:1613   */\n      revert\n        /* \"#utility.yul\":1625:1742   */\n    tag_169:\n        /* \"#utility.yul\":1734:1735   */\n      0x00\n        /* \"#utility.yul\":1731:1732   */\n      0x00\n        /* \"#utility.yul\":1724:1736   */\n      revert\n        /* \"#utility.yul\":1765:2333   */\n    tag_170:\n        /* \"#utility.yul\":1838:1846   */\n      0x00\n        /* \"#utility.yul\":1848:1854   */\n      0x00\n        /* \"#utility.yul\":1898:1901   */\n      dup4\n        /* \"#utility.yul\":1891:1895   */\n      0x1f\n        /* \"#utility.yul\":1883:1889   */\n      dup5\n        /* \"#utility.yul\":1879:1896   */\n      add\n        /* \"#utility.yul\":1875:1902   */\n      slt\n        /* \"#utility.yul\":1865:1987   */\n      tag_233\n      jumpi\n        /* \"#utility.yul\":1906:1985   */\n      tag_234\n      tag_167\n      jump\t// in\n    tag_234:\n        /* \"#utility.yul\":1865:1987   */\n    tag_233:\n        /* \"#utility.yul\":2019:2025   */\n      dup3\n        /* \"#utility.yul\":2006:2026   */\n      calldataload\n        /* \"#utility.yul\":1996:2026   */\n      swap1\n      pop\n        /* \"#utility.yul\":2049:2067   */\n      0xffffffffffffffff\n        /* \"#utility.yul\":2041:2047   */\n      dup2\n        /* \"#utility.yul\":2038:2068   */\n      gt\n        /* \"#utility.yul\":2035:2152   */\n      iszero\n      tag_235\n      jumpi\n        /* \"#utility.yul\":2071:2150   */\n      tag_236\n      tag_168\n      jump\t// in\n    tag_236:\n        /* \"#utility.yul\":2035:2152   */\n    tag_235:\n        /* \"#utility.yul\":2185:2189   */\n      0x20\n        /* \"#utility.yul\":2177:2183   */\n      dup4\n        /* \"#utility.yul\":2173:2190   */\n      add\n        /* \"#utility.yul\":2161:2190   */\n      swap2\n      pop\n        /* \"#utility.yul\":2239:2242   */\n      dup4\n        /* \"#utility.yul\":2231:2235   */\n      0x20\n        /* \"#utility.yul\":2223:2229   */\n      dup3\n        /* \"#utility.yul\":2219:2236   */\n      mul\n        /* \"#utility.yul\":2209:2217   */\n      dup4\n        /* \"#utility.yul\":2205:2237   */\n      add\n        /* \"#utility.yul\":2202:2243   */\n      gt\n        /* \"#utility.yul\":2199:2327   */\n      iszero\n      tag_237\n      jumpi\n        /* \"#utility.yul\":2246:2325   */\n      tag_238\n      tag_169\n      jump\t// in\n    tag_238:\n        /* \"#utility.yul\":2199:2327   */\n    tag_237:\n        /* \"#utility.yul\":1765:2333   */\n      swap3\n      pop\n      swap3\n      swap1\n      pop\n      jump\t// out\n        /* \"#utility.yul\":2356:2924   */\n    tag_171:\n        /* \"#utility.yul\":2429:2437   */\n      0x00\n        /* \"#utility.yul\":2439:2445   */\n      0x00\n        /* \"#utility.yul\":2489:2492   */\n      dup4\n        /* \"#utility.yul\":2482:2486   */\n      0x1f\n        /* \"#utility.yul\":2474:2480   */\n      dup5\n        /* \"#utility.yul\":2470:2487   */\n      add\n        /* \"#utility.yul\":2466:2493   */\n      slt\n        /* \"#utility.yul\":2456:2578   */\n      tag_240\n      jumpi\n        /* \"#utility.yul\":2497:2576   */\n      tag_241\n      tag_167\n      jump\t// in\n    tag_241:\n        /* \"#utility.yul\":2456:2578   */\n    tag_240:\n        /* \"#utility.yul\":2610:2616   */\n      dup3\n        /* \"#utility.yul\":2597:2617   */\n      calldataload\n        /* \"#utility.yul\":2587:2617   */\n      swap1\n      pop\n        /* \"#utility.yul\":2640:2658   */\n      0xffffffffffffffff\n        /* \"#utility.yul\":2632:2638   */\n      dup2\n        /* \"#utility.yul\":2629:2659   */\n      gt\n        /* \"#utility.yul\":2626:2743   */\n      iszero\n      tag_242\n      jumpi\n        /* \"#utility.yul\":2662:2741   */\n      tag_243\n      tag_168\n      jump\t// in\n    tag_243:\n        /* \"#utility.yul\":2626:2743   */\n    tag_242:\n        /* \"#utility.yul\":2776:2780   */\n      0x20\n        /* \"#utility.yul\":2768:2774   */\n      dup4\n        /* \"#utility.yul\":2764:2781   */\n      add\n        /* \"#utility.yul\":2752:2781   */\n      swap2\n      pop\n        /* \"#utility.yul\":2830:2833   */\n      dup4\n        /* \"#utility.yul\":2822:2826   */\n      0x20\n        /* \"#utility.yul\":2814:2820   */\n      dup3\n        /* \"#utility.yul\":2810:2827   */\n      mul\n        /* \"#utility.yul\":2800:2808   */\n      dup4\n        /* \"#utility.yul\":2796:2828   */\n      add\n        /* \"#utility.yul\":2793:2834   */\n      gt\n        /* \"#utility.yul\":2790:2918   */\n      iszero\n      tag_244\n      jumpi\n        /* \"#utility.yul\":2837:2916   */\n      tag_245\n      tag_169\n      jump\t// in\n    tag_245:\n        /* \"#utility.yul\":2790:2918   */\n    tag_244:\n        /* \"#utility.yul\":2356:2924   */\n      swap3\n      pop\n      swap3\n      swap1\n      pop\n      jump\t// out\n        /* \"#utility.yul\":2946:3526   */\n    tag_172:\n        /* \"#utility.yul\":3031:3039   */\n      0x00\n        /* \"#utility.yul\":3041:3047   */\n      0x00\n        /* \"#utility.yul\":3091:3094   */\n      dup4\n        /* \"#utility.yul\":3084:3088   */\n      0x1f\n        /* \"#utility.yul\":3076:3082   */\n      dup5\n        /* \"#utility.yul\":3072:3089   */\n      add\n        /* \"#utility.yul\":3068:3095   */\n      slt\n        /* \"#utility.yul\":3058:3180   */\n      tag_247\n      jumpi\n        /* \"#utility.yul\":3099:3178   */\n      tag_248\n      tag_167\n      jump\t// in\n    tag_248:\n        /* \"#utility.yul\":3058:3180   */\n    tag_247:\n        /* \"#utility.yul\":3212:3218   */\n      dup3\n        /* \"#utility.yul\":3199:3219   */\n      calldataload\n        /* \"#utility.yul\":3189:3219   */\n      swap1\n      pop\n        /* \"#utility.yul\":3242:3260   */\n      0xffffffffffffffff\n        /* \"#utility.yul\":3234:3240   */\n      dup2\n        /* \"#utility.yul\":3231:3261   */\n      gt\n        /* \"#utility.yul\":3228:3345   */\n      iszero\n      tag_249\n      jumpi\n        /* \"#utility.yul\":3264:3343   */\n      tag_250\n      tag_168\n      jump\t// in\n    tag_250:\n        /* \"#utility.yul\":3228:3345   */\n    tag_249:\n        /* \"#utility.yul\":3378:3382   */\n      0x20\n        /* \"#utility.yul\":3370:3376   */\n      dup4\n        /* \"#utility.yul\":3366:3383   */\n      add\n        /* \"#utility.yul\":3354:3383   */\n      swap2\n      pop\n        /* \"#utility.yul\":3432:3435   */\n      dup4\n        /* \"#utility.yul\":3424:3428   */\n      0x20\n        /* \"#utility.yul\":3416:3422   */\n      dup3\n        /* \"#utility.yul\":3412:3429   */\n      mul\n        /* \"#utility.yul\":3402:3410   */\n      dup4\n        /* \"#utility.yul\":3398:3430   */\n      add\n        /* \"#utility.yul\":3395:3436   */\n      gt\n        /* \"#utility.yul\":3392:3520   */\n      iszero\n      tag_251\n      jumpi\n        /* \"#utility.yul\":3439:3518   */\n      tag_252\n      tag_169\n      jump\t// in\n    tag_252:\n        /* \"#utility.yul\":3392:3520   */\n    tag_251:\n        /* \"#utility.yul\":2946:3526   */\n      swap3\n      pop\n      swap3\n      swap1\n      pop\n      jump\t// out\n        /* \"#utility.yul\":3532:5265   */\n    tag_22:\n        /* \"#utility.yul\":3750:3756   */\n      0x00\n        /* \"#utility.yul\":3758:3764   */\n      0x00\n        /* \"#utility.yul\":3766:3772   */\n      0x00\n        /* \"#utility.yul\":3774:3780   */\n      0x00\n        /* \"#utility.yul\":3782:3788   */\n      0x00\n        /* \"#utility.yul\":3790:3796   */\n      0x00\n        /* \"#utility.yul\":3798:3804   */\n      0x00\n        /* \"#utility.yul\":3806:3812   */\n      0x00\n        /* \"#utility.yul\":3855:3858   */\n      0x80\n        /* \"#utility.yul\":3843:3852   */\n      dup10\n        /* \"#utility.yul\":3834:3841   */\n      dup12\n        /* \"#utility.yul\":3830:3853   */\n      sub\n        /* \"#utility.yul\":3826:3859   */\n      slt\n        /* \"#utility.yul\":3823:3943   */\n      iszero\n      tag_254\n      jumpi\n        /* \"#utility.yul\":3862:3941   */\n      tag_255\n      tag_165\n      jump\t// in\n    tag_255:\n        /* \"#utility.yul\":3823:3943   */\n    tag_254:\n        /* \"#utility.yul\":4010:4011   */\n      0x00\n        /* \"#utility.yul\":3999:4008   */\n      dup10\n        /* \"#utility.yul\":3995:4012   */\n      add\n        /* \"#utility.yul\":3982:4013   */\n      calldataload\n        /* \"#utility.yul\":4040:4058   */\n      0xffffffffffffffff\n        /* \"#utility.yul\":4032:4038   */\n      dup2\n        /* \"#utility.yul\":4029:4059   */\n      gt\n        /* \"#utility.yul\":4026:4143   */\n      iszero\n      tag_256\n      jumpi\n        /* \"#utility.yul\":4062:4141   */\n      tag_257\n      tag_166\n      jump\t// in\n    tag_257:\n        /* \"#utility.yul\":4026:4143   */\n    tag_256:\n        /* \"#utility.yul\":4175:4255   */\n      tag_258\n        /* \"#utility.yul\":4247:4254   */\n      dup12\n        /* \"#utility.yul\":4238:4244   */\n      dup3\n        /* \"#utility.yul\":4227:4236   */\n      dup13\n        /* \"#utility.yul\":4223:4245   */\n      add\n        /* \"#utility.yul\":4175:4255   */\n      tag_170\n      jump\t// in\n    tag_258:\n        /* \"#utility.yul\":4157:4255   */\n      swap9\n      pop\n      swap9\n      pop\n        /* \"#utility.yul\":3953:4265   */\n      pop\n        /* \"#utility.yul\":4332:4334   */\n      0x20\n        /* \"#utility.yul\":4321:4330   */\n      dup10\n        /* \"#utility.yul\":4317:4335   */\n      add\n        /* \"#utility.yul\":4304:4336   */\n      calldataload\n        /* \"#utility.yul\":4363:4381   */\n      0xffffffffffffffff\n        /* \"#utility.yul\":4355:4361   */\n      dup2\n        /* \"#utility.yul\":4352:4382   */\n      gt\n        /* \"#utility.yul\":4349:4466   */\n      iszero\n      tag_259\n      jumpi\n        /* \"#utility.yul\":4385:4464   */\n      tag_260\n      tag_166\n      jump\t// in\n    tag_260:\n        /* \"#utility.yul\":4349:4466   */\n    tag_259:\n        /* \"#utility.yul\":4498:4578   */\n      tag_261\n        /* \"#utility.yul\":4570:4577   */\n      dup12\n        /* \"#utility.yul\":4561:4567   */\n      dup3\n        /* \"#utility.yul\":4550:4559   */\n      dup13\n        /* \"#utility.yul\":4546:4568   */\n      add\n        /* \"#utility.yul\":4498:4578   */\n      tag_171\n      jump\t// in\n    tag_261:\n        /* \"#utility.yul\":4480:4578   */\n      swap7\n      pop\n      swap7\n      pop\n        /* \"#utility.yul\":4275:4588   */\n      pop\n        /* \"#utility.yul\":4655:4657   */\n      0x40\n        /* \"#utility.yul\":4644:4653   */\n      dup10\n        /* \"#utility.yul\":4640:4658   */\n      add\n        /* \"#utility.yul\":4627:4659   */\n      calldataload\n        /* \"#utility.yul\":4686:4704   */\n      0xffffffffffffffff\n        /* \"#utility.yul\":4678:4684   */\n      dup2\n        /* \"#utility.yul\":4675:4705   */\n      gt\n        /* \"#utility.yul\":4672:4789   */\n      iszero\n      tag_262\n      jumpi\n        /* \"#utility.yul\":4708:4787   */\n      tag_263\n      tag_166\n      jump\t// in\n    tag_263:\n        /* \"#utility.yul\":4672:4789   */\n    tag_262:\n        /* \"#utility.yul\":4821:4913   */\n      tag_264\n        /* \"#utility.yul\":4905:4912   */\n      dup12\n        /* \"#utility.yul\":4896:4902   */\n      dup3\n        /* \"#utility.yul\":4885:4894   */\n      dup13\n        /* \"#utility.yul\":4881:4903   */\n      add\n        /* \"#utility.yul\":4821:4913   */\n      tag_172\n      jump\t// in\n    tag_264:\n        /* \"#utility.yul\":4803:4913   */\n      swap5\n      pop\n      swap5\n      pop\n        /* \"#utility.yul\":4598:4923   */\n      pop\n        /* \"#utility.yul\":4990:4992   */\n      0x60\n        /* \"#utility.yul\":4979:4988   */\n      dup10\n        /* \"#utility.yul\":4975:4993   */\n      add\n        /* \"#utility.yul\":4962:4994   */\n      calldataload\n        /* \"#utility.yul\":5021:5039   */\n      0xffffffffffffffff\n        /* \"#utility.yul\":5013:5019   */\n      dup2\n        /* \"#utility.yul\":5010:5040   */\n      gt\n        /* \"#utility.yul\":5007:5124   */\n      iszero\n      tag_265\n      jumpi\n        /* \"#utility.yul\":5043:5122   */\n      tag_266\n      tag_166\n      jump\t// in\n    tag_266:\n        /* \"#utility.yul\":5007:5124   */\n    tag_265:\n        /* \"#utility.yul\":5156:5248   */\n      tag_267\n        /* \"#utility.yul\":5240:5247   */\n      dup12\n        /* \"#utility.yul\":5231:5237   */\n      dup3\n        /* \"#utility.yul\":5220:5229   */\n      dup13\n        /* \"#utility.yul\":5216:5238   */\n      add\n        /* \"#utility.yul\":5156:5248   */\n      tag_172\n      jump\t// in\n    tag_267:\n        /* \"#utility.yul\":5138:5248   */\n      swap3\n      pop\n      swap3\n      pop\n        /* \"#utility.yul\":4933:5258   */\n      pop\n        /* \"#utility.yul\":3532:5265   */\n      swap3\n      swap6\n      swap9\n      pop\n      swap3\n      swap6\n      swap9\n      swap1\n      swap4\n      swap7\n      pop\n      jump\t// out\n        /* \"#utility.yul\":5271:5367   */\n    tag_173:\n        /* \"#utility.yul\":5308:5315   */\n      0x00\n        /* \"#utility.yul\":5337:5361   */\n      tag_269\n        /* \"#utility.yul\":5355:5360   */\n      dup3\n        /* \"#utility.yul\":5337:5361   */\n      tag_158\n      jump\t// in\n    tag_269:\n        /* \"#utility.yul\":5326:5361   */\n      swap1\n      pop\n        /* \"#utility.yul\":5271:5367   */\n      swap2\n      swap1\n      pop\n      jump\t// out\n        /* \"#utility.yul\":5373:5491   */\n    tag_174:\n        /* \"#utility.yul\":5460:5484   */\n      tag_271\n        /* \"#utility.yul\":5478:5483   */\n      dup2\n        /* \"#utility.yul\":5460:5484   */\n      tag_173\n      jump\t// in\n    tag_271:\n        /* \"#utility.yul\":5455:5458   */\n      dup3\n        /* \"#utility.yul\":5448:5485   */\n      mstore\n        /* \"#utility.yul\":5373:5491   */\n      pop\n      pop\n      jump\t// out\n        /* \"#utility.yul\":5497:5719   */\n    tag_29:\n        /* \"#utility.yul\":5590:5594   */\n      0x00\n        /* \"#utility.yul\":5628:5630   */\n      0x20\n        /* \"#utility.yul\":5617:5626   */\n      dup3\n        /* \"#utility.yul\":5613:5631   */\n      add\n        /* \"#utility.yul\":5605:5631   */\n      swap1\n      pop\n        /* \"#utility.yul\":5641:5712   */\n      tag_273\n        /* \"#utility.yul\":5709:5710   */\n      0x00\n        /* \"#utility.yul\":5698:5707   */\n      dup4\n        /* \"#utility.yul\":5694:5711   */\n      add\n        /* \"#utility.yul\":5685:5691   */\n      dup5\n        /* \"#utility.yul\":5641:5712   */\n      tag_174\n      jump\t// in\n    tag_273:\n        /* \"#utility.yul\":5497:5719   */\n      swap3\n      swap2\n      pop\n      pop\n      jump\t// out\n        /* \"#utility.yul\":5725:5802   */\n    tag_175:\n        /* \"#utility.yul\":5762:5769   */\n      0x00\n        /* \"#utility.yul\":5791:5796   */\n      dup2\n        /* \"#utility.yul\":5780:5796   */\n      swap1\n      pop\n        /* \"#utility.yul\":5725:5802   */\n      swap2\n      swap1\n      pop\n      jump\t// out\n        /* \"#utility.yul\":5808:5930   */\n    tag_176:\n        /* \"#utility.yul\":5881:5905   */\n      tag_276\n        /* \"#utility.yul\":5899:5904   */\n      dup2\n        /* \"#utility.yul\":5881:5905   */\n      tag_175\n      jump\t// in\n    tag_276:\n        /* \"#utility.yul\":5874:5879   */\n      dup2\n        /* \"#utility.yul\":5871:5906   */\n      eq\n        /* \"#utility.yul\":5861:5924   */\n      tag_277\n      jumpi\n        /* \"#utility.yul\":5920:5921   */\n      0x00\n        /* \"#utility.yul\":5917:5918   */\n      0x00\n        /* \"#utility.yul\":5910:5922   */\n      revert\n        /* \"#utility.yul\":5861:5924   */\n    tag_277:\n        /* \"#utility.yul\":5808:5930   */\n      pop\n      jump\t// out\n        /* \"#utility.yul\":5936:6075   */\n    tag_177:\n        /* \"#utility.yul\":5982:5987   */\n      0x00\n        /* \"#utility.yul\":6020:6026   */\n      dup2\n        /* \"#utility.yul\":6007:6027   */\n      calldataload\n        /* \"#utility.yul\":5998:6027   */\n      swap1\n      pop\n        /* \"#utility.yul\":6036:6069   */\n      tag_279\n        /* \"#utility.yul\":6063:6068   */\n      dup2\n        /* \"#utility.yul\":6036:6069   */\n      tag_176\n      jump\t// in\n    tag_279:\n        /* \"#utility.yul\":5936:6075   */\n      swap3\n      swap2\n      pop\n      pop\n      jump\t// out\n        /* \"#utility.yul\":6081:6410   */\n    tag_32:\n        /* \"#utility.yul\":6140:6146   */\n      0x00\n        /* \"#utility.yul\":6189:6191   */\n      0x20\n        /* \"#utility.yul\":6177:6186   */\n      dup3\n        /* \"#utility.yul\":6168:6175   */\n      dup5\n        /* \"#utility.yul\":6164:6187   */\n      sub\n        /* \"#utility.yul\":6160:6192   */\n      slt\n        /* \"#utility.yul\":6157:6276   */\n      iszero\n      tag_281\n      jumpi\n        /* \"#utility.yul\":6195:6274   */\n      tag_282\n      tag_165\n      jump\t// in\n    tag_282:\n        /* \"#utility.yul\":6157:6276   */\n    tag_281:\n        /* \"#utility.yul\":6315:6316   */\n      0x00\n        /* \"#utility.yul\":6340:6393   */\n      tag_283\n        /* \"#utility.yul\":6385:6392   */\n      dup5\n        /* \"#utility.yul\":6376:6382   */\n      dup3\n        /* \"#utility.yul\":6365:6374   */\n      dup6\n        /* \"#utility.yul\":6361:6383   */\n      add\n        /* \"#utility.yul\":6340:6393   */\n      tag_177\n      jump\t// in\n    tag_283:\n        /* \"#utility.yul\":6330:6393   */\n      swap2\n      pop\n        /* \"#utility.yul\":6286:6403   */\n      pop\n        /* \"#utility.yul\":6081:6410   */\n      swap3\n      swap2\n      pop\n      pop\n      jump\t// out\n        /* \"#utility.yul\":6416:6538   */\n    tag_178:\n        /* \"#utility.yul\":6489:6513   */\n      tag_285\n        /* \"#utility.yul\":6507:6512   */\n      dup2\n        /* \"#utility.yul\":6489:6513   */\n      tag_173\n      jump\t// in\n    tag_285:\n        /* \"#utility.yul\":6482:6487   */\n      dup2\n        /* \"#utility.yul\":6479:6514   */\n      eq\n        /* \"#utility.yul\":6469:6532   */\n      tag_286\n      jumpi\n        /* \"#utility.yul\":6528:6529   */\n      0x00\n        /* \"#utility.yul\":6525:6526   */\n      0x00\n        /* \"#utility.yul\":6518:6530   */\n      revert\n        /* \"#utility.yul\":6469:6532   */\n    tag_286:\n        /* \"#utility.yul\":6416:6538   */\n      pop\n      jump\t// out\n        /* \"#utility.yul\":6544:6683   */\n    tag_179:\n        /* \"#utility.yul\":6590:6595   */\n      0x00\n        /* \"#utility.yul\":6628:6634   */\n      dup2\n        /* \"#utility.yul\":6615:6635   */\n      calldataload\n        /* \"#utility.yul\":6606:6635   */\n      swap1\n      pop\n        /* \"#utility.yul\":6644:6677   */\n      tag_288\n        /* \"#utility.yul\":6671:6676   */\n      dup2\n        /* \"#utility.yul\":6644:6677   */\n      tag_178\n      jump\t// in\n    tag_288:\n        /* \"#utility.yul\":6544:6683   */\n      swap3\n      swap2\n      pop\n      pop\n      jump\t// out\n        /* \"#utility.yul\":6703:7256   */\n    tag_180:\n        /* \"#utility.yul\":6761:6769   */\n      0x00\n        /* \"#utility.yul\":6771:6777   */\n      0x00\n        /* \"#utility.yul\":6821:6824   */\n      dup4\n        /* \"#utility.yul\":6814:6818   */\n      0x1f\n        /* \"#utility.yul\":6806:6812   */\n      dup5\n        /* \"#utility.yul\":6802:6819   */\n      add\n        /* \"#utility.yul\":6798:6825   */\n      slt\n        /* \"#utility.yul\":6788:6910   */\n      tag_290\n      jumpi\n        /* \"#utility.yul\":6829:6908   */\n      tag_291\n      tag_167\n      jump\t// in\n    tag_291:\n        /* \"#utility.yul\":6788:6910   */\n    tag_290:\n        /* \"#utility.yul\":6942:6948   */\n      dup3\n        /* \"#utility.yul\":6929:6949   */\n      calldataload\n        /* \"#utility.yul\":6919:6949   */\n      swap1\n      pop\n        /* \"#utility.yul\":6972:6990   */\n      0xffffffffffffffff\n        /* \"#utility.yul\":6964:6970   */\n      dup2\n        /* \"#utility.yul\":6961:6991   */\n      gt\n        /* \"#utility.yul\":6958:7075   */\n      iszero\n      tag_292\n      jumpi\n        /* \"#utility.yul\":6994:7073   */\n      tag_293\n      tag_168\n      jump\t// in\n    tag_293:\n        /* \"#utility.yul\":6958:7075   */\n    tag_292:\n        /* \"#utility.yul\":7108:7112   */\n      0x20\n        /* \"#utility.yul\":7100:7106   */\n      dup4\n        /* \"#utility.yul\":7096:7113   */\n      add\n        /* \"#utility.yul\":7084:7113   */\n      swap2\n      pop\n        /* \"#utility.yul\":7162:7165   */\n      dup4\n        /* \"#utility.yul\":7154:7158   */\n      0x01\n        /* \"#utility.yul\":7146:7152   */\n      dup3\n        /* \"#utility.yul\":7142:7159   */\n      mul\n        /* \"#utility.yul\":7132:7140   */\n      dup4\n        /* \"#utility.yul\":7128:7160   */\n      add\n        /* \"#utility.yul\":7125:7166   */\n      gt\n        /* \"#utility.yul\":7122:7250   */\n      iszero\n      tag_294\n      jumpi\n        /* \"#utility.yul\":7169:7248   */\n      tag_295\n      tag_169\n      jump\t// in\n    tag_295:\n        /* \"#utility.yul\":7122:7250   */\n    tag_294:\n        /* \"#utility.yul\":6703:7256   */\n      swap3\n      pop\n      swap3\n      swap1\n      pop\n      jump\t// out\n        /* \"#utility.yul\":7262:8427   */\n    tag_36:\n        /* \"#utility.yul\":7372:7378   */\n      0x00\n        /* \"#utility.yul\":7380:7386   */\n      0x00\n        /* \"#utility.yul\":7388:7394   */\n      0x00\n        /* \"#utility.yul\":7396:7402   */\n      0x00\n        /* \"#utility.yul\":7404:7410   */\n      0x00\n        /* \"#utility.yul\":7412:7418   */\n      0x00\n        /* \"#utility.yul\":7461:7464   */\n      0x80\n        /* \"#utility.yul\":7449:7458   */\n      dup8\n        /* \"#utility.yul\":7440:7447   */\n      dup10\n        /* \"#utility.yul\":7436:7459   */\n      sub\n        /* \"#utility.yul\":7432:7465   */\n      slt\n        /* \"#utility.yul\":7429:7549   */\n      iszero\n      tag_297\n      jumpi\n        /* \"#utility.yul\":7468:7547   */\n      tag_298\n      tag_165\n      jump\t// in\n    tag_298:\n        /* \"#utility.yul\":7429:7549   */\n    tag_297:\n        /* \"#utility.yul\":7588:7589   */\n      0x00\n        /* \"#utility.yul\":7613:7666   */\n      tag_299\n        /* \"#utility.yul\":7658:7665   */\n      dup10\n        /* \"#utility.yul\":7649:7655   */\n      dup3\n        /* \"#utility.yul\":7638:7647   */\n      dup11\n        /* \"#utility.yul\":7634:7656   */\n      add\n        /* \"#utility.yul\":7613:7666   */\n      tag_179\n      jump\t// in\n    tag_299:\n        /* \"#utility.yul\":7603:7666   */\n      swap7\n      pop\n        /* \"#utility.yul\":7559:7676   */\n      pop\n        /* \"#utility.yul\":7715:7717   */\n      0x20\n        /* \"#utility.yul\":7741:7794   */\n      tag_300\n        /* \"#utility.yul\":7786:7793   */\n      dup10\n        /* \"#utility.yul\":7777:7783   */\n      dup3\n        /* \"#utility.yul\":7766:7775   */\n      dup11\n        /* \"#utility.yul\":7762:7784   */\n      add\n        /* \"#utility.yul\":7741:7794   */\n      tag_177\n      jump\t// in\n    tag_300:\n        /* \"#utility.yul\":7731:7794   */\n      swap6\n      pop\n        /* \"#utility.yul\":7686:7804   */\n      pop\n        /* \"#utility.yul\":7871:7873   */\n      0x40\n        /* \"#utility.yul\":7860:7869   */\n      dup8\n        /* \"#utility.yul\":7856:7874   */\n      add\n        /* \"#utility.yul\":7843:7875   */\n      calldataload\n        /* \"#utility.yul\":7902:7920   */\n      0xffffffffffffffff\n        /* \"#utility.yul\":7894:7900   */\n      dup2\n        /* \"#utility.yul\":7891:7921   */\n      gt\n        /* \"#utility.yul\":7888:8005   */\n      iszero\n      tag_301\n      jumpi\n        /* \"#utility.yul\":7924:8003   */\n      tag_302\n      tag_166\n      jump\t// in\n    tag_302:\n        /* \"#utility.yul\":7888:8005   */\n    tag_301:\n        /* \"#utility.yul\":8037:8102   */\n      tag_303\n        /* \"#utility.yul\":8094:8101   */\n      dup10\n        /* \"#utility.yul\":8085:8091   */\n      dup3\n        /* \"#utility.yul\":8074:8083   */\n      dup11\n        /* \"#utility.yul\":8070:8092   */\n      add\n        /* \"#utility.yul\":8037:8102   */\n      tag_180\n      jump\t// in\n    tag_303:\n        /* \"#utility.yul\":8019:8102   */\n      swap5\n      pop\n      swap5\n      pop\n        /* \"#utility.yul\":7814:8112   */\n      pop\n        /* \"#utility.yul\":8179:8181   */\n      0x60\n        /* \"#utility.yul\":8168:8177   */\n      dup8\n        /* \"#utility.yul\":8164:8182   */\n      add\n        /* \"#utility.yul\":8151:8183   */\n      calldataload\n        /* \"#utility.yul\":8210:8228   */\n      0xffffffffffffffff\n        /* \"#utility.yul\":8202:8208   */\n      dup2\n        /* \"#utility.yul\":8199:8229   */\n      gt\n        /* \"#utility.yul\":8196:8313   */\n      iszero\n      tag_304\n      jumpi\n        /* \"#utility.yul\":8232:8311   */\n      tag_305\n      tag_166\n      jump\t// in\n    tag_305:\n        /* \"#utility.yul\":8196:8313   */\n    tag_304:\n        /* \"#utility.yul\":8345:8410   */\n      tag_306\n        /* \"#utility.yul\":8402:8409   */\n      dup10\n        /* \"#utility.yul\":8393:8399   */\n      dup3\n        /* \"#utility.yul\":8382:8391   */\n      dup11\n        /* \"#utility.yul\":8378:8400   */\n      add\n        /* \"#utility.yul\":8345:8410   */\n      tag_180\n      jump\t// in\n    tag_306:\n        /* \"#utility.yul\":8327:8410   */\n      swap3\n      pop\n      swap3\n      pop\n        /* \"#utility.yul\":8122:8420   */\n      pop\n        /* \"#utility.yul\":7262:8427   */\n      swap3\n      swap6\n      pop\n      swap3\n      swap6\n      pop\n      swap3\n      swap6\n      jump\t// out\n        /* \"#utility.yul\":8433:8551   */\n    tag_181:\n        /* \"#utility.yul\":8520:8544   */\n      tag_308\n        /* \"#utility.yul\":8538:8543   */\n      dup2\n        /* \"#utility.yul\":8520:8544   */\n      tag_175\n      jump\t// in\n    tag_308:\n        /* \"#utility.yul\":8515:8518   */\n      dup3\n        /* \"#utility.yul\":8508:8545   */\n      mstore\n        /* \"#utility.yul\":8433:8551   */\n      pop\n      pop\n      jump\t// out\n        /* \"#utility.yul\":8557:8779   */\n    tag_41:\n        /* \"#utility.yul\":8650:8654   */\n      0x00\n        /* \"#utility.yul\":8688:8690   */\n      0x20\n        /* \"#utility.yul\":8677:8686   */\n      dup3\n        /* \"#utility.yul\":8673:8691   */\n      add\n        /* \"#utility.yul\":8665:8691   */\n      swap1\n      pop\n        /* \"#utility.yul\":8701:8772   */\n      tag_310\n        /* \"#utility.yul\":8769:8770   */\n      0x00\n        /* \"#utility.yul\":8758:8767   */\n      dup4\n        /* \"#utility.yul\":8754:8771   */\n      add\n        /* \"#utility.yul\":8745:8751   */\n      dup5\n        /* \"#utility.yul\":8701:8772   */\n      tag_181\n      jump\t// in\n    tag_310:\n        /* \"#utility.yul\":8557:8779   */\n      swap3\n      swap2\n      pop\n      pop\n      jump\t// out\n        /* \"#utility.yul\":8785:9114   */\n    tag_47:\n        /* \"#utility.yul\":8844:8850   */\n      0x00\n        /* \"#utility.yul\":8893:8895   */\n      0x20\n        /* \"#utility.yul\":8881:8890   */\n      dup3\n        /* \"#utility.yul\":8872:8879   */\n      dup5\n        /* \"#utility.yul\":8868:8891   */\n      sub\n        /* \"#utility.yul\":8864:8896   */\n      slt\n        /* \"#utility.yul\":8861:8980   */\n      iszero\n      tag_312\n      jumpi\n        /* \"#utility.yul\":8899:8978   */\n      tag_313\n      tag_165\n      jump\t// in\n    tag_313:\n        /* \"#utility.yul\":8861:8980   */\n    tag_312:\n        /* \"#utility.yul\":9019:9020   */\n      0x00\n        /* \"#utility.yul\":9044:9097   */\n      tag_314\n        /* \"#utility.yul\":9089:9096   */\n      dup5\n        /* \"#utility.yul\":9080:9086   */\n      dup3\n        /* \"#utility.yul\":9069:9078   */\n      dup6\n        /* \"#utility.yul\":9065:9087   */\n      add\n        /* \"#utility.yul\":9044:9097   */\n      tag_179\n      jump\t// in\n    tag_314:\n        /* \"#utility.yul\":9034:9097   */\n      swap2\n      pop\n        /* \"#utility.yul\":8990:9107   */\n      pop\n        /* \"#utility.yul\":8785:9114   */\n      swap3\n      swap2\n      pop\n      pop\n      jump\t// out\n        /* \"#utility.yul\":9120:9263   */\n    tag_182:\n        /* \"#utility.yul\":9177:9182   */\n      0x00\n        /* \"#utility.yul\":9208:9214   */\n      dup2\n        /* \"#utility.yul\":9202:9215   */\n      mload\n        /* \"#utility.yul\":9193:9215   */\n      swap1\n      pop\n        /* \"#utility.yul\":9224:9257   */\n      tag_316\n        /* \"#utility.yul\":9251:9256   */\n      dup2\n        /* \"#utility.yul\":9224:9257   */\n      tag_176\n      jump\t// in\n    tag_316:\n        /* \"#utility.yul\":9120:9263   */\n      swap3\n      swap2\n      pop\n      pop\n      jump\t// out\n        /* \"#utility.yul\":9269:9620   */\n    tag_57:\n        /* \"#utility.yul\":9339:9345   */\n      0x00\n        /* \"#utility.yul\":9388:9390   */\n      0x20\n        /* \"#utility.yul\":9376:9385   */\n      dup3\n        /* \"#utility.yul\":9367:9374   */\n      dup5\n        /* \"#utility.yul\":9363:9386   */\n      sub\n        /* \"#utility.yul\":9359:9391   */\n      slt\n        /* \"#utility.yul\":9356:9475   */\n      iszero\n      tag_318\n      jumpi\n        /* \"#utility.yul\":9394:9473   */\n      tag_319\n      tag_165\n      jump\t// in\n    tag_319:\n        /* \"#utility.yul\":9356:9475   */\n    tag_318:\n        /* \"#utility.yul\":9514:9515   */\n      0x00\n        /* \"#utility.yul\":9539:9603   */\n      tag_320\n        /* \"#utility.yul\":9595:9602   */\n      dup5\n        /* \"#utility.yul\":9586:9592   */\n      dup3\n        /* \"#utility.yul\":9575:9584   */\n      dup6\n        /* \"#utility.yul\":9571:9593   */\n      add\n        /* \"#utility.yul\":9539:9603   */\n      tag_182\n      jump\t// in\n    tag_320:\n        /* \"#utility.yul\":9529:9603   */\n      swap2\n      pop\n        /* \"#utility.yul\":9485:9613   */\n      pop\n        /* \"#utility.yul\":9269:9620   */\n      swap3\n      swap2\n      pop\n      pop\n      jump\t// out\n        /* \"#utility.yul\":9626:9795   */\n    tag_183:\n        /* \"#utility.yul\":9710:9721   */\n      0x00\n        /* \"#utility.yul\":9744:9750   */\n      dup3\n        /* \"#utility.yul\":9739:9742   */\n      dup3\n        /* \"#utility.yul\":9732:9751   */\n      mstore\n        /* \"#utility.yul\":9784:9788   */\n      0x20\n        /* \"#utility.yul\":9779:9782   */\n      dup3\n        /* \"#utility.yul\":9775:9789   */\n      add\n        /* \"#utility.yul\":9760:9789   */\n      swap1\n      pop\n        /* \"#utility.yul\":9626:9795   */\n      swap3\n      swap2\n      pop\n      pop\n      jump\t// out\n        /* \"#utility.yul\":9801:9970   */\n    tag_184:\n        /* \"#utility.yul\":9941:9962   */\n      0x4e6f206665657320746f20776974686472617700000000000000000000000000\n        /* \"#utility.yul\":9937:9938   */\n      0x00\n        /* \"#utility.yul\":9929:9935   */\n      dup3\n        /* \"#utility.yul\":9925:9939   */\n      add\n        /* \"#utility.yul\":9918:9963   */\n      mstore\n        /* \"#utility.yul\":9801:9970   */\n      pop\n      jump\t// out\n        /* \"#utility.yul\":9976:10342   */\n    tag_185:\n        /* \"#utility.yul\":10118:10121   */\n      0x00\n        /* \"#utility.yul\":10139:10206   */\n      tag_324\n        /* \"#utility.yul\":10203:10205   */\n      0x13\n        /* \"#utility.yul\":10198:10201   */\n      dup4\n        /* \"#utility.yul\":10139:10206   */\n      tag_183\n      jump\t// in\n    tag_324:\n        /* \"#utility.yul\":10132:10206   */\n      swap2\n      pop\n        /* \"#utility.yul\":10215:10308   */\n      tag_325\n        /* \"#utility.yul\":10304:10307   */\n      dup3\n        /* \"#utility.yul\":10215:10308   */\n      tag_184\n      jump\t// in\n    tag_325:\n        /* \"#utility.yul\":10333:10335   */\n      0x20\n        /* \"#utility.yul\":10328:10331   */\n      dup3\n        /* \"#utility.yul\":10324:10336   */\n      add\n        /* \"#utility.yul\":10317:10336   */\n      swap1\n      pop\n        /* \"#utility.yul\":9976:10342   */\n      swap2\n      swap1\n      pop\n      jump\t// out\n        /* \"#utility.yul\":10348:10767   */\n    tag_60:\n        /* \"#utility.yul\":10514:10518   */\n      0x00\n        /* \"#utility.yul\":10552:10554   */\n      0x20\n        /* \"#utility.yul\":10541:10550   */\n      dup3\n        /* \"#utility.yul\":10537:10555   */\n      add\n        /* \"#utility.yul\":10529:10555   */\n      swap1\n      pop\n        /* \"#utility.yul\":10601:10610   */\n      dup2\n        /* \"#utility.yul\":10595:10599   */\n      dup2\n        /* \"#utility.yul\":10591:10611   */\n      sub\n        /* \"#utility.yul\":10587:10588   */\n      0x00\n        /* \"#utility.yul\":10576:10585   */\n      dup4\n        /* \"#utility.yul\":10572:10589   */\n      add\n        /* \"#utility.yul\":10565:10612   */\n      mstore\n        /* \"#utility.yul\":10629:10760   */\n      tag_327\n        /* \"#utility.yul\":10755:10759   */\n      dup2\n        /* \"#utility.yul\":10629:10760   */\n      tag_185\n      jump\t// in\n    tag_327:\n        /* \"#utility.yul\":10621:10760   */\n      swap1\n      pop\n        /* \"#utility.yul\":10348:10767   */\n      swap2\n      swap1\n      pop\n      jump\t// out\n        /* \"#utility.yul\":10773:11105   */\n    tag_63:\n        /* \"#utility.yul\":10894:10898   */\n      0x00\n        /* \"#utility.yul\":10932:10934   */\n      0x40\n        /* \"#utility.yul\":10921:10930   */\n      dup3\n        /* \"#utility.yul\":10917:10935   */\n      add\n        /* \"#utility.yul\":10909:10935   */\n      swap1\n      pop\n        /* \"#utility.yul\":10945:11016   */\n      tag_329\n        /* \"#utility.yul\":11013:11014   */\n      0x00\n        /* \"#utility.yul\":11002:11011   */\n      dup4\n        /* \"#utility.yul\":10998:11015   */\n      add\n        /* \"#utility.yul\":10989:10995   */\n      dup6\n        /* \"#utility.yul\":10945:11016   */\n      tag_174\n      jump\t// in\n    tag_329:\n        /* \"#utility.yul\":11026:11098   */\n      tag_330\n        /* \"#utility.yul\":11094:11096   */\n      0x20\n        /* \"#utility.yul\":11083:11092   */\n      dup4\n        /* \"#utility.yul\":11079:11097   */\n      add\n        /* \"#utility.yul\":11070:11076   */\n      dup5\n        /* \"#utility.yul\":11026:11098   */\n      tag_181\n      jump\t// in\n    tag_330:\n        /* \"#utility.yul\":10773:11105   */\n      swap4\n      swap3\n      pop\n      pop\n      pop\n      jump\t// out\n        /* \"#utility.yul\":11111:11201   */\n    tag_186:\n        /* \"#utility.yul\":11145:11152   */\n      0x00\n        /* \"#utility.yul\":11188:11193   */\n      dup2\n        /* \"#utility.yul\":11181:11194   */\n      iszero\n        /* \"#utility.yul\":11174:11195   */\n      iszero\n        /* \"#utility.yul\":11163:11195   */\n      swap1\n      pop\n        /* \"#utility.yul\":11111:11201   */\n      swap2\n      swap1\n      pop\n      jump\t// out\n        /* \"#utility.yul\":11207:11323   */\n    tag_187:\n        /* \"#utility.yul\":11277:11298   */\n      tag_333\n        /* \"#utility.yul\":11292:11297   */\n      dup2\n        /* \"#utility.yul\":11277:11298   */\n      tag_186\n      jump\t// in\n    tag_333:\n        /* \"#utility.yul\":11270:11275   */\n      dup2\n        /* \"#utility.yul\":11267:11299   */\n      eq\n        /* \"#utility.yul\":11257:11317   */\n      tag_334\n      jumpi\n        /* \"#utility.yul\":11313:11314   */\n      0x00\n        /* \"#utility.yul\":11310:11311   */\n      0x00\n        /* \"#utility.yul\":11303:11315   */\n      revert\n        /* \"#utility.yul\":11257:11317   */\n    tag_334:\n        /* \"#utility.yul\":11207:11323   */\n      pop\n      jump\t// out\n        /* \"#utility.yul\":11329:11466   */\n    tag_188:\n        /* \"#utility.yul\":11383:11388   */\n      0x00\n        /* \"#utility.yul\":11414:11420   */\n      dup2\n        /* \"#utility.yul\":11408:11421   */\n      mload\n        /* \"#utility.yul\":11399:11421   */\n      swap1\n      pop\n        /* \"#utility.yul\":11430:11460   */\n      tag_336\n        /* \"#utility.yul\":11454:11459   */\n      dup2\n        /* \"#utility.yul\":11430:11460   */\n      tag_187\n      jump\t// in\n    tag_336:\n        /* \"#utility.yul\":11329:11466   */\n      swap3\n      swap2\n      pop\n      pop\n      jump\t// out\n        /* \"#utility.yul\":11472:11817   */\n    tag_67:\n        /* \"#utility.yul\":11539:11545   */\n      0x00\n        /* \"#utility.yul\":11588:11590   */\n      0x20\n        /* \"#utility.yul\":11576:11585   */\n      dup3\n        /* \"#utility.yul\":11567:11574   */\n      dup5\n        /* \"#utility.yul\":11563:11586   */\n      sub\n        /* \"#utility.yul\":11559:11591   */\n      slt\n        /* \"#utility.yul\":11556:11675   */\n      iszero\n      tag_338\n      jumpi\n        /* \"#utility.yul\":11594:11673   */\n      tag_339\n      tag_165\n      jump\t// in\n    tag_339:\n        /* \"#utility.yul\":11556:11675   */\n    tag_338:\n        /* \"#utility.yul\":11714:11715   */\n      0x00\n        /* \"#utility.yul\":11739:11800   */\n      tag_340\n        /* \"#utility.yul\":11792:11799   */\n      dup5\n        /* \"#utility.yul\":11783:11789   */\n      dup3\n        /* \"#utility.yul\":11772:11781   */\n      dup6\n        /* \"#utility.yul\":11768:11790   */\n      add\n        /* \"#utility.yul\":11739:11800   */\n      tag_188\n      jump\t// in\n    tag_340:\n        /* \"#utility.yul\":11729:11800   */\n      swap2\n      pop\n        /* \"#utility.yul\":11685:11810   */\n      pop\n        /* \"#utility.yul\":11472:11817   */\n      swap3\n      swap2\n      pop\n      pop\n      jump\t// out\n        /* \"#utility.yul\":11823:11990   */\n    tag_189:\n        /* \"#utility.yul\":11963:11982   */\n      0x5769746864726177616c206661696c6564000000000000000000000000000000\n        /* \"#utility.yul\":11959:11960   */\n      0x00\n        /* \"#utility.yul\":11951:11957   */\n      dup3\n        /* \"#utility.yul\":11947:11961   */\n      add\n        /* \"#utility.yul\":11940:11983   */\n      mstore\n        /* \"#utility.yul\":11823:11990   */\n      pop\n      jump\t// out\n        /* \"#utility.yul\":11996:12362   */\n    tag_190:\n        /* \"#utility.yul\":12138:12141   */\n      0x00\n        /* \"#utility.yul\":12159:12226   */\n      tag_343\n        /* \"#utility.yul\":12223:12225   */\n      0x11\n        /* \"#utility.yul\":12218:12221   */\n      dup4\n        /* \"#utility.yul\":12159:12226   */\n      tag_183\n      jump\t// in\n    tag_343:\n        /* \"#utility.yul\":12152:12226   */\n      swap2\n      pop\n        /* \"#utility.yul\":12235:12328   */\n      tag_344\n        /* \"#utility.yul\":12324:12327   */\n      dup3\n        /* \"#utility.yul\":12235:12328   */\n      tag_189\n      jump\t// in\n    tag_344:\n        /* \"#utility.yul\":12353:12355   */\n      0x20\n        /* \"#utility.yul\":12348:12351   */\n      dup3\n        /* \"#utility.yul\":12344:12356   */\n      add\n        /* \"#utility.yul\":12337:12356   */\n      swap1\n      pop\n        /* \"#utility.yul\":11996:12362   */\n      swap2\n      swap1\n      pop\n      jump\t// out\n        /* \"#utility.yul\":12368:12787   */\n    tag_70:\n        /* \"#utility.yul\":12534:12538   */\n      0x00\n        /* \"#utility.yul\":12572:12574   */\n      0x20\n        /* \"#utility.yul\":12561:12570   */\n      dup3\n        /* \"#utility.yul\":12557:12575   */\n      add\n        /* \"#utility.yul\":12549:12575   */\n      swap1\n      pop\n        /* \"#utility.yul\":12621:12630   */\n      dup2\n        /* \"#utility.yul\":12615:12619   */\n      dup2\n        /* \"#utility.yul\":12611:12631   */\n      sub\n        /* \"#utility.yul\":12607:12608   */\n      0x00\n        /* \"#utility.yul\":12596:12605   */\n      dup4\n        /* \"#utility.yul\":12592:12609   */\n      add\n        /* \"#utility.yul\":12585:12632   */\n      mstore\n        /* \"#utility.yul\":12649:12780   */\n      tag_346\n        /* \"#utility.yul\":12775:12779   */\n      dup2\n        /* \"#utility.yul\":12649:12780   */\n      tag_190\n      jump\t// in\n    tag_346:\n        /* \"#utility.yul\":12641:12780   */\n      swap1\n      pop\n        /* \"#utility.yul\":12368:12787   */\n      swap2\n      swap1\n      pop\n      jump\t// out\n        /* \"#utility.yul\":12793:12964   */\n    tag_191:\n        /* \"#utility.yul\":12933:12956   */\n      0x4172726179206c656e677468206d69736d617463680000000000000000000000\n        /* \"#utility.yul\":12929:12930   */\n      0x00\n        /* \"#utility.yul\":12921:12927   */\n      dup3\n        /* \"#utility.yul\":12917:12931   */\n      add\n        /* \"#utility.yul\":12910:12957   */\n      mstore\n        /* \"#utility.yul\":12793:12964   */\n      pop\n      jump\t// out\n        /* \"#utility.yul\":12970:13336   */\n    tag_192:\n        /* \"#utility.yul\":13112:13115   */\n      0x00\n        /* \"#utility.yul\":13133:13200   */\n      tag_349\n        /* \"#utility.yul\":13197:13199   */\n      0x15\n        /* \"#utility.yul\":13192:13195   */\n      dup4\n        /* \"#utility.yul\":13133:13200   */\n      tag_183\n      jump\t// in\n    tag_349:\n        /* \"#utility.yul\":13126:13200   */\n      swap2\n      pop\n        /* \"#utility.yul\":13209:13302   */\n      tag_350\n        /* \"#utility.yul\":13298:13301   */\n      dup3\n        /* \"#utility.yul\":13209:13302   */\n      tag_191\n      jump\t// in\n    tag_350:\n        /* \"#utility.yul\":13327:13329   */\n      0x20\n        /* \"#utility.yul\":13322:13325   */\n      dup3\n        /* \"#utility.yul\":13318:13330   */\n      add\n        /* \"#utility.yul\":13311:13330   */\n      swap1\n      pop\n        /* \"#utility.yul\":12970:13336   */\n      swap2\n      swap1\n      pop\n      jump\t// out\n        /* \"#utility.yul\":13342:13761   */\n    tag_78:\n        /* \"#utility.yul\":13508:13512   */\n      0x00\n        /* \"#utility.yul\":13546:13548   */\n      0x20\n        /* \"#utility.yul\":13535:13544   */\n      dup3\n        /* \"#utility.yul\":13531:13549   */\n      add\n        /* \"#utility.yul\":13523:13549   */\n      swap1\n      pop\n        /* \"#utility.yul\":13595:13604   */\n      dup2\n        /* \"#utility.yul\":13589:13593   */\n      dup2\n        /* \"#utility.yul\":13585:13605   */\n      sub\n        /* \"#utility.yul\":13581:13582   */\n      0x00\n        /* \"#utility.yul\":13570:13579   */\n      dup4\n        /* \"#utility.yul\":13566:13583   */\n      add\n        /* \"#utility.yul\":13559:13606   */\n      mstore\n        /* \"#utility.yul\":13623:13754   */\n      tag_352\n        /* \"#utility.yul\":13749:13753   */\n      dup2\n        /* \"#utility.yul\":13623:13754   */\n      tag_192\n      jump\t// in\n    tag_352:\n        /* \"#utility.yul\":13615:13754   */\n      swap1\n      pop\n        /* \"#utility.yul\":13342:13761   */\n      swap2\n      swap1\n      pop\n      jump\t// out\n        /* \"#utility.yul\":13767:13947   */\n    tag_84:\n        /* \"#utility.yul\":13815:13892   */\n      0x4e487b7100000000000000000000000000000000000000000000000000000000\n        /* \"#utility.yul\":13812:13813   */\n      0x00\n        /* \"#utility.yul\":13805:13893   */\n      mstore\n        /* \"#utility.yul\":13912:13916   */\n      0x32\n        /* \"#utility.yul\":13909:13910   */\n      0x04\n        /* \"#utility.yul\":13902:13917   */\n      mstore\n        /* \"#utility.yul\":13936:13940   */\n      0x24\n        /* \"#utility.yul\":13933:13934   */\n      0x00\n        /* \"#utility.yul\":13926:13941   */\n      revert\n        /* \"#utility.yul\":13953:14070   */\n    tag_193:\n        /* \"#utility.yul\":14062:14063   */\n      0x00\n        /* \"#utility.yul\":14059:14060   */\n      0x00\n        /* \"#utility.yul\":14052:14064   */\n      revert\n        /* \"#utility.yul\":14076:14193   */\n    tag_194:\n        /* \"#utility.yul\":14185:14186   */\n      0x00\n        /* \"#utility.yul\":14182:14183   */\n      0x00\n        /* \"#utility.yul\":14175:14187   */\n      revert\n        /* \"#utility.yul\":14199:14316   */\n    tag_195:\n        /* \"#utility.yul\":14308:14309   */\n      0x00\n        /* \"#utility.yul\":14305:14306   */\n      0x00\n        /* \"#utility.yul\":14298:14310   */\n      revert\n        /* \"#utility.yul\":14322:15047   */\n    tag_91:\n        /* \"#utility.yul\":14400:14404   */\n      0x00\n        /* \"#utility.yul\":14406:14412   */\n      0x00\n        /* \"#utility.yul\":14462:14473   */\n      dup4\n        /* \"#utility.yul\":14449:14474   */\n      calldataload\n        /* \"#utility.yul\":14562:14563   */\n      0x01\n        /* \"#utility.yul\":14556:14560   */\n      0x20\n        /* \"#utility.yul\":14552:14564   */\n      sub\n        /* \"#utility.yul\":14541:14549   */\n      dup5\n        /* \"#utility.yul\":14525:14539   */\n      calldatasize\n        /* \"#utility.yul\":14521:14550   */\n      sub\n        /* \"#utility.yul\":14517:14565   */\n      sub\n        /* \"#utility.yul\":14497:14515   */\n      dup2\n        /* \"#utility.yul\":14493:14566   */\n      slt\n        /* \"#utility.yul\":14483:14651   */\n      tag_358\n      jumpi\n        /* \"#utility.yul\":14570:14649   */\n      tag_359\n      tag_193\n      jump\t// in\n    tag_359:\n        /* \"#utility.yul\":14483:14651   */\n    tag_358:\n        /* \"#utility.yul\":14682:14700   */\n      dup1\n        /* \"#utility.yul\":14672:14680   */\n      dup5\n        /* \"#utility.yul\":14668:14701   */\n      add\n        /* \"#utility.yul\":14660:14701   */\n      swap3\n      pop\n        /* \"#utility.yul\":14734:14738   */\n      dup3\n        /* \"#utility.yul\":14721:14739   */\n      calldataload\n        /* \"#utility.yul\":14711:14739   */\n      swap2\n      pop\n        /* \"#utility.yul\":14762:14780   */\n      0xffffffffffffffff\n        /* \"#utility.yul\":14754:14760   */\n      dup3\n        /* \"#utility.yul\":14751:14781   */\n      gt\n        /* \"#utility.yul\":14748:14865   */\n      iszero\n      tag_360\n      jumpi\n        /* \"#utility.yul\":14784:14863   */\n      tag_361\n      tag_194\n      jump\t// in\n    tag_361:\n        /* \"#utility.yul\":14748:14865   */\n    tag_360:\n        /* \"#utility.yul\":14892:14894   */\n      0x20\n        /* \"#utility.yul\":14886:14890   */\n      dup4\n        /* \"#utility.yul\":14882:14895   */\n      add\n        /* \"#utility.yul\":14874:14895   */\n      swap3\n      pop\n        /* \"#utility.yul\":14949:14953   */\n      0x01\n        /* \"#utility.yul\":14941:14947   */\n      dup3\n        /* \"#utility.yul\":14937:14954   */\n      mul\n        /* \"#utility.yul\":14921:14935   */\n      calldatasize\n        /* \"#utility.yul\":14917:14955   */\n      sub\n        /* \"#utility.yul\":14911:14915   */\n      dup4\n        /* \"#utility.yul\":14907:14956   */\n      sgt\n        /* \"#utility.yul\":14904:15040   */\n      iszero\n      tag_362\n      jumpi\n        /* \"#utility.yul\":14959:15038   */\n      tag_363\n      tag_195\n      jump\t// in\n    tag_363:\n        /* \"#utility.yul\":14904:15040   */\n    tag_362:\n        /* \"#utility.yul\":14413:15047   */\n      pop\n        /* \"#utility.yul\":14322:15047   */\n      swap3\n      pop\n      swap3\n      swap1\n      pop\n      jump\t// out\n        /* \"#utility.yul\":15053:15201   */\n    tag_196:\n        /* \"#utility.yul\":15151:15157   */\n      dup3\n        /* \"#utility.yul\":15146:15149   */\n      dup2\n        /* \"#utility.yul\":15141:15144   */\n      dup4\n        /* \"#utility.yul\":15128:15158   */\n      calldatacopy\n        /* \"#utility.yul\":15192:15193   */\n      0x00\n        /* \"#utility.yul\":15183:15189   */\n      dup4\n        /* \"#utility.yul\":15178:15181   */\n      dup4\n        /* \"#utility.yul\":15174:15190   */\n      add\n        /* \"#utility.yul\":15167:15194   */\n      mstore\n        /* \"#utility.yul\":15053:15201   */\n      pop\n      pop\n      pop\n      jump\t// out\n        /* \"#utility.yul\":15207:15309   */\n    tag_197:\n        /* \"#utility.yul\":15248:15254   */\n      0x00\n        /* \"#utility.yul\":15299:15301   */\n      0x1f\n        /* \"#utility.yul\":15295:15302   */\n      not\n        /* \"#utility.yul\":15290:15292   */\n      0x1f\n        /* \"#utility.yul\":15283:15288   */\n      dup4\n        /* \"#utility.yul\":15279:15293   */\n      add\n        /* \"#utility.yul\":15275:15303   */\n      and\n        /* \"#utility.yul\":15265:15303   */\n      swap1\n      pop\n        /* \"#utility.yul\":15207:15309   */\n      swap2\n      swap1\n      pop\n      jump\t// out\n        /* \"#utility.yul\":15339:15656   */\n    tag_198:\n        /* \"#utility.yul\":15437:15440   */\n      0x00\n        /* \"#utility.yul\":15458:15529   */\n      tag_367\n        /* \"#utility.yul\":15522:15528   */\n      dup4\n        /* \"#utility.yul\":15517:15520   */\n      dup6\n        /* \"#utility.yul\":15458:15529   */\n      tag_183\n      jump\t// in\n    tag_367:\n        /* \"#utility.yul\":15451:15529   */\n      swap4\n      pop\n        /* \"#utility.yul\":15539:15595   */\n      tag_368\n        /* \"#utility.yul\":15588:15594   */\n      dup4\n        /* \"#utility.yul\":15583:15586   */\n      dup6\n        /* \"#utility.yul\":15576:15581   */\n      dup5\n        /* \"#utility.yul\":15539:15595   */\n      tag_196\n      jump\t// in\n    tag_368:\n        /* \"#utility.yul\":15620:15649   */\n      tag_369\n        /* \"#utility.yul\":15642:15648   */\n      dup4\n        /* \"#utility.yul\":15620:15649   */\n      tag_197\n      jump\t// in\n    tag_369:\n        /* \"#utility.yul\":15615:15618   */\n      dup5\n        /* \"#utility.yul\":15611:15650   */\n      add\n        /* \"#utility.yul\":15604:15650   */\n      swap1\n      pop\n        /* \"#utility.yul\":15339:15656   */\n      swap4\n      swap3\n      pop\n      pop\n      pop\n      jump\t// out\n        /* \"#utility.yul\":15662:16437   */\n    tag_96:\n        /* \"#utility.yul\":15899:15903   */\n      0x00\n        /* \"#utility.yul\":15937:15940   */\n      0x80\n        /* \"#utility.yul\":15926:15935   */\n      dup3\n        /* \"#utility.yul\":15922:15941   */\n      add\n        /* \"#utility.yul\":15914:15941   */\n      swap1\n      pop\n        /* \"#utility.yul\":15951:16022   */\n      tag_371\n        /* \"#utility.yul\":16019:16020   */\n      0x00\n        /* \"#utility.yul\":16008:16017   */\n      dup4\n        /* \"#utility.yul\":16004:16021   */\n      add\n        /* \"#utility.yul\":15995:16001   */\n      dup10\n        /* \"#utility.yul\":15951:16022   */\n      tag_174\n      jump\t// in\n    tag_371:\n        /* \"#utility.yul\":16032:16104   */\n      tag_372\n        /* \"#utility.yul\":16100:16102   */\n      0x20\n        /* \"#utility.yul\":16089:16098   */\n      dup4\n        /* \"#utility.yul\":16085:16103   */\n      add\n        /* \"#utility.yul\":16076:16082   */\n      dup9\n        /* \"#utility.yul\":16032:16104   */\n      tag_181\n      jump\t// in\n    tag_372:\n        /* \"#utility.yul\":16151:16160   */\n      dup2\n        /* \"#utility.yul\":16145:16149   */\n      dup2\n        /* \"#utility.yul\":16141:16161   */\n      sub\n        /* \"#utility.yul\":16136:16138   */\n      0x40\n        /* \"#utility.yul\":16125:16134   */\n      dup4\n        /* \"#utility.yul\":16121:16139   */\n      add\n        /* \"#utility.yul\":16114:16162   */\n      mstore\n        /* \"#utility.yul\":16179:16267   */\n      tag_373\n        /* \"#utility.yul\":16262:16266   */\n      dup2\n        /* \"#utility.yul\":16253:16259   */\n      dup7\n        /* \"#utility.yul\":16245:16251   */\n      dup9\n        /* \"#utility.yul\":16179:16267   */\n      tag_198\n      jump\t// in\n    tag_373:\n        /* \"#utility.yul\":16171:16267   */\n      swap1\n      pop\n        /* \"#utility.yul\":16314:16323   */\n      dup2\n        /* \"#utility.yul\":16308:16312   */\n      dup2\n        /* \"#utility.yul\":16304:16324   */\n      sub\n        /* \"#utility.yul\":16299:16301   */\n      0x60\n        /* \"#utility.yul\":16288:16297   */\n      dup4\n        /* \"#utility.yul\":16284:16302   */\n      add\n        /* \"#utility.yul\":16277:16325   */\n      mstore\n        /* \"#utility.yul\":16342:16430   */\n      tag_374\n        /* \"#utility.yul\":16425:16429   */\n      dup2\n        /* \"#utility.yul\":16416:16422   */\n      dup5\n        /* \"#utility.yul\":16408:16414   */\n      dup7\n        /* \"#utility.yul\":16342:16430   */\n      tag_198\n      jump\t// in\n    tag_374:\n        /* \"#utility.yul\":16334:16430   */\n      swap1\n      pop\n        /* \"#utility.yul\":15662:16437   */\n      swap8\n      swap7\n      pop\n      pop\n      pop\n      pop\n      pop\n      pop\n      pop\n      jump\t// out\n        /* \"#utility.yul\":16443:16614   */\n    tag_199:\n        /* \"#utility.yul\":16583:16606   */\n      0x4665652063616e6e6f7420657863656564203130250000000000000000000000\n        /* \"#utility.yul\":16579:16580   */\n      0x00\n        /* \"#utility.yul\":16571:16577   */\n      dup3\n        /* \"#utility.yul\":16567:16581   */\n      add\n        /* \"#utility.yul\":16560:16607   */\n      mstore\n        /* \"#utility.yul\":16443:16614   */\n      pop\n      jump\t// out\n        /* \"#utility.yul\":16620:16986   */\n    tag_200:\n        /* \"#utility.yul\":16762:16765   */\n      0x00\n        /* \"#utility.yul\":16783:16850   */\n      tag_377\n        /* \"#utility.yul\":16847:16849   */\n      0x15\n        /* \"#utility.yul\":16842:16845   */\n      dup4\n        /* \"#utility.yul\":16783:16850   */\n      tag_183\n      jump\t// in\n    tag_377:\n        /* \"#utility.yul\":16776:16850   */\n      swap2\n      pop\n        /* \"#utility.yul\":16859:16952   */\n      tag_378\n        /* \"#utility.yul\":16948:16951   */\n      dup3\n        /* \"#utility.yul\":16859:16952   */\n      tag_199\n      jump\t// in\n    tag_378:\n        /* \"#utility.yul\":16977:16979   */\n      0x20\n        /* \"#utility.yul\":16972:16975   */\n      dup3\n        /* \"#utility.yul\":16968:16980   */\n      add\n        /* \"#utility.yul\":16961:16980   */\n      swap1\n      pop\n        /* \"#utility.yul\":16620:16986   */\n      swap2\n      swap1\n      pop\n      jump\t// out\n        /* \"#utility.yul\":16992:17411   */\n    tag_111:\n        /* \"#utility.yul\":17158:17162   */\n      0x00\n        /* \"#utility.yul\":17196:17198   */\n      0x20\n        /* \"#utility.yul\":17185:17194   */\n      dup3\n        /* \"#utility.yul\":17181:17199   */\n      add\n        /* \"#utility.yul\":17173:17199   */\n      swap1\n      pop\n        /* \"#utility.yul\":17245:17254   */\n      dup2\n        /* \"#utility.yul\":17239:17243   */\n      dup2\n        /* \"#utility.yul\":17235:17255   */\n      sub\n        /* \"#utility.yul\":17231:17232   */\n      0x00\n        /* \"#utility.yul\":17220:17229   */\n      dup4\n        /* \"#utility.yul\":17216:17233   */\n      add\n        /* \"#utility.yul\":17209:17256   */\n      mstore\n        /* \"#utility.yul\":17273:17404   */\n      tag_380\n        /* \"#utility.yul\":17399:17403   */\n      dup2\n        /* \"#utility.yul\":17273:17404   */\n      tag_200\n      jump\t// in\n    tag_380:\n        /* \"#utility.yul\":17265:17404   */\n      swap1\n      pop\n        /* \"#utility.yul\":16992:17411   */\n      swap2\n      swap1\n      pop\n      jump\t// out\n        /* \"#utility.yul\":17417:17596   */\n    tag_201:\n        /* \"#utility.yul\":17557:17588   */\n      0x416d6f756e74206d7573742062652067726561746572207468616e2030000000\n        /* \"#utility.yul\":17553:17554   */\n      0x00\n        /* \"#utility.yul\":17545:17551   */\n      dup3\n        /* \"#utility.yul\":17541:17555   */\n      add\n        /* \"#utility.yul\":17534:17589   */\n      mstore\n        /* \"#utility.yul\":17417:17596   */\n      pop\n      jump\t// out\n        /* \"#utility.yul\":17602:17968   */\n    tag_202:\n        /* \"#utility.yul\":17744:17747   */\n      0x00\n        /* \"#utility.yul\":17765:17832   */\n      tag_383\n        /* \"#utility.yul\":17829:17831   */\n      0x1d\n        /* \"#utility.yul\":17824:17827   */\n      dup4\n        /* \"#utility.yul\":17765:17832   */\n      tag_183\n      jump\t// in\n    tag_383:\n        /* \"#utility.yul\":17758:17832   */\n      swap2\n      pop\n        /* \"#utility.yul\":17841:17934   */\n      tag_384\n        /* \"#utility.yul\":17930:17933   */\n      dup3\n        /* \"#utility.yul\":17841:17934   */\n      tag_201\n      jump\t// in\n    tag_384:\n        /* \"#utility.yul\":17959:17961   */\n      0x20\n        /* \"#utility.yul\":17954:17957   */\n      dup3\n        /* \"#utility.yul\":17950:17962   */\n      add\n        /* \"#utility.yul\":17943:17962   */\n      swap1\n      pop\n        /* \"#utility.yul\":17602:17968   */\n      swap2\n      swap1\n      pop\n      jump\t// out\n        /* \"#utility.yul\":17974:18393   */\n    tag_116:\n        /* \"#utility.yul\":18140:18144   */\n      0x00\n        /* \"#utility.yul\":18178:18180   */\n      0x20\n        /* \"#utility.yul\":18167:18176   */\n      dup3\n        /* \"#utility.yul\":18163:18181   */\n      add\n        /* \"#utility.yul\":18155:18181   */\n      swap1\n      pop\n        /* \"#utility.yul\":18227:18236   */\n      dup2\n        /* \"#utility.yul\":18221:18225   */\n      dup2\n        /* \"#utility.yul\":18217:18237   */\n      sub\n        /* \"#utility.yul\":18213:18214   */\n      0x00\n        /* \"#utility.yul\":18202:18211   */\n      dup4\n        /* \"#utility.yul\":18198:18215   */\n      add\n        /* \"#utility.yul\":18191:18238   */\n      mstore\n        /* \"#utility.yul\":18255:18386   */\n      tag_386\n        /* \"#utility.yul\":18381:18385   */\n      dup2\n        /* \"#utility.yul\":18255:18386   */\n      tag_202\n      jump\t// in\n    tag_386:\n        /* \"#utility.yul\":18247:18386   */\n      swap1\n      pop\n        /* \"#utility.yul\":17974:18393   */\n      swap2\n      swap1\n      pop\n      jump\t// out\n        /* \"#utility.yul\":18399:18572   */\n    tag_203:\n        /* \"#utility.yul\":18539:18564   */\n      0x496e76616c69642063726561746f722061646472657373000000000000000000\n        /* \"#utility.yul\":18535:18536   */\n      0x00\n        /* \"#utility.yul\":18527:18533   */\n      dup3\n        /* \"#utility.yul\":18523:18537   */\n      add\n        /* \"#utility.yul\":18516:18565   */\n      mstore\n        /* \"#utility.yul\":18399:18572   */\n      pop\n      jump\t// out\n        /* \"#utility.yul\":18578:18944   */\n    tag_204:\n        /* \"#utility.yul\":18720:18723   */\n      0x00\n        /* \"#utility.yul\":18741:18808   */\n      tag_389\n        /* \"#utility.yul\":18805:18807   */\n      0x17\n        /* \"#utility.yul\":18800:18803   */\n      dup4\n        /* \"#utility.yul\":18741:18808   */\n      tag_183\n      jump\t// in\n    tag_389:\n        /* \"#utility.yul\":18734:18808   */\n      swap2\n      pop\n        /* \"#utility.yul\":18817:18910   */\n      tag_390\n        /* \"#utility.yul\":18906:18909   */\n      dup3\n        /* \"#utility.yul\":18817:18910   */\n      tag_203\n      jump\t// in\n    tag_390:\n        /* \"#utility.yul\":18935:18937   */\n      0x20\n        /* \"#utility.yul\":18930:18933   */\n      dup3\n        /* \"#utility.yul\":18926:18938   */\n      add\n        /* \"#utility.yul\":18919:18938   */\n      swap1\n      pop\n        /* \"#utility.yul\":18578:18944   */\n      swap2\n      swap1\n      pop\n      jump\t// out\n        /* \"#utility.yul\":18950:19369   */\n    tag_119:\n        /* \"#utility.yul\":19116:19120   */\n      0x00\n        /* \"#utility.yul\":19154:19156   */\n      0x20\n        /* \"#utility.yul\":19143:19152   */\n      dup3\n        /* \"#utility.yul\":19139:19157   */\n      add\n        /* \"#utility.yul\":19131:19157   */\n      swap1\n      pop\n        /* \"#utility.yul\":19203:19212   */\n      dup2\n        /* \"#utility.yul\":19197:19201   */\n      dup2\n        /* \"#utility.yul\":19193:19213   */\n      sub\n        /* \"#utility.yul\":19189:19190   */\n      0x00\n        /* \"#utility.yul\":19178:19187   */\n      dup4\n        /* \"#utility.yul\":19174:19191   */\n      add\n        /* \"#utility.yul\":19167:19214   */\n      mstore\n        /* \"#utility.yul\":19231:19362   */\n      tag_392\n        /* \"#utility.yul\":19357:19361   */\n      dup2\n        /* \"#utility.yul\":19231:19362   */\n      tag_204\n      jump\t// in\n    tag_392:\n        /* \"#utility.yul\":19223:19362   */\n      swap1\n      pop\n        /* \"#utility.yul\":18950:19369   */\n      swap2\n      swap1\n      pop\n      jump\t// out\n        /* \"#utility.yul\":19375:19555   */\n    tag_205:\n        /* \"#utility.yul\":19423:19500   */\n      0x4e487b7100000000000000000000000000000000000000000000000000000000\n        /* \"#utility.yul\":19420:19421   */\n      0x00\n        /* \"#utility.yul\":19413:19501   */\n      mstore\n        /* \"#utility.yul\":19520:19524   */\n      0x11\n        /* \"#utility.yul\":19517:19518   */\n      0x04\n        /* \"#utility.yul\":19510:19525   */\n      mstore\n        /* \"#utility.yul\":19544:19548   */\n      0x24\n        /* \"#utility.yul\":19541:19542   */\n      0x00\n        /* \"#utility.yul\":19534:19549   */\n      revert\n        /* \"#utility.yul\":19561:19971   */\n    tag_121:\n        /* \"#utility.yul\":19601:19608   */\n      0x00\n        /* \"#utility.yul\":19624:19644   */\n      tag_395\n        /* \"#utility.yul\":19642:19643   */\n      dup3\n        /* \"#utility.yul\":19624:19644   */\n      tag_175\n      jump\t// in\n    tag_395:\n        /* \"#utility.yul\":19619:19644   */\n      swap2\n      pop\n        /* \"#utility.yul\":19658:19678   */\n      tag_396\n        /* \"#utility.yul\":19676:19677   */\n      dup4\n        /* \"#utility.yul\":19658:19678   */\n      tag_175\n      jump\t// in\n    tag_396:\n        /* \"#utility.yul\":19653:19678   */\n      swap3\n      pop\n        /* \"#utility.yul\":19713:19714   */\n      dup3\n        /* \"#utility.yul\":19710:19711   */\n      dup3\n        /* \"#utility.yul\":19706:19715   */\n      mul\n        /* \"#utility.yul\":19735:19765   */\n      tag_397\n        /* \"#utility.yul\":19753:19764   */\n      dup2\n        /* \"#utility.yul\":19735:19765   */\n      tag_175\n      jump\t// in\n    tag_397:\n        /* \"#utility.yul\":19724:19765   */\n      swap2\n      pop\n        /* \"#utility.yul\":19914:19915   */\n      dup3\n        /* \"#utility.yul\":19905:19912   */\n      dup3\n        /* \"#utility.yul\":19901:19916   */\n      div\n        /* \"#utility.yul\":19898:19899   */\n      dup5\n        /* \"#utility.yul\":19895:19917   */\n      eq\n        /* \"#utility.yul\":19875:19876   */\n      dup4\n        /* \"#utility.yul\":19868:19877   */\n      iszero\n        /* \"#utility.yul\":19848:19931   */\n      or\n        /* \"#utility.yul\":19825:19964   */\n      tag_398\n      jumpi\n        /* \"#utility.yul\":19944:19962   */\n      tag_399\n      tag_205\n      jump\t// in\n    tag_399:\n        /* \"#utility.yul\":19825:19964   */\n    tag_398:\n        /* \"#utility.yul\":19609:19971   */\n      pop\n        /* \"#utility.yul\":19561:19971   */\n      swap3\n      swap2\n      pop\n      pop\n      jump\t// out\n        /* \"#utility.yul\":19977:20157   */\n    tag_206:\n        /* \"#utility.yul\":20025:20102   */\n      0x4e487b7100000000000000000000000000000000000000000000000000000000\n        /* \"#utility.yul\":20022:20023   */\n      0x00\n        /* \"#utility.yul\":20015:20103   */\n      mstore\n        /* \"#utility.yul\":20122:20126   */\n      0x12\n        /* \"#utility.yul\":20119:20120   */\n      0x04\n        /* \"#utility.yul\":20112:20127   */\n      mstore\n        /* \"#utility.yul\":20146:20150   */\n      0x24\n        /* \"#utility.yul\":20143:20144   */\n      0x00\n        /* \"#utility.yul\":20136:20151   */\n      revert\n        /* \"#utility.yul\":20163:20348   */\n    tag_123:\n        /* \"#utility.yul\":20203:20204   */\n      0x00\n        /* \"#utility.yul\":20220:20240   */\n      tag_402\n        /* \"#utility.yul\":20238:20239   */\n      dup3\n        /* \"#utility.yul\":20220:20240   */\n      tag_175\n      jump\t// in\n    tag_402:\n        /* \"#utility.yul\":20215:20240   */\n      swap2\n      pop\n        /* \"#utility.yul\":20254:20274   */\n      tag_403\n        /* \"#utility.yul\":20272:20273   */\n      dup4\n        /* \"#utility.yul\":20254:20274   */\n      tag_175\n      jump\t// in\n    tag_403:\n        /* \"#utility.yul\":20249:20274   */\n      swap3\n      pop\n        /* \"#utility.yul\":20293:20294   */\n      dup3\n        /* \"#utility.yul\":20283:20318   */\n      tag_404\n      jumpi\n        /* \"#utility.yul\":20298:20316   */\n      tag_405\n      tag_206\n      jump\t// in\n    tag_405:\n        /* \"#utility.yul\":20283:20318   */\n    tag_404:\n        /* \"#utility.yul\":20340:20341   */\n      dup3\n        /* \"#utility.yul\":20337:20338   */\n      dup3\n        /* \"#utility.yul\":20333:20342   */\n      div\n        /* \"#utility.yul\":20328:20342   */\n      swap1\n      pop\n        /* \"#utility.yul\":20163:20348   */\n      swap3\n      swap2\n      pop\n      pop\n      jump\t// out\n        /* \"#utility.yul\":20354:20548   */\n    tag_125:\n        /* \"#utility.yul\":20394:20398   */\n      0x00\n        /* \"#utility.yul\":20414:20434   */\n      tag_407\n        /* \"#utility.yul\":20432:20433   */\n      dup3\n        /* \"#utility.yul\":20414:20434   */\n      tag_175\n      jump\t// in\n    tag_407:\n        /* \"#utility.yul\":20409:20434   */\n      swap2\n      pop\n        /* \"#utility.yul\":20448:20468   */\n      tag_408\n        /* \"#utility.yul\":20466:20467   */\n      dup4\n        /* \"#utility.yul\":20448:20468   */\n      tag_175\n      jump\t// in\n    tag_408:\n        /* \"#utility.yul\":20443:20468   */\n      swap3\n      pop\n        /* \"#utility.yul\":20492:20493   */\n      dup3\n        /* \"#utility.yul\":20489:20490   */\n      dup3\n        /* \"#utility.yul\":20485:20494   */\n      sub\n        /* \"#utility.yul\":20477:20494   */\n      swap1\n      pop\n        /* \"#utility.yul\":20516:20517   */\n      dup2\n        /* \"#utility.yul\":20510:20514   */\n      dup2\n        /* \"#utility.yul\":20507:20518   */\n      gt\n        /* \"#utility.yul\":20504:20541   */\n      iszero\n      tag_409\n      jumpi\n        /* \"#utility.yul\":20521:20539   */\n      tag_410\n      tag_205\n      jump\t// in\n    tag_410:\n        /* \"#utility.yul\":20504:20541   */\n    tag_409:\n        /* \"#utility.yul\":20354:20548   */\n      swap3\n      swap2\n      pop\n      pop\n      jump\t// out\n        /* \"#utility.yul\":20554:20996   */\n    tag_127:\n        /* \"#utility.yul\":20703:20707   */\n      0x00\n        /* \"#utility.yul\":20741:20743   */\n      0x60\n        /* \"#utility.yul\":20730:20739   */\n      dup3\n        /* \"#utility.yul\":20726:20744   */\n      add\n        /* \"#utility.yul\":20718:20744   */\n      swap1\n      pop\n        /* \"#utility.yul\":20754:20825   */\n      tag_412\n        /* \"#utility.yul\":20822:20823   */\n      0x00\n        /* \"#utility.yul\":20811:20820   */\n      dup4\n        /* \"#utility.yul\":20807:20824   */\n      add\n        /* \"#utility.yul\":20798:20804   */\n      dup7\n        /* \"#utility.yul\":20754:20825   */\n      tag_174\n      jump\t// in\n    tag_412:\n        /* \"#utility.yul\":20835:20907   */\n      tag_413\n        /* \"#utility.yul\":20903:20905   */\n      0x20\n        /* \"#utility.yul\":20892:20901   */\n      dup4\n        /* \"#utility.yul\":20888:20906   */\n      add\n        /* \"#utility.yul\":20879:20885   */\n      dup6\n        /* \"#utility.yul\":20835:20907   */\n      tag_174\n      jump\t// in\n    tag_413:\n        /* \"#utility.yul\":20917:20989   */\n      tag_414\n        /* \"#utility.yul\":20985:20987   */\n      0x40\n        /* \"#utility.yul\":20974:20983   */\n      dup4\n        /* \"#utility.yul\":20970:20988   */\n      add\n        /* \"#utility.yul\":20961:20967   */\n      dup5\n        /* \"#utility.yul\":20917:20989   */\n      tag_181\n      jump\t// in\n    tag_414:\n        /* \"#utility.yul\":20554:20996   */\n      swap5\n      swap4\n      pop\n      pop\n      pop\n      pop\n      jump\t// out\n        /* \"#utility.yul\":21002:21167   */\n    tag_207:\n        /* \"#utility.yul\":21142:21159   */\n      0x5472616e73666572206661696c65640000000000000000000000000000000000\n        /* \"#utility.yul\":21138:21139   */\n      0x00\n        /* \"#utility.yul\":21130:21136   */\n      dup3\n        /* \"#utility.yul\":21126:21140   */\n      add\n        /* \"#utility.yul\":21119:21160   */\n      mstore\n        /* \"#utility.yul\":21002:21167   */\n      pop\n      jump\t// out\n        /* \"#utility.yul\":21173:21539   */\n    tag_208:\n        /* \"#utility.yul\":21315:21318   */\n      0x00\n        /* \"#utility.yul\":21336:21403   */\n      tag_417\n        /* \"#utility.yul\":21400:21402   */\n      0x0f\n        /* \"#utility.yul\":21395:21398   */\n      dup4\n        /* \"#utility.yul\":21336:21403   */\n      tag_183\n      jump\t// in\n    tag_417:\n        /* \"#utility.yul\":21329:21403   */\n      swap2\n      pop\n        /* \"#utility.yul\":21412:21505   */\n      tag_418\n        /* \"#utility.yul\":21501:21504   */\n      dup3\n        /* \"#utility.yul\":21412:21505   */\n      tag_207\n      jump\t// in\n    tag_418:\n        /* \"#utility.yul\":21530:21532   */\n      0x20\n        /* \"#utility.yul\":21525:21528   */\n      dup3\n        /* \"#utility.yul\":21521:21533   */\n      add\n        /* \"#utility.yul\":21514:21533   */\n      swap1\n      pop\n        /* \"#utility.yul\":21173:21539   */\n      swap2\n      swap1\n      pop\n      jump\t// out\n        /* \"#utility.yul\":21545:21964   */\n    tag_133:\n        /* \"#utility.yul\":21711:21715   */\n      0x00\n        /* \"#utility.yul\":21749:21751   */\n      0x20\n        /* \"#utility.yul\":21738:21747   */\n      dup3\n        /* \"#utility.yul\":21734:21752   */\n      add\n        /* \"#utility.yul\":21726:21752   */\n      swap1\n      pop\n        /* \"#utility.yul\":21798:21807   */\n      dup2\n        /* \"#utility.yul\":21792:21796   */\n      dup2\n        /* \"#utility.yul\":21788:21808   */\n      sub\n        /* \"#utility.yul\":21784:21785   */\n      0x00\n        /* \"#utility.yul\":21773:21782   */\n      dup4\n        /* \"#utility.yul\":21769:21786   */\n      add\n        /* \"#utility.yul\":21762:21809   */\n      mstore\n        /* \"#utility.yul\":21826:21957   */\n      tag_420\n        /* \"#utility.yul\":21952:21956   */\n      dup2\n        /* \"#utility.yul\":21826:21957   */\n      tag_208\n      jump\t// in\n    tag_420:\n        /* \"#utility.yul\":21818:21957   */\n      swap1\n      pop\n        /* \"#utility.yul\":21545:21964   */\n      swap2\n      swap1\n      pop\n      jump\t// out\n        /* \"#utility.yul\":21970:22143   */\n    tag_209:\n        /* \"#utility.yul\":22110:22135   */\n      0x43726561746f72207472616e73666572206661696c6564000000000000000000\n        /* \"#utility.yul\":22106:22107   */\n      0x00\n        /* \"#utility.yul\":22098:22104   */\n      dup3\n        /* \"#utility.yul\":22094:22108   */\n      add\n        /* \"#utility.yul\":22087:22136   */\n      mstore\n        /* \"#utility.yul\":21970:22143   */\n      pop\n      jump\t// out\n        /* \"#utility.yul\":22149:22515   */\n    tag_210:\n        /* \"#utility.yul\":22291:22294   */\n      0x00\n        /* \"#utility.yul\":22312:22379   */\n      tag_423\n        /* \"#utility.yul\":22376:22378   */\n      0x17\n        /* \"#utility.yul\":22371:22374   */\n      dup4\n        /* \"#utility.yul\":22312:22379   */\n      tag_183\n      jump\t// in\n    tag_423:\n        /* \"#utility.yul\":22305:22379   */\n      swap2\n      pop\n        /* \"#utility.yul\":22388:22481   */\n      tag_424\n        /* \"#utility.yul\":22477:22480   */\n      dup3\n        /* \"#utility.yul\":22388:22481   */\n      tag_209\n      jump\t// in\n    tag_424:\n        /* \"#utility.yul\":22506:22508   */\n      0x20\n        /* \"#utility.yul\":22501:22504   */\n      dup3\n        /* \"#utility.yul\":22497:22509   */\n      add\n        /* \"#utility.yul\":22490:22509   */\n      swap1\n      pop\n        /* \"#utility.yul\":22149:22515   */\n      swap2\n      swap1\n      pop\n      jump\t// out\n        /* \"#utility.yul\":22521:22940   */\n    tag_140:\n        /* \"#utility.yul\":22687:22691   */\n      0x00\n        /* \"#utility.yul\":22725:22727   */\n      0x20\n        /* \"#utility.yul\":22714:22723   */\n      dup3\n        /* \"#utility.yul\":22710:22728   */\n      add\n        /* \"#utility.yul\":22702:22728   */\n      swap1\n      pop\n        /* \"#utility.yul\":22774:22783   */\n      dup2\n        /* \"#utility.yul\":22768:22772   */\n      dup2\n        /* \"#utility.yul\":22764:22784   */\n      sub\n        /* \"#utility.yul\":22760:22761   */\n      0x00\n        /* \"#utility.yul\":22749:22758   */\n      dup4\n        /* \"#utility.yul\":22745:22762   */\n      add\n        /* \"#utility.yul\":22738:22785   */\n      mstore\n        /* \"#utility.yul\":22802:22933   */\n      tag_426\n        /* \"#utility.yul\":22928:22932   */\n      dup2\n        /* \"#utility.yul\":22802:22933   */\n      tag_210\n      jump\t// in\n    tag_426:\n        /* \"#utility.yul\":22794:22933   */\n      swap1\n      pop\n        /* \"#utility.yul\":22521:22940   */\n      swap2\n      swap1\n      pop\n      jump\t// out\n        /* \"#utility.yul\":22946:23610   */\n    tag_142:\n        /* \"#utility.yul\":23155:23159   */\n      0x00\n        /* \"#utility.yul\":23193:23195   */\n      0x60\n        /* \"#utility.yul\":23182:23191   */\n      dup3\n        /* \"#utility.yul\":23178:23196   */\n      add\n        /* \"#utility.yul\":23170:23196   */\n      swap1\n      pop\n        /* \"#utility.yul\":23206:23277   */\n      tag_428\n        /* \"#utility.yul\":23274:23275   */\n      0x00\n        /* \"#utility.yul\":23263:23272   */\n      dup4\n        /* \"#utility.yul\":23259:23276   */\n      add\n        /* \"#utility.yul\":23250:23256   */\n      dup9\n        /* \"#utility.yul\":23206:23277   */\n      tag_181\n      jump\t// in\n    tag_428:\n        /* \"#utility.yul\":23324:23333   */\n      dup2\n        /* \"#utility.yul\":23318:23322   */\n      dup2\n        /* \"#utility.yul\":23314:23334   */\n      sub\n        /* \"#utility.yul\":23309:23311   */\n      0x20\n        /* \"#utility.yul\":23298:23307   */\n      dup4\n        /* \"#utility.yul\":23294:23312   */\n      add\n        /* \"#utility.yul\":23287:23335   */\n      mstore\n        /* \"#utility.yul\":23352:23440   */\n      tag_429\n        /* \"#utility.yul\":23435:23439   */\n      dup2\n        /* \"#utility.yul\":23426:23432   */\n      dup7\n        /* \"#utility.yul\":23418:23424   */\n      dup9\n        /* \"#utility.yul\":23352:23440   */\n      tag_198\n      jump\t// in\n    tag_429:\n        /* \"#utility.yul\":23344:23440   */\n      swap1\n      pop\n        /* \"#utility.yul\":23487:23496   */\n      dup2\n        /* \"#utility.yul\":23481:23485   */\n      dup2\n        /* \"#utility.yul\":23477:23497   */\n      sub\n        /* \"#utility.yul\":23472:23474   */\n      0x40\n        /* \"#utility.yul\":23461:23470   */\n      dup4\n        /* \"#utility.yul\":23457:23475   */\n      add\n        /* \"#utility.yul\":23450:23498   */\n      mstore\n        /* \"#utility.yul\":23515:23603   */\n      tag_430\n        /* \"#utility.yul\":23598:23602   */\n      dup2\n        /* \"#utility.yul\":23589:23595   */\n      dup5\n        /* \"#utility.yul\":23581:23587   */\n      dup7\n        /* \"#utility.yul\":23515:23603   */\n      tag_198\n      jump\t// in\n    tag_430:\n        /* \"#utility.yul\":23507:23603   */\n      swap1\n      pop\n        /* \"#utility.yul\":22946:23610   */\n      swap7\n      swap6\n      pop\n      pop\n      pop\n      pop\n      pop\n      pop\n      jump\t// out\n\n    auxdata: 0xa264697066735822122073c4e2f576404bb5a83ab0dd980bb9e059d7a031d55b41b634f6133b1702fb1464736f6c63430008220033\n}\n",
    "bytecode": {
      "linkReferences": {},
      "object": "6080604052600f600255348015610014575f5ffd5b506040516119413803806119418339818101604052810190610036919061021d565b805f73ffffffffffffffffffffffffffffffffffffffff168173ffffffffffffffffffffffffffffffffffffffff16036100a7575f6040517f1e4fbdf700000000000000000000000000000000000000000000000000000000815260040161009e919061026a565b60405180910390fd5b6100b6816100fe60201b60201c565b508160015f6101000a81548173ffffffffffffffffffffffffffffffffffffffff021916908373ffffffffffffffffffffffffffffffffffffffff1602179055505050610283565b5f5f5f9054906101000a900473ffffffffffffffffffffffffffffffffffffffff169050815f5f6101000a81548173ffffffffffffffffffffffffffffffffffffffff021916908373ffffffffffffffffffffffffffffffffffffffff1602179055508173ffffffffffffffffffffffffffffffffffffffff168173ffffffffffffffffffffffffffffffffffffffff167f8be0079c531659141344cd1fd0a4f28419497f9722a3daafe3b4186f6b6457e060405160405180910390a35050565b5f5ffd5b5f73ffffffffffffffffffffffffffffffffffffffff82169050919050565b5f6101ec826101c3565b9050919050565b6101fc816101e2565b8114610206575f5ffd5b50565b5f81519050610217816101f3565b92915050565b5f5f60408385031215610233576102326101bf565b5b5f61024085828601610209565b925050602061025185828601610209565b9150509250929050565b610264816101e2565b82525050565b5f60208201905061027d5f83018461025b565b92915050565b6116b1806102905f395ff3fe608060405234801561000f575f5ffd5b506004361061009c575f3560e01c8063a45db91111610064578063a45db9111461010c578063ba0cdff814610128578063d73792a914610144578063e86dea4a14610162578063f2fde38b146101805761009c565b80633e413bee146100a0578063476343ee146100be5780635adbdfe8146100c8578063715018a6146100e45780638da5cb5b146100ee575b5f5ffd5b6100a861019c565b6040516100b59190610b95565b60405180910390f35b6100c66101c1565b005b6100e260048036038101906100dd9190610cc1565b6103e1565b005b6100ec610569565b005b6100f661057c565b6040516101039190610dc5565b60405180910390f35b61012660048036038101906101219190610e11565b6105a3565b005b610142600480360381019061013d9190610ebb565b610630565b005b61014c61093c565b6040516101599190610f6d565b60405180910390f35b61016a610942565b6040516101779190610f6d565b60405180910390f35b61019a60048036038101906101959190610f86565b610948565b005b60015f9054906101000a900473ffffffffffffffffffffffffffffffffffffffff1681565b6101c96109cc565b5f60015f9054906101000a900473ffffffffffffffffffffffffffffffffffffffff1673ffffffffffffffffffffffffffffffffffffffff166370a08231306040518263ffffffff1660e01b81526004016102249190610dc5565b602060405180830381865afa15801561023f573d5f5f3e3d5ffd5b505050506040513d601f19601f820116820180604052508101906102639190610fc5565b90505f81116102a7576040517f08c379a000000000000000000000000000000000000000000000000000000000815260040161029e9061104a565b60405180910390fd5b60015f9054906101000a900473ffffffffffffffffffffffffffffffffffffffff1673ffffffffffffffffffffffffffffffffffffffff1663a9059cbb6102ec61057c565b836040518363ffffffff1660e01b815260040161030a929190611068565b6020604051808303815f875af1158015610326573d5f5f3e3d5ffd5b505050506040513d601f19601f8201168201806040525081019061034a91906110c4565b610389576040517f08c379a000000000000000000000000000000000000000000000000000000000815260040161038090611139565b60405180910390fd5b61039161057c565b73ffffffffffffffffffffffffffffffffffffffff167fc0819c13be868895eb93e40eaceb96de976442fa1d404e5c55f14bb65a8c489a826040516103d69190610f6d565b60405180910390a250565b85859050888890501480156103fb57508383905086869050145b801561040c57508181905084849050145b61044b576040517f08c379a0000000000000000000000000000000000000000000000000000000008152600401610442906111a1565b60405180910390fd5b5f5f90505b8888905081101561055e573073ffffffffffffffffffffffffffffffffffffffff1663ba0cdff88a8a8481811061048a576104896111bf565b5b905060200201602081019061049f9190610f86565b8989858181106104b2576104b16111bf565b5b905060200201358888868181106104cc576104cb6111bf565b5b90506020028101906104de91906111f8565b8888888181106104f1576104f06111bf565b5b905060200281019061050391906111f8565b6040518763ffffffff1660e01b8152600401610524969594939291906112a4565b5f604051808303815f87803b15801561053b575f5ffd5b505af115801561054d573d5f5f3e3d5ffd5b505050508080600101915050610450565b505050505050505050565b6105716109cc565b61057a5f610a53565b565b5f5f5f9054906101000a900473ffffffffffffffffffffffffffffffffffffffff16905090565b6105ab6109cc565b60648111156105ef576040517f08c379a00000000000000000000000000000000000000000000000000000000081526004016105e690611343565b60405180910390fd5b806002819055507f8c4d35e54a3f2ef1134138fd8ea3daee6a3c89e10d2665996babdf70261e2c76816040516106259190610f6d565b60405180910390a150565b5f8511610672576040517f08c379a0000000000000000000000000000000000000000000000000000000008152600401610669906113ab565b60405180910390fd5b5f73ffffffffffffffffffffffffffffffffffffffff168673ffffffffffffffffffffffffffffffffffffffff16036106e0576040517f08c379a00000000000000000000000000000000000000000000000000000000081526004016106d790611413565b60405180910390fd5b5f6103e8600254876106f2919061145e565b6106fc91906114cc565b90505f818761070b91906114fc565b905060015f9054906101000a900473ffffffffffffffffffffffffffffffffffffffff1673ffffffffffffffffffffffffffffffffffffffff166323b872dd33308a6040518463ffffffff1660e01b815260040161076b9392919061152f565b6020604051808303815f875af1158015610787573d5f5f3e3d5ffd5b505050506040513d601f19601f820116820180604052508101906107ab91906110c4565b6107ea576040517f08c379a00000000000000000000000000000000000000000000000000000000081526004016107e1906115ae565b60405180910390fd5b60015f9054906101000a900473ffffffffffffffffffffffffffffffffffffffff1673ffffffffffffffffffffffffffffffffffffffff1663a9059cbb89836040518363ffffffff1660e01b8152600401610846929190611068565b6020604051808303815f875af1158015610862573d5f5f3e3d5ffd5b505050506040513d601f19601f8201168201806040525081019061088691906110c4565b6108c5576040517f08c379a00000000000000000000000000000000000000000000000000000000081526004016108bc90611616565b60405180910390fd5b8773ffffffffffffffffffffffffffffffffffffffff163373ffffffffffffffffffffffffffffffffffffffff167f38958a3a126a58267c31f8037918bca000084e404c20dccbe64b6d1b5db61263898989898960405161092a959493929190611634565b60405180910390a35050505050505050565b6103e881565b60025481565b6109506109cc565b5f73ffffffffffffffffffffffffffffffffffffffff168173ffffffffffffffffffffffffffffffffffffffff16036109c0575f6040517f1e4fbdf70000000000000000000000000000000000000000000000000000000081526004016109b79190610dc5565b60405180910390fd5b6109c981610a53565b50565b6109d4610b14565b73ffffffffffffffffffffffffffffffffffffffff166109f261057c565b73ffffffffffffffffffffffffffffffffffffffff1614610a5157610a15610b14565b6040517f118cdaa7000000000000000000000000000000000000000000000000000000008152600401610a489190610dc5565b60405180910390fd5b565b5f5f5f9054906101000a900473ffffffffffffffffffffffffffffffffffffffff169050815f5f6101000a81548173ffffffffffffffffffffffffffffffffffffffff021916908373ffffffffffffffffffffffffffffffffffffffff1602179055508173ffffffffffffffffffffffffffffffffffffffff168173ffffffffffffffffffffffffffffffffffffffff167f8be0079c531659141344cd1fd0a4f28419497f9722a3daafe3b4186f6b6457e060405160405180910390a35050565b5f33905090565b5f73ffffffffffffffffffffffffffffffffffffffff82169050919050565b5f819050919050565b5f610b5d610b58610b5384610b1b565b610b3a565b610b1b565b9050919050565b5f610b6e82610b43565b9050919050565b5f610b7f82610b64565b9050919050565b610b8f81610b75565b82525050565b5f602082019050610ba85f830184610b86565b92915050565b5f5ffd5b5f5ffd5b5f5ffd5b5f5ffd5b5f5ffd5b5f5f83601f840112610bd757610bd6610bb6565b5b8235905067ffffffffffffffff811115610bf457610bf3610bba565b5b602083019150836020820283011115610c1057610c0f610bbe565b5b9250929050565b5f5f83601f840112610c2c57610c2b610bb6565b5b8235905067ffffffffffffffff811115610c4957610c48610bba565b5b602083019150836020820283011115610c6557610c64610bbe565b5b9250929050565b5f5f83601f840112610c8157610c80610bb6565b5b8235905067ffffffffffffffff811115610c9e57610c9d610bba565b5b602083019150836020820283011115610cba57610cb9610bbe565b5b9250929050565b5f5f5f5f5f5f5f5f6080898b031215610cdd57610cdc610bae565b5b5f89013567ffffffffffffffff811115610cfa57610cf9610bb2565b5b610d068b828c01610bc2565b9850985050602089013567ffffffffffffffff811115610d2957610d28610bb2565b5b610d358b828c01610c17565b9650965050604089013567ffffffffffffffff811115610d5857610d57610bb2565b5b610d648b828c01610c6c565b9450945050606089013567ffffffffffffffff811115610d8757610d86610bb2565b5b610d938b828c01610c6c565b92509250509295985092959890939650565b5f610daf82610b1b565b9050919050565b610dbf81610da5565b82525050565b5f602082019050610dd85f830184610db6565b92915050565b5f819050919050565b610df081610dde565b8114610dfa575f5ffd5b50565b5f81359050610e0b81610de7565b92915050565b5f60208284031215610e2657610e25610bae565b5b5f610e3384828501610dfd565b91505092915050565b610e4581610da5565b8114610e4f575f5ffd5b50565b5f81359050610e6081610e3c565b92915050565b5f5f83601f840112610e7b57610e7a610bb6565b5b8235905067ffffffffffffffff811115610e9857610e97610bba565b5b602083019150836001820283011115610eb457610eb3610bbe565b5b9250929050565b5f5f5f5f5f5f60808789031215610ed557610ed4610bae565b5b5f610ee289828a01610e52565b9650506020610ef389828a01610dfd565b955050604087013567ffffffffffffffff811115610f1457610f13610bb2565b5b610f2089828a01610e66565b9450945050606087013567ffffffffffffffff811115610f4357610f42610bb2565b5b610f4f89828a01610e66565b92509250509295509295509295565b610f6781610dde565b82525050565b5f602082019050610f805f830184610f5e565b92915050565b5f60208284031215610f9b57610f9a610bae565b5b5f610fa884828501610e52565b91505092915050565b5f81519050610fbf81610de7565b92915050565b5f60208284031215610fda57610fd9610bae565b5b5f610fe784828501610fb1565b91505092915050565b5f82825260208201905092915050565b7f4e6f206665657320746f207769746864726177000000000000000000000000005f82015250565b5f611034601383610ff0565b915061103f82611000565b602082019050919050565b5f6020820190508181035f83015261106181611028565b9050919050565b5f60408201905061107b5f830185610db6565b6110886020830184610f5e565b9392505050565b5f8115159050919050565b6110a38161108f565b81146110ad575f5ffd5b50565b5f815190506110be8161109a565b92915050565b5f602082840312156110d9576110d8610bae565b5b5f6110e6848285016110b0565b91505092915050565b7f5769746864726177616c206661696c65640000000000000000000000000000005f82015250565b5f611123601183610ff0565b915061112e826110ef565b602082019050919050565b5f6020820190508181035f83015261115081611117565b9050919050565b7f4172726179206c656e677468206d69736d6174636800000000000000000000005f82015250565b5f61118b601583610ff0565b915061119682611157565b602082019050919050565b5f6020820190508181035f8301526111b88161117f565b9050919050565b7f4e487b71000000000000000000000000000000000000000000000000000000005f52603260045260245ffd5b5f5ffd5b5f5ffd5b5f5ffd5b5f5f83356001602003843603038112611214576112136111ec565b5b80840192508235915067ffffffffffffffff821115611236576112356111f0565b5b602083019250600182023603831315611252576112516111f4565b5b509250929050565b828183375f83830152505050565b5f601f19601f8301169050919050565b5f6112838385610ff0565b935061129083858461125a565b61129983611268565b840190509392505050565b5f6080820190506112b75f830189610db6565b6112c46020830188610f5e565b81810360408301526112d7818688611278565b905081810360608301526112ec818486611278565b9050979650505050505050565b7f4665652063616e6e6f74206578636565642031302500000000000000000000005f82015250565b5f61132d601583610ff0565b9150611338826112f9565b602082019050919050565b5f6020820190508181035f83015261135a81611321565b9050919050565b7f416d6f756e74206d7573742062652067726561746572207468616e20300000005f82015250565b5f611395601d83610ff0565b91506113a082611361565b602082019050919050565b5f6020820190508181035f8301526113c281611389565b9050919050565b7f496e76616c69642063726561746f7220616464726573730000000000000000005f82015250565b5f6113fd601783610ff0565b9150611408826113c9565b602082019050919050565b5f6020820190508181035f83015261142a816113f1565b9050919050565b7f4e487b71000000000000000000000000000000000000000000000000000000005f52601160045260245ffd5b5f61146882610dde565b915061147383610dde565b925082820261148181610dde565b9150828204841483151761149857611497611431565b5b5092915050565b7f4e487b71000000000000000000000000000000000000000000000000000000005f52601260045260245ffd5b5f6114d682610dde565b91506114e183610dde565b9250826114f1576114f061149f565b5b828204905092915050565b5f61150682610dde565b915061151183610dde565b925082820390508181111561152957611528611431565b5b92915050565b5f6060820190506115425f830186610db6565b61154f6020830185610db6565b61155c6040830184610f5e565b949350505050565b7f5472616e73666572206661696c656400000000000000000000000000000000005f82015250565b5f611598600f83610ff0565b91506115a382611564565b602082019050919050565b5f6020820190508181035f8301526115c58161158c565b9050919050565b7f43726561746f72207472616e73666572206661696c65640000000000000000005f82015250565b5f611600601783610ff0565b915061160b826115cc565b602082019050919050565b5f6020820190508181035f83015261162d816115f4565b9050919050565b5f6060820190506116475f830188610f5e565b818103602083015261165a818688611278565b9050818103604083015261166f818486611278565b9050969550505050505056fea264697066735822122073c4e2f576404bb5a83ab0dd980bb9e059d7a031d55b41b634f6133b1702fb1464736f6c63430008220033",
      "opcodes": "PUSH1 0x80 PUSH1 0x40 MSTORE PUSH1 0xF PUSH1 0x2 SSTORE CALLVALUE DUP1 ISZERO PUSH2 0x14 JUMPI PUSH0 PUSH0 REVERT JUMPDEST POP PUSH1 0x40 MLOAD PUSH2 0x1941 CODESIZE SUB DUP1 PUSH2 0x1941 DUP4 CODECOPY DUP2 DUP2 ADD PUSH1 0x40 MSTORE DUP2 ADD SWAP1 PUSH2 0x36 SWAP2 SWAP1 PUSH2 0x21D JUMP JUMPDEST DUP1 PUSH0 PUSH20 0xFFFFFFFFFFFFFFFFFFFFFFFFFFFFFFFFFFFFFFFF AND DUP2 PUSH20 0xFFFFFFFFFFFFFFFFFFFFFFFFFFFFFFFFFFFFFFFF AND SUB PUSH2 0xA7 JUMPI PUSH0 PUSH1 0x40 MLOAD PUSH32 0x1E4FBDF700000000000000000000000000000000000000000000000000000000 DUP2 MSTORE PUSH1 0x4 ADD PUSH2 0x9E SWAP2 SWAP1 PUSH2 0x26A JUMP JUMPDEST PUSH1 0x40 MLOAD DUP1 SWAP2 SUB SWAP1 REVERT JUMPDEST PUSH2 0xB6 DUP2 PUSH2 0xFE PUSH1 0x20 SHL PUSH1 0x20 SHR JUMP JUMPDEST POP DUP2 PUSH1 0x1 PUSH0 PUSH2 0x100 EXP DUP2 SLOAD DUP2 PUSH20 0xFFFFFFFFFFFFFFFFFFFFFFFFFFFFFFFFFFFFFFFF MUL NOT AND SWAP1 DUP4 PUSH20 0xFFFFFFFFFFFFFFFFFFFFFFFFFFFFFFFFFFFFFFFF AND MUL OR SWAP1 SSTORE POP POP POP PUSH2 0x283 JUMP JUMPDEST PUSH0 PUSH0 PUSH0 SWAP1 SLOAD SWAP1 PUSH2 0x100 EXP SWAP1 DIV PUSH20 0xFFFFFFFFFFFFFFFFFFFFFFFFFFFFFFFFFFFFFFFF AND SWAP1 POP DUP2 PUSH0 PUSH0 PUSH2 0x100 EXP DUP2 SLOAD DUP2 PUSH20 0xFFFFFFFFFFFFFFFFFFFFFFFFFFFFFFFFFFFFFFFF MUL NOT AND SWAP1 DUP4 PUSH20 0xFFFFFFFFFFFFFFFFFFFFFFFFFFFFFFFFFFFFFFFF AND MUL OR SWAP1 SSTORE POP DUP2 PUSH20 0xFFFFFFFFFFFFFFFFFFFFFFFFFFFFFFFFFFFFFFFF AND DUP2 PUSH20 0xFFFFFFFFFFFFFFFFFFFFFFFFFFFFFFFFFFFFFFFF AND PUSH32 0x8BE0079C531659141344CD1FD0A4F28419497F9722A3DAAFE3B4186F6B6457E0 PUSH1 0x40 MLOAD PUSH1 0x40 MLOAD DUP1 SWAP2 SUB SWAP1 LOG3 POP POP JUMP JUMPDEST PUSH0 PUSH0 REVERT JUMPDEST PUSH0 PUSH20 0xFFFFFFFFFFFFFFFFFFFFFFFFFFFFFFFFFFFFFFFF DUP3 AND SWAP1 POP SWAP2 SWAP1 POP JUMP JUMPDEST PUSH0 PUSH2 0x1EC DUP3 PUSH2 0x1C3 JUMP JUMPDEST SWAP1 POP SWAP2 SWAP1 POP JUMP JUMPDEST PUSH2 0x1FC DUP2 PUSH2 0x1E2 JUMP JUMPDEST DUP2 EQ PUSH2 0x206 JUMPI PUSH0 PUSH0 REVERT JUMPDEST POP JUMP JUMPDEST PUSH0 DUP2 MLOAD SWAP1 POP PUSH2 0x217 DUP2 PUSH2 0x1F3 JUMP JUMPDEST SWAP3 SWAP2 POP POP JUMP JUMPDEST PUSH0 PUSH0 PUSH1 0x40 DUP4 DUP6 SUB SLT ISZERO PUSH2 0x233 JUMPI PUSH2 0x232 PUSH2 0x1BF JUMP JUMPDEST JUMPDEST PUSH0 PUSH2 0x240 DUP6 DUP3 DUP7 ADD PUSH2 0x209 JUMP JUMPDEST SWAP3 POP POP PUSH1 0x20 PUSH2 0x251 DUP6 DUP3 DUP7 ADD PUSH2 0x209 JUMP JUMPDEST SWAP2 POP POP SWAP3 POP SWAP3 SWAP1 POP JUMP JUMPDEST PUSH2 0x264 DUP2 PUSH2 0x1E2 JUMP JUMPDEST DUP3 MSTORE POP POP JUMP JUMPDEST PUSH0 PUSH1 0x20 DUP3 ADD SWAP1 POP PUSH2 0x27D PUSH0 DUP4 ADD DUP5 PUSH2 0x25B JUMP JUMPDEST SWAP3 SWAP2 POP POP JUMP JUMPDEST PUSH2 0x16B1 DUP1 PUSH2 0x290 PUSH0 CODECOPY PUSH0 RETURN INVALID PUSH1 0x80 PUSH1 0x40 MSTORE CALLVALUE DUP1 ISZERO PUSH2 0xF JUMPI PUSH0 PUSH0 REVERT JUMPDEST POP PUSH1 0x4 CALLDATASIZE LT PUSH2 0x9C JUMPI PUSH0 CALLDATALOAD PUSH1 0xE0 SHR DUP1 PUSH4 0xA45DB911 GT PUSH2 0x64 JUMPI DUP1 PUSH4 0xA45DB911 EQ PUSH2 0x10C JUMPI DUP1 PUSH4 0xBA0CDFF8 EQ PUSH2 0x128 JUMPI DUP1 PUSH4 0xD73792A9 EQ PUSH2 0x144 JUMPI DUP1 PUSH4 0xE86DEA4A EQ PUSH2 0x162 JUMPI DUP1 PUSH4 0xF2FDE38B EQ PUSH2 0x180 JUMPI PUSH2 0x9C JUMP JUMPDEST DUP1 PUSH4 0x3E413BEE EQ PUSH2 0xA0 JUMPI DUP1 PUSH4 0x476343EE EQ PUSH2 0xBE JUMPI DUP1 PUSH4 0x5ADBDFE8 EQ PUSH2 0xC8 JUMPI DUP1 PUSH4 0x715018A6 EQ PUSH2 0xE4 JUMPI DUP1 PUSH4 0x8DA5CB5B EQ PUSH2 0xEE JUMPI JUMPDEST PUSH0 PUSH0 REVERT JUMPDEST PUSH2 0xA8 PUSH2 0x19C JUMP JUMPDEST PUSH1 0x40 MLOAD PUSH2 0xB5 SWAP2 SWAP1 PUSH2 0xB95 JUMP JUMPDEST PUSH1 0x40 MLOAD DUP1 SWAP2 SUB SWAP1 RETURN JUMPDEST PUSH2 0xC6 PUSH2 0x1C1 JUMP JUMPDEST STOP JUMPDEST PUSH2 0xE2 PUSH1 0x4 DUP1 CALLDATASIZE SUB DUP2 ADD SWAP1 PUSH2 0xDD SWAP2 SWAP1 PUSH2 0xCC1 JUMP JUMPDEST PUSH2 0x3E1 JUMP JUMPDEST STOP JUMPDEST PUSH2 0xEC PUSH2 0x569 JUMP JUMPDEST STOP JUMPDEST PUSH2 0xF6 PUSH2 0x57C JUMP JUMPDEST PUSH1 0x40 MLOAD PUSH2 0x103 SWAP2 SWAP1 PUSH2 0xDC5 JUMP JUMPDEST PUSH1 0x40 MLOAD DUP1 SWAP2 SUB SWAP1 RETURN JUMPDEST PUSH2 0x126 PUSH1 0x4 DUP1 CALLDATASIZE SUB DUP2 ADD SWAP1 PUSH2 0x121 SWAP2 SWAP1 PUSH2 0xE11 JUMP JUMPDEST PUSH2 0x5A3 JUMP JUMPDEST STOP JUMPDEST PUSH2 0x142 PUSH1 0x4 DUP1 CALLDATASIZE SUB DUP2 ADD SWAP1 PUSH2 0x13D SWAP2 SWAP1 PUSH2 0xEBB JUMP JUMPDEST PUSH2 0x630 JUMP JUMPDEST STOP JUMPDEST PUSH2 0x14C PUSH2 0x93C JUMP JUMPDEST PUSH1 0x40 MLOAD PUSH2 0x159 SWAP2 SWAP1 PUSH2 0xF6D JUMP JUMPDEST PUSH1 0x40 MLOAD DUP1 SWAP2 SUB SWAP1 RETURN JUMPDEST PUSH2 0x16A PUSH2 0x942 JUMP JUMPDEST PUSH1 0x40 MLOAD PUSH2 0x177 SWAP2 SWAP1 PUSH2 0xF6D JUMP JUMPDEST PUSH1 0x40 MLOAD DUP1 SWAP2 SUB SWAP1 RETURN JUMPDEST PUSH2 0x19A PUSH1 0x4 DUP1 CALLDATASIZE SUB DUP2 ADD SWAP1 PUSH2 0x195 SWAP2 SWAP1 PUSH2 0xF86 JUMP JUMPDEST PUSH2 0x948 JUMP JUMPDEST STOP JUMPDEST PUSH1 0x1 PUSH0 SWAP1 SLOAD SWAP1 PUSH2 0x100 EXP SWAP1 DIV PUSH20 0xFFFFFFFFFFFFFFFFFFFFFFFFFFFFFFFFFFFFFFFF AND DUP2 JUMP JUMPDEST PUSH2 0x1C9 PUSH2 0x9CC JUMP JUMPDEST PUSH0 PUSH1 0x1 PUSH0 SWAP1 SLOAD SWAP1 PUSH2 0x100 EXP SWAP1 DIV PUSH20 0xFFFFFFFFFFFFFFFFFFFFFFFFFFFFFFFFFFFFFFFF AND PUSH20 0xFFFFFFFFFFFFFFFFFFFFFFFFFFFFFFFFFFFFFFFF AND PUSH4 0x70A08231 ADDRESS PUSH1 0x40 MLOAD DUP3 PUSH4 0xFFFFFFFF AND PUSH1 0xE0 SHL DUP2 MSTORE PUSH1 0x4 ADD PUSH2 0x224 SWAP2 SWAP1 PUSH2 0xDC5 JUMP JUMPDEST PUSH1 0x20 PUSH1 0x40 MLOAD DUP1 DUP4 SUB DUP2 DUP7 GAS STATICCALL ISZERO DUP1 ISZERO PUSH2 0x23F JUMPI RETURNDATASIZE PUSH0 PUSH0 RETURNDATACOPY RETURNDATASIZE PUSH0 REVERT JUMPDEST POP POP POP POP PUSH1 0x40 MLOAD RETURNDATASIZE PUSH1 0x1F NOT PUSH1 0x1F DUP3 ADD AND DUP3 ADD DUP1 PUSH1 0x40 MSTORE POP DUP2 ADD SWAP1 PUSH2 0x263 SWAP2 SWAP1 PUSH2 0xFC5 JUMP JUMPDEST SWAP1 POP PUSH0 DUP2 GT PUSH2 0x2A7 JUMPI PUSH1 0x40 MLOAD PUSH32 0x8C379A000000000000000000000000000000000000000000000000000000000 DUP2 MSTORE PUSH1 0x4 ADD PUSH2 0x29E SWAP1 PUSH2 0x104A JUMP JUMPDEST PUSH1 0x40 MLOAD DUP1 SWAP2 SUB SWAP1 REVERT JUMPDEST PUSH1 0x1 PUSH0 SWAP1 SLOAD SWAP1 PUSH2 0x100 EXP SWAP1 DIV PUSH20 0xFFFFFFFFFFFFFFFFFFFFFFFFFFFFFFFFFFFFFFFF AND PUSH20 0xFFFFFFFFFFFFFFFFFFFFFFFFFFFFFFFFFFFFFFFF AND PUSH4 0xA9059CBB PUSH2 0x2EC PUSH2 0x57C JUMP JUMPDEST DUP4 PUSH1 0x40 MLOAD DUP4 PUSH4 0xFFFFFFFF AND PUSH1 0xE0 SHL DUP2 MSTORE PUSH1 0x4 ADD PUSH2 0x30A SWAP3 SWAP2 SWAP1 PUSH2 0x1068 JUMP JUMPDEST PUSH1 0x20 PUSH1 0x40 MLOAD DUP1 DUP4 SUB DUP2 PUSH0 DUP8 GAS CALL ISZERO DUP1 ISZERO PUSH2 0x326 JUMPI RETURNDATASIZE PUSH0 PUSH0 RETURNDATACOPY RETURNDATASIZE PUSH0 REVERT JUMPDEST POP POP POP POP PUSH1 0x40 MLOAD RETURNDATASIZE PUSH1 0x1F NOT PUSH1 0x1F DUP3 ADD AND DUP3 ADD DUP1 PUSH1 0x40 MSTORE POP DUP2 ADD SWAP1 PUSH2 0x34A SWAP2 SWAP1 PUSH2 0x10C4 JUMP JUMPDEST PUSH2 0x389 JUMPI PUSH1 0x40 MLOAD PUSH32 0x8C379A000000000000000000000000000000000000000000000000000000000 DUP2 MSTORE PUSH1 0x4 ADD PUSH2 0x380 SWAP1 PUSH2 0x1139 JUMP JUMPDEST PUSH1 0x40 MLOAD DUP1 SWAP2 SUB SWAP1 REVERT JUMPDEST PUSH2 0x391 PUSH2 0x57C JUMP JUMPDEST PUSH20 0xFFFFFFFFFFFFFFFFFFFFFFFFFFFFFFFFFFFFFFFF AND PUSH32 0xC0819C13BE868895EB93E40EACEB96DE976442FA1D404E5C55F14BB65A8C489A DUP3 PUSH1 0x40 MLOAD PUSH2 0x3D6 SWAP2 SWAP1 PUSH2 0xF6D JUMP JUMPDEST PUSH1 0x40 MLOAD DUP1 SWAP2 SUB SWAP1 LOG2 POP JUMP JUMPDEST DUP6 DUP6 SWAP1 POP DUP9 DUP9 SWAP1 POP EQ DUP1 ISZERO PUSH2 0x3FB JUMPI POP DUP4 DUP4 SWAP1 POP DUP7 DUP7 SWAP1 POP EQ JUMPDEST DUP1 ISZERO PUSH2 0x40C JUMPI POP DUP2 DUP2 SWAP1 POP DUP5 DUP5 SWAP1 POP EQ JUMPDEST PUSH2 0x44B JUMPI PUSH1 0x40 MLOAD PUSH32 0x8C379A000000000000000000000000000000000000000000000000000000000 DUP2 MSTORE PUSH1 0x4 ADD PUSH2 0x442 SWAP1 PUSH2 0x11A1 JUMP JUMPDEST PUSH1 0x40 MLOAD DUP1 SWAP2 SUB SWAP1 REVERT JUMPDEST PUSH0 PUSH0 SWAP1 POP JUMPDEST DUP9 DUP9 SWAP1 POP DUP2 LT ISZERO PUSH2 0x55E JUMPI ADDRESS PUSH20 0xFFFFFFFFFFFFFFFFFFFFFFFFFFFFFFFFFFFFFFFF AND PUSH4 0xBA0CDFF8 DUP11 DUP11 DUP5 DUP2 DUP2 LT PUSH2 0x48A JUMPI PUSH2 0x489 PUSH2 0x11BF JUMP JUMPDEST JUMPDEST SWAP1 POP PUSH1 0x20 MUL ADD PUSH1 0x20 DUP2 ADD SWAP1 PUSH2 0x49F SWAP2 SWAP1 PUSH2 0xF86 JUMP JUMPDEST DUP10 DUP10 DUP6 DUP2 DUP2 LT PUSH2 0x4B2 JUMPI PUSH2 0x4B1 PUSH2 0x11BF JUMP JUMPDEST JUMPDEST SWAP1 POP PUSH1 0x20 MUL ADD CALLDATALOAD DUP9 DUP9 DUP7 DUP2 DUP2 LT PUSH2 0x4CC JUMPI PUSH2 0x4CB PUSH2 0x11BF JUMP JUMPDEST JUMPDEST SWAP1 POP PUSH1 0x20 MUL DUP2 ADD SWAP1 PUSH2 0x4DE SWAP2 SWAP1 PUSH2 0x11F8 JUMP JUMPDEST DUP9 DUP9 DUP9 DUP2 DUP2 LT PUSH2 0x4F1 JUMPI PUSH2 0x4F0 PUSH2 0x11BF JUMP JUMPDEST JUMPDEST SWAP1 POP PUSH1 0x20 MUL DUP2 ADD SWAP1 PUSH2 0x503 SWAP2 SWAP1 PUSH2 0x11F8 JUMP JUMPDEST PUSH1 0x40 MLOAD DUP8 PUSH4 0xFFFFFFFF AND PUSH1 0xE0 SHL DUP2 MSTORE PUSH1 0x4 ADD PUSH2 0x524 SWAP7 SWAP6 SWAP5 SWAP4 SWAP3 SWAP2 SWAP1 PUSH2 0x12A4 JUMP JUMPDEST PUSH0 PUSH1 0x40 MLOAD DUP1 DUP4 SUB DUP2 PUSH0 DUP8 DUP1 EXTCODESIZE ISZERO DUP1 ISZERO PUSH2 0x53B JUMPI PUSH0 PUSH0 REVERT JUMPDEST POP GAS CALL ISZERO DUP1 ISZERO PUSH2 0x54D JUMPI RETURNDATASIZE PUSH0 PUSH0 RETURNDATACOPY RETURNDATASIZE PUSH0 REVERT JUMPDEST POP POP POP POP DUP1 DUP1 PUSH1 0x1 ADD SWAP2 POP POP PUSH2 0x450 JUMP JUMPDEST POP POP POP POP POP POP POP POP POP JUMP JUMPDEST PUSH2 0x571 PUSH2 0x9CC JUMP JUMPDEST PUSH2 0x57A PUSH0 PUSH2 0xA53 JUMP JUMPDEST JUMP JUMPDEST PUSH0 PUSH0 PUSH0 SWAP1 SLOAD SWAP1 PUSH2 0x100 EXP SWAP1 DIV PUSH20 0xFFFFFFFFFFFFFFFFFFFFFFFFFFFFFFFFFFFFFFFF AND SWAP1 POP SWAP1 JUMP JUMPDEST PUSH2 0x5AB PUSH2 0x9CC JUMP JUMPDEST PUSH1 0x64 DUP2 GT ISZERO PUSH2 0x5EF JUMPI PUSH1 0x40 MLOAD PUSH32 0x8C379A000000000000000000000000000000000000000000000000000000000 DUP2 MSTORE PUSH1 0x4 ADD PUSH2 0x5E6 SWAP1 PUSH2 0x1343 JUMP JUMPDEST PUSH1 0x40 MLOAD DUP1 SWAP2 SUB SWAP1 REVERT JUMPDEST DUP1 PUSH1 0x2 DUP2 SWAP1 SSTORE POP PUSH32 0x8C4D35E54A3F2EF1134138FD8EA3DAEE6A3C89E10D2665996BABDF70261E2C76 DUP2 PUSH1 0x40 MLOAD PUSH2 0x625 SWAP2 SWAP1 PUSH2 0xF6D JUMP JUMPDEST PUSH1 0x40 MLOAD DUP1 SWAP2 SUB SWAP1 LOG1 POP JUMP JUMPDEST PUSH0 DUP6 GT PUSH2 0x672 JUMPI PUSH1 0x40 MLOAD PUSH32 0x8C379A000000000000000000000000000000000000000000000000000000000 DUP2 MSTORE PUSH1 0x4 ADD PUSH2 0x669 SWAP1 PUSH2 0x13AB JUMP JUMPDEST PUSH1 0x40 MLOAD DUP1 SWAP2 SUB SWAP1 REVERT JUMPDEST PUSH0 PUSH20 0xFFFFFFFFFFFFFFFFFFFFFFFFFFFFFFFFFFFFFFFF AND DUP7 PUSH20 0xFFFFFFFFFFFFFFFFFFFFFFFFFFFFFFFFFFFFFFFF AND SUB PUSH2 0x6E0 JUMPI PUSH1 0x40 MLOAD PUSH32 0x8C379A000000000000000000000000000000000000000000000000000000000 DUP2 MSTORE PUSH1 0x4 ADD PUSH2 0x6D7 SWAP1 PUSH2 0x1413 JUMP JUMPDEST PUSH1 0x40 MLOAD DUP1 SWAP2 SUB SWAP1 REVERT JUMPDEST PUSH0 PUSH2 0x3E8 PUSH1 0x2 SLOAD DUP8 PUSH2 0x6F2 SWAP2 SWAP1 PUSH2 0x145E JUMP JUMPDEST PUSH2 0x6FC SWAP2 SWAP1 PUSH2 0x14CC JUMP JUMPDEST SWAP1 POP PUSH0 DUP2 DUP8 PUSH2 0x70B SWAP2 SWAP1 PUSH2 0x14FC JUMP JUMPDEST SWAP1 POP PUSH1 0x1 PUSH0 SWAP1 SLOAD SWAP1 PUSH2 0x100 EXP SWAP1 DIV PUSH20 0xFFFFFFFFFFFFFFFFFFFFFFFFFFFFFFFFFFFFFFFF AND PUSH20 0xFFFFFFFFFFFFFFFFFFFFFFFFFFFFFFFFFFFFFFFF AND PUSH4 0x23B872DD CALLER ADDRESS DUP11 PUSH1 0x40 MLOAD DUP5 PUSH4 0xFFFFFFFF AND PUSH1 0xE0 SHL DUP2 MSTORE PUSH1 0x4 ADD PUSH2 0x76B SWAP4 SWAP3 SWAP2 SWAP1 PUSH2 0x152F JUMP JUMPDEST PUSH1 0x20 PUSH1 0x40 MLOAD DUP1 DUP4 SUB DUP2 PUSH0 DUP8 GAS CALL ISZERO DUP1 ISZERO PUSH2 0x787 JUMPI RETURNDATASIZE PUSH0 PUSH0 RETURNDATACOPY RETURNDATASIZE PUSH0 REVERT JUMPDEST POP POP POP POP PUSH1 0x40 MLOAD RETURNDATASIZE PUSH1 0x1F NOT PUSH1 0x1F DUP3 ADD AND DUP3 ADD DUP1 PUSH1 0x40 MSTORE POP DUP2 ADD SWAP1 PUSH2 0x7AB SWAP2 SWAP1 PUSH2 0x10C4 JUMP JUMPDEST PUSH2 0x7EA JUMPI PUSH1 0x40 MLOAD PUSH32 0x8C379A000000000000000000000000000000000000000000000000000000000 DUP2 MSTORE PUSH1 0x4 ADD PUSH2 0x7E1 SWAP1 PUSH2 0x15AE JUMP JUMPDEST PUSH1 0x40 MLOAD DUP1 SWAP2 SUB SWAP1 REVERT JUMPDEST PUSH1 0x1 PUSH0 SWAP1 SLOAD SWAP1 PUSH2 0x100 EXP SWAP1 DIV PUSH20 0xFFFFFFFFFFFFFFFFFFFFFFFFFFFFFFFFFFFFFFFF AND PUSH20 0xFFFFFFFFFFFFFFFFFFFFFFFFFFFFFFFFFFFFFFFF AND PUSH4 0xA9059CBB DUP10 DUP4 PUSH1 0x40 MLOAD DUP4 PUSH4 0xFFFFFFFF AND PUSH1 0xE0 SHL DUP2 MSTORE PUSH1 0x4 ADD PUSH2 0x846 SWAP3 SWAP2 SWAP1 PUSH2 0x1068 JUMP JUMPDEST PUSH1 0x20 PUSH1 0x40 MLOAD DUP1 DUP4 SUB DUP2 PUSH0 DUP8 GAS CALL ISZERO DUP1 ISZERO PUSH2 0x862 JUMPI RETURNDATASIZE PUSH0 PUSH0 RETURNDATACOPY RETURNDATASIZE PUSH0 REVERT JUMPDEST POP POP POP POP PUSH1 0x40 MLOAD RETURNDATASIZE PUSH1 0x1F NOT PUSH1 0x1F DUP3 ADD AND DUP3 ADD DUP1 PUSH1 0x40 MSTORE POP DUP2 ADD SWAP1 PUSH2 0x886 SWAP2 SWAP1 PUSH2 0x10C4 JUMP JUMPDEST PUSH2 0x8C5 JUMPI PUSH1 0x40 MLOAD PUSH32 0x8C379A000000000000000000000000000000000000000000000000000000000 DUP2 MSTORE PUSH1 0x4 ADD PUSH2 0x8BC SWAP1 PUSH2 0x1616 JUMP JUMPDEST PUSH1 0x40 MLOAD DUP1 SWAP2 SUB SWAP1 REVERT JUMPDEST DUP8 PUSH20 0xFFFFFFFFFFFFFFFFFFFFFFFFFFFFFFFFFFFFFFFF AND CALLER PUSH20 0xFFFFFFFFFFFFFFFFFFFFFFFFFFFFFFFFFFFFFFFF AND PUSH32 0x38958A3A126A58267C31F8037918BCA000084E404C20DCCBE64B6D1B5DB61263 DUP10 DUP10 DUP10 DUP10 DUP10 PUSH1 0x40 MLOAD PUSH2 0x92A SWAP6 SWAP5 SWAP4 SWAP3 SWAP2 SWAP1 PUSH2 0x1634 JUMP JUMPDEST PUSH1 0x40 MLOAD DUP1 SWAP2 SUB SWAP1 LOG3 POP POP POP POP POP POP POP POP JUMP JUMPDEST PUSH2 0x3E8 DUP2 JUMP JUMPDEST PUSH1 0x2 SLOAD DUP2 JUMP JUMPDEST PUSH2 0x950 PUSH2 0x9CC JUMP JUMPDEST PUSH0 PUSH20 0xFFFFFFFFFFFFFFFFFFFFFFFFFFFFFFFFFFFFFFFF AND DUP2 PUSH20 0xFFFFFFFFFFFFFFFFFFFFFFFFFFFFFFFFFFFFFFFF AND SUB PUSH2 0x9C0 JUMPI PUSH0 PUSH1 0x40 MLOAD PUSH32 0x1E4FBDF700000000000000000000000000000000000000000000000000000000 DUP2 MSTORE PUSH1 0x4 ADD PUSH2 0x9B7 SWAP2 SWAP1 PUSH2 0xDC5 JUMP JUMPDEST PUSH1 0x40 MLOAD DUP1 SWAP2 SUB SWAP1 REVERT JUMPDEST PUSH2 0x9C9 DUP2 PUSH2 0xA53 JUMP JUMPDEST POP JUMP JUMPDEST PUSH2 0x9D4 PUSH2 0xB14 JUMP JUMPDEST PUSH20 0xFFFFFFFFFFFFFFFFFFFFFFFFFFFFFFFFFFFFFFFF AND PUSH2 0x9F2 PUSH2 0x57C JUMP JUMPDEST PUSH20 0xFFFFFFFFFFFFFFFFFFFFFFFFFFFFFFFFFFFFFFFF AND EQ PUSH2 0xA51 JUMPI PUSH2 0xA15 PUSH2 0xB14 JUMP JUMPDEST PUSH1 0x40 MLOAD PUSH32 0x118CDAA700000000000000000000000000000000000000000000000000000000 DUP2 MSTORE PUSH1 0x4 ADD PUSH2 0xA48 SWAP2 SWAP1 PUSH2 0xDC5 JUMP JUMPDEST PUSH1 0x40 MLOAD DUP1 SWAP2 SUB SWAP1 REVERT JUMPDEST JUMP JUMPDEST PUSH0 PUSH0 PUSH0 SWAP1 SLOAD SWAP1 PUSH2 0x100 EXP SWAP1 DIV PUSH20 0xFFFFFFFFFFFFFFFFFFFFFFFFFFFFFFFFFFFFFFFF AND SWAP1 POP DUP2 PUSH0 PUSH0 PUSH2 0x100 EXP DUP2 SLOAD DUP2 PUSH20 0xFFFFFFFFFFFFFFFFFFFFFFFFFFFFFFFFFFFFFFFF MUL NOT AND SWAP1 DUP4 PUSH20 0xFFFFFFFFFFFFFFFFFFFFFFFFFFFFFFFFFFFFFFFF AND MUL OR SWAP1 SSTORE POP DUP2 PUSH20 0xFFFFFFFFFFFFFFFFFFFFFFFFFFFFFFFFFFFFFFFF AND DUP2 PUSH20 0xFFFFFFFFFFFFFFFFFFFFFFFFFFFFFFFFFFFFFFFF AND PUSH32 0x8BE0079C531659141344CD1FD0A4F28419497F9722A3DAAFE3B4186F6B6457E0 PUSH1 0x40 MLOAD PUSH1 0x40 MLOAD DUP1 SWAP2 SUB SWAP1 LOG3 POP POP JUMP JUMPDEST PUSH0 CALLER SWAP1 POP SWAP1 JUMP JUMPDEST PUSH0 PUSH20 0xFFFFFFFFFFFFFFFFFFFFFFFFFFFFFFFFFFFFFFFF DUP3 AND SWAP1 POP SWAP2 SWAP1 POP JUMP JUMPDEST PUSH0 DUP2 SWAP1 POP SWAP2 SWAP1 POP JUMP JUMPDEST PUSH0 PUSH2 0xB5D PUSH2 0xB58 PUSH2 0xB53 DUP5 PUSH2 0xB1B JUMP JUMPDEST PUSH2 0xB3A JUMP JUMPDEST PUSH2 0xB1B JUMP JUMPDEST SWAP1 POP SWAP2 SWAP1 POP JUMP JUMPDEST PUSH0 PUSH2 0xB6E DUP3 PUSH2 0xB43 JUMP JUMPDEST SWAP1 POP SWAP2 SWAP1 POP JUMP JUMPDEST PUSH0 PUSH2 0xB7F DUP3 PUSH2 0xB64 JUMP JUMPDEST SWAP1 POP SWAP2 SWAP1 POP JUMP JUMPDEST PUSH2 0xB8F DUP2 PUSH2 0xB75 JUMP JUMPDEST DUP3 MSTORE POP POP JUMP JUMPDEST PUSH0 PUSH1 0x20 DUP3 ADD SWAP1 POP PUSH2 0xBA8 PUSH0 DUP4 ADD DUP5 PUSH2 0xB86 JUMP JUMPDEST SWAP3 SWAP2 POP POP JUMP JUMPDEST PUSH0 PUSH0 REVERT JUMPDEST PUSH0 PUSH0 REVERT JUMPDEST PUSH0 PUSH0 REVERT JUMPDEST PUSH0 PUSH0 REVERT JUMPDEST PUSH0 PUSH0 REVERT JUMPDEST PUSH0 PUSH0 DUP4 PUSH1 0x1F DUP5 ADD SLT PUSH2 0xBD7 JUMPI PUSH2 0xBD6 PUSH2 0xBB6 JUMP JUMPDEST JUMPDEST DUP3 CALLDATALOAD SWAP1 POP PUSH8 0xFFFFFFFFFFFFFFFF DUP2 GT ISZERO PUSH2 0xBF4 JUMPI PUSH2 0xBF3 PUSH2 0xBBA JUMP JUMPDEST JUMPDEST PUSH1 0x20 DUP4 ADD SWAP2 POP DUP4 PUSH1 0x20 DUP3 MUL DUP4 ADD GT ISZERO PUSH2 0xC10 JUMPI PUSH2 0xC0F PUSH2 0xBBE JUMP JUMPDEST JUMPDEST SWAP3 POP SWAP3 SWAP1 POP JUMP JUMPDEST PUSH0 PUSH0 DUP4 PUSH1 0x1F DUP5 ADD SLT PUSH2 0xC2C JUMPI PUSH2 0xC2B PUSH2 0xBB6 JUMP JUMPDEST JUMPDEST DUP3 CALLDATALOAD SWAP1 POP PUSH8 0xFFFFFFFFFFFFFFFF DUP2 GT ISZERO PUSH2 0xC49 JUMPI PUSH2 0xC48 PUSH2 0xBBA JUMP JUMPDEST JUMPDEST PUSH1 0x20 DUP4 ADD SWAP2 POP DUP4 PUSH1 0x20 DUP3 MUL DUP4 ADD GT ISZERO PUSH2 0xC65 JUMPI PUSH2 0xC64 PUSH2 0xBBE JUMP JUMPDEST JUMPDEST SWAP3 POP SWAP3 SWAP1 POP JUMP JUMPDEST PUSH0 PUSH0 DUP4 PUSH1 0x1F DUP5 ADD SLT PUSH2 0xC81 JUMPI PUSH2 0xC80 PUSH2 0xBB6 JUMP JUMPDEST JUMPDEST DUP3 CALLDATALOAD SWAP1 POP PUSH8 0xFFFFFFFFFFFFFFFF DUP2 GT ISZERO PUSH2 0xC9E JUMPI PUSH2 0xC9D PUSH2 0xBBA JUMP JUMPDEST JUMPDEST PUSH1 0x20 DUP4 ADD SWAP2 POP DUP4 PUSH1 0x20 DUP3 MUL DUP4 ADD GT ISZERO PUSH2 0xCBA JUMPI PUSH2 0xCB9 PUSH2 0xBBE JUMP JUMPDEST JUMPDEST SWAP3 POP SWAP3 SWAP1 POP JUMP JUMPDEST PUSH0 PUSH0 PUSH0 PUSH0 PUSH0 PUSH0 PUSH0 PUSH0 PUSH1 0x80 DUP10 DUP12 SUB SLT ISZERO PUSH2 0xCDD JUMPI PUSH2 0xCDC PUSH2 0xBAE JUMP JUMPDEST JUMPDEST PUSH0 DUP10 ADD CALLDATALOAD PUSH8 0xFFFFFFFFFFFFFFFF DUP2 GT ISZERO PUSH2 0xCFA JUMPI PUSH2 0xCF9 PUSH2 0xBB2 JUMP JUMPDEST JUMPDEST PUSH2 0xD06 DUP12 DUP3 DUP13 ADD PUSH2 0xBC2 JUMP JUMPDEST SWAP9 POP SWAP9 POP POP PUSH1 0x20 DUP10 ADD CALLDATALOAD PUSH8 0xFFFFFFFFFFFFFFFF DUP2 GT ISZERO PUSH2 0xD29 JUMPI PUSH2 0xD28 PUSH2 0xBB2 JUMP JUMPDEST JUMPDEST PUSH2 0xD35 DUP12 DUP3 DUP13 ADD PUSH2 0xC17 JUMP JUMPDEST SWAP7 POP SWAP7 POP POP PUSH1 0x40 DUP10 ADD CALLDATALOAD PUSH8 0xFFFFFFFFFFFFFFFF DUP2 GT ISZERO PUSH2 0xD58 JUMPI PUSH2 0xD57 PUSH2 0xBB2 JUMP JUMPDEST JUMPDEST PUSH2 0xD64 DUP12 DUP3 DUP13 ADD PUSH2 0xC6C JUMP JUMPDEST SWAP5 POP SWAP5 POP POP PUSH1 0x60 DUP10 ADD CALLDATALOAD PUSH8 0xFFFFFFFFFFFFFFFF DUP2 GT ISZERO PUSH2 0xD87 JUMPI PUSH2 0xD86 PUSH2 0xBB2 JUMP JUMPDEST JUMPDEST PUSH2 0xD93 DUP12 DUP3 DUP13 ADD PUSH2 0xC6C JUMP JUMPDEST SWAP3 POP SWAP3 POP POP SWAP3 SWAP6 SWAP9 POP SWAP3 SWAP6 SWAP9 SWAP1 SWAP4 SWAP7 POP JUMP JUMPDEST PUSH0 PUSH2 0xDAF DUP3 PUSH2 0xB1B JUMP JUMPDEST SWAP1 POP SWAP2 SWAP1 POP JUMP JUMPDEST PUSH2 0xDBF DUP2 PUSH2 0xDA5 JUMP JUMPDEST DUP3 MSTORE POP POP JUMP JUMPDEST PUSH0 PUSH1 0x20 DUP3 ADD SWAP1 POP PUSH2 0xDD8 PUSH0 DUP4 ADD DUP5 PUSH2 0xDB6 JUMP JUMPDEST SWAP3 SWAP2 POP POP JUMP JUMPDEST PUSH0 DUP2 SWAP1 POP SWAP2 SWAP1 POP JUMP JUMPDEST PUSH2 0xDF0 DUP2 PUSH2 0xDDE JUMP JUMPDEST DUP2 EQ PUSH2 0xDFA JUMPI PUSH0 PUSH0 REVERT JUMPDEST POP JUMP JUMPDEST PUSH0 DUP2 CALLDATALOAD SWAP1 POP PUSH2 0xE0B DUP2 PUSH2 0xDE7 JUMP JUMPDEST SWAP3 SWAP2 POP POP JUMP JUMPDEST PUSH0 PUSH1 0x20 DUP3 DUP5 SUB SLT ISZERO PUSH2 0xE26 JUMPI PUSH2 0xE25 PUSH2 0xBAE JUMP JUMPDEST JUMPDEST PUSH0 PUSH2 0xE33 DUP5 DUP3 DUP6 ADD PUSH2 0xDFD JUMP JUMPDEST SWAP2 POP POP SWAP3 SWAP2 POP POP JUMP JUMPDEST PUSH2 0xE45 DUP2 PUSH2 0xDA5 JUMP JUMPDEST DUP2 EQ PUSH2 0xE4F JUMPI PUSH0 PUSH0 REVERT JUMPDEST POP JUMP JUMPDEST PUSH0 DUP2 CALLDATALOAD SWAP1 POP PUSH2 0xE60 DUP2 PUSH2 0xE3C JUMP JUMPDEST SWAP3 SWAP2 POP POP JUMP JUMPDEST PUSH0 PUSH0 DUP4 PUSH1 0x1F DUP5 ADD SLT PUSH2 0xE7B JUMPI PUSH2 0xE7A PUSH2 0xBB6 JUMP JUMPDEST JUMPDEST DUP3 CALLDATALOAD SWAP1 POP PUSH8 0xFFFFFFFFFFFFFFFF DUP2 GT ISZERO PUSH2 0xE98 JUMPI PUSH2 0xE97 PUSH2 0xBBA JUMP JUMPDEST JUMPDEST PUSH1 0x20 DUP4 ADD SWAP2 POP DUP4 PUSH1 0x1 DUP3 MUL DUP4 ADD GT ISZERO PUSH2 0xEB4 JUMPI PUSH2 0xEB3 PUSH2 0xBBE JUMP JUMPDEST JUMPDEST SWAP3 POP SWAP3 SWAP1 POP JUMP JUMPDEST PUSH0 PUSH0 PUSH0 PUSH0 PUSH0 PUSH0 PUSH1 0x80 DUP8 DUP10 SUB SLT ISZERO PUSH2 0xED5 JUMPI PUSH2 0xED4 PUSH2 0xBAE JUMP JUMPDEST JUMPDEST PUSH0 PUSH2 0xEE2 DUP10 DUP3 DUP11 ADD PUSH2 0xE52 JUMP JUMPDEST SWAP7 POP POP PUSH1 0x20 PUSH2 0xEF3 DUP10 DUP3 DUP11 ADD PUSH2 0xDFD JUMP JUMPDEST SWAP6 POP POP PUSH1 0x40 DUP8 ADD CALLDATALOAD PUSH8 0xFFFFFFFFFFFFFFFF DUP2 GT ISZERO PUSH2 0xF14 JUMPI PUSH2 0xF13 PUSH2 0xBB2 JUMP JUMPDEST JUMPDEST PUSH2 0xF20 DUP10 DUP3 DUP11 ADD PUSH2 0xE66 JUMP JUMPDEST SWAP5 POP SWAP5 POP POP PUSH1 0x60 DUP8 ADD CALLDATALOAD PUSH8 0xFFFFFFFFFFFFFFFF DUP2 GT ISZERO PUSH2 0xF43 JUMPI PUSH2 0xF42 PUSH2 0xBB2 JUMP JUMPDEST JUMPDEST PUSH2 0xF4F DUP10 DUP3 DUP11 ADD PUSH2 0xE66 JUMP JUMPDEST SWAP3 POP SWAP3 POP POP SWAP3 SWAP6 POP SWAP3 SWAP6 POP SWAP3 SWAP6 JUMP JUMPDEST PUSH2 0xF67 DUP2 PUSH2 0xDDE JUMP JUMPDEST DUP3 MSTORE POP POP JUMP JUMPDEST PUSH0 PUSH1 0x20 DUP3 ADD SWAP1 POP PUSH2 0xF80 PUSH0 DUP4 ADD DUP5 PUSH2 0xF5E JUMP JUMPDEST SWAP3 SWAP2 POP POP JUMP JUMPDEST PUSH0 PUSH1 0x20 DUP3 DUP5 SUB SLT ISZERO PUSH2 0xF9B JUMPI PUSH2 0xF9A PUSH2 0xBAE JUMP JUMPDEST JUMPDEST PUSH0 PUSH2 0xFA8 DUP5 DUP3 DUP6 ADD PUSH2 0xE52 JUMP JUMPDEST SWAP2 POP POP SWAP3 SWAP2 POP POP JUMP JUMPDEST PUSH0 DUP2 MLOAD SWAP1 POP PUSH2 0xFBF DUP2 PUSH2 0xDE7 JUMP JUMPDEST SWAP3 SWAP2 POP POP JUMP JUMPDEST PUSH0 PUSH1 0x20 DUP3 DUP5 SUB SLT ISZERO PUSH2 0xFDA JUMPI PUSH2 0xFD9 PUSH2 0xBAE JUMP JUMPDEST JUMPDEST PUSH0 PUSH2 0xFE7 DUP5 DUP3 DUP6 ADD PUSH2 0xFB1 JUMP JUMPDEST SWAP2 POP POP SWAP3 SWAP2 POP POP JUMP JUMPDEST PUSH0 DUP3 DUP3 MSTORE PUSH1 0x20 DUP3 ADD SWAP1 POP SWAP3 SWAP2 POP POP JUMP JUMPDEST PUSH32 0x4E6F206665657320746F20776974686472617700000000000000000000000000 PUSH0 DUP3 ADD MSTORE POP JUMP JUMPDEST PUSH0 PUSH2 0x1034 PUSH1 0x13 DUP4 PUSH2 0xFF0 JUMP JUMPDEST SWAP2 POP PUSH2 0x103F DUP3 PUSH2 0x1000 JUMP JUMPDEST PUSH1 0x20 DUP3 ADD SWAP1 POP SWAP2 SWAP1 POP JUMP JUMPDEST PUSH0 PUSH1 0x20 DUP3 ADD SWAP1 POP DUP2 DUP2 SUB PUSH0 DUP4 ADD MSTORE PUSH2 0x1061 DUP2 PUSH2 0x1028 JUMP JUMPDEST SWAP1 POP SWAP2 SWAP1 POP JUMP JUMPDEST PUSH0 PUSH1 0x40 DUP3 ADD SWAP1 POP PUSH2 0x107B PUSH0 DUP4 ADD DUP6 PUSH2 0xDB6 JUMP JUMPDEST PUSH2 0x1088 PUSH1 0x20 DUP4 ADD DUP5 PUSH2 0xF5E JUMP JUMPDEST SWAP4 SWAP3 POP POP POP JUMP JUMPDEST PUSH0 DUP2 ISZERO ISZERO SWAP1 POP SWAP2 SWAP1 POP JUMP JUMPDEST PUSH2 0x10A3 DUP2 PUSH2 0x108F JUMP JUMPDEST DUP2 EQ PUSH2 0x10AD JUMPI PUSH0 PUSH0 REVERT JUMPDEST POP JUMP JUMPDEST PUSH0 DUP2 MLOAD SWAP1 POP PUSH2 0x10BE DUP2 PUSH2 0x109A JUMP JUMPDEST SWAP3 SWAP2 POP POP JUMP JUMPDEST PUSH0 PUSH1 0x20 DUP3 DUP5 SUB SLT ISZERO PUSH2 0x10D9 JUMPI PUSH2 0x10D8 PUSH2 0xBAE JUMP JUMPDEST JUMPDEST PUSH0 PUSH2 0x10E6 DUP5 DUP3 DUP6 ADD PUSH2 0x10B0 JUMP JUMPDEST SWAP2 POP POP SWAP3 SWAP2 POP POP JUMP JUMPDEST PUSH32 0x5769746864726177616C206661696C6564000000000000000000000000000000 PUSH0 DUP3 ADD MSTORE POP JUMP JUMPDEST PUSH0 PUSH2 0x1123 PUSH1 0x11 DUP4 PUSH2 0xFF0 JUMP JUMPDEST SWAP2 POP PUSH2 0x112E DUP3 PUSH2 0x10EF JUMP JUMPDEST PUSH1 0x20 DUP3 ADD SWAP1 POP SWAP2 SWAP1 POP JUMP JUMPDEST PUSH0 PUSH1 0x20 DUP3 ADD SWAP1 POP DUP2 DUP2 SUB PUSH0 DUP4 ADD MSTORE PUSH2 0x1150 DUP2 PUSH2 0x1117 JUMP JUMPDEST SWAP1 POP SWAP2 SWAP1 POP JUMP JUMPDEST PUSH32 0x4172726179206C656E677468206D69736D617463680000000000000000000000 PUSH0 DUP3 ADD MSTORE POP JUMP JUMPDEST PUSH0 PUSH2 0x118B PUSH1 0x15 DUP4 PUSH2 0xFF0 JUMP JUMPDEST SWAP2 POP PUSH2 0x1196 DUP3 PUSH2 0x1157 JUMP JUMPDEST PUSH1 0x20 DUP3 ADD SWAP1 POP SWAP2 SWAP1 POP JUMP JUMPDEST PUSH0 PUSH1 0x20 DUP3 ADD SWAP1 POP DUP2 DUP2 SUB PUSH0 DUP4 ADD MSTORE PUSH2 0x11B8 DUP2 PUSH2 0x117F JUMP JUMPDEST SWAP1 POP SWAP2 SWAP1 POP JUMP JUMPDEST PUSH32 0x4E487B7100000000000000000000000000000000000000000000000000000000 PUSH0 MSTORE PUSH1 0x32 PUSH1 0x4 MSTORE PUSH1 0x24 PUSH0 REVERT JUMPDEST PUSH0 PUSH0 REVERT JUMPDEST PUSH0 PUSH0 REVERT JUMPDEST PUSH0 PUSH0 REVERT JUMPDEST PUSH0 PUSH0 DUP4 CALLDATALOAD PUSH1 0x1 PUSH1 0x20 SUB DUP5 CALLDATASIZE SUB SUB DUP2 SLT PUSH2 0x1214 JUMPI PUSH2 0x1213 PUSH2 0x11EC JUMP JUMPDEST JUMPDEST DUP1 DUP5 ADD SWAP3 POP DUP3 CALLDATALOAD SWAP2 POP PUSH8 0xFFFFFFFFFFFFFFFF DUP3 GT ISZERO PUSH2 0x1236 JUMPI PUSH2 0x1235 PUSH2 0x11F0 JUMP JUMPDEST JUMPDEST PUSH1 0x20 DUP4 ADD SWAP3 POP PUSH1 0x1 DUP3 MUL CALLDATASIZE SUB DUP4 SGT ISZERO PUSH2 0x1252 JUMPI PUSH2 0x1251 PUSH2 0x11F4 JUMP JUMPDEST JUMPDEST POP SWAP3 POP SWAP3 SWAP1 POP JUMP JUMPDEST DUP3 DUP2 DUP4 CALLDATACOPY PUSH0 DUP4 DUP4 ADD MSTORE POP POP POP JUMP JUMPDEST PUSH0 PUSH1 0x1F NOT PUSH1 0x1F DUP4 ADD AND SWAP1 POP SWAP2 SWAP1 POP JUMP JUMPDEST PUSH0 PUSH2 0x1283 DUP4 DUP6 PUSH2 0xFF0 JUMP JUMPDEST SWAP4 POP PUSH2 0x1290 DUP4 DUP6 DUP5 PUSH2 0x125A JUMP JUMPDEST PUSH2 0x1299 DUP4 PUSH2 0x1268 JUMP JUMPDEST DUP5 ADD SWAP1 POP SWAP4 SWAP3 POP POP POP JUMP JUMPDEST PUSH0 PUSH1 0x80 DUP3 ADD SWAP1 POP PUSH2 0x12B7 PUSH0 DUP4 ADD DUP10 PUSH2 0xDB6 JUMP JUMPDEST PUSH2 0x12C4 PUSH1 0x20 DUP4 ADD DUP9 PUSH2 0xF5E JUMP JUMPDEST DUP2 DUP2 SUB PUSH1 0x40 DUP4 ADD MSTORE PUSH2 0x12D7 DUP2 DUP7 DUP9 PUSH2 0x1278 JUMP JUMPDEST SWAP1 POP DUP2 DUP2 SUB PUSH1 0x60 DUP4 ADD MSTORE PUSH2 0x12EC DUP2 DUP5 DUP7 PUSH2 0x1278 JUMP JUMPDEST SWAP1 POP SWAP8 SWAP7 POP POP POP POP POP POP POP JUMP JUMPDEST PUSH32 0x4665652063616E6E6F7420657863656564203130250000000000000000000000 PUSH0 DUP3 ADD MSTORE POP JUMP JUMPDEST PUSH0 PUSH2 0x132D PUSH1 0x15 DUP4 PUSH2 0xFF0 JUMP JUMPDEST SWAP2 POP PUSH2 0x1338 DUP3 PUSH2 0x12F9 JUMP JUMPDEST PUSH1 0x20 DUP3 ADD SWAP1 POP SWAP2 SWAP1 POP JUMP JUMPDEST PUSH0 PUSH1 0x20 DUP3 ADD SWAP1 POP DUP2 DUP2 SUB PUSH0 DUP4 ADD MSTORE PUSH2 0x135A DUP2 PUSH2 0x1321 JUMP JUMPDEST SWAP1 POP SWAP2 SWAP1 POP JUMP JUMPDEST PUSH32 0x416D6F756E74206D7573742062652067726561746572207468616E2030000000 PUSH0 DUP3 ADD MSTORE POP JUMP JUMPDEST PUSH0 PUSH2 0x1395 PUSH1 0x1D DUP4 PUSH2 0xFF0 JUMP JUMPDEST SWAP2 POP PUSH2 0x13A0 DUP3 PUSH2 0x1361 JUMP JUMPDEST PUSH1 0x20 DUP3 ADD SWAP1 POP SWAP2 SWAP1 POP JUMP JUMPDEST PUSH0 PUSH1 0x20 DUP3 ADD SWAP1 POP DUP2 DUP2 SUB PUSH0 DUP4 ADD MSTORE PUSH2 0x13C2 DUP2 PUSH2 0x1389 JUMP JUMPDEST SWAP1 POP SWAP2 SWAP1 POP JUMP JUMPDEST PUSH32 0x496E76616C69642063726561746F722061646472657373000000000000000000 PUSH0 DUP3 ADD MSTORE POP JUMP JUMPDEST PUSH0 PUSH2 0x13FD PUSH1 0x17 DUP4 PUSH2 0xFF0 JUMP JUMPDEST SWAP2 POP PUSH2 0x1408 DUP3 PUSH2 0x13C9 JUMP JUMPDEST PUSH1 0x20 DUP3 ADD SWAP1 POP SWAP2 SWAP1 POP JUMP JUMPDEST PUSH0 PUSH1 0x20 DUP3 ADD SWAP1 POP DUP2 DUP2 SUB PUSH0 DUP4 ADD MSTORE PUSH2 0x142A DUP2 PUSH2 0x13F1 JUMP JUMPDEST SWAP1 POP SWAP2 SWAP1 POP JUMP JUMPDEST PUSH32 0x4E487B7100000000000000000000000000000000000000000000000000000000 PUSH0 MSTORE PUSH1 0x11 PUSH1 0x4 MSTORE PUSH1 0x24 PUSH0 REVERT JUMPDEST PUSH0 PUSH2 0x1468 DUP3 PUSH2 0xDDE JUMP JUMPDEST SWAP2 POP PUSH2 0x1473 DUP4 PUSH2 0xDDE JUMP JUMPDEST SWAP3 POP DUP3 DUP3 MUL PUSH2 0x1481 DUP2 PUSH2 0xDDE JUMP JUMPDEST SWAP2 POP DUP3 DUP3 DIV DUP5 EQ DUP4 ISZERO OR PUSH2 0x1498 JUMPI PUSH2 0x1497 PUSH2 0x1431 JUMP JUMPDEST JUMPDEST POP SWAP3 SWAP2 POP POP JUMP JUMPDEST PUSH32 0x4E487B7100000000000000000000000000000000000000000000000000000000 PUSH0 MSTORE PUSH1 0x12 PUSH1 0x4 MSTORE PUSH1 0x24 PUSH0 REVERT JUMPDEST PUSH0 PUSH2 0x14D6 DUP3 PUSH2 0xDDE JUMP JUMPDEST SWAP2 POP PUSH2 0x14E1 DUP4 PUSH2 0xDDE JUMP JUMPDEST SWAP3 POP DUP3 PUSH2 0x14F1 JUMPI PUSH2 0x14F0 PUSH2 0x149F JUMP JUMPDEST JUMPDEST DUP3 DUP3 DIV SWAP1 POP SWAP3 SWAP2 POP POP JUMP JUMPDEST PUSH0 PUSH2 0x1506 DUP3 PUSH2 0xDDE JUMP JUMPDEST SWAP2 POP PUSH2 0x1511 DUP4 PUSH2 0xDDE JUMP JUMPDEST SWAP3 POP DUP3 DUP3 SUB SWAP1 POP DUP2 DUP2 GT ISZERO PUSH2 0x1529 JUMPI PUSH2 0x1528 PUSH2 0x1431 JUMP JUMPDEST JUMPDEST SWAP3 SWAP2 POP POP JUMP JUMPDEST PUSH0 PUSH1 0x60 DUP3 ADD SWAP1 POP PUSH2 0x1542 PUSH0 DUP4 ADD DUP7 PUSH2 0xDB6 JUMP JUMPDEST PUSH2 0x154F PUSH1 0x20 DUP4 ADD DUP6 PUSH2 0xDB6 JUMP JUMPDEST PUSH2 0x155C PUSH1 0x40 DUP4 ADD DUP5 PUSH2 0xF5E JUMP JUMPDEST SWAP5 SWAP4 POP POP POP POP JUMP JUMPDEST PUSH32 0x5472616E73666572206661696C65640000000000000000000000000000000000 PUSH0 DUP3 ADD MSTORE POP JUMP JUMPDEST PUSH0 PUSH2 0x1598 PUSH1 0xF DUP4 PUSH2 0xFF0 JUMP JUMPDEST SWAP2 POP PUSH2 0x15A3 DUP3 PUSH2 0x1564 JUMP JUMPDEST PUSH1 0x20 DUP3 ADD SWAP1 POP SWAP2 SWAP1 POP JUMP JUMPDEST PUSH0 PUSH1 0x20 DUP3 ADD SWAP1 POP DUP2 DUP2 SUB PUSH0 DUP4 ADD MSTORE PUSH2 0x15C5 DUP2 PUSH2 0x158C JUMP JUMPDEST SWAP1 POP SWAP2 SWAP1 POP JUMP JUMPDEST PUSH32 0x43726561746F72207472616E73666572206661696C6564000000000000000000 PUSH0 DUP3 ADD MSTORE POP JUMP JUMPDEST PUSH0 PUSH2 0x1600 PUSH1 0x17 DUP4 PUSH2 0xFF0 JUMP JUMPDEST SWAP2 POP PUSH2 0x160B DUP3 PUSH2 0x15CC JUMP JUMPDEST PUSH1 0x20 DUP3 ADD SWAP1 POP SWAP2 SWAP1 POP JUMP JUMPDEST PUSH0 PUSH1 0x20 DUP3 ADD SWAP1 POP DUP2 DUP2 SUB PUSH0 DUP4 ADD MSTORE PUSH2 0x162D DUP2 PUSH2 0x15F4 JUMP JUMPDEST SWAP1 POP SWAP2 SWAP1 POP JUMP JUMPDEST PUSH0 PUSH1 0x60 DUP3 ADD SWAP1 POP PUSH2 0x1647 PUSH0 DUP4 ADD DUP9 PUSH2 0xF5E JUMP JUMPDEST DUP2 DUP2 SUB PUSH1 0x20 DUP4 ADD MSTORE PUSH2 0x165A DUP2 DUP7 DUP9 PUSH2 0x1278 JUMP JUMPDEST SWAP1 POP DUP2 DUP2 SUB PUSH1 0x40 DUP4 ADD MSTORE PUSH2 0x166F DUP2 DUP5 DUP7 PUSH2 0x1278 JUMP JUMPDEST SWAP1 POP SWAP7 SWAP6 POP POP POP POP POP POP JUMP INVALID LOG2 PUSH5 0x6970667358 0x22 SLT KECCAK256 PUSH20 0xC4E2F576404BB5A83AB0DD980BB9E059D7A031D5 JUMPDEST COINBASE 0xB6 CALLVALUE 0xF6 SGT EXTCODESIZE OR MUL EXTSTATICCALL EQ PUSH5 0x736F6C6343 STOP ADDMOD 0x22 STOP CALLER "
    },
    "gasEstimates": {
      "creation": {
        "codeDepositCost": "1161800",
        "executionCost": "infinite",
        "totalCost": "infinite"
      },
      "external": {
        "FEE_DENOMINATOR()": "369",
        "batchPayCreators(address[],uint256[],string[],string[])": "infinite",
        "feeNumerator()": "2491",
        "owner()": "2603",
        "payCreator(address,uint256,string,string)": "infinite",
        "renounceOwnership()": "infinite",
        "setFeeNumerator(uint256)": "infinite",
        "transferOwnership(address)": "infinite",
        "usdc()": "infinite",
        "withdrawFees()": "infinite"
      }
    },
    "methodIdentifiers": {
      "FEE_DENOMINATOR()": "d73792a9",
      "batchPayCreators(address[],uint256[],string[],string[])": "5adbdfe8",
      "feeNumerator()": "e86dea4a",
      "owner()": "8da5cb5b",
      "payCreator(address,uint256,string,string)": "ba0cdff8",
      "renounceOwnership()": "715018a6",
      "setFeeNumerator(uint256)": "a45db911",
      "transferOwnership(address)": "f2fde38b",
      "usdc()": "3e413bee",
      "withdrawFees()": "476343ee"
    }
  },
  "storageLayout": {
    "storage": [
      {
        "astId": 582,
        "contract": "AgentTipEscrow.sol:AgentTipEscrow",
        "label": "_owner",
        "offset": 0,
        "slot": "0",
        "type": "t_address"
      },
      {
        "astId": 9,
        "contract": "AgentTipEscrow.sol:AgentTipEscrow",
        "label": "usdc",
        "offset": 0,
        "slot": "1",
        "type": "t_contract(IERC20)799"
      },
      {
        "astId": 15,
        "contract": "AgentTipEscrow.sol:AgentTipEscrow",
        "label": "feeNumerator",
        "offset": 0,
        "slot": "2",
        "type": "t_uint256"
      }
    ],
    "types": {
      "t_address": {
        "encoding": "inplace",
        "label": "address",
        "numberOfBytes": "20"
      },
      "t_contract(IERC20)799": {
        "encoding": "inplace",
        "label": "contract IERC20",
        "numberOfBytes": "20"
      },
      "t_uint256": {
        "encoding": "inplace",
        "label": "uint256",
        "numberOfBytes": "32"
      }
    }
  },
  "transientStorageLayout": {
    "storage": [],
    "types": null
  },
  "userdoc": {
    "kind": "user",
    "methods": {},
    "version": 1
  }
}