{
  "abi": [
    {
      "inputs": [
        {
          "internalType": "address",
          "name": "_usdcAddress",
          "type": "address"
        },
        {
          "internalType": "address",
          "name": "_ensRegistryAddress",
          "type": "address"
        },
        {
          "internalType": "address",
          "name": "initialOwner",
          "type": "address"
        }
      ],
      "stateMutability": "nonpayable",
      "type": "constructor"
    },
    {
      "inputs": [
        {
          "internalType": "address",
          "name": "owner",
          "type": "address"
        }
      ],
      "name": "OwnableInvalidOwner",
      "type": "error"
    },
    {
      "inputs": [
        {
          "internalType": "address",
          "name": "account",
          "type": "address"
        }
      ],
      "name": "OwnableUnauthorizedAccount",
      "type": "error"
    },
    {
      "anonymous": false,
      "inputs": [
        {
          "indexed": true,
          "internalType": "address",
          "name": "creator",
          "type": "address"
        },
        {
          "indexed": false,
          "internalType": "uint256",
          "name": "amount",
          "type": "uint256"
        }
      ],
      "name": "Deposited",
      "type": "event"
    },
    {
      "anonymous": false,
      "inputs": [
        {
          "indexed": true,
          "internalType": "address",
          "name": "previousOwner",
          "type": "address"
        },
        {
          "indexed": true,
          "internalType": "address",
          "name": "newOwner",
          "type": "address"
        }
      ],
      "name": "OwnershipTransferred",
      "type": "event"
    },
    {
      "anonymous": false,
      "inputs": [
        {
          "indexed": true,
          "internalType": "address",
          "name": "creator",
          "type": "address"
        },
        {
          "indexed": false,
          "internalType": "uint256",
          "name": "totalDistributed",
          "type": "uint256"
        }
      ],
      "name": "WillExecuted",
      "type": "event"
    },
    {
      "anonymous": false,
      "inputs": [
        {
          "indexed": true,
          "internalType": "address",
          "name": "creator",
          "type": "address"
        },
        {
          "indexed": false,
          "internalType": "uint256",
          "name": "amount",
          "type": "uint256"
        }
      ],
      "name": "Withdrawn",
      "type": "event"
    },
    {
      "inputs": [
        {
          "internalType": "address",
          "name": "",
          "type": "address"
        }
      ],
      "name": "balances",
      "outputs": [
        {
          "internalType": "uint256",
          "name": "",
          "type": "uint256"
        }
      ],
      "stateMutability": "view",
      "type": "function"
    },
    {
      "inputs": [
        {
          "internalType": "uint256",
          "name": "amount",
          "type": "uint256"
        }
      ],
      "name": "deposit",
      "outputs": [],
      "stateMutability": "nonpayable",
      "type": "function"
    },
    {
      "inputs": [],
      "name": "ensRegistry",
      "outputs": [
        {
          "internalType": "contract IENSRegistry",
          "name": "",
          "type": "address"
        }
      ],
      "stateMutability": "view",
      "type": "function"
    },
    {
      "inputs": [
        {
          "internalType": "address",
          "name": "creator",
          "type": "address"
        },
        {
          "internalType": "address[]",
          "name": "recipients",
          "type": "address[]"
        },
        {
          "internalType": "uint256[]",
          "name": "basisPoints",
          "type": "uint256[]"
        }
      ],
      "name": "executeWill",
      "outputs": [],
      "stateMutability": "nonpayable",
      "type": "function"
    },
    {
      "inputs": [
        {
          "internalType": "address",
          "name": "",
          "type": "address"
        }
      ],
      "name": "lastActive",
      "outputs": [
        {
          "internalType": "uint256",
          "name": "",
          "type": "uint256"
        }
      ],
      "stateMutability": "view",
      "type": "function"
    },
    {
      "inputs": [],
      "name": "owner",
      "outputs": [
        {
          "internalType": "address",
          "name": "",
          "type": "address"
        }
      ],
      "stateMutability": "view",
      "type": "function"
    },
    {
      "inputs": [],
      "name": "ping",
      "outputs": [],
      "stateMutability": "nonpayable",
      "type": "function"
    },
    {
      "inputs": [],
      "name": "renounceOwnership",
      "outputs": [],
      "stateMutability": "nonpayable",
      "type": "function"
    },
    {
      "inputs": [
        {
          "internalType": "address",
          "name": "newOwner",
          "type": "address"
        }
      ],
      "name": "transferOwnership",
      "outputs": [],
      "stateMutability": "nonpayable",
      "type": "function"
    },
    {
      "inputs": [],
      "name": "usdc",
      "outputs": [
        {
          "internalType": "contract IERC20",
          "name": "",
          "type": "address"
        }
      ],
      "stateMutability": "view",
      "type": "function"
    },
    {
      "inputs": [
        {
          "internalType": "uint256",
          "name": "amount",
          "type": "uint256"
        }
      ],
      "name": "withdraw",
      "outputs": [],
      "stateMutability": "nonpayable",
      "type": "function"
    }
  ],
  "devdoc": {
    "details": "Autonomous DeFi Will executed by reading ENS text records directly on-chain.",
    "errors": {
      "OwnableInvalidOwner(address)": [
        {
          "details": "The owner is not a valid owner account. (eg. `address(0)`)"
        }
      ],
      "OwnableUnauthorizedAccount(address)": [
        {
          "details": "The caller account is not authorized to perform an operation."
        }
      ]
    },
    "kind": "dev",
    "methods": {
      "deposit(uint256)": {
        "details": "Deposit USDC into the Will escrow"
      },
      "executeWill(address,address[],uint256[])": {
        "details": "Note: For the actual implementation to be fully autonomous *on-chain*, parsing complex strings (like \"friend.eth:60,gitcoin.eth:40\") and resolving  multiple ENS names inside the EVM is highly gas-intensive.   In a production Rollup environment, this function would likely accept the  off-chain resolved addresses and percentages, verify them via CCIP Read or  require the executor to provide Merkle proofs of the ENS text records.  For this implementation phase, we rely on the backend executor to pass the  resolved beneficiaries and verify the idle time off-chain before calling this."
      },
      "owner()": {
        "details": "Returns the address of the current owner."
      },
      "ping()": {
        "details": "Keep-alive ping to reset the inactivity timer without withdrawing."
      },
      "renounceOwnership()": {
        "details": "Leaves the contract without owner. It will not be possible to call `onlyOwner` functions. Can only be called by the current owner. NOTE: Renouncing ownership will leave the contract without an owner, thereby disabling any functionality that is only available to the owner."
      },
      "transferOwnership(address)": {
        "details": "Transfers ownership of the contract to a new account (`newOwner`). Can only be called by the current owner."
      },
      "withdraw(uint256)": {
        "details": "Creator withdraws their own funds, resetting their inactivity timer."
      }
    },
    "title": "AgentTipWill",
    "version": 1
  },
  "evm": {
    "assembly": "    /* \"AgentTipWill.sol\":651:4164  contract AgentTipWill is Ownable {... */\n  mstore(0x40, 0x80)\n    /* \"AgentTipWill.sol\":1165:1404  constructor(... */\n  callvalue\n  dup1\n  iszero\n  tag_1\n  jumpi\n  revert(0x00, 0x00)\ntag_1:\n  pop\n  mload(0x40)\n  sub(codesize, bytecodeSize)\n  dup1\n  bytecodeSize\n  dup4\n  codecopy\n  dup2\n  dup2\n  add\n  0x40\n  mstore\n  dup2\n  add\n  swap1\n  tag_2\n  swap2\n  swap1\n  tag_3\n  jump\t// in\ntag_2:\n    /* \"AgentTipWill.sol\":1289:1301  initialOwner */\n  dup1\n    /* \"@openzeppelin/contracts/access/Ownable.sol\":1297:1298   */\n  0x00\n    /* \"@openzeppelin/contracts/access/Ownable.sol\":1273:1299   */\n  0xffffffffffffffffffffffffffffffffffffffff\n  and\n    /* \"@openzeppelin/contracts/access/Ownable.sol\":1273:1285   */\n  dup2\n    /* \"@openzeppelin/contracts/access/Ownable.sol\":1273:1299   */\n  0xffffffffffffffffffffffffffffffffffffffff\n  and\n  sub\n    /* \"@openzeppelin/contracts/access/Ownable.sol\":1269:1364   */\n  tag_7\n  jumpi\n    /* \"@openzeppelin/contracts/access/Ownable.sol\":1350:1351   */\n  0x00\n    /* \"@openzeppelin/contracts/access/Ownable.sol\":1322:1353   */\n  mload(0x40)\n  0x1e4fbdf700000000000000000000000000000000000000000000000000000000\n  dup2\n  mstore\n  0x04\n  add\n  tag_8\n  swap2\n  swap1\n  tag_9\n  jump\t// in\ntag_8:\n  mload(0x40)\n  dup1\n  swap2\n  sub\n  swap1\n  revert\n    /* \"@openzeppelin/contracts/access/Ownable.sol\":1269:1364   */\ntag_7:\n    /* \"@openzeppelin/contracts/access/Ownable.sol\":1373:1405   */\n  tag_10\n    /* \"@openzeppelin/contracts/access/Ownable.sol\":1392:1404   */\n  dup2\n    /* \"@openzeppelin/contracts/access/Ownable.sol\":1373:1391   */\n  shl(0x20, tag_11)\n    /* \"@openzeppelin/contracts/access/Ownable.sol\":1373:1405   */\n  0x20\n  shr\n  jump\t// in\ntag_10:\n    /* \"@openzeppelin/contracts/access/Ownable.sol\":1225:1412   */\n  pop\n    /* \"AgentTipWill.sol\":1327:1339  _usdcAddress */\n  dup3\n    /* \"AgentTipWill.sol\":1313:1317  usdc */\n  0x01\n  0x00\n    /* \"AgentTipWill.sol\":1313:1340  usdc = IERC20(_usdcAddress) */\n  0x0100\n  exp\n  dup2\n  sload\n  dup2\n  0xffffffffffffffffffffffffffffffffffffffff\n  mul\n  not\n  and\n  swap1\n  dup4\n  0xffffffffffffffffffffffffffffffffffffffff\n  and\n  mul\n  or\n  swap1\n  sstore\n  pop\n    /* \"AgentTipWill.sol\":1377:1396  _ensRegistryAddress */\n  dup2\n    /* \"AgentTipWill.sol\":1350:1361  ensRegistry */\n  0x02\n  0x00\n    /* \"AgentTipWill.sol\":1350:1397  ensRegistry = IENSRegistry(_ensRegistryAddress) */\n  0x0100\n  exp\n  dup2\n  sload\n  dup2\n  0xffffffffffffffffffffffffffffffffffffffff\n  mul\n  not\n  and\n  swap1\n  dup4\n  0xffffffffffffffffffffffffffffffffffffffff\n  and\n  mul\n  or\n  swap1\n  sstore\n  pop\n    /* \"AgentTipWill.sol\":1165:1404  constructor(... */\n  pop\n  pop\n  pop\n    /* \"AgentTipWill.sol\":651:4164  contract AgentTipWill is Ownable {... */\n  jump(tag_13)\n    /* \"@openzeppelin/contracts/access/Ownable.sol\":2912:3099   */\ntag_11:\n    /* \"@openzeppelin/contracts/access/Ownable.sol\":2985:3001   */\n  0x00\n    /* \"@openzeppelin/contracts/access/Ownable.sol\":3004:3010   */\n  0x00\n  0x00\n  swap1\n  sload\n  swap1\n  0x0100\n  exp\n  swap1\n  div\n  0xffffffffffffffffffffffffffffffffffffffff\n  and\n    /* \"@openzeppelin/contracts/access/Ownable.sol\":2985:3010   */\n  swap1\n  pop\n    /* \"@openzeppelin/contracts/access/Ownable.sol\":3029:3037   */\n  dup2\n    /* \"@openzeppelin/contracts/access/Ownable.sol\":3020:3026   */\n  0x00\n  0x00\n    /* \"@openzeppelin/contracts/access/Ownable.sol\":3020:3037   */\n  0x0100\n  exp\n  dup2\n  sload\n  dup2\n  0xffffffffffffffffffffffffffffffffffffffff\n  mul\n  not\n  and\n  swap1\n  dup4\n  0xffffffffffffffffffffffffffffffffffffffff\n  and\n  mul\n  or\n  swap1\n  sstore\n  pop\n    /* \"@openzeppelin/contracts/access/Ownable.sol\":3083:3091   */\n  dup2\n    /* \"@openzeppelin/contracts/access/Ownable.sol\":3052:3092   */\n  0xffffffffffffffffffffffffffffffffffffffff\n  and\n    /* \"@openzeppelin/contracts/access/Ownable.sol\":3073:3081   */\n  dup2\n    /* \"@openzeppelin/contracts/access/Ownable.sol\":3052:3092   */\n  0xffffffffffffffffffffffffffffffffffffffff\n  and\n  0x8be0079c531659141344cd1fd0a4f28419497f9722a3daafe3b4186f6b6457e0\n  mload(0x40)\n  mload(0x40)\n  dup1\n  swap2\n  sub\n  swap1\n  log3\n    /* \"@openzeppelin/contracts/access/Ownable.sol\":2975:3099   */\n  pop\n    /* \"@openzeppelin/contracts/access/Ownable.sol\":2912:3099   */\n  pop\n  jump\t// out\n    /* \"#utility.yul\":88:205   */\ntag_16:\n    /* \"#utility.yul\":197:198   */\n  0x00\n    /* \"#utility.yul\":194:195   */\n  0x00\n    /* \"#utility.yul\":187:199   */\n  revert\n    /* \"#utility.yul\":334:460   */\ntag_18:\n    /* \"#utility.yul\":371:378   */\n  0x00\n    /* \"#utility.yul\":411:453   */\n  0xffffffffffffffffffffffffffffffffffffffff\n    /* \"#utility.yul\":404:409   */\n  dup3\n    /* \"#utility.yul\":400:454   */\n  and\n    /* \"#utility.yul\":389:454   */\n  swap1\n  pop\n    /* \"#utility.yul\":334:460   */\n  swap2\n  swap1\n  pop\n  jump\t// out\n    /* \"#utility.yul\":466:562   */\ntag_19:\n    /* \"#utility.yul\":503:510   */\n  0x00\n    /* \"#utility.yul\":532:556   */\n  tag_29\n    /* \"#utility.yul\":550:555   */\n  dup3\n    /* \"#utility.yul\":532:556   */\n  tag_18\n  jump\t// in\ntag_29:\n    /* \"#utility.yul\":521:556   */\n  swap1\n  pop\n    /* \"#utility.yul\":466:562   */\n  swap2\n  swap1\n  pop\n  jump\t// out\n    /* \"#utility.yul\":568:690   */\ntag_20:\n    /* \"#utility.yul\":641:665   */\n  tag_31\n    /* \"#utility.yul\":659:664   */\n  dup2\n    /* \"#utility.yul\":641:665   */\n  tag_19\n  jump\t// in\ntag_31:\n    /* \"#utility.yul\":634:639   */\n  dup2\n    /* \"#utility.yul\":631:666   */\n  eq\n    /* \"#utility.yul\":621:684   */\n  tag_32\n  jumpi\n    /* \"#utility.yul\":680:681   */\n  0x00\n    /* \"#utility.yul\":677:678   */\n  0x00\n    /* \"#utility.yul\":670:682   */\n  revert\n    /* \"#utility.yul\":621:684   */\ntag_32:\n    /* \"#utility.yul\":568:690   */\n  pop\n  jump\t// out\n    /* \"#utility.yul\":696:839   */\ntag_21:\n    /* \"#utility.yul\":753:758   */\n  0x00\n    /* \"#utility.yul\":784:790   */\n  dup2\n    /* \"#utility.yul\":778:791   */\n  mload\n    /* \"#utility.yul\":769:791   */\n  swap1\n  pop\n    /* \"#utility.yul\":800:833   */\n  tag_34\n    /* \"#utility.yul\":827:832   */\n  dup2\n    /* \"#utility.yul\":800:833   */\n  tag_20\n  jump\t// in\ntag_34:\n    /* \"#utility.yul\":696:839   */\n  swap3\n  swap2\n  pop\n  pop\n  jump\t// out\n    /* \"#utility.yul\":845:1508   */\ntag_3:\n    /* \"#utility.yul\":933:939   */\n  0x00\n    /* \"#utility.yul\":941:947   */\n  0x00\n    /* \"#utility.yul\":949:955   */\n  0x00\n    /* \"#utility.yul\":998:1000   */\n  0x60\n    /* \"#utility.yul\":986:995   */\n  dup5\n    /* \"#utility.yul\":977:984   */\n  dup7\n    /* \"#utility.yul\":973:996   */\n  sub\n    /* \"#utility.yul\":969:1001   */\n  slt\n    /* \"#utility.yul\":966:1085   */\n  iszero\n  tag_36\n  jumpi\n    /* \"#utility.yul\":1004:1083   */\n  tag_37\n  tag_16\n  jump\t// in\ntag_37:\n    /* \"#utility.yul\":966:1085   */\ntag_36:\n    /* \"#utility.yul\":1124:1125   */\n  0x00\n    /* \"#utility.yul\":1149:1213   */\n  tag_38\n    /* \"#utility.yul\":1205:1212   */\n  dup7\n    /* \"#utility.yul\":1196:1202   */\n  dup3\n    /* \"#utility.yul\":1185:1194   */\n  dup8\n    /* \"#utility.yul\":1181:1203   */\n  add\n    /* \"#utility.yul\":1149:1213   */\n  tag_21\n  jump\t// in\ntag_38:\n    /* \"#utility.yul\":1139:1213   */\n  swap4\n  pop\n    /* \"#utility.yul\":1095:1223   */\n  pop\n    /* \"#utility.yul\":1262:1264   */\n  0x20\n    /* \"#utility.yul\":1288:1352   */\n  tag_39\n    /* \"#utility.yul\":1344:1351   */\n  dup7\n    /* \"#utility.yul\":1335:1341   */\n  dup3\n    /* \"#utility.yul\":1324:1333   */\n  dup8\n    /* \"#utility.yul\":1320:1342   */\n  add\n    /* \"#utility.yul\":1288:1352   */\n  tag_21\n  jump\t// in\ntag_39:\n    /* \"#utility.yul\":1278:1352   */\n  swap3\n  pop\n    /* \"#utility.yul\":1233:1362   */\n  pop\n    /* \"#utility.yul\":1401:1403   */\n  0x40\n    /* \"#utility.yul\":1427:1491   */\n  tag_40\n    /* \"#utility.yul\":1483:1490   */\n  dup7\n    /* \"#utility.yul\":1474:1480   */\n  dup3\n    /* \"#utility.yul\":1463:1472   */\n  dup8\n    /* \"#utility.yul\":1459:1481   */\n  add\n    /* \"#utility.yul\":1427:1491   */\n  tag_21\n  jump\t// in\ntag_40:\n    /* \"#utility.yul\":1417:1491   */\n  swap2\n  pop\n    /* \"#utility.yul\":1372:1501   */\n  pop\n    /* \"#utility.yul\":845:1508   */\n  swap3\n  pop\n  swap3\n  pop\n  swap3\n  jump\t// out\n    /* \"#utility.yul\":1514:1632   */\ntag_22:\n    /* \"#utility.yul\":1601:1625   */\n  tag_42\n    /* \"#utility.yul\":1619:1624   */\n  dup2\n    /* \"#utility.yul\":1601:1625   */\n  tag_19\n  jump\t// in\ntag_42:\n    /* \"#utility.yul\":1596:1599   */\n  dup3\n    /* \"#utility.yul\":1589:1626   */\n  mstore\n    /* \"#utility.yul\":1514:1632   */\n  pop\n  pop\n  jump\t// out\n    /* \"#utility.yul\":1638:1860   */\ntag_9:\n    /* \"#utility.yul\":1731:1735   */\n  0x00\n    /* \"#utility.yul\":1769:1771   */\n  0x20\n    /* \"#utility.yul\":1758:1767   */\n  dup3\n    /* \"#utility.yul\":1754:1772   */\n  add\n    /* \"#utility.yul\":1746:1772   */\n  swap1\n  pop\n    /* \"#utility.yul\":1782:1853   */\n  tag_44\n    /* \"#utility.yul\":1850:1851   */\n  0x00\n    /* \"#utility.yul\":1839:1848   */\n  dup4\n    /* \"#utility.yul\":1835:1852   */\n  add\n    /* \"#utility.yul\":1826:1832   */\n  dup5\n    /* \"#utility.yul\":1782:1853   */\n  tag_22\n  jump\t// in\ntag_44:\n    /* \"#utility.yul\":1638:1860   */\n  swap3\n  swap2\n  pop\n  pop\n  jump\t// out\n    /* \"AgentTipWill.sol\":651:4164  contract AgentTipWill is Ownable {... */\ntag_13:\n  dataSize(sub_0)\n  dup1\n  dataOffset(sub_0)\n  0x00\n  codecopy\n  0x00\n  return\nstop\n\nsub_0: assembly {\n        /* \"AgentTipWill.sol\":651:4164  contract AgentTipWill is Ownable {... */\n      mstore(0x40, 0x80)\n      callvalue\n      dup1\n      iszero\n      tag_1\n      jumpi\n      revert(0x00, 0x00)\n    tag_1:\n      pop\n      jumpi(tag_2, lt(calldatasize, 0x04))\n      shr(0xe0, calldataload(0x00))\n      dup1\n      0x7d73b231\n      gt\n      tag_14\n      jumpi\n      dup1\n      0x7d73b231\n      eq\n      tag_8\n      jumpi\n      dup1\n      0x8da5cb5b\n      eq\n      tag_9\n      jumpi\n      dup1\n      0xb6b55f25\n      eq\n      tag_10\n      jumpi\n      dup1\n      0xc2ec28d6\n      eq\n      tag_11\n      jumpi\n      dup1\n      0xed8c9776\n      eq\n      tag_12\n      jumpi\n      dup1\n      0xf2fde38b\n      eq\n      tag_13\n      jumpi\n      jump(tag_2)\n    tag_14:\n      dup1\n      0x27e235e3\n      eq\n      tag_3\n      jumpi\n      dup1\n      0x2e1a7d4d\n      eq\n      tag_4\n      jumpi\n      dup1\n      0x3e413bee\n      eq\n      tag_5\n      jumpi\n      dup1\n      0x5c36b186\n      eq\n      tag_6\n      jumpi\n      dup1\n      0x715018a6\n      eq\n      tag_7\n      jumpi\n    tag_2:\n      revert(0x00, 0x00)\n        /* \"AgentTipWill.sol\":805:848  mapping(address => uint256) public balances */\n    tag_3:\n      tag_15\n      0x04\n      dup1\n      calldatasize\n      sub\n      dup2\n      add\n      swap1\n      tag_16\n      swap2\n      swap1\n      tag_17\n      jump\t// in\n    tag_16:\n      tag_18\n      jump\t// in\n    tag_15:\n      mload(0x40)\n      tag_19\n      swap2\n      swap1\n      tag_20\n      jump\t// in\n    tag_19:\n      mload(0x40)\n      dup1\n      swap2\n      sub\n      swap1\n      return\n        /* \"AgentTipWill.sol\":1901:2232  function withdraw(uint256 amount) external {... */\n    tag_4:\n      tag_21\n      0x04\n      dup1\n      calldatasize\n      sub\n      dup2\n      add\n      swap1\n      tag_22\n      swap2\n      swap1\n      tag_23\n      jump\t// in\n    tag_22:\n      tag_24\n      jump\t// in\n    tag_21:\n      stop\n        /* \"AgentTipWill.sol\":690:708  IERC20 public usdc */\n    tag_5:\n      tag_25\n      tag_26\n      jump\t// in\n    tag_25:\n      mload(0x40)\n      tag_27\n      swap2\n      swap1\n      tag_28\n      jump\t// in\n    tag_27:\n      mload(0x40)\n      dup1\n      swap2\n      sub\n      swap1\n      return\n        /* \"AgentTipWill.sol\":2333:2415  function ping() external {... */\n    tag_6:\n      tag_29\n      tag_30\n      jump\t// in\n    tag_29:\n      stop\n        /* \"@openzeppelin/contracts/access/Ownable.sol\":2293:2394   */\n    tag_7:\n      tag_31\n      tag_32\n      jump\t// in\n    tag_31:\n      stop\n        /* \"AgentTipWill.sol\":714:745  IENSRegistry public ensRegistry */\n    tag_8:\n      tag_33\n      tag_34\n      jump\t// in\n    tag_33:\n      mload(0x40)\n      tag_35\n      swap2\n      swap1\n      tag_36\n      jump\t// in\n    tag_35:\n      mload(0x40)\n      dup1\n      swap2\n      sub\n      swap1\n      return\n        /* \"@openzeppelin/contracts/access/Ownable.sol\":1638:1723   */\n    tag_9:\n      tag_37\n      tag_38\n      jump\t// in\n    tag_37:\n      mload(0x40)\n      tag_39\n      swap2\n      swap1\n      tag_40\n      jump\t// in\n    tag_39:\n      mload(0x40)\n      dup1\n      swap2\n      sub\n      swap1\n      return\n        /* \"AgentTipWill.sol\":1472:1798  function deposit(uint256 amount) external {... */\n    tag_10:\n      tag_41\n      0x04\n      dup1\n      calldatasize\n      sub\n      dup2\n      add\n      swap1\n      tag_42\n      swap2\n      swap1\n      tag_23\n      jump\t// in\n    tag_42:\n      tag_43\n      jump\t// in\n    tag_41:\n      stop\n        /* \"AgentTipWill.sol\":913:958  mapping(address => uint256) public lastActive */\n    tag_11:\n      tag_44\n      0x04\n      dup1\n      calldatasize\n      sub\n      dup2\n      add\n      swap1\n      tag_45\n      swap2\n      swap1\n      tag_17\n      jump\t// in\n    tag_45:\n      tag_46\n      jump\t// in\n    tag_44:\n      mload(0x40)\n      tag_47\n      swap2\n      swap1\n      tag_20\n      jump\t// in\n    tag_47:\n      mload(0x40)\n      dup1\n      swap2\n      sub\n      swap1\n      return\n        /* \"AgentTipWill.sol\":3099:4162  function executeWill(... */\n    tag_12:\n      tag_48\n      0x04\n      dup1\n      calldatasize\n      sub\n      dup2\n      add\n      swap1\n      tag_49\n      swap2\n      swap1\n      tag_50\n      jump\t// in\n    tag_49:\n      tag_51\n      jump\t// in\n    tag_48:\n      stop\n        /* \"@openzeppelin/contracts/access/Ownable.sol\":2543:2758   */\n    tag_13:\n      tag_52\n      0x04\n      dup1\n      calldatasize\n      sub\n      dup2\n      add\n      swap1\n      tag_53\n      swap2\n      swap1\n      tag_17\n      jump\t// in\n    tag_53:\n      tag_54\n      jump\t// in\n    tag_52:\n      stop\n        /* \"AgentTipWill.sol\":805:848  mapping(address => uint256) public balances */\n    tag_18:\n      mstore(0x20, 0x03)\n      dup1\n      0x00\n      mstore\n      keccak256(0x00, 0x40)\n      0x00\n      swap2\n      pop\n      swap1\n      pop\n      sload\n      dup2\n      jump\t// out\n        /* \"AgentTipWill.sol\":1901:2232  function withdraw(uint256 amount) external {... */\n    tag_24:\n        /* \"AgentTipWill.sol\":1986:1992  amount */\n      dup1\n        /* \"AgentTipWill.sol\":1962:1970  balances */\n      0x03\n        /* \"AgentTipWill.sol\":1962:1982  balances[msg.sender] */\n      0x00\n        /* \"AgentTipWill.sol\":1971:1981  msg.sender */\n      caller\n        /* \"AgentTipWill.sol\":1962:1982  balances[msg.sender] */\n      0xffffffffffffffffffffffffffffffffffffffff\n      and\n      0xffffffffffffffffffffffffffffffffffffffff\n      and\n      dup2\n      mstore\n      0x20\n      add\n      swap1\n      dup2\n      mstore\n      0x20\n      add\n      0x00\n      keccak256\n      sload\n        /* \"AgentTipWill.sol\":1962:1992  balances[msg.sender] >= amount */\n      lt\n      iszero\n        /* \"AgentTipWill.sol\":1954:2017  require(balances[msg.sender] >= amount, \"Insufficient balance\") */\n      tag_56\n      jumpi\n      mload(0x40)\n      0x08c379a000000000000000000000000000000000000000000000000000000000\n      dup2\n      mstore\n      0x04\n      add\n      tag_57\n      swap1\n      tag_58\n      jump\t// in\n    tag_57:\n      mload(0x40)\n      dup1\n      swap2\n      sub\n      swap1\n      revert\n    tag_56:\n        /* \"AgentTipWill.sol\":2052:2058  amount */\n      dup1\n        /* \"AgentTipWill.sol\":2028:2036  balances */\n      0x03\n        /* \"AgentTipWill.sol\":2028:2048  balances[msg.sender] */\n      0x00\n        /* \"AgentTipWill.sol\":2037:2047  msg.sender */\n      caller\n        /* \"AgentTipWill.sol\":2028:2048  balances[msg.sender] */\n      0xffffffffffffffffffffffffffffffffffffffff\n      and\n      0xffffffffffffffffffffffffffffffffffffffff\n      and\n      dup2\n      mstore\n      0x20\n      add\n      swap1\n      dup2\n      mstore\n      0x20\n      add\n      0x00\n      keccak256\n      0x00\n        /* \"AgentTipWill.sol\":2028:2058  balances[msg.sender] -= amount */\n      dup3\n      dup3\n      sload\n      tag_59\n      swap2\n      swap1\n      tag_60\n      jump\t// in\n    tag_59:\n      swap3\n      pop\n      pop\n      dup2\n      swap1\n      sstore\n      pop\n        /* \"AgentTipWill.sol\":2093:2108  block.timestamp */\n      timestamp\n        /* \"AgentTipWill.sol\":2068:2078  lastActive */\n      0x04\n        /* \"AgentTipWill.sol\":2068:2090  lastActive[msg.sender] */\n      0x00\n        /* \"AgentTipWill.sol\":2079:2089  msg.sender */\n      caller\n        /* \"AgentTipWill.sol\":2068:2090  lastActive[msg.sender] */\n      0xffffffffffffffffffffffffffffffffffffffff\n      and\n      0xffffffffffffffffffffffffffffffffffffffff\n      and\n      dup2\n      mstore\n      0x20\n      add\n      swap1\n      dup2\n      mstore\n      0x20\n      add\n      0x00\n      keccak256\n        /* \"AgentTipWill.sol\":2068:2108  lastActive[msg.sender] = block.timestamp */\n      dup2\n      swap1\n      sstore\n      pop\n        /* \"AgentTipWill.sol\":2127:2131  usdc */\n      0x01\n      0x00\n      swap1\n      sload\n      swap1\n      0x0100\n      exp\n      swap1\n      div\n      0xffffffffffffffffffffffffffffffffffffffff\n      and\n        /* \"AgentTipWill.sol\":2127:2140  usdc.transfer */\n      0xffffffffffffffffffffffffffffffffffffffff\n      and\n      0xa9059cbb\n        /* \"AgentTipWill.sol\":2141:2151  msg.sender */\n      caller\n        /* \"AgentTipWill.sol\":2153:2159  amount */\n      dup4\n        /* \"AgentTipWill.sol\":2127:2160  usdc.transfer(msg.sender, amount) */\n      mload(0x40)\n      dup4\n      0xffffffff\n      and\n      0xe0\n      shl\n      dup2\n      mstore\n      0x04\n      add\n      tag_61\n      swap3\n      swap2\n      swap1\n      tag_62\n      jump\t// in\n    tag_61:\n      0x20\n      mload(0x40)\n      dup1\n      dup4\n      sub\n      dup2\n      0x00\n      dup8\n      gas\n      call\n      iszero\n      dup1\n      iszero\n      tag_64\n      jumpi\n      returndatacopy(0x00, 0x00, returndatasize)\n      revert(0x00, returndatasize)\n    tag_64:\n      pop\n      pop\n      pop\n      pop\n      mload(0x40)\n      returndatasize\n      not(0x1f)\n      0x1f\n      dup3\n      add\n      and\n      dup3\n      add\n      dup1\n      0x40\n      mstore\n      pop\n      dup2\n      add\n      swap1\n      tag_65\n      swap2\n      swap1\n      tag_66\n      jump\t// in\n    tag_65:\n        /* \"AgentTipWill.sol\":2119:2180  require(usdc.transfer(msg.sender, amount), \"Transfer failed\") */\n      tag_67\n      jumpi\n      mload(0x40)\n      0x08c379a000000000000000000000000000000000000000000000000000000000\n      dup2\n      mstore\n      0x04\n      add\n      tag_68\n      swap1\n      tag_69\n      jump\t// in\n    tag_68:\n      mload(0x40)\n      dup1\n      swap2\n      sub\n      swap1\n      revert\n    tag_67:\n        /* \"AgentTipWill.sol\":2206:2216  msg.sender */\n      caller\n        /* \"AgentTipWill.sol\":2196:2225  Withdrawn(msg.sender, amount) */\n      0xffffffffffffffffffffffffffffffffffffffff\n      and\n      0x7084f5476618d8e60b11ef0d7d3f06914655adb8793e28ff7f018d4c76d505d5\n        /* \"AgentTipWill.sol\":2218:2224  amount */\n      dup3\n        /* \"AgentTipWill.sol\":2196:2225  Withdrawn(msg.sender, amount) */\n      mload(0x40)\n      tag_70\n      swap2\n      swap1\n      tag_20\n      jump\t// in\n    tag_70:\n      mload(0x40)\n      dup1\n      swap2\n      sub\n      swap1\n      log2\n        /* \"AgentTipWill.sol\":1901:2232  function withdraw(uint256 amount) external {... */\n      pop\n      jump\t// out\n        /* \"AgentTipWill.sol\":690:708  IERC20 public usdc */\n    tag_26:\n      0x01\n      0x00\n      swap1\n      sload\n      swap1\n      0x0100\n      exp\n      swap1\n      div\n      0xffffffffffffffffffffffffffffffffffffffff\n      and\n      dup2\n      jump\t// out\n        /* \"AgentTipWill.sol\":2333:2415  function ping() external {... */\n    tag_30:\n        /* \"AgentTipWill.sol\":2393:2408  block.timestamp */\n      timestamp\n        /* \"AgentTipWill.sol\":2368:2378  lastActive */\n      0x04\n        /* \"AgentTipWill.sol\":2368:2390  lastActive[msg.sender] */\n      0x00\n        /* \"AgentTipWill.sol\":2379:2389  msg.sender */\n      caller\n        /* \"AgentTipWill.sol\":2368:2390  lastActive[msg.sender] */\n      0xffffffffffffffffffffffffffffffffffffffff\n      and\n      0xffffffffffffffffffffffffffffffffffffffff\n      and\n      dup2\n      mstore\n      0x20\n      add\n      swap1\n      dup2\n      mstore\n      0x20\n      add\n      0x00\n      keccak256\n        /* \"AgentTipWill.sol\":2368:2408  lastActive[msg.sender] = block.timestamp */\n      dup2\n      swap1\n      sstore\n      pop\n        /* \"AgentTipWill.sol\":2333:2415  function ping() external {... */\n      jump\t// out\n        /* \"@openzeppelin/contracts/access/Ownable.sol\":2293:2394   */\n    tag_32:\n        /* \"@openzeppelin/contracts/access/Ownable.sol\":1531:1544   */\n      tag_73\n        /* \"@openzeppelin/contracts/access/Ownable.sol\":1531:1542   */\n      tag_74\n        /* \"@openzeppelin/contracts/access/Ownable.sol\":1531:1544   */\n      jump\t// in\n    tag_73:\n        /* \"@openzeppelin/contracts/access/Ownable.sol\":2357:2387   */\n      tag_76\n        /* \"@openzeppelin/contracts/access/Ownable.sol\":2384:2385   */\n      0x00\n        /* \"@openzeppelin/contracts/access/Ownable.sol\":2357:2375   */\n      tag_77\n        /* \"@openzeppelin/contracts/access/Ownable.sol\":2357:2387   */\n      jump\t// in\n    tag_76:\n        /* \"@openzeppelin/contracts/access/Ownable.sol\":2293:2394   */\n      jump\t// out\n        /* \"AgentTipWill.sol\":714:745  IENSRegistry public ensRegistry */\n    tag_34:\n      0x02\n      0x00\n      swap1\n      sload\n      swap1\n      0x0100\n      exp\n      swap1\n      div\n      0xffffffffffffffffffffffffffffffffffffffff\n      and\n      dup2\n      jump\t// out\n        /* \"@openzeppelin/contracts/access/Ownable.sol\":1638:1723   */\n    tag_38:\n        /* \"@openzeppelin/contracts/access/Ownable.sol\":1684:1691   */\n      0x00\n        /* \"@openzeppelin/contracts/access/Ownable.sol\":1710:1716   */\n      0x00\n      0x00\n      swap1\n      sload\n      swap1\n      0x0100\n      exp\n      swap1\n      div\n      0xffffffffffffffffffffffffffffffffffffffff\n      and\n        /* \"@openzeppelin/contracts/access/Ownable.sol\":1703:1716   */\n      swap1\n      pop\n        /* \"@openzeppelin/contracts/access/Ownable.sol\":1638:1723   */\n      swap1\n      jump\t// out\n        /* \"AgentTipWill.sol\":1472:1798  function deposit(uint256 amount) external {... */\n    tag_43:\n        /* \"AgentTipWill.sol\":1541:1542  0 */\n      0x00\n        /* \"AgentTipWill.sol\":1532:1538  amount */\n      dup2\n        /* \"AgentTipWill.sol\":1532:1542  amount > 0 */\n      gt\n        /* \"AgentTipWill.sol\":1524:1565  require(amount > 0, \"Amount must be > 0\") */\n      tag_80\n      jumpi\n      mload(0x40)\n      0x08c379a000000000000000000000000000000000000000000000000000000000\n      dup2\n      mstore\n      0x04\n      add\n      tag_81\n      swap1\n      tag_82\n      jump\t// in\n    tag_81:\n      mload(0x40)\n      dup1\n      swap2\n      sub\n      swap1\n      revert\n    tag_80:\n        /* \"AgentTipWill.sol\":1583:1587  usdc */\n      0x01\n      0x00\n      swap1\n      sload\n      swap1\n      0x0100\n      exp\n      swap1\n      div\n      0xffffffffffffffffffffffffffffffffffffffff\n      and\n        /* \"AgentTipWill.sol\":1583:1600  usdc.transferFrom */\n      0xffffffffffffffffffffffffffffffffffffffff\n      and\n      0x23b872dd\n        /* \"AgentTipWill.sol\":1601:1611  msg.sender */\n      caller\n        /* \"AgentTipWill.sol\":1621:1625  this */\n      address\n        /* \"AgentTipWill.sol\":1628:1634  amount */\n      dup5\n        /* \"AgentTipWill.sol\":1583:1635  usdc.transferFrom(msg.sender, address(this), amount) */\n      mload(0x40)\n      dup5\n      0xffffffff\n      and\n      0xe0\n      shl\n      dup2\n      mstore\n      0x04\n      add\n      tag_83\n      swap4\n      swap3\n      swap2\n      swap1\n      tag_84\n      jump\t// in\n    tag_83:\n      0x20\n      mload(0x40)\n      dup1\n      dup4\n      sub\n      dup2\n      0x00\n      dup8\n      gas\n      call\n      iszero\n      dup1\n      iszero\n      tag_86\n      jumpi\n      returndatacopy(0x00, 0x00, returndatasize)\n      revert(0x00, returndatasize)\n    tag_86:\n      pop\n      pop\n      pop\n      pop\n      mload(0x40)\n      returndatasize\n      not(0x1f)\n      0x1f\n      dup3\n      add\n      and\n      dup3\n      add\n      dup1\n      0x40\n      mstore\n      pop\n      dup2\n      add\n      swap1\n      tag_87\n      swap2\n      swap1\n      tag_66\n      jump\t// in\n    tag_87:\n        /* \"AgentTipWill.sol\":1575:1655  require(usdc.transferFrom(msg.sender, address(this), amount), \"Transfer failed\") */\n      tag_88\n      jumpi\n      mload(0x40)\n      0x08c379a000000000000000000000000000000000000000000000000000000000\n      dup2\n      mstore\n      0x04\n      add\n      tag_89\n      swap1\n      tag_69\n      jump\t// in\n    tag_89:\n      mload(0x40)\n      dup1\n      swap2\n      sub\n      swap1\n      revert\n    tag_88:\n        /* \"AgentTipWill.sol\":1690:1696  amount */\n      dup1\n        /* \"AgentTipWill.sol\":1666:1674  balances */\n      0x03\n        /* \"AgentTipWill.sol\":1666:1686  balances[msg.sender] */\n      0x00\n        /* \"AgentTipWill.sol\":1675:1685  msg.sender */\n      caller\n        /* \"AgentTipWill.sol\":1666:1686  balances[msg.sender] */\n      0xffffffffffffffffffffffffffffffffffffffff\n      and\n      0xffffffffffffffffffffffffffffffffffffffff\n      and\n      dup2\n      mstore\n      0x20\n      add\n      swap1\n      dup2\n      mstore\n      0x20\n      add\n      0x00\n      keccak256\n      0x00\n        /* \"AgentTipWill.sol\":1666:1696  balances[msg.sender] += amount */\n      dup3\n      dup3\n      sload\n      tag_90\n      swap2\n      swap1\n      tag_91\n      jump\t// in\n    tag_90:\n      swap3\n      pop\n      pop\n      dup2\n      swap1\n      sstore\n      pop\n        /* \"AgentTipWill.sol\":1731:1746  block.timestamp */\n      timestamp\n        /* \"AgentTipWill.sol\":1706:1716  lastActive */\n      0x04\n        /* \"AgentTipWill.sol\":1706:1728  lastActive[msg.sender] */\n      0x00\n        /* \"AgentTipWill.sol\":1717:1727  msg.sender */\n      caller\n        /* \"AgentTipWill.sol\":1706:1728  lastActive[msg.sender] */\n      0xffffffffffffffffffffffffffffffffffffffff\n      and\n      0xffffffffffffffffffffffffffffffffffffffff\n      and\n      dup2\n      mstore\n      0x20\n      add\n      swap1\n      dup2\n      mstore\n      0x20\n      add\n      0x00\n      keccak256\n        /* \"AgentTipWill.sol\":1706:1746  lastActive[msg.sender] = block.timestamp */\n      dup2\n      swap1\n      sstore\n      pop\n        /* \"AgentTipWill.sol\":1772:1782  msg.sender */\n      caller\n        /* \"AgentTipWill.sol\":1762:1791  Deposited(msg.sender, amount) */\n      0xffffffffffffffffffffffffffffffffffffffff\n      and\n      0x2da466a7b24304f47e87fa2e1e5a81b9831ce54fec19055ce277ca2f39ba42c4\n        /* \"AgentTipWill.sol\":1784:1790  amount */\n      dup3\n        /* \"AgentTipWill.sol\":1762:1791  Deposited(msg.sender, amount) */\n      mload(0x40)\n      tag_92\n      swap2\n      swap1\n      tag_20\n      jump\t// in\n    tag_92:\n      mload(0x40)\n      dup1\n      swap2\n      sub\n      swap1\n      log2\n        /* \"AgentTipWill.sol\":1472:1798  function deposit(uint256 amount) external {... */\n      pop\n      jump\t// out\n        /* \"AgentTipWill.sol\":913:958  mapping(address => uint256) public lastActive */\n    tag_46:\n      mstore(0x20, 0x04)\n      dup1\n      0x00\n      mstore\n      keccak256(0x00, 0x40)\n      0x00\n      swap2\n      pop\n      swap1\n      pop\n      sload\n      dup2\n      jump\t// out\n        /* \"AgentTipWill.sol\":3099:4162  function executeWill(... */\n    tag_51:\n        /* \"@openzeppelin/contracts/access/Ownable.sol\":1531:1544   */\n      tag_94\n        /* \"@openzeppelin/contracts/access/Ownable.sol\":1531:1542   */\n      tag_74\n        /* \"@openzeppelin/contracts/access/Ownable.sol\":1531:1544   */\n      jump\t// in\n    tag_94:\n        /* \"AgentTipWill.sol\":3294:3314  uint256 totalBalance */\n      0x00\n        /* \"AgentTipWill.sol\":3317:3325  balances */\n      0x03\n        /* \"AgentTipWill.sol\":3317:3334  balances[creator] */\n      0x00\n        /* \"AgentTipWill.sol\":3326:3333  creator */\n      dup8\n        /* \"AgentTipWill.sol\":3317:3334  balances[creator] */\n      0xffffffffffffffffffffffffffffffffffffffff\n      and\n      0xffffffffffffffffffffffffffffffffffffffff\n      and\n      dup2\n      mstore\n      0x20\n      add\n      swap1\n      dup2\n      mstore\n      0x20\n      add\n      0x00\n      keccak256\n      sload\n        /* \"AgentTipWill.sol\":3294:3334  uint256 totalBalance = balances[creator] */\n      swap1\n      pop\n        /* \"AgentTipWill.sol\":3367:3368  0 */\n      0x00\n        /* \"AgentTipWill.sol\":3352:3364  totalBalance */\n      dup2\n        /* \"AgentTipWill.sol\":3352:3368  totalBalance > 0 */\n      gt\n        /* \"AgentTipWill.sol\":3344:3395  require(totalBalance > 0, \"No funds to distribute\") */\n      tag_96\n      jumpi\n      mload(0x40)\n      0x08c379a000000000000000000000000000000000000000000000000000000000\n      dup2\n      mstore\n      0x04\n      add\n      tag_97\n      swap1\n      tag_98\n      jump\t// in\n    tag_97:\n      mload(0x40)\n      dup1\n      swap2\n      sub\n      swap1\n      revert\n    tag_96:\n        /* \"AgentTipWill.sol\":3434:3445  basisPoints */\n      dup3\n      dup3\n        /* \"AgentTipWill.sol\":3434:3452  basisPoints.length */\n      swap1\n      pop\n        /* \"AgentTipWill.sol\":3413:3423  recipients */\n      dup6\n      dup6\n        /* \"AgentTipWill.sol\":3413:3430  recipients.length */\n      swap1\n      pop\n        /* \"AgentTipWill.sol\":3413:3452  recipients.length == basisPoints.length */\n      eq\n        /* \"AgentTipWill.sol\":3405:3471  require(recipients.length == basisPoints.length, \"Array mismatch\") */\n      tag_99\n      jumpi\n      mload(0x40)\n      0x08c379a000000000000000000000000000000000000000000000000000000000\n      dup2\n      mstore\n      0x04\n      add\n      tag_100\n      swap1\n      tag_101\n      jump\t// in\n    tag_100:\n      mload(0x40)\n      dup1\n      swap2\n      sub\n      swap1\n      revert\n    tag_99:\n        /* \"AgentTipWill.sol\":3684:3685  0 */\n      0x00\n        /* \"AgentTipWill.sol\":3664:3672  balances */\n      0x03\n        /* \"AgentTipWill.sol\":3664:3681  balances[creator] */\n      0x00\n        /* \"AgentTipWill.sol\":3673:3680  creator */\n      dup9\n        /* \"AgentTipWill.sol\":3664:3681  balances[creator] */\n      0xffffffffffffffffffffffffffffffffffffffff\n      and\n      0xffffffffffffffffffffffffffffffffffffffff\n      and\n      dup2\n      mstore\n      0x20\n      add\n      swap1\n      dup2\n      mstore\n      0x20\n      add\n      0x00\n      keccak256\n        /* \"AgentTipWill.sol\":3664:3685  balances[creator] = 0 */\n      dup2\n      swap1\n      sstore\n      pop\n        /* \"AgentTipWill.sol\":3748:3767  uint256 distributed */\n      0x00\n        /* \"AgentTipWill.sol\":3770:3771  0 */\n      0x00\n        /* \"AgentTipWill.sol\":3748:3771  uint256 distributed = 0 */\n      swap1\n      pop\n        /* \"AgentTipWill.sol\":3786:3795  uint256 i */\n      0x00\n        /* \"AgentTipWill.sol\":3798:3799  0 */\n      0x00\n        /* \"AgentTipWill.sol\":3786:3799  uint256 i = 0 */\n      swap1\n      pop\n        /* \"AgentTipWill.sol\":3781:4106  for (uint256 i = 0; i < recipients.length; i++) {... */\n    tag_102:\n        /* \"AgentTipWill.sol\":3805:3815  recipients */\n      dup7\n      dup7\n        /* \"AgentTipWill.sol\":3805:3822  recipients.length */\n      swap1\n      pop\n        /* \"AgentTipWill.sol\":3801:3802  i */\n      dup2\n        /* \"AgentTipWill.sol\":3801:3822  i < recipients.length */\n      lt\n        /* \"AgentTipWill.sol\":3781:4106  for (uint256 i = 0; i < recipients.length; i++) {... */\n      iszero\n      tag_103\n      jumpi\n        /* \"AgentTipWill.sol\":3843:3857  uint256 amount */\n      0x00\n        /* \"AgentTipWill.sol\":3894:3899  10000 */\n      0x2710\n        /* \"AgentTipWill.sol\":3876:3887  basisPoints */\n      dup7\n      dup7\n        /* \"AgentTipWill.sol\":3888:3889  i */\n      dup5\n        /* \"AgentTipWill.sol\":3876:3890  basisPoints[i] */\n      dup2\n      dup2\n      lt\n      tag_105\n      jumpi\n      tag_106\n      tag_107\n      jump\t// in\n    tag_106:\n    tag_105:\n      swap1\n      pop\n      0x20\n      mul\n      add\n      calldataload\n        /* \"AgentTipWill.sol\":3861:3873  totalBalance */\n      dup6\n        /* \"AgentTipWill.sol\":3861:3890  totalBalance * basisPoints[i] */\n      tag_108\n      swap2\n      swap1\n      tag_109\n      jump\t// in\n    tag_108:\n        /* \"AgentTipWill.sol\":3860:3899  (totalBalance * basisPoints[i]) / 10000 */\n      tag_110\n      swap2\n      swap1\n      tag_111\n      jump\t// in\n    tag_110:\n        /* \"AgentTipWill.sol\":3843:3899  uint256 amount = (totalBalance * basisPoints[i]) / 10000 */\n      swap1\n      pop\n        /* \"AgentTipWill.sol\":3926:3927  0 */\n      0x00\n        /* \"AgentTipWill.sol\":3917:3923  amount */\n      dup2\n        /* \"AgentTipWill.sol\":3917:3927  amount > 0 */\n      gt\n        /* \"AgentTipWill.sol\":3917:3958  amount > 0 && recipients[i] != address(0) */\n      dup1\n      iszero\n      tag_112\n      jumpi\n      pop\n        /* \"AgentTipWill.sol\":3956:3957  0 */\n      0x00\n        /* \"AgentTipWill.sol\":3931:3958  recipients[i] != address(0) */\n      0xffffffffffffffffffffffffffffffffffffffff\n      and\n        /* \"AgentTipWill.sol\":3931:3941  recipients */\n      dup9\n      dup9\n        /* \"AgentTipWill.sol\":3942:3943  i */\n      dup5\n        /* \"AgentTipWill.sol\":3931:3944  recipients[i] */\n      dup2\n      dup2\n      lt\n      tag_113\n      jumpi\n      tag_114\n      tag_107\n      jump\t// in\n    tag_114:\n    tag_113:\n      swap1\n      pop\n      0x20\n      mul\n      add\n      0x20\n      dup2\n      add\n      swap1\n      tag_115\n      swap2\n      swap1\n      tag_17\n      jump\t// in\n    tag_115:\n        /* \"AgentTipWill.sol\":3931:3958  recipients[i] != address(0) */\n      0xffffffffffffffffffffffffffffffffffffffff\n      and\n      eq\n      iszero\n        /* \"AgentTipWill.sol\":3917:3958  amount > 0 && recipients[i] != address(0) */\n    tag_112:\n        /* \"AgentTipWill.sol\":3913:4096  if (amount > 0 && recipients[i] != address(0)) {... */\n      iszero\n      tag_116\n      jumpi\n        /* \"AgentTipWill.sol\":3986:3990  usdc */\n      0x01\n      0x00\n      swap1\n      sload\n      swap1\n      0x0100\n      exp\n      swap1\n      div\n      0xffffffffffffffffffffffffffffffffffffffff\n      and\n        /* \"AgentTipWill.sol\":3986:3999  usdc.transfer */\n      0xffffffffffffffffffffffffffffffffffffffff\n      and\n      0xa9059cbb\n        /* \"AgentTipWill.sol\":4000:4010  recipients */\n      dup10\n      dup10\n        /* \"AgentTipWill.sol\":4011:4012  i */\n      dup6\n        /* \"AgentTipWill.sol\":4000:4013  recipients[i] */\n      dup2\n      dup2\n      lt\n      tag_117\n      jumpi\n      tag_118\n      tag_107\n      jump\t// in\n    tag_118:\n    tag_117:\n      swap1\n      pop\n      0x20\n      mul\n      add\n      0x20\n      dup2\n      add\n      swap1\n      tag_119\n      swap2\n      swap1\n      tag_17\n      jump\t// in\n    tag_119:\n        /* \"AgentTipWill.sol\":4015:4021  amount */\n      dup4\n        /* \"AgentTipWill.sol\":3986:4022  usdc.transfer(recipients[i], amount) */\n      mload(0x40)\n      dup4\n      0xffffffff\n      and\n      0xe0\n      shl\n      dup2\n      mstore\n      0x04\n      add\n      tag_120\n      swap3\n      swap2\n      swap1\n      tag_62\n      jump\t// in\n    tag_120:\n      0x20\n      mload(0x40)\n      dup1\n      dup4\n      sub\n      dup2\n      0x00\n      dup8\n      gas\n      call\n      iszero\n      dup1\n      iszero\n      tag_122\n      jumpi\n      returndatacopy(0x00, 0x00, returndatasize)\n      revert(0x00, returndatasize)\n    tag_122:\n      pop\n      pop\n      pop\n      pop\n      mload(0x40)\n      returndatasize\n      not(0x1f)\n      0x1f\n      dup3\n      add\n      and\n      dup3\n      add\n      dup1\n      0x40\n      mstore\n      pop\n      dup2\n      add\n      swap1\n      tag_123\n      swap2\n      swap1\n      tag_66\n      jump\t// in\n    tag_123:\n        /* \"AgentTipWill.sol\":3978:4042  require(usdc.transfer(recipients[i], amount), \"Transfer failed\") */\n      tag_124\n      jumpi\n      mload(0x40)\n      0x08c379a000000000000000000000000000000000000000000000000000000000\n      dup2\n      mstore\n      0x04\n      add\n      tag_125\n      swap1\n      tag_69\n      jump\t// in\n    tag_125:\n      mload(0x40)\n      dup1\n      swap2\n      sub\n      swap1\n      revert\n    tag_124:\n        /* \"AgentTipWill.sol\":4075:4081  amount */\n      dup1\n        /* \"AgentTipWill.sol\":4060:4081  distributed += amount */\n      dup4\n      tag_126\n      swap2\n      swap1\n      tag_91\n      jump\t// in\n    tag_126:\n      swap3\n      pop\n        /* \"AgentTipWill.sol\":3913:4096  if (amount > 0 && recipients[i] != address(0)) {... */\n    tag_116:\n        /* \"AgentTipWill.sol\":3829:4106  {... */\n      pop\n        /* \"AgentTipWill.sol\":3824:3827  i++ */\n      dup1\n      dup1\n      0x01\n      add\n      swap2\n      pop\n      pop\n        /* \"AgentTipWill.sol\":3781:4106  for (uint256 i = 0; i < recipients.length; i++) {... */\n      jump(tag_102)\n    tag_103:\n      pop\n        /* \"AgentTipWill.sol\":4134:4141  creator */\n      dup7\n        /* \"AgentTipWill.sol\":4121:4155  WillExecuted(creator, distributed) */\n      0xffffffffffffffffffffffffffffffffffffffff\n      and\n      0xac8ae454ab5edd07d536a5c6584f39f829039f54889168e45278e74b7d062a3f\n        /* \"AgentTipWill.sol\":4143:4154  distributed */\n      dup3\n        /* \"AgentTipWill.sol\":4121:4155  WillExecuted(creator, distributed) */\n      mload(0x40)\n      tag_127\n      swap2\n      swap1\n      tag_20\n      jump\t// in\n    tag_127:\n      mload(0x40)\n      dup1\n      swap2\n      sub\n      swap1\n      log2\n        /* \"AgentTipWill.sol\":3284:4162  {... */\n      pop\n      pop\n        /* \"AgentTipWill.sol\":3099:4162  function executeWill(... */\n      pop\n      pop\n      pop\n      pop\n      pop\n      jump\t// out\n        /* \"@openzeppelin/contracts/access/Ownable.sol\":2543:2758   */\n    tag_54:\n        /* \"@openzeppelin/contracts/access/Ownable.sol\":1531:1544   */\n      tag_129\n        /* \"@openzeppelin/contracts/access/Ownable.sol\":1531:1542   */\n      tag_74\n        /* \"@openzeppelin/contracts/access/Ownable.sol\":1531:1544   */\n      jump\t// in\n    tag_129:\n        /* \"@openzeppelin/contracts/access/Ownable.sol\":2647:2648   */\n      0x00\n        /* \"@openzeppelin/contracts/access/Ownable.sol\":2627:2649   */\n      0xffffffffffffffffffffffffffffffffffffffff\n      and\n        /* \"@openzeppelin/contracts/access/Ownable.sol\":2627:2635   */\n      dup2\n        /* \"@openzeppelin/contracts/access/Ownable.sol\":2627:2649   */\n      0xffffffffffffffffffffffffffffffffffffffff\n      and\n      sub\n        /* \"@openzeppelin/contracts/access/Ownable.sol\":2623:2714   */\n      tag_131\n      jumpi\n        /* \"@openzeppelin/contracts/access/Ownable.sol\":2700:2701   */\n      0x00\n        /* \"@openzeppelin/contracts/access/Ownable.sol\":2672:2703   */\n      mload(0x40)\n      0x1e4fbdf700000000000000000000000000000000000000000000000000000000\n      dup2\n      mstore\n      0x04\n      add\n      tag_132\n      swap2\n      swap1\n      tag_40\n      jump\t// in\n    tag_132:\n      mload(0x40)\n      dup1\n      swap2\n      sub\n      swap1\n      revert\n        /* \"@openzeppelin/contracts/access/Ownable.sol\":2623:2714   */\n    tag_131:\n        /* \"@openzeppelin/contracts/access/Ownable.sol\":2723:2751   */\n      tag_133\n        /* \"@openzeppelin/contracts/access/Ownable.sol\":2742:2750   */\n      dup2\n        /* \"@openzeppelin/contracts/access/Ownable.sol\":2723:2741   */\n      tag_77\n        /* \"@openzeppelin/contracts/access/Ownable.sol\":2723:2751   */\n      jump\t// in\n    tag_133:\n        /* \"@openzeppelin/contracts/access/Ownable.sol\":2543:2758   */\n      pop\n      jump\t// out\n        /* \"@openzeppelin/contracts/access/Ownable.sol\":1796:1958   */\n    tag_74:\n        /* \"@openzeppelin/contracts/access/Ownable.sol\":1866:1878   */\n      tag_135\n        /* \"@openzeppelin/contracts/access/Ownable.sol\":1866:1876   */\n      tag_136\n        /* \"@openzeppelin/contracts/access/Ownable.sol\":1866:1878   */\n      jump\t// in\n    tag_135:\n        /* \"@openzeppelin/contracts/access/Ownable.sol\":1855:1878   */\n      0xffffffffffffffffffffffffffffffffffffffff\n      and\n        /* \"@openzeppelin/contracts/access/Ownable.sol\":1855:1862   */\n      tag_137\n        /* \"@openzeppelin/contracts/access/Ownable.sol\":1855:1860   */\n      tag_38\n        /* \"@openzeppelin/contracts/access/Ownable.sol\":1855:1862   */\n      jump\t// in\n    tag_137:\n        /* \"@openzeppelin/contracts/access/Ownable.sol\":1855:1878   */\n      0xffffffffffffffffffffffffffffffffffffffff\n      and\n      eq\n        /* \"@openzeppelin/contracts/access/Ownable.sol\":1851:1952   */\n      tag_138\n      jumpi\n        /* \"@openzeppelin/contracts/access/Ownable.sol\":1928:1940   */\n      tag_139\n        /* \"@openzeppelin/contracts/access/Ownable.sol\":1928:1938   */\n      tag_136\n        /* \"@openzeppelin/contracts/access/Ownable.sol\":1928:1940   */\n      jump\t// in\n    tag_139:\n        /* \"@openzeppelin/contracts/access/Ownable.sol\":1901:1941   */\n      mload(0x40)\n      0x118cdaa700000000000000000000000000000000000000000000000000000000\n      dup2\n      mstore\n      0x04\n      add\n      tag_140\n      swap2\n      swap1\n      tag_40\n      jump\t// in\n    tag_140:\n      mload(0x40)\n      dup1\n      swap2\n      sub\n      swap1\n      revert\n        /* \"@openzeppelin/contracts/access/Ownable.sol\":1851:1952   */\n    tag_138:\n        /* \"@openzeppelin/contracts/access/Ownable.sol\":1796:1958   */\n      jump\t// out\n        /* \"@openzeppelin/contracts/access/Ownable.sol\":2912:3099   */\n    tag_77:\n        /* \"@openzeppelin/contracts/access/Ownable.sol\":2985:3001   */\n      0x00\n        /* \"@openzeppelin/contracts/access/Ownable.sol\":3004:3010   */\n      0x00\n      0x00\n      swap1\n      sload\n      swap1\n      0x0100\n      exp\n      swap1\n      div\n      0xffffffffffffffffffffffffffffffffffffffff\n      and\n        /* \"@openzeppelin/contracts/access/Ownable.sol\":2985:3010   */\n      swap1\n      pop\n        /* \"@openzeppelin/contracts/access/Ownable.sol\":3029:3037   */\n      dup2\n        /* \"@openzeppelin/contracts/access/Ownable.sol\":3020:3026   */\n      0x00\n      0x00\n        /* \"@openzeppelin/contracts/access/Ownable.sol\":3020:3037   */\n      0x0100\n      exp\n      dup2\n      sload\n      dup2\n      0xffffffffffffffffffffffffffffffffffffffff\n      mul\n      not\n      and\n      swap1\n      dup4\n      0xffffffffffffffffffffffffffffffffffffffff\n      and\n      mul\n      or\n      swap1\n      sstore\n      pop\n        /* \"@openzeppelin/contracts/access/Ownable.sol\":3083:3091   */\n      dup2\n        /* \"@openzeppelin/contracts/access/Ownable.sol\":3052:3092   */\n      0xffffffffffffffffffffffffffffffffffffffff\n      and\n        /* \"@openzeppelin/contracts/access/Ownable.sol\":3073:3081   */\n      dup2\n        /* \"@openzeppelin/contracts/access/Ownable.sol\":3052:3092   */\n      0xffffffffffffffffffffffffffffffffffffffff\n      and\n      0x8be0079c531659141344cd1fd0a4f28419497f9722a3daafe3b4186f6b6457e0\n      mload(0x40)\n      mload(0x40)\n      dup1\n      swap2\n      sub\n      swap1\n      log3\n        /* \"@openzeppelin/contracts/access/Ownable.sol\":2975:3099   */\n      pop\n        /* \"@openzeppelin/contracts/access/Ownable.sol\":2912:3099   */\n      pop\n      jump\t// out\n        /* \"@openzeppelin/contracts/utils/Context.sol\":656:752   */\n    tag_136:\n        /* \"@openzeppelin/contracts/utils/Context.sol\":709:716   */\n      0x00\n        /* \"@openzeppelin/contracts/utils/Context.sol\":735:745   */\n      caller\n        /* \"@openzeppelin/contracts/utils/Context.sol\":728:745   */\n      swap1\n      pop\n        /* \"@openzeppelin/contracts/utils/Context.sol\":656:752   */\n      swap1\n      jump\t// out\n        /* \"#utility.yul\":88:205   */\n    tag_144:\n        /* \"#utility.yul\":197:198   */\n      0x00\n        /* \"#utility.yul\":194:195   */\n      0x00\n        /* \"#utility.yul\":187:199   */\n      revert\n        /* \"#utility.yul\":211:328   */\n    tag_145:\n        /* \"#utility.yul\":320:321   */\n      0x00\n        /* \"#utility.yul\":317:318   */\n      0x00\n        /* \"#utility.yul\":310:322   */\n      revert\n        /* \"#utility.yul\":334:460   */\n    tag_146:\n        /* \"#utility.yul\":371:378   */\n      0x00\n        /* \"#utility.yul\":411:453   */\n      0xffffffffffffffffffffffffffffffffffffffff\n        /* \"#utility.yul\":404:409   */\n      dup3\n        /* \"#utility.yul\":400:454   */\n      and\n        /* \"#utility.yul\":389:454   */\n      swap1\n      pop\n        /* \"#utility.yul\":334:460   */\n      swap2\n      swap1\n      pop\n      jump\t// out\n        /* \"#utility.yul\":466:562   */\n    tag_147:\n        /* \"#utility.yul\":503:510   */\n      0x00\n        /* \"#utility.yul\":532:556   */\n      tag_189\n        /* \"#utility.yul\":550:555   */\n      dup3\n        /* \"#utility.yul\":532:556   */\n      tag_146\n      jump\t// in\n    tag_189:\n        /* \"#utility.yul\":521:556   */\n      swap1\n      pop\n        /* \"#utility.yul\":466:562   */\n      swap2\n      swap1\n      pop\n      jump\t// out\n        /* \"#utility.yul\":568:690   */\n    tag_148:\n        /* \"#utility.yul\":641:665   */\n      tag_191\n        /* \"#utility.yul\":659:664   */\n      dup2\n        /* \"#utility.yul\":641:665   */\n      tag_147\n      jump\t// in\n    tag_191:\n        /* \"#utility.yul\":634:639   */\n      dup2\n        /* \"#utility.yul\":631:666   */\n      eq\n        /* \"#utility.yul\":621:684   */\n      tag_192\n      jumpi\n        /* \"#utility.yul\":680:681   */\n      0x00\n        /* \"#utility.yul\":677:678   */\n      0x00\n        /* \"#utility.yul\":670:682   */\n      revert\n        /* \"#utility.yul\":621:684   */\n    tag_192:\n        /* \"#utility.yul\":568:690   */\n      pop\n      jump\t// out\n        /* \"#utility.yul\":696:835   */\n    tag_149:\n        /* \"#utility.yul\":742:747   */\n      0x00\n        /* \"#utility.yul\":780:786   */\n      dup2\n        /* \"#utility.yul\":767:787   */\n      calldataload\n        /* \"#utility.yul\":758:787   */\n      swap1\n      pop\n        /* \"#utility.yul\":796:829   */\n      tag_194\n        /* \"#utility.yul\":823:828   */\n      dup2\n        /* \"#utility.yul\":796:829   */\n      tag_148\n      jump\t// in\n    tag_194:\n        /* \"#utility.yul\":696:835   */\n      swap3\n      swap2\n      pop\n      pop\n      jump\t// out\n        /* \"#utility.yul\":841:1170   */\n    tag_17:\n        /* \"#utility.yul\":900:906   */\n      0x00\n        /* \"#utility.yul\":949:951   */\n      0x20\n        /* \"#utility.yul\":937:946   */\n      dup3\n        /* \"#utility.yul\":928:935   */\n      dup5\n        /* \"#utility.yul\":924:947   */\n      sub\n        /* \"#utility.yul\":920:952   */\n      slt\n        /* \"#utility.yul\":917:1036   */\n      iszero\n      tag_196\n      jumpi\n        /* \"#utility.yul\":955:1034   */\n      tag_197\n      tag_144\n      jump\t// in\n    tag_197:\n        /* \"#utility.yul\":917:1036   */\n    tag_196:\n        /* \"#utility.yul\":1075:1076   */\n      0x00\n        /* \"#utility.yul\":1100:1153   */\n      tag_198\n        /* \"#utility.yul\":1145:1152   */\n      dup5\n        /* \"#utility.yul\":1136:1142   */\n      dup3\n        /* \"#utility.yul\":1125:1134   */\n      dup6\n        /* \"#utility.yul\":1121:1143   */\n      add\n        /* \"#utility.yul\":1100:1153   */\n      tag_149\n      jump\t// in\n    tag_198:\n        /* \"#utility.yul\":1090:1153   */\n      swap2\n      pop\n        /* \"#utility.yul\":1046:1163   */\n      pop\n        /* \"#utility.yul\":841:1170   */\n      swap3\n      swap2\n      pop\n      pop\n      jump\t// out\n        /* \"#utility.yul\":1176:1253   */\n    tag_150:\n        /* \"#utility.yul\":1213:1220   */\n      0x00\n        /* \"#utility.yul\":1242:1247   */\n      dup2\n        /* \"#utility.yul\":1231:1247   */\n      swap1\n      pop\n        /* \"#utility.yul\":1176:1253   */\n      swap2\n      swap1\n      pop\n      jump\t// out\n        /* \"#utility.yul\":1259:1377   */\n    tag_151:\n        /* \"#utility.yul\":1346:1370   */\n      tag_201\n        /* \"#utility.yul\":1364:1369   */\n      dup2\n        /* \"#utility.yul\":1346:1370   */\n      tag_150\n      jump\t// in\n    tag_201:\n        /* \"#utility.yul\":1341:1344   */\n      dup3\n        /* \"#utility.yul\":1334:1371   */\n      mstore\n        /* \"#utility.yul\":1259:1377   */\n      pop\n      pop\n      jump\t// out\n        /* \"#utility.yul\":1383:1605   */\n    tag_20:\n        /* \"#utility.yul\":1476:1480   */\n      0x00\n        /* \"#utility.yul\":1514:1516   */\n      0x20\n        /* \"#utility.yul\":1503:1512   */\n      dup3\n        /* \"#utility.yul\":1499:1517   */\n      add\n        /* \"#utility.yul\":1491:1517   */\n      swap1\n      pop\n        /* \"#utility.yul\":1527:1598   */\n      tag_203\n        /* \"#utility.yul\":1595:1596   */\n      0x00\n        /* \"#utility.yul\":1584:1593   */\n      dup4\n        /* \"#utility.yul\":1580:1597   */\n      add\n        /* \"#utility.yul\":1571:1577   */\n      dup5\n        /* \"#utility.yul\":1527:1598   */\n      tag_151\n      jump\t// in\n    tag_203:\n        /* \"#utility.yul\":1383:1605   */\n      swap3\n      swap2\n      pop\n      pop\n      jump\t// out\n        /* \"#utility.yul\":1611:1733   */\n    tag_152:\n        /* \"#utility.yul\":1684:1708   */\n      tag_205\n        /* \"#utility.yul\":1702:1707   */\n      dup2\n        /* \"#utility.yul\":1684:1708   */\n      tag_150\n      jump\t// in\n    tag_205:\n        /* \"#utility.yul\":1677:1682   */\n      dup2\n        /* \"#utility.yul\":1674:1709   */\n      eq\n        /* \"#utility.yul\":1664:1727   */\n      tag_206\n      jumpi\n        /* \"#utility.yul\":1723:1724   */\n      0x00\n        /* \"#utility.yul\":1720:1721   */\n      0x00\n        /* \"#utility.yul\":1713:1725   */\n      revert\n        /* \"#utility.yul\":1664:1727   */\n    tag_206:\n        /* \"#utility.yul\":1611:1733   */\n      pop\n      jump\t// out\n        /* \"#utility.yul\":1739:1878   */\n    tag_153:\n        /* \"#utility.yul\":1785:1790   */\n      0x00\n        /* \"#utility.yul\":1823:1829   */\n      dup2\n        /* \"#utility.yul\":1810:1830   */\n      calldataload\n        /* \"#utility.yul\":1801:1830   */\n      swap1\n      pop\n        /* \"#utility.yul\":1839:1872   */\n      tag_208\n        /* \"#utility.yul\":1866:1871   */\n      dup2\n        /* \"#utility.yul\":1839:1872   */\n      tag_152\n      jump\t// in\n    tag_208:\n        /* \"#utility.yul\":1739:1878   */\n      swap3\n      swap2\n      pop\n      pop\n      jump\t// out\n        /* \"#utility.yul\":1884:2213   */\n    tag_23:\n        /* \"#utility.yul\":1943:1949   */\n      0x00\n        /* \"#utility.yul\":1992:1994   */\n      0x20\n        /* \"#utility.yul\":1980:1989   */\n      dup3\n        /* \"#utility.yul\":1971:1978   */\n      dup5\n        /* \"#utility.yul\":1967:1990   */\n      sub\n        /* \"#utility.yul\":1963:1995   */\n      slt\n        /* \"#utility.yul\":1960:2079   */\n      iszero\n      tag_210\n      jumpi\n        /* \"#utility.yul\":1998:2077   */\n      tag_211\n      tag_144\n      jump\t// in\n    tag_211:\n        /* \"#utility.yul\":1960:2079   */\n    tag_210:\n        /* \"#utility.yul\":2118:2119   */\n      0x00\n        /* \"#utility.yul\":2143:2196   */\n      tag_212\n        /* \"#utility.yul\":2188:2195   */\n      dup5\n        /* \"#utility.yul\":2179:2185   */\n      dup3\n        /* \"#utility.yul\":2168:2177   */\n      dup6\n        /* \"#utility.yul\":2164:2186   */\n      add\n        /* \"#utility.yul\":2143:2196   */\n      tag_153\n      jump\t// in\n    tag_212:\n        /* \"#utility.yul\":2133:2196   */\n      swap2\n      pop\n        /* \"#utility.yul\":2089:2206   */\n      pop\n        /* \"#utility.yul\":1884:2213   */\n      swap3\n      swap2\n      pop\n      pop\n      jump\t// out\n        /* \"#utility.yul\":2219:2279   */\n    tag_154:\n        /* \"#utility.yul\":2247:2250   */\n      0x00\n        /* \"#utility.yul\":2268:2273   */\n      dup2\n        /* \"#utility.yul\":2261:2273   */\n      swap1\n      pop\n        /* \"#utility.yul\":2219:2279   */\n      swap2\n      swap1\n      pop\n      jump\t// out\n        /* \"#utility.yul\":2285:2427   */\n    tag_155:\n        /* \"#utility.yul\":2335:2344   */\n      0x00\n        /* \"#utility.yul\":2368:2421   */\n      tag_215\n        /* \"#utility.yul\":2386:2420   */\n      tag_216\n        /* \"#utility.yul\":2395:2419   */\n      tag_217\n        /* \"#utility.yul\":2413:2418   */\n      dup5\n        /* \"#utility.yul\":2395:2419   */\n      tag_146\n      jump\t// in\n    tag_217:\n        /* \"#utility.yul\":2386:2420   */\n      tag_154\n      jump\t// in\n    tag_216:\n        /* \"#utility.yul\":2368:2421   */\n      tag_146\n      jump\t// in\n    tag_215:\n        /* \"#utility.yul\":2355:2421   */\n      swap1\n      pop\n        /* \"#utility.yul\":2285:2427   */\n      swap2\n      swap1\n      pop\n      jump\t// out\n        /* \"#utility.yul\":2433:2559   */\n    tag_156:\n        /* \"#utility.yul\":2483:2492   */\n      0x00\n        /* \"#utility.yul\":2516:2553   */\n      tag_219\n        /* \"#utility.yul\":2547:2552   */\n      dup3\n        /* \"#utility.yul\":2516:2553   */\n      tag_155\n      jump\t// in\n    tag_219:\n        /* \"#utility.yul\":2503:2553   */\n      swap1\n      pop\n        /* \"#utility.yul\":2433:2559   */\n      swap2\n      swap1\n      pop\n      jump\t// out\n        /* \"#utility.yul\":2565:2705   */\n    tag_157:\n        /* \"#utility.yul\":2629:2638   */\n      0x00\n        /* \"#utility.yul\":2662:2699   */\n      tag_221\n        /* \"#utility.yul\":2693:2698   */\n      dup3\n        /* \"#utility.yul\":2662:2699   */\n      tag_156\n      jump\t// in\n    tag_221:\n        /* \"#utility.yul\":2649:2699   */\n      swap1\n      pop\n        /* \"#utility.yul\":2565:2705   */\n      swap2\n      swap1\n      pop\n      jump\t// out\n        /* \"#utility.yul\":2711:2870   */\n    tag_158:\n        /* \"#utility.yul\":2812:2863   */\n      tag_223\n        /* \"#utility.yul\":2857:2862   */\n      dup2\n        /* \"#utility.yul\":2812:2863   */\n      tag_157\n      jump\t// in\n    tag_223:\n        /* \"#utility.yul\":2807:2810   */\n      dup3\n        /* \"#utility.yul\":2800:2864   */\n      mstore\n        /* \"#utility.yul\":2711:2870   */\n      pop\n      pop\n      jump\t// out\n        /* \"#utility.yul\":2876:3126   */\n    tag_28:\n        /* \"#utility.yul\":2983:2987   */\n      0x00\n        /* \"#utility.yul\":3021:3023   */\n      0x20\n        /* \"#utility.yul\":3010:3019   */\n      dup3\n        /* \"#utility.yul\":3006:3024   */\n      add\n        /* \"#utility.yul\":2998:3024   */\n      swap1\n      pop\n        /* \"#utility.yul\":3034:3119   */\n      tag_225\n        /* \"#utility.yul\":3116:3117   */\n      0x00\n        /* \"#utility.yul\":3105:3114   */\n      dup4\n        /* \"#utility.yul\":3101:3118   */\n      add\n        /* \"#utility.yul\":3092:3098   */\n      dup5\n        /* \"#utility.yul\":3034:3119   */\n      tag_158\n      jump\t// in\n    tag_225:\n        /* \"#utility.yul\":2876:3126   */\n      swap3\n      swap2\n      pop\n      pop\n      jump\t// out\n        /* \"#utility.yul\":3132:3278   */\n    tag_159:\n        /* \"#utility.yul\":3202:3211   */\n      0x00\n        /* \"#utility.yul\":3235:3272   */\n      tag_227\n        /* \"#utility.yul\":3266:3271   */\n      dup3\n        /* \"#utility.yul\":3235:3272   */\n      tag_156\n      jump\t// in\n    tag_227:\n        /* \"#utility.yul\":3222:3272   */\n      swap1\n      pop\n        /* \"#utility.yul\":3132:3278   */\n      swap2\n      swap1\n      pop\n      jump\t// out\n        /* \"#utility.yul\":3284:3455   */\n    tag_160:\n        /* \"#utility.yul\":3391:3448   */\n      tag_229\n        /* \"#utility.yul\":3442:3447   */\n      dup2\n        /* \"#utility.yul\":3391:3448   */\n      tag_159\n      jump\t// in\n    tag_229:\n        /* \"#utility.yul\":3386:3389   */\n      dup3\n        /* \"#utility.yul\":3379:3449   */\n      mstore\n        /* \"#utility.yul\":3284:3455   */\n      pop\n      pop\n      jump\t// out\n        /* \"#utility.yul\":3461:3723   */\n    tag_36:\n        /* \"#utility.yul\":3574:3578   */\n      0x00\n        /* \"#utility.yul\":3612:3614   */\n      0x20\n        /* \"#utility.yul\":3601:3610   */\n      dup3\n        /* \"#utility.yul\":3597:3615   */\n      add\n        /* \"#utility.yul\":3589:3615   */\n      swap1\n      pop\n        /* \"#utility.yul\":3625:3716   */\n      tag_231\n        /* \"#utility.yul\":3713:3714   */\n      0x00\n        /* \"#utility.yul\":3702:3711   */\n      dup4\n        /* \"#utility.yul\":3698:3715   */\n      add\n        /* \"#utility.yul\":3689:3695   */\n      dup5\n        /* \"#utility.yul\":3625:3716   */\n      tag_160\n      jump\t// in\n    tag_231:\n        /* \"#utility.yul\":3461:3723   */\n      swap3\n      swap2\n      pop\n      pop\n      jump\t// out\n        /* \"#utility.yul\":3729:3847   */\n    tag_161:\n        /* \"#utility.yul\":3816:3840   */\n      tag_233\n        /* \"#utility.yul\":3834:3839   */\n      dup2\n        /* \"#utility.yul\":3816:3840   */\n      tag_147\n      jump\t// in\n    tag_233:\n        /* \"#utility.yul\":3811:3814   */\n      dup3\n        /* \"#utility.yul\":3804:3841   */\n      mstore\n        /* \"#utility.yul\":3729:3847   */\n      pop\n      pop\n      jump\t// out\n        /* \"#utility.yul\":3853:4075   */\n    tag_40:\n        /* \"#utility.yul\":3946:3950   */\n      0x00\n        /* \"#utility.yul\":3984:3986   */\n      0x20\n        /* \"#utility.yul\":3973:3982   */\n      dup3\n        /* \"#utility.yul\":3969:3987   */\n      add\n        /* \"#utility.yul\":3961:3987   */\n      swap1\n      pop\n        /* \"#utility.yul\":3997:4068   */\n      tag_235\n        /* \"#utility.yul\":4065:4066   */\n      0x00\n        /* \"#utility.yul\":4054:4063   */\n      dup4\n        /* \"#utility.yul\":4050:4067   */\n      add\n        /* \"#utility.yul\":4041:4047   */\n      dup5\n        /* \"#utility.yul\":3997:4068   */\n      tag_161\n      jump\t// in\n    tag_235:\n        /* \"#utility.yul\":3853:4075   */\n      swap3\n      swap2\n      pop\n      pop\n      jump\t// out\n        /* \"#utility.yul\":4081:4198   */\n    tag_162:\n        /* \"#utility.yul\":4190:4191   */\n      0x00\n        /* \"#utility.yul\":4187:4188   */\n      0x00\n        /* \"#utility.yul\":4180:4192   */\n      revert\n        /* \"#utility.yul\":4204:4321   */\n    tag_163:\n        /* \"#utility.yul\":4313:4314   */\n      0x00\n        /* \"#utility.yul\":4310:4311   */\n      0x00\n        /* \"#utility.yul\":4303:4315   */\n      revert\n        /* \"#utility.yul\":4327:4444   */\n    tag_164:\n        /* \"#utility.yul\":4436:4437   */\n      0x00\n        /* \"#utility.yul\":4433:4434   */\n      0x00\n        /* \"#utility.yul\":4426:4438   */\n      revert\n        /* \"#utility.yul\":4467:5035   */\n    tag_165:\n        /* \"#utility.yul\":4540:4548   */\n      0x00\n        /* \"#utility.yul\":4550:4556   */\n      0x00\n        /* \"#utility.yul\":4600:4603   */\n      dup4\n        /* \"#utility.yul\":4593:4597   */\n      0x1f\n        /* \"#utility.yul\":4585:4591   */\n      dup5\n        /* \"#utility.yul\":4581:4598   */\n      add\n        /* \"#utility.yul\":4577:4604   */\n      slt\n        /* \"#utility.yul\":4567:4689   */\n      tag_240\n      jumpi\n        /* \"#utility.yul\":4608:4687   */\n      tag_241\n      tag_162\n      jump\t// in\n    tag_241:\n        /* \"#utility.yul\":4567:4689   */\n    tag_240:\n        /* \"#utility.yul\":4721:4727   */\n      dup3\n        /* \"#utility.yul\":4708:4728   */\n      calldataload\n        /* \"#utility.yul\":4698:4728   */\n      swap1\n      pop\n        /* \"#utility.yul\":4751:4769   */\n      0xffffffffffffffff\n        /* \"#utility.yul\":4743:4749   */\n      dup2\n        /* \"#utility.yul\":4740:4770   */\n      gt\n        /* \"#utility.yul\":4737:4854   */\n      iszero\n      tag_242\n      jumpi\n        /* \"#utility.yul\":4773:4852   */\n      tag_243\n      tag_163\n      jump\t// in\n    tag_243:\n        /* \"#utility.yul\":4737:4854   */\n    tag_242:\n        /* \"#utility.yul\":4887:4891   */\n      0x20\n        /* \"#utility.yul\":4879:4885   */\n      dup4\n        /* \"#utility.yul\":4875:4892   */\n      add\n        /* \"#utility.yul\":4863:4892   */\n      swap2\n      pop\n        /* \"#utility.yul\":4941:4944   */\n      dup4\n        /* \"#utility.yul\":4933:4937   */\n      0x20\n        /* \"#utility.yul\":4925:4931   */\n      dup3\n        /* \"#utility.yul\":4921:4938   */\n      mul\n        /* \"#utility.yul\":4911:4919   */\n      dup4\n        /* \"#utility.yul\":4907:4939   */\n      add\n        /* \"#utility.yul\":4904:4945   */\n      gt\n        /* \"#utility.yul\":4901:5029   */\n      iszero\n      tag_244\n      jumpi\n        /* \"#utility.yul\":4948:5027   */\n      tag_245\n      tag_164\n      jump\t// in\n    tag_245:\n        /* \"#utility.yul\":4901:5029   */\n    tag_244:\n        /* \"#utility.yul\":4467:5035   */\n      swap3\n      pop\n      swap3\n      swap1\n      pop\n      jump\t// out\n        /* \"#utility.yul\":5058:5626   */\n    tag_166:\n        /* \"#utility.yul\":5131:5139   */\n      0x00\n        /* \"#utility.yul\":5141:5147   */\n      0x00\n        /* \"#utility.yul\":5191:5194   */\n      dup4\n        /* \"#utility.yul\":5184:5188   */\n      0x1f\n        /* \"#utility.yul\":5176:5182   */\n      dup5\n        /* \"#utility.yul\":5172:5189   */\n      add\n        /* \"#utility.yul\":5168:5195   */\n      slt\n        /* \"#utility.yul\":5158:5280   */\n      tag_247\n      jumpi\n        /* \"#utility.yul\":5199:5278   */\n      tag_248\n      tag_162\n      jump\t// in\n    tag_248:\n        /* \"#utility.yul\":5158:5280   */\n    tag_247:\n        /* \"#utility.yul\":5312:5318   */\n      dup3\n        /* \"#utility.yul\":5299:5319   */\n      calldataload\n        /* \"#utility.yul\":5289:5319   */\n      swap1\n      pop\n        /* \"#utility.yul\":5342:5360   */\n      0xffffffffffffffff\n        /* \"#utility.yul\":5334:5340   */\n      dup2\n        /* \"#utility.yul\":5331:5361   */\n      gt\n        /* \"#utility.yul\":5328:5445   */\n      iszero\n      tag_249\n      jumpi\n        /* \"#utility.yul\":5364:5443   */\n      tag_250\n      tag_163\n      jump\t// in\n    tag_250:\n        /* \"#utility.yul\":5328:5445   */\n    tag_249:\n        /* \"#utility.yul\":5478:5482   */\n      0x20\n        /* \"#utility.yul\":5470:5476   */\n      dup4\n        /* \"#utility.yul\":5466:5483   */\n      add\n        /* \"#utility.yul\":5454:5483   */\n      swap2\n      pop\n        /* \"#utility.yul\":5532:5535   */\n      dup4\n        /* \"#utility.yul\":5524:5528   */\n      0x20\n        /* \"#utility.yul\":5516:5522   */\n      dup3\n        /* \"#utility.yul\":5512:5529   */\n      mul\n        /* \"#utility.yul\":5502:5510   */\n      dup4\n        /* \"#utility.yul\":5498:5530   */\n      add\n        /* \"#utility.yul\":5495:5536   */\n      gt\n        /* \"#utility.yul\":5492:5620   */\n      iszero\n      tag_251\n      jumpi\n        /* \"#utility.yul\":5539:5618   */\n      tag_252\n      tag_164\n      jump\t// in\n    tag_252:\n        /* \"#utility.yul\":5492:5620   */\n    tag_251:\n        /* \"#utility.yul\":5058:5626   */\n      swap3\n      pop\n      swap3\n      swap1\n      pop\n      jump\t// out\n        /* \"#utility.yul\":5632:6711   */\n    tag_50:\n        /* \"#utility.yul\":5763:5769   */\n      0x00\n        /* \"#utility.yul\":5771:5777   */\n      0x00\n        /* \"#utility.yul\":5779:5785   */\n      0x00\n        /* \"#utility.yul\":5787:5793   */\n      0x00\n        /* \"#utility.yul\":5795:5801   */\n      0x00\n        /* \"#utility.yul\":5844:5846   */\n      0x60\n        /* \"#utility.yul\":5832:5841   */\n      dup7\n        /* \"#utility.yul\":5823:5830   */\n      dup9\n        /* \"#utility.yul\":5819:5842   */\n      sub\n        /* \"#utility.yul\":5815:5847   */\n      slt\n        /* \"#utility.yul\":5812:5931   */\n      iszero\n      tag_254\n      jumpi\n        /* \"#utility.yul\":5850:5929   */\n      tag_255\n      tag_144\n      jump\t// in\n    tag_255:\n        /* \"#utility.yul\":5812:5931   */\n    tag_254:\n        /* \"#utility.yul\":5970:5971   */\n      0x00\n        /* \"#utility.yul\":5995:6048   */\n      tag_256\n        /* \"#utility.yul\":6040:6047   */\n      dup9\n        /* \"#utility.yul\":6031:6037   */\n      dup3\n        /* \"#utility.yul\":6020:6029   */\n      dup10\n        /* \"#utility.yul\":6016:6038   */\n      add\n        /* \"#utility.yul\":5995:6048   */\n      tag_149\n      jump\t// in\n    tag_256:\n        /* \"#utility.yul\":5985:6048   */\n      swap6\n      pop\n        /* \"#utility.yul\":5941:6058   */\n      pop\n        /* \"#utility.yul\":6125:6127   */\n      0x20\n        /* \"#utility.yul\":6114:6123   */\n      dup7\n        /* \"#utility.yul\":6110:6128   */\n      add\n        /* \"#utility.yul\":6097:6129   */\n      calldataload\n        /* \"#utility.yul\":6156:6174   */\n      0xffffffffffffffff\n        /* \"#utility.yul\":6148:6154   */\n      dup2\n        /* \"#utility.yul\":6145:6175   */\n      gt\n        /* \"#utility.yul\":6142:6259   */\n      iszero\n      tag_257\n      jumpi\n        /* \"#utility.yul\":6178:6257   */\n      tag_258\n      tag_145\n      jump\t// in\n    tag_258:\n        /* \"#utility.yul\":6142:6259   */\n    tag_257:\n        /* \"#utility.yul\":6291:6371   */\n      tag_259\n        /* \"#utility.yul\":6363:6370   */\n      dup9\n        /* \"#utility.yul\":6354:6360   */\n      dup3\n        /* \"#utility.yul\":6343:6352   */\n      dup10\n        /* \"#utility.yul\":6339:6361   */\n      add\n        /* \"#utility.yul\":6291:6371   */\n      tag_165\n      jump\t// in\n    tag_259:\n        /* \"#utility.yul\":6273:6371   */\n      swap5\n      pop\n      swap5\n      pop\n        /* \"#utility.yul\":6068:6381   */\n      pop\n        /* \"#utility.yul\":6448:6450   */\n      0x40\n        /* \"#utility.yul\":6437:6446   */\n      dup7\n        /* \"#utility.yul\":6433:6451   */\n      add\n        /* \"#utility.yul\":6420:6452   */\n      calldataload\n        /* \"#utility.yul\":6479:6497   */\n      0xffffffffffffffff\n        /* \"#utility.yul\":6471:6477   */\n      dup2\n        /* \"#utility.yul\":6468:6498   */\n      gt\n        /* \"#utility.yul\":6465:6582   */\n      iszero\n      tag_260\n      jumpi\n        /* \"#utility.yul\":6501:6580   */\n      tag_261\n      tag_145\n      jump\t// in\n    tag_261:\n        /* \"#utility.yul\":6465:6582   */\n    tag_260:\n        /* \"#utility.yul\":6614:6694   */\n      tag_262\n        /* \"#utility.yul\":6686:6693   */\n      dup9\n        /* \"#utility.yul\":6677:6683   */\n      dup3\n        /* \"#utility.yul\":6666:6675   */\n      dup10\n        /* \"#utility.yul\":6662:6684   */\n      add\n        /* \"#utility.yul\":6614:6694   */\n      tag_166\n      jump\t// in\n    tag_262:\n        /* \"#utility.yul\":6596:6694   */\n      swap3\n      pop\n      swap3\n      pop\n        /* \"#utility.yul\":6391:6704   */\n      pop\n        /* \"#utility.yul\":5632:6711   */\n      swap3\n      swap6\n      pop\n      swap3\n      swap6\n      swap1\n      swap4\n      pop\n      jump\t// out\n        /* \"#utility.yul\":6717:6886   */\n    tag_167:\n        /* \"#utility.yul\":6801:6812   */\n      0x00\n        /* \"#utility.yul\":6835:6841   */\n      dup3\n        /* \"#utility.yul\":6830:6833   */\n      dup3\n        /* \"#utility.yul\":6823:6842   */\n      mstore\n        /* \"#utility.yul\":6875:6879   */\n      0x20\n        /* \"#utility.yul\":6870:6873   */\n      dup3\n        /* \"#utility.yul\":6866:6880   */\n      add\n        /* \"#utility.yul\":6851:6880   */\n      swap1\n      pop\n        /* \"#utility.yul\":6717:6886   */\n      swap3\n      swap2\n      pop\n      pop\n      jump\t// out\n        /* \"#utility.yul\":6892:7062   */\n    tag_168:\n        /* \"#utility.yul\":7032:7054   */\n      0x496e73756666696369656e742062616c616e6365000000000000000000000000\n        /* \"#utility.yul\":7028:7029   */\n      0x00\n        /* \"#utility.yul\":7020:7026   */\n      dup3\n        /* \"#utility.yul\":7016:7030   */\n      add\n        /* \"#utility.yul\":7009:7055   */\n      mstore\n        /* \"#utility.yul\":6892:7062   */\n      pop\n      jump\t// out\n        /* \"#utility.yul\":7068:7434   */\n    tag_169:\n        /* \"#utility.yul\":7210:7213   */\n      0x00\n        /* \"#utility.yul\":7231:7298   */\n      tag_266\n        /* \"#utility.yul\":7295:7297   */\n      0x14\n        /* \"#utility.yul\":7290:7293   */\n      dup4\n        /* \"#utility.yul\":7231:7298   */\n      tag_167\n      jump\t// in\n    tag_266:\n        /* \"#utility.yul\":7224:7298   */\n      swap2\n      pop\n        /* \"#utility.yul\":7307:7400   */\n      tag_267\n        /* \"#utility.yul\":7396:7399   */\n      dup3\n        /* \"#utility.yul\":7307:7400   */\n      tag_168\n      jump\t// in\n    tag_267:\n        /* \"#utility.yul\":7425:7427   */\n      0x20\n        /* \"#utility.yul\":7420:7423   */\n      dup3\n        /* \"#utility.yul\":7416:7428   */\n      add\n        /* \"#utility.yul\":7409:7428   */\n      swap1\n      pop\n        /* \"#utility.yul\":7068:7434   */\n      swap2\n      swap1\n      pop\n      jump\t// out\n        /* \"#utility.yul\":7440:7859   */\n    tag_58:\n        /* \"#utility.yul\":7606:7610   */\n      0x00\n        /* \"#utility.yul\":7644:7646   */\n      0x20\n        /* \"#utility.yul\":7633:7642   */\n      dup3\n        /* \"#utility.yul\":7629:7647   */\n      add\n        /* \"#utility.yul\":7621:7647   */\n      swap1\n      pop\n        /* \"#utility.yul\":7693:7702   */\n      dup2\n        /* \"#utility.yul\":7687:7691   */\n      dup2\n        /* \"#utility.yul\":7683:7703   */\n      sub\n        /* \"#utility.yul\":7679:7680   */\n      0x00\n        /* \"#utility.yul\":7668:7677   */\n      dup4\n        /* \"#utility.yul\":7664:7681   */\n      add\n        /* \"#utility.yul\":7657:7704   */\n      mstore\n        /* \"#utility.yul\":7721:7852   */\n      tag_269\n        /* \"#utility.yul\":7847:7851   */\n      dup2\n        /* \"#utility.yul\":7721:7852   */\n      tag_169\n      jump\t// in\n    tag_269:\n        /* \"#utility.yul\":7713:7852   */\n      swap1\n      pop\n        /* \"#utility.yul\":7440:7859   */\n      swap2\n      swap1\n      pop\n      jump\t// out\n        /* \"#utility.yul\":7865:8045   */\n    tag_170:\n        /* \"#utility.yul\":7913:7990   */\n      0x4e487b7100000000000000000000000000000000000000000000000000000000\n        /* \"#utility.yul\":7910:7911   */\n      0x00\n        /* \"#utility.yul\":7903:7991   */\n      mstore\n        /* \"#utility.yul\":8010:8014   */\n      0x11\n        /* \"#utility.yul\":8007:8008   */\n      0x04\n        /* \"#utility.yul\":8000:8015   */\n      mstore\n        /* \"#utility.yul\":8034:8038   */\n      0x24\n        /* \"#utility.yul\":8031:8032   */\n      0x00\n        /* \"#utility.yul\":8024:8039   */\n      revert\n        /* \"#utility.yul\":8051:8245   */\n    tag_60:\n        /* \"#utility.yul\":8091:8095   */\n      0x00\n        /* \"#utility.yul\":8111:8131   */\n      tag_272\n        /* \"#utility.yul\":8129:8130   */\n      dup3\n        /* \"#utility.yul\":8111:8131   */\n      tag_150\n      jump\t// in\n    tag_272:\n        /* \"#utility.yul\":8106:8131   */\n      swap2\n      pop\n        /* \"#utility.yul\":8145:8165   */\n      tag_273\n        /* \"#utility.yul\":8163:8164   */\n      dup4\n        /* \"#utility.yul\":8145:8165   */\n      tag_150\n      jump\t// in\n    tag_273:\n        /* \"#utility.yul\":8140:8165   */\n      swap3\n      pop\n        /* \"#utility.yul\":8189:8190   */\n      dup3\n        /* \"#utility.yul\":8186:8187   */\n      dup3\n        /* \"#utility.yul\":8182:8191   */\n      sub\n        /* \"#utility.yul\":8174:8191   */\n      swap1\n      pop\n        /* \"#utility.yul\":8213:8214   */\n      dup2\n        /* \"#utility.yul\":8207:8211   */\n      dup2\n        /* \"#utility.yul\":8204:8215   */\n      gt\n        /* \"#utility.yul\":8201:8238   */\n      iszero\n      tag_274\n      jumpi\n        /* \"#utility.yul\":8218:8236   */\n      tag_275\n      tag_170\n      jump\t// in\n    tag_275:\n        /* \"#utility.yul\":8201:8238   */\n    tag_274:\n        /* \"#utility.yul\":8051:8245   */\n      swap3\n      swap2\n      pop\n      pop\n      jump\t// out\n        /* \"#utility.yul\":8251:8583   */\n    tag_62:\n        /* \"#utility.yul\":8372:8376   */\n      0x00\n        /* \"#utility.yul\":8410:8412   */\n      0x40\n        /* \"#utility.yul\":8399:8408   */\n      dup3\n        /* \"#utility.yul\":8395:8413   */\n      add\n        /* \"#utility.yul\":8387:8413   */\n      swap1\n      pop\n        /* \"#utility.yul\":8423:8494   */\n      tag_277\n        /* \"#utility.yul\":8491:8492   */\n      0x00\n        /* \"#utility.yul\":8480:8489   */\n      dup4\n        /* \"#utility.yul\":8476:8493   */\n      add\n        /* \"#utility.yul\":8467:8473   */\n      dup6\n        /* \"#utility.yul\":8423:8494   */\n      tag_161\n      jump\t// in\n    tag_277:\n        /* \"#utility.yul\":8504:8576   */\n      tag_278\n        /* \"#utility.yul\":8572:8574   */\n      0x20\n        /* \"#utility.yul\":8561:8570   */\n      dup4\n        /* \"#utility.yul\":8557:8575   */\n      add\n        /* \"#utility.yul\":8548:8554   */\n      dup5\n        /* \"#utility.yul\":8504:8576   */\n      tag_151\n      jump\t// in\n    tag_278:\n        /* \"#utility.yul\":8251:8583   */\n      swap4\n      swap3\n      pop\n      pop\n      pop\n      jump\t// out\n        /* \"#utility.yul\":8589:8679   */\n    tag_171:\n        /* \"#utility.yul\":8623:8630   */\n      0x00\n        /* \"#utility.yul\":8666:8671   */\n      dup2\n        /* \"#utility.yul\":8659:8672   */\n      iszero\n        /* \"#utility.yul\":8652:8673   */\n      iszero\n        /* \"#utility.yul\":8641:8673   */\n      swap1\n      pop\n        /* \"#utility.yul\":8589:8679   */\n      swap2\n      swap1\n      pop\n      jump\t// out\n        /* \"#utility.yul\":8685:8801   */\n    tag_172:\n        /* \"#utility.yul\":8755:8776   */\n      tag_281\n        /* \"#utility.yul\":8770:8775   */\n      dup2\n        /* \"#utility.yul\":8755:8776   */\n      tag_171\n      jump\t// in\n    tag_281:\n        /* \"#utility.yul\":8748:8753   */\n      dup2\n        /* \"#utility.yul\":8745:8777   */\n      eq\n        /* \"#utility.yul\":8735:8795   */\n      tag_282\n      jumpi\n        /* \"#utility.yul\":8791:8792   */\n      0x00\n        /* \"#utility.yul\":8788:8789   */\n      0x00\n        /* \"#utility.yul\":8781:8793   */\n      revert\n        /* \"#utility.yul\":8735:8795   */\n    tag_282:\n        /* \"#utility.yul\":8685:8801   */\n      pop\n      jump\t// out\n        /* \"#utility.yul\":8807:8944   */\n    tag_173:\n        /* \"#utility.yul\":8861:8866   */\n      0x00\n        /* \"#utility.yul\":8892:8898   */\n      dup2\n        /* \"#utility.yul\":8886:8899   */\n      mload\n        /* \"#utility.yul\":8877:8899   */\n      swap1\n      pop\n        /* \"#utility.yul\":8908:8938   */\n      tag_284\n        /* \"#utility.yul\":8932:8937   */\n      dup2\n        /* \"#utility.yul\":8908:8938   */\n      tag_172\n      jump\t// in\n    tag_284:\n        /* \"#utility.yul\":8807:8944   */\n      swap3\n      swap2\n      pop\n      pop\n      jump\t// out\n        /* \"#utility.yul\":8950:9295   */\n    tag_66:\n        /* \"#utility.yul\":9017:9023   */\n      0x00\n        /* \"#utility.yul\":9066:9068   */\n      0x20\n        /* \"#utility.yul\":9054:9063   */\n      dup3\n        /* \"#utility.yul\":9045:9052   */\n      dup5\n        /* \"#utility.yul\":9041:9064   */\n      sub\n        /* \"#utility.yul\":9037:9069   */\n      slt\n        /* \"#utility.yul\":9034:9153   */\n      iszero\n      tag_286\n      jumpi\n        /* \"#utility.yul\":9072:9151   */\n      tag_287\n      tag_144\n      jump\t// in\n    tag_287:\n        /* \"#utility.yul\":9034:9153   */\n    tag_286:\n        /* \"#utility.yul\":9192:9193   */\n      0x00\n        /* \"#utility.yul\":9217:9278   */\n      tag_288\n        /* \"#utility.yul\":9270:9277   */\n      dup5\n        /* \"#utility.yul\":9261:9267   */\n      dup3\n        /* \"#utility.yul\":9250:9259   */\n      dup6\n        /* \"#utility.yul\":9246:9268   */\n      add\n        /* \"#utility.yul\":9217:9278   */\n      tag_173\n      jump\t// in\n    tag_288:\n        /* \"#utility.yul\":9207:9278   */\n      swap2\n      pop\n        /* \"#utility.yul\":9163:9288   */\n      pop\n        /* \"#utility.yul\":8950:9295   */\n      swap3\n      swap2\n      pop\n      pop\n      jump\t// out\n        /* \"#utility.yul\":9301:9466   */\n    tag_174:\n        /* \"#utility.yul\":9441:9458   */\n      0x5472616e73666572206661696c65640000000000000000000000000000000000\n        /* \"#utility.yul\":9437:9438   */\n      0x00\n        /* \"#utility.yul\":9429:9435   */\n      dup3\n        /* \"#utility.yul\":9425:9439   */\n      add\n        /* \"#utility.yul\":9418:9459   */\n      mstore\n        /* \"#utility.yul\":9301:9466   */\n      pop\n      jump\t// out\n        /* \"#utility.yul\":9472:9838   */\n    tag_175:\n        /* \"#utility.yul\":9614:9617   */\n      0x00\n        /* \"#utility.yul\":9635:9702   */\n      tag_291\n        /* \"#utility.yul\":9699:9701   */\n      0x0f\n        /* \"#utility.yul\":9694:9697   */\n      dup4\n        /* \"#utility.yul\":9635:9702   */\n      tag_167\n      jump\t// in\n    tag_291:\n        /* \"#utility.yul\":9628:9702   */\n      swap2\n      pop\n        /* \"#utility.yul\":9711:9804   */\n      tag_292\n        /* \"#utility.yul\":9800:9803   */\n      dup3\n        /* \"#utility.yul\":9711:9804   */\n      tag_174\n      jump\t// in\n    tag_292:\n        /* \"#utility.yul\":9829:9831   */\n      0x20\n        /* \"#utility.yul\":9824:9827   */\n      dup3\n        /* \"#utility.yul\":9820:9832   */\n      add\n        /* \"#utility.yul\":9813:9832   */\n      swap1\n      pop\n        /* \"#utility.yul\":9472:9838   */\n      swap2\n      swap1\n      pop\n      jump\t// out\n        /* \"#utility.yul\":9844:10263   */\n    tag_69:\n        /* \"#utility.yul\":10010:10014   */\n      0x00\n        /* \"#utility.yul\":10048:10050   */\n      0x20\n        /* \"#utility.yul\":10037:10046   */\n      dup3\n        /* \"#utility.yul\":10033:10051   */\n      add\n        /* \"#utility.yul\":10025:10051   */\n      swap1\n      pop\n        /* \"#utility.yul\":10097:10106   */\n      dup2\n        /* \"#utility.yul\":10091:10095   */\n      dup2\n        /* \"#utility.yul\":10087:10107   */\n      sub\n        /* \"#utility.yul\":10083:10084   */\n      0x00\n        /* \"#utility.yul\":10072:10081   */\n      dup4\n        /* \"#utility.yul\":10068:10085   */\n      add\n        /* \"#utility.yul\":10061:10108   */\n      mstore\n        /* \"#utility.yul\":10125:10256   */\n      tag_294\n        /* \"#utility.yul\":10251:10255   */\n      dup2\n        /* \"#utility.yul\":10125:10256   */\n      tag_175\n      jump\t// in\n    tag_294:\n        /* \"#utility.yul\":10117:10256   */\n      swap1\n      pop\n        /* \"#utility.yul\":9844:10263   */\n      swap2\n      swap1\n      pop\n      jump\t// out\n        /* \"#utility.yul\":10269:10437   */\n    tag_176:\n        /* \"#utility.yul\":10409:10429   */\n      0x416d6f756e74206d757374206265203e20300000000000000000000000000000\n        /* \"#utility.yul\":10405:10406   */\n      0x00\n        /* \"#utility.yul\":10397:10403   */\n      dup3\n        /* \"#utility.yul\":10393:10407   */\n      add\n        /* \"#utility.yul\":10386:10430   */\n      mstore\n        /* \"#utility.yul\":10269:10437   */\n      pop\n      jump\t// out\n        /* \"#utility.yul\":10443:10809   */\n    tag_177:\n        /* \"#utility.yul\":10585:10588   */\n      0x00\n        /* \"#utility.yul\":10606:10673   */\n      tag_297\n        /* \"#utility.yul\":10670:10672   */\n      0x12\n        /* \"#utility.yul\":10665:10668   */\n      dup4\n        /* \"#utility.yul\":10606:10673   */\n      tag_167\n      jump\t// in\n    tag_297:\n        /* \"#utility.yul\":10599:10673   */\n      swap2\n      pop\n        /* \"#utility.yul\":10682:10775   */\n      tag_298\n        /* \"#utility.yul\":10771:10774   */\n      dup3\n        /* \"#utility.yul\":10682:10775   */\n      tag_176\n      jump\t// in\n    tag_298:\n        /* \"#utility.yul\":10800:10802   */\n      0x20\n        /* \"#utility.yul\":10795:10798   */\n      dup3\n        /* \"#utility.yul\":10791:10803   */\n      add\n        /* \"#utility.yul\":10784:10803   */\n      swap1\n      pop\n        /* \"#utility.yul\":10443:10809   */\n      swap2\n      swap1\n      pop\n      jump\t// out\n        /* \"#utility.yul\":10815:11234   */\n    tag_82:\n        /* \"#utility.yul\":10981:10985   */\n      0x00\n        /* \"#utility.yul\":11019:11021   */\n      0x20\n        /* \"#utility.yul\":11008:11017   */\n      dup3\n        /* \"#utility.yul\":11004:11022   */\n      add\n        /* \"#utility.yul\":10996:11022   */\n      swap1\n      pop\n        /* \"#utility.yul\":11068:11077   */\n      dup2\n        /* \"#utility.yul\":11062:11066   */\n      dup2\n        /* \"#utility.yul\":11058:11078   */\n      sub\n        /* \"#utility.yul\":11054:11055   */\n      0x00\n        /* \"#utility.yul\":11043:11052   */\n      dup4\n        /* \"#utility.yul\":11039:11056   */\n      add\n        /* \"#utility.yul\":11032:11079   */\n      mstore\n        /* \"#utility.yul\":11096:11227   */\n      tag_300\n        /* \"#utility.yul\":11222:11226   */\n      dup2\n        /* \"#utility.yul\":11096:11227   */\n      tag_177\n      jump\t// in\n    tag_300:\n        /* \"#utility.yul\":11088:11227   */\n      swap1\n      pop\n        /* \"#utility.yul\":10815:11234   */\n      swap2\n      swap1\n      pop\n      jump\t// out\n        /* \"#utility.yul\":11240:11682   */\n    tag_84:\n        /* \"#utility.yul\":11389:11393   */\n      0x00\n        /* \"#utility.yul\":11427:11429   */\n      0x60\n        /* \"#utility.yul\":11416:11425   */\n      dup3\n        /* \"#utility.yul\":11412:11430   */\n      add\n        /* \"#utility.yul\":11404:11430   */\n      swap1\n      pop\n        /* \"#utility.yul\":11440:11511   */\n      tag_302\n        /* \"#utility.yul\":11508:11509   */\n      0x00\n        /* \"#utility.yul\":11497:11506   */\n      dup4\n        /* \"#utility.yul\":11493:11510   */\n      add\n        /* \"#utility.yul\":11484:11490   */\n      dup7\n        /* \"#utility.yul\":11440:11511   */\n      tag_161\n      jump\t// in\n    tag_302:\n        /* \"#utility.yul\":11521:11593   */\n      tag_303\n        /* \"#utility.yul\":11589:11591   */\n      0x20\n        /* \"#utility.yul\":11578:11587   */\n      dup4\n        /* \"#utility.yul\":11574:11592   */\n      add\n        /* \"#utility.yul\":11565:11571   */\n      dup6\n        /* \"#utility.yul\":11521:11593   */\n      tag_161\n      jump\t// in\n    tag_303:\n        /* \"#utility.yul\":11603:11675   */\n      tag_304\n        /* \"#utility.yul\":11671:11673   */\n      0x40\n        /* \"#utility.yul\":11660:11669   */\n      dup4\n        /* \"#utility.yul\":11656:11674   */\n      add\n        /* \"#utility.yul\":11647:11653   */\n      dup5\n        /* \"#utility.yul\":11603:11675   */\n      tag_151\n      jump\t// in\n    tag_304:\n        /* \"#utility.yul\":11240:11682   */\n      swap5\n      swap4\n      pop\n      pop\n      pop\n      pop\n      jump\t// out\n        /* \"#utility.yul\":11688:11879   */\n    tag_91:\n        /* \"#utility.yul\":11728:11731   */\n      0x00\n        /* \"#utility.yul\":11747:11767   */\n      tag_306\n        /* \"#utility.yul\":11765:11766   */\n      dup3\n        /* \"#utility.yul\":11747:11767   */\n      tag_150\n      jump\t// in\n    tag_306:\n        /* \"#utility.yul\":11742:11767   */\n      swap2\n      pop\n        /* \"#utility.yul\":11781:11801   */\n      tag_307\n        /* \"#utility.yul\":11799:11800   */\n      dup4\n        /* \"#utility.yul\":11781:11801   */\n      tag_150\n      jump\t// in\n    tag_307:\n        /* \"#utility.yul\":11776:11801   */\n      swap3\n      pop\n        /* \"#utility.yul\":11824:11825   */\n      dup3\n        /* \"#utility.yul\":11821:11822   */\n      dup3\n        /* \"#utility.yul\":11817:11826   */\n      add\n        /* \"#utility.yul\":11810:11826   */\n      swap1\n      pop\n        /* \"#utility.yul\":11845:11848   */\n      dup1\n        /* \"#utility.yul\":11842:11843   */\n      dup3\n        /* \"#utility.yul\":11839:11849   */\n      gt\n        /* \"#utility.yul\":11836:11872   */\n      iszero\n      tag_308\n      jumpi\n        /* \"#utility.yul\":11852:11870   */\n      tag_309\n      tag_170\n      jump\t// in\n    tag_309:\n        /* \"#utility.yul\":11836:11872   */\n    tag_308:\n        /* \"#utility.yul\":11688:11879   */\n      swap3\n      swap2\n      pop\n      pop\n      jump\t// out\n        /* \"#utility.yul\":11885:12057   */\n    tag_178:\n        /* \"#utility.yul\":12025:12049   */\n      0x4e6f2066756e647320746f206469737472696275746500000000000000000000\n        /* \"#utility.yul\":12021:12022   */\n      0x00\n        /* \"#utility.yul\":12013:12019   */\n      dup3\n        /* \"#utility.yul\":12009:12023   */\n      add\n        /* \"#utility.yul\":12002:12050   */\n      mstore\n        /* \"#utility.yul\":11885:12057   */\n      pop\n      jump\t// out\n        /* \"#utility.yul\":12063:12429   */\n    tag_179:\n        /* \"#utility.yul\":12205:12208   */\n      0x00\n        /* \"#utility.yul\":12226:12293   */\n      tag_312\n        /* \"#utility.yul\":12290:12292   */\n      0x16\n        /* \"#utility.yul\":12285:12288   */\n      dup4\n        /* \"#utility.yul\":12226:12293   */\n      tag_167\n      jump\t// in\n    tag_312:\n        /* \"#utility.yul\":12219:12293   */\n      swap2\n      pop\n        /* \"#utility.yul\":12302:12395   */\n      tag_313\n        /* \"#utility.yul\":12391:12394   */\n      dup3\n        /* \"#utility.yul\":12302:12395   */\n      tag_178\n      jump\t// in\n    tag_313:\n        /* \"#utility.yul\":12420:12422   */\n      0x20\n        /* \"#utility.yul\":12415:12418   */\n      dup3\n        /* \"#utility.yul\":12411:12423   */\n      add\n        /* \"#utility.yul\":12404:12423   */\n      swap1\n      pop\n        /* \"#utility.yul\":12063:12429   */\n      swap2\n      swap1\n      pop\n      jump\t// out\n        /* \"#utility.yul\":12435:12854   */\n    tag_98:\n        /* \"#utility.yul\":12601:12605   */\n      0x00\n        /* \"#utility.yul\":12639:12641   */\n      0x20\n        /* \"#utility.yul\":12628:12637   */\n      dup3\n        /* \"#utility.yul\":12624:12642   */\n      add\n        /* \"#utility.yul\":12616:12642   */\n      swap1\n      pop\n        /* \"#utility.yul\":12688:12697   */\n      dup2\n        /* \"#utility.yul\":12682:12686   */\n      dup2\n        /* \"#utility.yul\":12678:12698   */\n      sub\n        /* \"#utility.yul\":12674:12675   */\n      0x00\n        /* \"#utility.yul\":12663:12672   */\n      dup4\n        /* \"#utility.yul\":12659:12676   */\n      add\n        /* \"#utility.yul\":12652:12699   */\n      mstore\n        /* \"#utility.yul\":12716:12847   */\n      tag_315\n        /* \"#utility.yul\":12842:12846   */\n      dup2\n        /* \"#utility.yul\":12716:12847   */\n      tag_179\n      jump\t// in\n    tag_315:\n        /* \"#utility.yul\":12708:12847   */\n      swap1\n      pop\n        /* \"#utility.yul\":12435:12854   */\n      swap2\n      swap1\n      pop\n      jump\t// out\n        /* \"#utility.yul\":12860:13024   */\n    tag_180:\n        /* \"#utility.yul\":13000:13016   */\n      0x4172726179206d69736d61746368000000000000000000000000000000000000\n        /* \"#utility.yul\":12996:12997   */\n      0x00\n        /* \"#utility.yul\":12988:12994   */\n      dup3\n        /* \"#utility.yul\":12984:12998   */\n      add\n        /* \"#utility.yul\":12977:13017   */\n      mstore\n        /* \"#utility.yul\":12860:13024   */\n      pop\n      jump\t// out\n        /* \"#utility.yul\":13030:13396   */\n    tag_181:\n        /* \"#utility.yul\":13172:13175   */\n      0x00\n        /* \"#utility.yul\":13193:13260   */\n      tag_318\n        /* \"#utility.yul\":13257:13259   */\n      0x0e\n        /* \"#utility.yul\":13252:13255   */\n      dup4\n        /* \"#utility.yul\":13193:13260   */\n      tag_167\n      jump\t// in\n    tag_318:\n        /* \"#utility.yul\":13186:13260   */\n      swap2\n      pop\n        /* \"#utility.yul\":13269:13362   */\n      tag_319\n        /* \"#utility.yul\":13358:13361   */\n      dup3\n        /* \"#utility.yul\":13269:13362   */\n      tag_180\n      jump\t// in\n    tag_319:\n        /* \"#utility.yul\":13387:13389   */\n      0x20\n        /* \"#utility.yul\":13382:13385   */\n      dup3\n        /* \"#utility.yul\":13378:13390   */\n      add\n        /* \"#utility.yul\":13371:13390   */\n      swap1\n      pop\n        /* \"#utility.yul\":13030:13396   */\n      swap2\n      swap1\n      pop\n      jump\t// out\n        /* \"#utility.yul\":13402:13821   */\n    tag_101:\n        /* \"#utility.yul\":13568:13572   */\n      0x00\n        /* \"#utility.yul\":13606:13608   */\n      0x20\n        /* \"#utility.yul\":13595:13604   */\n      dup3\n        /* \"#utility.yul\":13591:13609   */\n      add\n        /* \"#utility.yul\":13583:13609   */\n      swap1\n      pop\n        /* \"#utility.yul\":13655:13664   */\n      dup2\n        /* \"#utility.yul\":13649:13653   */\n      dup2\n        /* \"#utility.yul\":13645:13665   */\n      sub\n        /* \"#utility.yul\":13641:13642   */\n      0x00\n        /* \"#utility.yul\":13630:13639   */\n      dup4\n        /* \"#utility.yul\":13626:13643   */\n      add\n        /* \"#utility.yul\":13619:13666   */\n      mstore\n        /* \"#utility.yul\":13683:13814   */\n      tag_321\n        /* \"#utility.yul\":13809:13813   */\n      dup2\n        /* \"#utility.yul\":13683:13814   */\n      tag_181\n      jump\t// in\n    tag_321:\n        /* \"#utility.yul\":13675:13814   */\n      swap1\n      pop\n        /* \"#utility.yul\":13402:13821   */\n      swap2\n      swap1\n      pop\n      jump\t// out\n        /* \"#utility.yul\":13827:14007   */\n    tag_107:\n        /* \"#utility.yul\":13875:13952   */\n      0x4e487b7100000000000000000000000000000000000000000000000000000000\n        /* \"#utility.yul\":13872:13873   */\n      0x00\n        /* \"#utility.yul\":13865:13953   */\n      mstore\n        /* \"#utility.yul\":13972:13976   */\n      0x32\n        /* \"#utility.yul\":13969:13970   */\n      0x04\n        /* \"#utility.yul\":13962:13977   */\n      mstore\n        /* \"#utility.yul\":13996:14000   */\n      0x24\n        /* \"#utility.yul\":13993:13994   */\n      0x00\n        /* \"#utility.yul\":13986:14001   */\n      revert\n        /* \"#utility.yul\":14013:14423   */\n    tag_109:\n        /* \"#utility.yul\":14053:14060   */\n      0x00\n        /* \"#utility.yul\":14076:14096   */\n      tag_324\n        /* \"#utility.yul\":14094:14095   */\n      dup3\n        /* \"#utility.yul\":14076:14096   */\n      tag_150\n      jump\t// in\n    tag_324:\n        /* \"#utility.yul\":14071:14096   */\n      swap2\n      pop\n        /* \"#utility.yul\":14110:14130   */\n      tag_325\n        /* \"#utility.yul\":14128:14129   */\n      dup4\n        /* \"#utility.yul\":14110:14130   */\n      tag_150\n      jump\t// in\n    tag_325:\n        /* \"#utility.yul\":14105:14130   */\n      swap3\n      pop\n        /* \"#utility.yul\":14165:14166   */\n      dup3\n        /* \"#utility.yul\":14162:14163   */\n      dup3\n        /* \"#utility.yul\":14158:14167   */\n      mul\n        /* \"#utility.yul\":14187:14217   */\n      tag_326\n        /* \"#utility.yul\":14205:14216   */\n      dup2\n        /* \"#utility.yul\":14187:14217   */\n      tag_150\n      jump\t// in\n    tag_326:\n        /* \"#utility.yul\":14176:14217   */\n      swap2\n      pop\n        /* \"#utility.yul\":14366:14367   */\n      dup3\n        /* \"#utility.yul\":14357:14364   */\n      dup3\n        /* \"#utility.yul\":14353:14368   */\n      div\n        /* \"#utility.yul\":14350:14351   */\n      dup5\n        /* \"#utility.yul\":14347:14369   */\n      eq\n        /* \"#utility.yul\":14327:14328   */\n      dup4\n        /* \"#utility.yul\":14320:14329   */\n      iszero\n        /* \"#utility.yul\":14300:14383   */\n      or\n        /* \"#utility.yul\":14277:14416   */\n      tag_327\n      jumpi\n        /* \"#utility.yul\":14396:14414   */\n      tag_328\n      tag_170\n      jump\t// in\n    tag_328:\n        /* \"#utility.yul\":14277:14416   */\n    tag_327:\n        /* \"#utility.yul\":14061:14423   */\n      pop\n        /* \"#utility.yul\":14013:14423   */\n      swap3\n      swap2\n      pop\n      pop\n      jump\t// out\n        /* \"#utility.yul\":14429:14609   */\n    tag_182:\n        /* \"#utility.yul\":14477:14554   */\n      0x4e487b7100000000000000000000000000000000000000000000000000000000\n        /* \"#utility.yul\":14474:14475   */\n      0x00\n        /* \"#utility.yul\":14467:14555   */\n      mstore\n        /* \"#utility.yul\":14574:14578   */\n      0x12\n        /* \"#utility.yul\":14571:14572   */\n      0x04\n        /* \"#utility.yul\":14564:14579   */\n      mstore\n        /* \"#utility.yul\":14598:14602   */\n      0x24\n        /* \"#utility.yul\":14595:14596   */\n      0x00\n        /* \"#utility.yul\":14588:14603   */\n      revert\n        /* \"#utility.yul\":14615:14800   */\n    tag_111:\n        /* \"#utility.yul\":14655:14656   */\n      0x00\n        /* \"#utility.yul\":14672:14692   */\n      tag_331\n        /* \"#utility.yul\":14690:14691   */\n      dup3\n        /* \"#utility.yul\":14672:14692   */\n      tag_150\n      jump\t// in\n    tag_331:\n        /* \"#utility.yul\":14667:14692   */\n      swap2\n      pop\n        /* \"#utility.yul\":14706:14726   */\n      tag_332\n        /* \"#utility.yul\":14724:14725   */\n      dup4\n        /* \"#utility.yul\":14706:14726   */\n      tag_150\n      jump\t// in\n    tag_332:\n        /* \"#utility.yul\":14701:14726   */\n      swap3\n      pop\n        /* \"#utility.yul\":14745:14746   */\n      dup3\n        /* \"#utility.yul\":14735:14770   */\n      tag_333\n      jumpi\n        /* \"#utility.yul\":14750:14768   */\n      tag_334\n      tag_182\n      jump\t// in\n    tag_334:\n        /* \"#utility.yul\":14735:14770   */\n    tag_333:\n        /* \"#utility.yul\":14792:14793   */\n      dup3\n        /* \"#utility.yul\":14789:14790   */\n      dup3\n        /* \"#utility.yul\":14785:14794   */\n      div\n        /* \"#utility.yul\":14780:14794   */\n      swap1\n      pop\n        /* \"#utility.yul\":14615:14800   */\n      swap3\n      swap2\n      pop\n      pop\n      jump\t// out\n\n    auxdata: 0xa2646970667358221220ad6bfcc3ff530949ab176e7a789b6c5ded159fb0eb89af654611353a7590c93064736f6c63430008220033\n}\n",
    "bytecode": {
      "linkReferences": {},
      "object": "608060405234801561000f575f5ffd5b506040516116a53803806116a583398181016040528101906100319190610259565b805f73ffffffffffffffffffffffffffffffffffffffff168173ffffffffffffffffffffffffffffffffffffffff16036100a2575f6040517f1e4fbdf700000000000000000000000000000000000000000000000000000000815260040161009991906102b8565b60405180910390fd5b6100b18161013a60201b60201c565b508260015f6101000a81548173ffffffffffffffffffffffffffffffffffffffff021916908373ffffffffffffffffffffffffffffffffffffffff1602179055508160025f6101000a81548173ffffffffffffffffffffffffffffffffffffffff021916908373ffffffffffffffffffffffffffffffffffffffff1602179055505050506102d1565b5f5f5f9054906101000a900473ffffffffffffffffffffffffffffffffffffffff169050815f5f6101000a81548173ffffffffffffffffffffffffffffffffffffffff021916908373ffffffffffffffffffffffffffffffffffffffff1602179055508173ffffffffffffffffffffffffffffffffffffffff168173ffffffffffffffffffffffffffffffffffffffff167f8be0079c531659141344cd1fd0a4f28419497f9722a3daafe3b4186f6b6457e060405160405180910390a35050565b5f5ffd5b5f73ffffffffffffffffffffffffffffffffffffffff82169050919050565b5f610228826101ff565b9050919050565b6102388161021e565b8114610242575f5ffd5b50565b5f815190506102538161022f565b92915050565b5f5f5f606084860312156102705761026f6101fb565b5b5f61027d86828701610245565b935050602061028e86828701610245565b925050604061029f86828701610245565b9150509250925092565b6102b28161021e565b82525050565b5f6020820190506102cb5f8301846102a9565b92915050565b6113c7806102de5f395ff3fe608060405234801561000f575f5ffd5b50600436106100a7575f3560e01c80637d73b2311161006f5780637d73b231146101295780638da5cb5b14610147578063b6b55f2514610165578063c2ec28d614610181578063ed8c9776146101b1578063f2fde38b146101cd576100a7565b806327e235e3146100ab5780632e1a7d4d146100db5780633e413bee146100f75780635c36b18614610115578063715018a61461011f575b5f5ffd5b6100c560048036038101906100c09190610c92565b6101e9565b6040516100d29190610cd5565b60405180910390f35b6100f560048036038101906100f09190610d18565b6101fe565b005b6100ff61043f565b60405161010c9190610d9e565b60405180910390f35b61011d610464565b005b6101276104a8565b005b6101316104bb565b60405161013e9190610dd7565b60405180910390f35b61014f6104e0565b60405161015c9190610dff565b60405180910390f35b61017f600480360381019061017a9190610d18565b610507565b005b61019b60048036038101906101969190610c92565b61070c565b6040516101a89190610cd5565b60405180910390f35b6101cb60048036038101906101c69190610ece565b610721565b005b6101e760048036038101906101e29190610c92565b610a5d565b005b6003602052805f5260405f205f915090505481565b8060035f3373ffffffffffffffffffffffffffffffffffffffff1673ffffffffffffffffffffffffffffffffffffffff1681526020019081526020015f2054101561027e576040517f08c379a000000000000000000000000000000000000000000000000000000000815260040161027590610fb9565b60405180910390fd5b8060035f3373ffffffffffffffffffffffffffffffffffffffff1673ffffffffffffffffffffffffffffffffffffffff1681526020019081526020015f205f8282546102ca9190611004565b925050819055504260045f3373ffffffffffffffffffffffffffffffffffffffff1673ffffffffffffffffffffffffffffffffffffffff1681526020019081526020015f208190555060015f9054906101000a900473ffffffffffffffffffffffffffffffffffffffff1673ffffffffffffffffffffffffffffffffffffffff1663a9059cbb33836040518363ffffffff1660e01b815260040161036f929190611037565b6020604051808303815f875af115801561038b573d5f5f3e3d5ffd5b505050506040513d601f19601f820116820180604052508101906103af9190611093565b6103ee576040517f08c379a00000000000000000000000000000000000000000000000000000000081526004016103e590611108565b60405180910390fd5b3373ffffffffffffffffffffffffffffffffffffffff167f7084f5476618d8e60b11ef0d7d3f06914655adb8793e28ff7f018d4c76d505d5826040516104349190610cd5565b60405180910390a250565b60015f9054906101000a900473ffffffffffffffffffffffffffffffffffffffff1681565b4260045f3373ffffffffffffffffffffffffffffffffffffffff1673ffffffffffffffffffffffffffffffffffffffff1681526020019081526020015f2081905550565b6104b0610ae1565b6104b95f610b68565b565b60025f9054906101000a900473ffffffffffffffffffffffffffffffffffffffff1681565b5f5f5f9054906101000a900473ffffffffffffffffffffffffffffffffffffffff16905090565b5f8111610549576040517f08c379a000000000000000000000000000000000000000000000000000000000815260040161054090611170565b60405180910390fd5b60015f9054906101000a900473ffffffffffffffffffffffffffffffffffffffff1673ffffffffffffffffffffffffffffffffffffffff166323b872dd3330846040518463ffffffff1660e01b81526004016105a79392919061118e565b6020604051808303815f875af11580156105c3573d5f5f3e3d5ffd5b505050506040513d601f19601f820116820180604052508101906105e79190611093565b610626576040517f08c379a000000000000000000000000000000000000000000000000000000000815260040161061d90611108565b60405180910390fd5b8060035f3373ffffffffffffffffffffffffffffffffffffffff1673ffffffffffffffffffffffffffffffffffffffff1681526020019081526020015f205f82825461067291906111c3565b925050819055504260045f3373ffffffffffffffffffffffffffffffffffffffff1673ffffffffffffffffffffffffffffffffffffffff1681526020019081526020015f20819055503373ffffffffffffffffffffffffffffffffffffffff167f2da466a7b24304f47e87fa2e1e5a81b9831ce54fec19055ce277ca2f39ba42c4826040516107019190610cd5565b60405180910390a250565b6004602052805f5260405f205f915090505481565b610729610ae1565b5f60035f8773ffffffffffffffffffffffffffffffffffffffff1673ffffffffffffffffffffffffffffffffffffffff1681526020019081526020015f205490505f81116107ac576040517f08c379a00000000000000000000000000000000000000000000000000000000081526004016107a390611240565b60405180910390fd5b8282905085859050146107f4576040517f08c379a00000000000000000000000000000000000000000000000000000000081526004016107eb906112a8565b60405180910390fd5b5f60035f8873ffffffffffffffffffffffffffffffffffffffff1673ffffffffffffffffffffffffffffffffffffffff1681526020019081526020015f20819055505f5f90505f5f90505b86869050811015610a05575f612710868684818110610861576108606112c6565b5b905060200201358561087391906112f3565b61087d9190611361565b90505f811180156108e157505f73ffffffffffffffffffffffffffffffffffffffff168888848181106108b3576108b26112c6565b5b90506020020160208101906108c89190610c92565b73ffffffffffffffffffffffffffffffffffffffff1614155b156109f75760015f9054906101000a900473ffffffffffffffffffffffffffffffffffffffff1673ffffffffffffffffffffffffffffffffffffffff1663a9059cbb898985818110610936576109356112c6565b5b905060200201602081019061094b9190610c92565b836040518363ffffffff1660e01b8152600401610969929190611037565b6020604051808303815f875af1158015610985573d5f5f3e3d5ffd5b505050506040513d601f19601f820116820180604052508101906109a99190611093565b6109e8576040517f08c379a00000000000000000000000000000000000000000000000000000000081526004016109df90611108565b60405180910390fd5b80836109f491906111c3565b92505b50808060010191505061083f565b508673ffffffffffffffffffffffffffffffffffffffff167fac8ae454ab5edd07d536a5c6584f39f829039f54889168e45278e74b7d062a3f82604051610a4c9190610cd5565b60405180910390a250505050505050565b610a65610ae1565b5f73ffffffffffffffffffffffffffffffffffffffff168173ffffffffffffffffffffffffffffffffffffffff1603610ad5575f6040517f1e4fbdf7000000000000000000000000000000000000000000000000000000008152600401610acc9190610dff565b60405180910390fd5b610ade81610b68565b50565b610ae9610c29565b73ffffffffffffffffffffffffffffffffffffffff16610b076104e0565b73ffffffffffffffffffffffffffffffffffffffff1614610b6657610b2a610c29565b6040517f118cdaa7000000000000000000000000000000000000000000000000000000008152600401610b5d9190610dff565b60405180910390fd5b565b5f5f5f9054906101000a900473ffffffffffffffffffffffffffffffffffffffff169050815f5f6101000a81548173ffffffffffffffffffffffffffffffffffffffff021916908373ffffffffffffffffffffffffffffffffffffffff1602179055508173ffffffffffffffffffffffffffffffffffffffff168173ffffffffffffffffffffffffffffffffffffffff167f8be0079c531659141344cd1fd0a4f28419497f9722a3daafe3b4186f6b6457e060405160405180910390a35050565b5f33905090565b5f5ffd5b5f5ffd5b5f73ffffffffffffffffffffffffffffffffffffffff82169050919050565b5f610c6182610c38565b9050919050565b610c7181610c57565b8114610c7b575f5ffd5b50565b5f81359050610c8c81610c68565b92915050565b5f60208284031215610ca757610ca6610c30565b5b5f610cb484828501610c7e565b91505092915050565b5f819050919050565b610ccf81610cbd565b82525050565b5f602082019050610ce85f830184610cc6565b92915050565b610cf781610cbd565b8114610d01575f5ffd5b50565b5f81359050610d1281610cee565b92915050565b5f60208284031215610d2d57610d2c610c30565b5b5f610d3a84828501610d04565b91505092915050565b5f819050919050565b5f610d66610d61610d5c84610c38565b610d43565b610c38565b9050919050565b5f610d7782610d4c565b9050919050565b5f610d8882610d6d565b9050919050565b610d9881610d7e565b82525050565b5f602082019050610db15f830184610d8f565b92915050565b5f610dc182610d6d565b9050919050565b610dd181610db7565b82525050565b5f602082019050610dea5f830184610dc8565b92915050565b610df981610c57565b82525050565b5f602082019050610e125f830184610df0565b92915050565b5f5ffd5b5f5ffd5b5f5ffd5b5f5f83601f840112610e3957610e38610e18565b5b8235905067ffffffffffffffff811115610e5657610e55610e1c565b5b602083019150836020820283011115610e7257610e71610e20565b5b9250929050565b5f5f83601f840112610e8e57610e8d610e18565b5b8235905067ffffffffffffffff811115610eab57610eaa610e1c565b5b602083019150836020820283011115610ec757610ec6610e20565b5b9250929050565b5f5f5f5f5f60608688031215610ee757610ee6610c30565b5b5f610ef488828901610c7e565b955050602086013567ffffffffffffffff811115610f1557610f14610c34565b5b610f2188828901610e24565b9450945050604086013567ffffffffffffffff811115610f4457610f43610c34565b5b610f5088828901610e79565b92509250509295509295909350565b5f82825260208201905092915050565b7f496e73756666696369656e742062616c616e63650000000000000000000000005f82015250565b5f610fa3601483610f5f565b9150610fae82610f6f565b602082019050919050565b5f6020820190508181035f830152610fd081610f97565b9050919050565b7f4e487b71000000000000000000000000000000000000000000000000000000005f52601160045260245ffd5b5f61100e82610cbd565b915061101983610cbd565b925082820390508181111561103157611030610fd7565b5b92915050565b5f60408201905061104a5f830185610df0565b6110576020830184610cc6565b9392505050565b5f8115159050919050565b6110728161105e565b811461107c575f5ffd5b50565b5f8151905061108d81611069565b92915050565b5f602082840312156110a8576110a7610c30565b5b5f6110b58482850161107f565b91505092915050565b7f5472616e73666572206661696c656400000000000000000000000000000000005f82015250565b5f6110f2600f83610f5f565b91506110fd826110be565b602082019050919050565b5f6020820190508181035f83015261111f816110e6565b9050919050565b7f416d6f756e74206d757374206265203e203000000000000000000000000000005f82015250565b5f61115a601283610f5f565b915061116582611126565b602082019050919050565b5f6020820190508181035f8301526111878161114e565b9050919050565b5f6060820190506111a15f830186610df0565b6111ae6020830185610df0565b6111bb6040830184610cc6565b949350505050565b5f6111cd82610cbd565b91506111d883610cbd565b92508282019050808211156111f0576111ef610fd7565b5b92915050565b7f4e6f2066756e647320746f2064697374726962757465000000000000000000005f82015250565b5f61122a601683610f5f565b9150611235826111f6565b602082019050919050565b5f6020820190508181035f8301526112578161121e565b9050919050565b7f4172726179206d69736d617463680000000000000000000000000000000000005f82015250565b5f611292600e83610f5f565b915061129d8261125e565b602082019050919050565b5f6020820190508181035f8301526112bf81611286565b9050919050565b7f4e487b71000000000000000000000000000000000000000000000000000000005f52603260045260245ffd5b5f6112fd82610cbd565b915061130883610cbd565b925082820261131681610cbd565b9150828204841483151761132d5761132c610fd7565b5b5092915050565b7f4e487b71000000000000000000000000000000000000000000000000000000005f52601260045260245ffd5b5f61136b82610cbd565b915061137683610cbd565b92508261138657611385611334565b5b82820490509291505056fea2646970667358221220ad6bfcc3ff530949ab176e7a789b6c5ded159fb0eb89af654611353a7590c93064736f6c63430008220033",
      "opcodes": "PUSH1 0x80 PUSH1 0x40 MSTORE CALLVALUE DUP1 ISZERO PUSH2 0xF JUMPI PUSH0 PUSH0 REVERT JUMPDEST POP PUSH1 0x40 MLOAD PUSH2 0x16A5 CODESIZE SUB DUP1 PUSH2 0x16A5 DUP4 CODECOPY DUP2 DUP2 ADD PUSH1 0x40 MSTORE DUP2 ADD SWAP1 PUSH2 0x31 SWAP2 SWAP1 PUSH2 0x259 JUMP JUMPDEST DUP1 PUSH0 PUSH20 0xFFFFFFFFFFFFFFFFFFFFFFFFFFFFFFFFFFFFFFFF AND DUP2 PUSH20 0xFFFFFFFFFFFFFFFFFFFFFFFFFFFFFFFFFFFFFFFF AND SUB PUSH2 0xA2 JUMPI PUSH0 PUSH1 0x40 MLOAD PUSH32 0x1E4FBDF700000000000000000000000000000000000000000000000000000000 DUP2 MSTORE PUSH1 0x4 ADD PUSH2 0x99 SWAP2 SWAP1 PUSH2 0x2B8 JUMP JUMPDEST PUSH1 0x40 MLOAD DUP1 SWAP2 SUB SWAP1 REVERT JUMPDEST PUSH2 0xB1 DUP2 PUSH2 0x13A PUSH1 0x20 SHL PUSH1 0x20 SHR JUMP JUMPDEST POP DUP3 PUSH1 0x1 PUSH0 PUSH2 0x100 EXP DUP2 SLOAD DUP2 PUSH20 0xFFFFFFFFFFFFFFFFFFFFFFFFFFFFFFFFFFFFFFFF MUL NOT AND SWAP1 DUP4 PUSH20 0xFFFFFFFFFFFFFFFFFFFFFFFFFFFFFFFFFFFFFFFF AND MUL OR SWAP1 SSTORE POP DUP2 PUSH1 0x2 PUSH0 PUSH2 0x100 EXP DUP2 SLOAD DUP2 PUSH20 0xFFFFFFFFFFFFFFFFFFFFFFFFFFFFFFFFFFFFFFFF MUL NOT AND SWAP1 DUP4 PUSH20 0xFFFFFFFFFFFFFFFFFFFFFFFFFFFFFFFFFFFFFFFF AND MUL OR SWAP1 SSTORE POP POP POP POP PUSH2 0x2D1 JUMP JUMPDEST PUSH0 PUSH0 PUSH0 SWAP1 SLOAD SWAP1 PUSH2 0x100 EXP SWAP1 DIV PUSH20 0xFFFFFFFFFFFFFFFFFFFFFFFFFFFFFFFFFFFFFFFF AND SWAP1 POP DUP2 PUSH0 PUSH0 PUSH2 0x100 EXP DUP2 SLOAD DUP2 PUSH20 0xFFFFFFFFFFFFFFFFFFFFFFFFFFFFFFFFFFFFFFFF MUL NOT AND SWAP1 DUP4 PUSH20 0xFFFFFFFFFFFFFFFFFFFFFFFFFFFFFFFFFFFFFFFF AND MUL OR SWAP1 SSTORE POP DUP2 PUSH20 0xFFFFFFFFFFFFFFFFFFFFFFFFFFFFFFFFFFFFFFFF AND DUP2 PUSH20 0xFFFFFFFFFFFFFFFFFFFFFFFFFFFFFFFFFFFFFFFF AND PUSH32 0x8BE0079C531659141344CD1FD0A4F28419497F9722A3DAAFE3B4186F6B6457E0 PUSH1 0x40 MLOAD PUSH1 0x40 MLOAD DUP1 SWAP2 SUB SWAP1 LOG3 POP POP JUMP JUMPDEST PUSH0 PUSH0 REVERT JUMPDEST PUSH0 PUSH20 0xFFFFFFFFFFFFFFFFFFFFFFFFFFFFFFFFFFFFFFFF DUP3 AND SWAP1 POP SWAP2 SWAP1 POP JUMP JUMPDEST PUSH0 PUSH2 0x228 DUP3 PUSH2 0x1FF JUMP JUMPDEST SWAP1 POP SWAP2 SWAP1 POP JUMP JUMPDEST PUSH2 0x238 DUP2 PUSH2 0x21E JUMP JUMPDEST DUP2 EQ PUSH2 0x242 JUMPI PUSH0 PUSH0 REVERT JUMPDEST POP JUMP JUMPDEST PUSH0 DUP2 MLOAD SWAP1 POP PUSH2 0x253 DUP2 PUSH2 0x22F JUMP JUMPDEST SWAP3 SWAP2 POP POP JUMP JUMPDEST PUSH0 PUSH0 PUSH0 PUSH1 0x60 DUP5 DUP7 SUB SLT ISZERO PUSH2 0x270 JUMPI PUSH2 0x26F PUSH2 0x1FB JUMP JUMPDEST JUMPDEST PUSH0 PUSH2 0x27D DUP7 DUP3 DUP8 ADD PUSH2 0x245 JUMP JUMPDEST SWAP4 POP POP PUSH1 0x20 PUSH2 0x28E DUP7 DUP3 DUP8 ADD PUSH2 0x245 JUMP JUMPDEST SWAP3 POP POP PUSH1 0x40 PUSH2 0x29F DUP7 DUP3 DUP8 ADD PUSH2 0x245 JUMP JUMPDEST SWAP2 POP POP SWAP3 POP SWAP3 POP SWAP3 JUMP JUMPDEST PUSH2 0x2B2 DUP2 PUSH2 0x21E JUMP JUMPDEST DUP3 MSTORE POP POP JUMP JUMPDEST PUSH0 PUSH1 0x20 DUP3 ADD SWAP1 POP PUSH2 0x2CB PUSH0 DUP4 ADD DUP5 PUSH2 0x2A9 JUMP JUMPDEST SWAP3 SWAP2 POP POP JUMP JUMPDEST PUSH2 0x13C7 DUP1 PUSH2 0x2DE PUSH0 CODECOPY PUSH0 RETURN INVALID PUSH1 0x80 PUSH1 0x40 MSTORE CALLVALUE DUP1 ISZERO PUSH2 0xF JUMPI PUSH0 PUSH0 REVERT JUMPDEST POP PUSH1 0x4 CALLDATASIZE LT PUSH2 0xA7 JUMPI PUSH0 CALLDATALOAD PUSH1 0xE0 SHR DUP1 PUSH4 0x7D73B231 GT PUSH2 0x6F JUMPI DUP1 PUSH4 0x7D73B231 EQ PUSH2 0x129 JUMPI DUP1 PUSH4 0x8DA5CB5B EQ PUSH2 0x147 JUMPI DUP1 PUSH4 0xB6B55F25 EQ PUSH2 0x165 JUMPI DUP1 PUSH4 0xC2EC28D6 EQ PUSH2 0x181 JUMPI DUP1 PUSH4 0xED8C9776 EQ PUSH2 0x1B1 JUMPI DUP1 PUSH4 0xF2FDE38B EQ PUSH2 0x1CD JUMPI PUSH2 0xA7 JUMP JUMPDEST DUP1 PUSH4 0x27E235E3 EQ PUSH2 0xAB JUMPI DUP1 PUSH4 0x2E1A7D4D EQ PUSH2 0xDB JUMPI DUP1 PUSH4 0x3E413BEE EQ PUSH2 0xF7 JUMPI DUP1 PUSH4 0x5C36B186 EQ PUSH2 0x115 JUMPI DUP1 PUSH4 0x715018A6 EQ PUSH2 0x11F JUMPI JUMPDEST PUSH0 PUSH0 REVERT JUMPDEST PUSH2 0xC5 PUSH1 0x4 DUP1 CALLDATASIZE SUB DUP2 ADD SWAP1 PUSH2 0xC0 SWAP2 SWAP1 PUSH2 0xC92 JUMP JUMPDEST PUSH2 0x1E9 JUMP JUMPDEST PUSH1 0x40 MLOAD PUSH2 0xD2 SWAP2 SWAP1 PUSH2 0xCD5 JUMP JUMPDEST PUSH1 0x40 MLOAD DUP1 SWAP2 SUB SWAP1 RETURN JUMPDEST PUSH2 0xF5 PUSH1 0x4 DUP1 CALLDATASIZE SUB DUP2 ADD SWAP1 PUSH2 0xF0 SWAP2 SWAP1 PUSH2 0xD18 JUMP JUMPDEST PUSH2 0x1FE JUMP JUMPDEST STOP JUMPDEST PUSH2 0xFF PUSH2 0x43F JUMP JUMPDEST PUSH1 0x40 MLOAD PUSH2 0x10C SWAP2 SWAP1 PUSH2 0xD9E JUMP JUMPDEST PUSH1 0x40 MLOAD DUP1 SWAP2 SUB SWAP1 RETURN JUMPDEST PUSH2 0x11D PUSH2 0x464 JUMP JUMPDEST STOP JUMPDEST PUSH2 0x127 PUSH2 0x4A8 JUMP JUMPDEST STOP JUMPDEST PUSH2 0x131 PUSH2 0x4BB JUMP JUMPDEST PUSH1 0x40 MLOAD PUSH2 0x13E SWAP2 SWAP1 PUSH2 0xDD7 JUMP JUMPDEST PUSH1 0x40 MLOAD DUP1 SWAP2 SUB SWAP1 RETURN JUMPDEST PUSH2 0x14F PUSH2 0x4E0 JUMP JUMPDEST PUSH1 0x40 MLOAD PUSH2 0x15C SWAP2 SWAP1 PUSH2 0xDFF JUMP JUMPDEST PUSH1 0x40 MLOAD DUP1 SWAP2 SUB SWAP1 RETURN JUMPDEST PUSH2 0x17F PUSH1 0x4 DUP1 CALLDATASIZE SUB DUP2 ADD SWAP1 PUSH2 0x17A SWAP2 SWAP1 PUSH2 0xD18 JUMP JUMPDEST PUSH2 0x507 JUMP JUMPDEST STOP JUMPDEST PUSH2 0x19B PUSH1 0x4 DUP1 CALLDATASIZE SUB DUP2 ADD SWAP1 PUSH2 0x196 SWAP2 SWAP1 PUSH2 0xC92 JUMP JUMPDEST PUSH2 0x70C JUMP JUMPDEST PUSH1 0x40 MLOAD PUSH2 0x1A8 SWAP2 SWAP1 PUSH2 0xCD5 JUMP JUMPDEST PUSH1 0x40 MLOAD DUP1 SWAP2 SUB SWAP1 RETURN JUMPDEST PUSH2 0x1CB PUSH1 0x4 DUP1 CALLDATASIZE SUB DUP2 ADD SWAP1 PUSH2 0x1C6 SWAP2 SWAP1 PUSH2 0xECE JUMP JUMPDEST PUSH2 0x721 JUMP JUMPDEST STOP JUMPDEST PUSH2 0x1E7 PUSH1 0x4 DUP1 CALLDATASIZE SUB DUP2 ADD SWAP1 PUSH2 0x1E2 SWAP2 SWAP1 PUSH2 0xC92 JUMP JUMPDEST PUSH2 0xA5D JUMP JUMPDEST STOP JUMPDEST PUSH1 0x3 PUSH1 0x20 MSTORE DUP1 PUSH0 MSTORE PUSH1 0x40 PUSH0 KECCAK256 PUSH0 SWAP2 POP SWAP1 POP SLOAD DUP2 JUMP JUMPDEST DUP1 PUSH1 0x3 PUSH0 CALLER PUSH20 0xFFFFFFFFFFFFFFFFFFFFFFFFFFFFFFFFFFFFFFFF AND PUSH20 0xFFFFFFFFFFFFFFFFFFFFFFFFFFFFFFFFFFFFFFFF AND DUP2 MSTORE PUSH1 0x20 ADD SWAP1 DUP2 MSTORE PUSH1 0x20 ADD PUSH0 KECCAK256 SLOAD LT ISZERO PUSH2 0x27E JUMPI PUSH1 0x40 MLOAD PUSH32 0x8C379A000000000000000000000000000000000000000000000000000000000 DUP2 MSTORE PUSH1 0x4 ADD PUSH2 0x275 SWAP1 PUSH2 0xFB9 JUMP JUMPDEST PUSH1 0x40 MLOAD DUP1 SWAP2 SUB SWAP1 REVERT JUMPDEST DUP1 PUSH1 0x3 PUSH0 CALLER PUSH20 0xFFFFFFFFFFFFFFFFFFFFFFFFFFFFFFFFFFFFFFFF AND PUSH20 0xFFFFFFFFFFFFFFFFFFFFFFFFFFFFFFFFFFFFFFFF AND DUP2 MSTORE PUSH1 0x20 ADD SWAP1 DUP2 MSTORE PUSH1 0x20 ADD PUSH0 KECCAK256 PUSH0 DUP3 DUP3 SLOAD PUSH2 0x2CA SWAP2 SWAP1 PUSH2 0x1004 JUMP JUMPDEST SWAP3 POP POP DUP2 SWAP1 SSTORE POP TIMESTAMP PUSH1 0x4 PUSH0 CALLER PUSH20 0xFFFFFFFFFFFFFFFFFFFFFFFFFFFFFFFFFFFFFFFF AND PUSH20 0xFFFFFFFFFFFFFFFFFFFFFFFFFFFFFFFFFFFFFFFF AND DUP2 MSTORE PUSH1 0x20 ADD SWAP1 DUP2 MSTORE PUSH1 0x20 ADD PUSH0 KECCAK256 DUP2 SWAP1 SSTORE POP PUSH1 0x1 PUSH0 SWAP1 SLOAD SWAP1 PUSH2 0x100 EXP SWAP1 DIV PUSH20 0xFFFFFFFFFFFFFFFFFFFFFFFFFFFFFFFFFFFFFFFF AND PUSH20 0xFFFFFFFFFFFFFFFFFFFFFFFFFFFFFFFFFFFFFFFF AND PUSH4 0xA9059CBB CALLER DUP4 PUSH1 0x40 MLOAD DUP4 PUSH4 0xFFFFFFFF AND PUSH1 0xE0 SHL DUP2 MSTORE PUSH1 0x4 ADD PUSH2 0x36F SWAP3 SWAP2 SWAP1 PUSH2 0x1037 JUMP JUMPDEST PUSH1 0x20 PUSH1 0x40 MLOAD DUP1 DUP4 SUB DUP2 PUSH0 DUP8 GAS CALL ISZERO DUP1 ISZERO PUSH2 0x38B JUMPI RETURNDATASIZE PUSH0 PUSH0 RETURNDATACOPY RETURNDATASIZE PUSH0 REVERT JUMPDEST POP POP POP POP PUSH1 0x40 MLOAD RETURNDATASIZE PUSH1 0x1F NOT PUSH1 0x1F DUP3 ADD AND DUP3 ADD DUP1 PUSH1 0x40 MSTORE POP DUP2 ADD SWAP1 PUSH2 0x3AF SWAP2 SWAP1 PUSH2 0x1093 JUMP JUMPDEST PUSH2 0x3EE JUMPI PUSH1 0x40 MLOAD PUSH32 0x8C379A000000000000000000000000000000000000000000000000000000000 DUP2 MSTORE PUSH1 0x4 ADD PUSH2 0x3E5 SWAP1 PUSH2 0x1108 JUMP JUMPDEST PUSH1 0x40 MLOAD DUP1 SWAP2 SUB SWAP1 REVERT JUMPDEST CALLER PUSH20 0xFFFFFFFFFFFFFFFFFFFFFFFFFFFFFFFFFFFFFFFF AND PUSH32 0x7084F5476618D8E60B11EF0D7D3F06914655ADB8793E28FF7F018D4C76D505D5 DUP3 PUSH1 0x40 MLOAD PUSH2 0x434 SWAP2 SWAP1 PUSH2 0xCD5 JUMP JUMPDEST PUSH1 0x40 MLOAD DUP1 SWAP2 SUB SWAP1 LOG2 POP JUMP JUMPDEST PUSH1 0x1 PUSH0 SWAP1 SLOAD SWAP1 PUSH2 0x100 EXP SWAP1 DIV PUSH20 0xFFFFFFFFFFFFFFFFFFFFFFFFFFFFFFFFFFFFFFFF AND DUP2 JUMP JUMPDEST TIMESTAMP PUSH1 0x4 PUSH0 CALLER PUSH20 0xFFFFFFFFFFFFFFFFFFFFFFFFFFFFFFFFFFFFFFFF AND PUSH20 0xFFFFFFFFFFFFFFFFFFFFFFFFFFFFFFFFFFFFFFFF AND DUP2 MSTORE PUSH1 0x20 ADD SWAP1 DUP2 MSTORE PUSH1 0x20 ADD PUSH0 KECCAK256 DUP2 SWAP1 SSTORE POP JUMP JUMPDEST PUSH2 0x4B0 PUSH2 0xAE1 JUMP JUMPDEST PUSH2 0x4B9 PUSH0 PUSH2 0xB68 JUMP JUMPDEST JUMP JUMPDEST PUSH1 0x2 PUSH0 SWAP1 SLOAD SWAP1 PUSH2 0x100 EXP SWAP1 DIV PUSH20 0xFFFFFFFFFFFFFFFFFFFFFFFFFFFFFFFFFFFFFFFF AND DUP2 JUMP JUMPDEST PUSH0 PUSH0 PUSH0 SWAP1 SLOAD SWAP1 PUSH2 0x100 EXP SWAP1 DIV PUSH20 0xFFFFFFFFFFFFFFFFFFFFFFFFFFFFFFFFFFFFFFFF AND SWAP1 POP SWAP1 JUMP JUMPDEST PUSH0 DUP2 GT PUSH2 0x549 JUMPI PUSH1 0x40 MLOAD PUSH32 0x8C379A000000000000000000000000000000000000000000000000000000000 DUP2 MSTORE PUSH1 0x4 ADD PUSH2 0x540 SWAP1 PUSH2 0x1170 JUMP JUMPDEST PUSH1 0x40 MLOAD DUP1 SWAP2 SUB SWAP1 REVERT JUMPDEST PUSH1 0x1 PUSH0 SWAP1 SLOAD SWAP1 PUSH2 0x100 EXP SWAP1 DIV PUSH20 0xFFFFFFFFFFFFFFFFFFFFFFFFFFFFFFFFFFFFFFFF AND PUSH20 0xFFFFFFFFFFFFFFFFFFFFFFFFFFFFFFFFFFFFFFFF AND PUSH4 0x23B872DD CALLER ADDRESS DUP5 PUSH1 0x40 MLOAD DUP5 PUSH4 0xFFFFFFFF AND PUSH1 0xE0 SHL DUP2 MSTORE PUSH1 0x4 ADD PUSH2 0x5A7 SWAP4 SWAP3 SWAP2 SWAP1 PUSH2 0x118E JUMP JUMPDEST PUSH1 0x20 PUSH1 0x40 MLOAD DUP1 DUP4 SUB DUP2 PUSH0 DUP8 GAS CALL ISZERO DUP1 ISZERO PUSH2 0x5C3 JUMPI RETURNDATASIZE PUSH0 PUSH0 RETURNDATACOPY RETURNDATASIZE PUSH0 REVERT JUMPDEST POP POP POP POP PUSH1 0x40 MLOAD RETURNDATASIZE PUSH1 0x1F NOT PUSH1 0x1F DUP3 ADD AND DUP3 ADD DUP1 PUSH1 0x40 MSTORE POP DUP2 ADD SWAP1 PUSH2 0x5E7 SWAP2 SWAP1 PUSH2 0x1093 JUMP JUMPDEST PUSH2 0x626 JUMPI PUSH1 0x40 MLOAD PUSH32 0x8C379A000000000000000000000000000000000000000000000000000000000 DUP2 MSTORE PUSH1 0x4 ADD PUSH2 0x61D SWAP1 PUSH2 0x1108 JUMP JUMPDEST PUSH1 0x40 MLOAD DUP1 SWAP2 SUB SWAP1 REVERT JUMPDEST DUP1 PUSH1 0x3 PUSH0 CALLER PUSH20 0xFFFFFFFFFFFFFFFFFFFFFFFFFFFFFFFFFFFFFFFF AND PUSH20 0xFFFFFFFFFFFFFFFFFFFFFFFFFFFFFFFFFFFFFFFF AND DUP2 MSTORE PUSH1 0x20 ADD SWAP1 DUP2 MSTORE PUSH1 0x20 ADD PUSH0 KECCAK256 PUSH0 DUP3 DUP3 SLOAD PUSH2 0x672 SWAP2 SWAP1 PUSH2 0x11C3 JUMP JUMPDEST SWAP3 POP POP DUP2 SWAP1 SSTORE POP TIMESTAMP PUSH1 0x4 PUSH0 CALLER PUSH20 0xFFFFFFFFFFFFFFFFFFFFFFFFFFFFFFFFFFFFFFFF AND PUSH20 0xFFFFFFFFFFFFFFFFFFFFFFFFFFFFFFFFFFFFFFFF AND DUP2 MSTORE PUSH1 0x20 ADD SWAP1 DUP2 MSTORE PUSH1 0x20 ADD PUSH0 KECCAK256 DUP2 SWAP1 SSTORE POP CALLER PUSH20 0xFFFFFFFFFFFFFFFFFFFFFFFFFFFFFFFFFFFFFFFF AND PUSH32 0x2DA466A7B24304F47E87FA2E1E5A81B9831CE54FEC19055CE277CA2F39BA42C4 DUP3 PUSH1 0x40 MLOAD PUSH2 0x701 SWAP2 SWAP1 PUSH2 0xCD5 JUMP JUMPDEST PUSH1 0x40 MLOAD DUP1 SWAP2 SUB SWAP1 LOG2 POP JUMP JUMPDEST PUSH1 0x4 PUSH1 0x20 MSTORE DUP1 PUSH0 MSTORE PUSH1 0x40 PUSH0 KECCAK256 PUSH0 SWAP2 POP SWAP1 POP SLOAD DUP2 JUMP JUMPDEST PUSH2 0x729 PUSH2 0xAE1 JUMP JUMPDEST PUSH0 PUSH1 0x3 PUSH0 DUP8 PUSH20 0xFFFFFFFFFFFFFFFFFFFFFFFFFFFFFFFFFFFFFFFF AND PUSH20 0xFFFFFFFFFFFFFFFFFFFFFFFFFFFFFFFFFFFFFFFF AND DUP2 MSTORE PUSH1 0x20 ADD SWAP1 DUP2 MSTORE PUSH1 0x20 ADD PUSH0 KECCAK256 SLOAD SWAP1 POP PUSH0 DUP2 GT PUSH2 0x7AC JUMPI PUSH1 0x40 MLOAD PUSH32 0x8C379A000000000000000000000000000000000000000000000000000000000 DUP2 MSTORE PUSH1 0x4 ADD PUSH2 0x7A3 SWAP1 PUSH2 0x1240 JUMP JUMPDEST PUSH1 0x40 MLOAD DUP1 SWAP2 SUB SWAP1 REVERT JUMPDEST DUP3 DUP3 SWAP1 POP DUP6 DUP6 SWAP1 POP EQ PUSH2 0x7F4 JUMPI PUSH1 0x40 MLOAD PUSH32 0x8C379A000000000000000000000000000000000000000000000000000000000 DUP2 MSTORE PUSH1 0x4 ADD PUSH2 0x7EB SWAP1 PUSH2 0x12A8 JUMP JUMPDEST PUSH1 0x40 MLOAD DUP1 SWAP2 SUB SWAP1 REVERT JUMPDEST PUSH0 PUSH1 0x3 PUSH0 DUP9 PUSH20 0xFFFFFFFFFFFFFFFFFFFFFFFFFFFFFFFFFFFFFFFF AND PUSH20 0xFFFFFFFFFFFFFFFFFFFFFFFFFFFFFFFFFFFFFFFF AND DUP2 MSTORE PUSH1 0x20 ADD SWAP1 DUP2 MSTORE PUSH1 0x20 ADD PUSH0 KECCAK256 DUP2 SWAP1 SSTORE POP PUSH0 PUSH0 SWAP1 POP PUSH0 PUSH0 SWAP1 POP JUMPDEST DUP7 DUP7 SWAP1 POP DUP2 LT ISZERO PUSH2 0xA05 JUMPI PUSH0 PUSH2 0x2710 DUP7 DUP7 DUP5 DUP2 DUP2 LT PUSH2 0x861 JUMPI PUSH2 0x860 PUSH2 0x12C6 JUMP JUMPDEST JUMPDEST SWAP1 POP PUSH1 0x20 MUL ADD CALLDATALOAD DUP6 PUSH2 0x873 SWAP2 SWAP1 PUSH2 0x12F3 JUMP JUMPDEST PUSH2 0x87D SWAP2 SWAP1 PUSH2 0x1361 JUMP JUMPDEST SWAP1 POP PUSH0 DUP2 GT DUP1 ISZERO PUSH2 0x8E1 JUMPI POP PUSH0 PUSH20 0xFFFFFFFFFFFFFFFFFFFFFFFFFFFFFFFFFFFFFFFF AND DUP9 DUP9 DUP5 DUP2 DUP2 LT PUSH2 0x8B3 JUMPI PUSH2 0x8B2 PUSH2 0x12C6 JUMP JUMPDEST JUMPDEST SWAP1 POP PUSH1 0x20 MUL ADD PUSH1 0x20 DUP2 ADD SWAP1 PUSH2 0x8C8 SWAP2 SWAP1 PUSH2 0xC92 JUMP JUMPDEST PUSH20 0xFFFFFFFFFFFFFFFFFFFFFFFFFFFFFFFFFFFFFFFF AND EQ ISZERO JUMPDEST ISZERO PUSH2 0x9F7 JUMPI PUSH1 0x1 PUSH0 SWAP1 SLOAD SWAP1 PUSH2 0x100 EXP SWAP1 DIV PUSH20 0xFFFFFFFFFFFFFFFFFFFFFFFFFFFFFFFFFFFFFFFF AND PUSH20 0xFFFFFFFFFFFFFFFFFFFFFFFFFFFFFFFFFFFFFFFF AND PUSH4 0xA9059CBB DUP10 DUP10 DUP6 DUP2 DUP2 LT PUSH2 0x936 JUMPI PUSH2 0x935 PUSH2 0x12C6 JUMP JUMPDEST JUMPDEST SWAP1 POP PUSH1 0x20 MUL ADD PUSH1 0x20 DUP2 ADD SWAP1 PUSH2 0x94B SWAP2 SWAP1 PUSH2 0xC92 JUMP JUMPDEST DUP4 PUSH1 0x40 MLOAD DUP4 PUSH4 0xFFFFFFFF AND PUSH1 0xE0 SHL DUP2 MSTORE PUSH1 0x4 ADD PUSH2 0x969 SWAP3 SWAP2 SWAP1 PUSH2 0x1037 JUMP JUMPDEST PUSH1 0x20 PUSH1 0x40 MLOAD DUP1 DUP4 SUB DUP2 PUSH0 DUP8 GAS CALL ISZERO DUP1 ISZERO PUSH2 0x985 JUMPI RETURNDATASIZE PUSH0 PUSH0 RETURNDATACOPY RETURNDATASIZE PUSH0 REVERT JUMPDEST POP POP POP POP PUSH1 0x40 MLOAD RETURNDATASIZE PUSH1 0x1F NOT PUSH1 0x1F DUP3 ADD AND DUP3 ADD DUP1 PUSH1 0x40 MSTORE POP DUP2 ADD SWAP1 PUSH2 0x9A9 SWAP2 SWAP1 PUSH2 0x1093 JUMP JUMPDEST PUSH2 0x9E8 JUMPI PUSH1 0x40 MLOAD PUSH32 0x8C379A000000000000000000000000000000000000000000000000000000000 DUP2 MSTORE PUSH1 0x4 ADD PUSH2 0x9DF SWAP1 PUSH2 0x1108 JUMP JUMPDEST PUSH1 0x40 MLOAD DUP1 SWAP2 SUB SWAP1 REVERT JUMPDEST DUP1 DUP4 PUSH2 0x9F4 SWAP2 SWAP1 PUSH2 0x11C3 JUMP JUMPDEST SWAP3 POP JUMPDEST POP DUP1 DUP1 PUSH1 0x1 ADD SWAP2 POP POP PUSH2 0x83F JUMP JUMPDEST POP DUP7 PUSH20 0xFFFFFFFFFFFFFFFFFFFFFFFFFFFFFFFFFFFFFFFF AND PUSH32 0xAC8AE454AB5EDD07D536A5C6584F39F829039F54889168E45278E74B7D062A3F DUP3 PUSH1 0x40 MLOAD PUSH2 0xA4C SWAP2 SWAP1 PUSH2 0xCD5 JUMP JUMPDEST PUSH1 0x40 MLOAD DUP1 SWAP2 SUB SWAP1 LOG2 POP POP POP POP POP POP POP JUMP JUMPDEST PUSH2 0xA65 PUSH2 0xAE1 JUMP JUMPDEST PUSH0 PUSH20 0xFFFFFFFFFFFFFFFFFFFFFFFFFFFFFFFFFFFFFFFF AND DUP2 PUSH20 0xFFFFFFFFFFFFFFFFFFFFFFFFFFFFFFFFFFFFFFFF AND SUB PUSH2 0xAD5 JUMPI PUSH0 PUSH1 0x40 MLOAD PUSH32 0x1E4FBDF700000000000000000000000000000000000000000000000000000000 DUP2 MSTORE PUSH1 0x4 ADD PUSH2 0xACC SWAP2 SWAP1 PUSH2 0xDFF JUMP JUMPDEST PUSH1 0x40 MLOAD DUP1 SWAP2 SUB SWAP1 REVERT JUMPDEST PUSH2 0xADE DUP2 PUSH2 0xB68 JUMP JUMPDEST POP JUMP JUMPDEST PUSH2 0xAE9 PUSH2 0xC29 JUMP JUMPDEST PUSH20 0xFFFFFFFFFFFFFFFFFFFFFFFFFFFFFFFFFFFFFFFF AND PUSH2 0xB07 PUSH2 0x4E0 JUMP JUMPDEST PUSH20 0xFFFFFFFFFFFFFFFFFFFFFFFFFFFFFFFFFFFFFFFF AND EQ PUSH2 0xB66 JUMPI PUSH2 0xB2A PUSH2 0xC29 JUMP JUMPDEST PUSH1 0x40 MLOAD PUSH32 0x118CDAA700000000000000000000000000000000000000000000000000000000 DUP2 MSTORE PUSH1 0x4 ADD PUSH2 0xB5D SWAP2 SWAP1 PUSH2 0xDFF JUMP JUMPDEST PUSH1 0x40 MLOAD DUP1 SWAP2 SUB SWAP1 REVERT JUMPDEST JUMP JUMPDEST PUSH0 PUSH0 PUSH0 SWAP1 SLOAD SWAP1 PUSH2 0x100 EXP SWAP1 DIV PUSH20 0xFFFFFFFFFFFFFFFFFFFFFFFFFFFFFFFFFFFFFFFF AND SWAP1 POP DUP2 PUSH0 PUSH0 PUSH2 0x100 EXP DUP2 SLOAD DUP2 PUSH20 0xFFFFFFFFFFFFFFFFFFFFFFFFFFFFFFFFFFFFFFFF MUL NOT AND SWAP1 DUP4 PUSH20 0xFFFFFFFFFFFFFFFFFFFFFFFFFFFFFFFFFFFFFFFF AND MUL OR SWAP1 SSTORE POP DUP2 PUSH20 0xFFFFFFFFFFFFFFFFFFFFFFFFFFFFFFFFFFFFFFFF AND DUP2 PUSH20 0xFFFFFFFFFFFFFFFFFFFFFFFFFFFFFFFFFFFFFFFF AND PUSH32 0x8BE0079C531659141344CD1FD0A4F28419497F9722A3DAAFE3B4186F6B6457E0 PUSH1 0x40 MLOAD PUSH1 0x40 MLOAD DUP1 SWAP2 SUB SWAP1 LOG3 POP POP JUMP JUMPDEST PUSH0 CALLER SWAP1 POP SWAP1 JUMP JUMPDEST PUSH0 PUSH0 REVERT JUMPDEST PUSH0 PUSH0 REVERT JUMPDEST PUSH0 PUSH20 0xFFFFFFFFFFFFFFFFFFFFFFFFFFFFFFFFFFFFFFFF DUP3 AND SWAP1 POP SWAP2 SWAP1 POP JUMP JUMPDEST PUSH0 PUSH2 0xC61 DUP3 PUSH2 0xC38 JUMP JUMPDEST SWAP1 POP SWAP2 SWAP1 POP JUMP JUMPDEST PUSH2 0xC71 DUP2 PUSH2 0xC57 JUMP JUMPDEST DUP2 EQ PUSH2 0xC7B JUMPI PUSH0 PUSH0 REVERT JUMPDEST POP JUMP JUMPDEST PUSH0 DUP2 CALLDATALOAD SWAP1 POP PUSH2 0xC8C DUP2 PUSH2 0xC68 JUMP JUMPDEST SWAP3 SWAP2 POP POP JUMP JUMPDEST PUSH0 PUSH1 0x20 DUP3 DUP5 SUB SLT ISZERO PUSH2 0xCA7 JUMPI PUSH2 0xCA6 PUSH2 0xC30 JUMP JUMPDEST JUMPDEST PUSH0 PUSH2 0xCB4 DUP5 DUP3 DUP6 ADD PUSH2 0xC7E JUMP JUMPDEST SWAP2 POP POP SWAP3 SWAP2 POP POP JUMP JUMPDEST PUSH0 DUP2 SWAP1 POP SWAP2 SWAP1 POP JUMP JUMPDEST PUSH2 0xCCF DUP2 PUSH2 0xCBD JUMP JUMPDEST DUP3 MSTORE POP POP JUMP JUMPDEST PUSH0 PUSH1 0x20 DUP3 ADD SWAP1 POP PUSH2 0xCE8 PUSH0 DUP4 ADD DUP5 PUSH2 0xCC6 JUMP JUMPDEST SWAP3 SWAP2 POP POP JUMP JUMPDEST PUSH2 0xCF7 DUP2 PUSH2 0xCBD JUMP JUMPDEST DUP2 EQ PUSH2 0xD01 JUMPI PUSH0 PUSH0 REVERT JUMPDEST POP JUMP JUMPDEST PUSH0 DUP2 CALLDATALOAD SWAP1 POP PUSH2 0xD12 DUP2 PUSH2 0xCEE JUMP JUMPDEST SWAP3 SWAP2 POP POP JUMP JUMPDEST PUSH0 PUSH1 0x20 DUP3 DUP5 SUB SLT ISZERO PUSH2 0xD2D JUMPI PUSH2 0xD2C PUSH2 0xC30 JUMP JUMPDEST JUMPDEST PUSH0 PUSH2 0xD3A DUP5 DUP3 DUP6 ADD PUSH2 0xD04 JUMP JUMPDEST SWAP2 POP POP SWAP3 SWAP2 POP POP JUMP JUMPDEST PUSH0 DUP2 SWAP1 POP SWAP2 SWAP1 POP JUMP JUMPDEST PUSH0 PUSH2 0xD66 PUSH2 0xD61 PUSH2 0xD5C DUP5 PUSH2 0xC38 JUMP JUMPDEST PUSH2 0xD43 JUMP JUMPDEST PUSH2 0xC38 JUMP JUMPDEST SWAP1 POP SWAP2 SWAP1 POP JUMP JUMPDEST PUSH0 PUSH2 0xD77 DUP3 PUSH2 0xD4C JUMP JUMPDEST SWAP1 POP SWAP2 SWAP1 POP JUMP JUMPDEST PUSH0 PUSH2 0xD88 DUP3 PUSH2 0xD6D JUMP JUMPDEST SWAP1 POP SWAP2 SWAP1 POP JUMP JUMPDEST PUSH2 0xD98 DUP2 PUSH2 0xD7E JUMP JUMPDEST DUP3 MSTORE POP POP JUMP JUMPDEST PUSH0 PUSH1 0x20 DUP3 ADD SWAP1 POP PUSH2 0xDB1 PUSH0 DUP4 ADD DUP5 PUSH2 0xD8F JUMP JUMPDEST SWAP3 SWAP2 POP POP JUMP JUMPDEST PUSH0 PUSH2 0xDC1 DUP3 PUSH2 0xD6D JUMP JUMPDEST SWAP1 POP SWAP2 SWAP1 POP JUMP JUMPDEST PUSH2 0xDD1 DUP2 PUSH2 0xDB7 JUMP JUMPDEST DUP3 MSTORE POP POP JUMP JUMPDEST PUSH0 PUSH1 0x20 DUP3 ADD SWAP1 POP PUSH2 0xDEA PUSH0 DUP4 ADD DUP5 PUSH2 0xDC8 JUMP JUMPDEST SWAP3 SWAP2 POP POP JUMP JUMPDEST PUSH2 0xDF9 DUP2 PUSH2 0xC57 JUMP JUMPDEST DUP3 MSTORE POP POP JUMP JUMPDEST PUSH0 PUSH1 0x20 DUP3 ADD SWAP1 POP PUSH2 0xE12 PUSH0 DUP4 ADD DUP5 PUSH2 0xDF0 JUMP JUMPDEST SWAP3 SWAP2 POP POP JUMP JUMPDEST PUSH0 PUSH0 REVERT JUMPDEST PUSH0 PUSH0 REVERT JUMPDEST PUSH0 PUSH0 REVERT JUMPDEST PUSH0 PUSH0 DUP4 PUSH1 0x1F DUP5 ADD SLT PUSH2 0xE39 JUMPI PUSH2 0xE38 PUSH2 0xE18 JUMP JUMPDEST JUMPDEST DUP3 CALLDATALOAD SWAP1 POP PUSH8 0xFFFFFFFFFFFFFFFF DUP2 GT ISZERO PUSH2 0xE56 JUMPI PUSH2 0xE55 PUSH2 0xE1C JUMP JUMPDEST JUMPDEST PUSH1 0x20 DUP4 ADD SWAP2 POP DUP4 PUSH1 0x20 DUP3 MUL DUP4 ADD GT ISZERO PUSH2 0xE72 JUMPI PUSH2 0xE71 PUSH2 0xE20 JUMP JUMPDEST JUMPDEST SWAP3 POP SWAP3 SWAP1 POP JUMP JUMPDEST PUSH0 PUSH0 DUP4 PUSH1 0x1F DUP5 ADD SLT PUSH2 0xE8E JUMPI PUSH2 0xE8D PUSH2 0xE18 JUMP JUMPDEST JUMPDEST DUP3 CALLDATALOAD SWAP1 POP PUSH8 0xFFFFFFFFFFFFFFFF DUP2 GT ISZERO PUSH2 0xEAB JUMPI PUSH2 0xEAA PUSH2 0xE1C JUMP JUMPDEST JUMPDEST PUSH1 0x20 DUP4 ADD SWAP2 POP DUP4 PUSH1 0x20 DUP3 MUL DUP4 ADD GT ISZERO PUSH2 0xEC7 JUMPI PUSH2 0xEC6 PUSH2 0xE20 JUMP JUMPDEST JUMPDEST SWAP3 POP SWAP3 SWAP1 POP JUMP JUMPDEST PUSH0 PUSH0 PUSH0 PUSH0 PUSH0 PUSH1 0x60 DUP7 DUP9 SUB SLT ISZERO PUSH2 0xEE7 JUMPI PUSH2 0xEE6 PUSH2 0xC30 JUMP JUMPDEST JUMPDEST PUSH0 PUSH2 0xEF4 DUP9 DUP3 DUP10 ADD PUSH2 0xC7E JUMP JUMPDEST SWAP6 POP POP PUSH1 0x20 DUP7 ADD CALLDATALOAD PUSH8 0xFFFFFFFFFFFFFFFF DUP2 GT ISZERO PUSH2 0xF15 JUMPI PUSH2 0xF14 PUSH2 0xC34 JUMP JUMPDEST JUMPDEST PUSH2 0xF21 DUP9 DUP3 DUP10 ADD PUSH2 0xE24 JUMP JUMPDEST SWAP5 POP SWAP5 POP POP PUSH1 0x40 DUP7 ADD CALLDATALOAD PUSH8 0xFFFFFFFFFFFFFFFF DUP2 GT ISZERO PUSH2 0xF44 JUMPI PUSH2 0xF43 PUSH2 0xC34 JUMP JUMPDEST JUMPDEST PUSH2 0xF50 DUP9 DUP3 DUP10 ADD PUSH2 0xE79 JUMP JUMPDEST SWAP3 POP SWAP3 POP POP SWAP3 SWAP6 POP SWAP3 SWAP6 SWAP1 SWAP4 POP JUMP JUMPDEST PUSH0 DUP3 DUP3 MSTORE PUSH1 0x20 DUP3 ADD SWAP1 POP SWAP3 SWAP2 POP POP JUMP JUMPDEST PUSH32 0x496E73756666696369656E742062616C616E6365000000000000000000000000 PUSH0 DUP3 ADD MSTORE POP JUMP JUMPDEST PUSH0 PUSH2 0xFA3 PUSH1 0x14 DUP4 PUSH2 0xF5F JUMP JUMPDEST SWAP2 POP PUSH2 0xFAE DUP3 PUSH2 0xF6F JUMP JUMPDEST PUSH1 0x20 DUP3 ADD SWAP1 POP SWAP2 SWAP1 POP JUMP JUMPDEST PUSH0 PUSH1 0x20 DUP3 ADD SWAP1 POP DUP2 DUP2 SUB PUSH0 DUP4 ADD MSTORE PUSH2 0xFD0 DUP2 PUSH2 0xF97 JUMP JUMPDEST SWAP1 POP SWAP2 SWAP1 POP JUMP JUMPDEST PUSH32 0x4E487B7100000000000000000000000000000000000000000000000000000000 PUSH0 MSTORE PUSH1 0x11 PUSH1 0x4 MSTORE PUSH1 0x24 PUSH0 REVERT JUMPDEST PUSH0 PUSH2 0x100E DUP3 PUSH2 0xCBD JUMP JUMPDEST SWAP2 POP PUSH2 0x1019 DUP4 PUSH2 0xCBD JUMP JUMPDEST SWAP3 POP DUP3 DUP3 SUB SWAP1 POP DUP2 DUP2 GT ISZERO PUSH2 0x1031 JUMPI PUSH2 0x1030 PUSH2 0xFD7 JUMP JUMPDEST JUMPDEST SWAP3 SWAP2 POP POP JUMP JUMPDEST PUSH0 PUSH1 0x40 DUP3 ADD SWAP1 POP PUSH2 0x104A PUSH0 DUP4 ADD DUP6 PUSH2 0xDF0 JUMP JUMPDEST PUSH2 0x1057 PUSH1 0x20 DUP4 ADD DUP5 PUSH2 0xCC6 JUMP JUMPDEST SWAP4 SWAP3 POP POP POP JUMP JUMPDEST PUSH0 DUP2 ISZERO ISZERO SWAP1 POP SWAP2 SWAP1 POP JUMP JUMPDEST PUSH2 0x1072 DUP2 PUSH2 0x105E JUMP JUMPDEST DUP2 EQ PUSH2 0x107C JUMPI PUSH0 PUSH0 REVERT JUMPDEST POP JUMP JUMPDEST PUSH0 DUP2 MLOAD SWAP1 POP PUSH2 0x108D DUP2 PUSH2 0x1069 JUMP JUMPDEST SWAP3 SWAP2 POP POP JUMP JUMPDEST PUSH0 PUSH1 0x20 DUP3 DUP5 SUB SLT ISZERO PUSH2 0x10A8 JUMPI PUSH2 0x10A7 PUSH2 0xC30 JUMP JUMPDEST JUMPDEST PUSH0 PUSH2 0x10B5 DUP5 DUP3 DUP6 ADD PUSH2 0x107F JUMP JUMPDEST SWAP2 POP POP SWAP3 SWAP2 POP POP JUMP JUMPDEST PUSH32 0x5472616E73666572206661696C65640000000000000000000000000000000000 PUSH0 DUP3 ADD MSTORE POP JUMP JUMPDEST PUSH0 PUSH2 0x10F2 PUSH1 0xF DUP4 PUSH2 0xF5F JUMP JUMPDEST SWAP2 POP PUSH2 0x10FD DUP3 PUSH2 0x10BE JUMP JUMPDEST PUSH1 0x20 DUP3 ADD SWAP1 POP SWAP2 SWAP1 POP JUMP JUMPDEST PUSH0 PUSH1 0x20 DUP3 ADD SWAP1 POP DUP2 DUP2 SUB PUSH0 DUP4 ADD MSTORE PUSH2 0x111F DUP2 PUSH2 0x10E6 JUMP JUMPDEST SWAP1 POP SWAP2 SWAP1 POP JUMP JUMPDEST PUSH32 0x416D6F756E74206D757374206265203E20300000000000000000000000000000 PUSH0 DUP3 ADD MSTORE POP JUMP JUMPDEST PUSH0 PUSH2 0x115A PUSH1 0x12 DUP4 PUSH2 0xF5F JUMP JUMPDEST SWAP2 POP PUSH2 0x1165 DUP3 PUSH2 0x1126 JUMP JUMPDEST PUSH1 0x20 DUP3 ADD SWAP1 POP SWAP2 SWAP1 POP JUMP JUMPDEST PUSH0 PUSH1 0x20 DUP3 ADD SWAP1 POP DUP2 DUP2 SUB PUSH0 DUP4 ADD MSTORE PUSH2 0x1187 DUP2 PUSH2 0x114E JUMP JUMPDEST SWAP1 POP SWAP2 SWAP1 POP JUMP JUMPDEST PUSH0 PUSH1 0x60 DUP3 ADD SWAP1 POP PUSH2 0x11A1 PUSH0 DUP4 ADD DUP7 PUSH2 0xDF0 JUMP JUMPDEST PUSH2 0x11AE PUSH1 0x20 DUP4 ADD DUP6 PUSH2 0xDF0 JUMP JUMPDEST PUSH2 0x11BB PUSH1 0x40 DUP4 ADD DUP5 PUSH2 0xCC6 JUMP JUMPDEST SWAP5 SWAP4 POP POP POP POP JUMP JUMPDEST PUSH0 PUSH2 0x11CD DUP3 PUSH2 0xCBD JUMP JUMPDEST SWAP2 POP PUSH2 0x11D8 DUP4 PUSH2 0xCBD JUMP JUMPDEST SWAP3 POP DUP3 DUP3 ADD SWAP1 POP DUP1 DUP3 GT ISZERO PUSH2 0x11F0 JUMPI PUSH2 0x11EF PUSH2 0xFD7 JUMP JUMPDEST JUMPDEST SWAP3 SWAP2 POP POP JUMP JUMPDEST PUSH32 0x4E6F2066756E647320746F206469737472696275746500000000000000000000 PUSH0 DUP3 ADD MSTORE POP JUMP JUMPDEST PUSH0 PUSH2 0x122A PUSH1 0x16 DUP4 PUSH2 0xF5F JUMP JUMPDEST SWAP2 POP PUSH2 0x1235 DUP3 PUSH2 0x11F6 JUMP JUMPDEST PUSH1 0x20 DUP3 ADD SWAP1 POP SWAP2 SWAP1 POP JUMP JUMPDEST PUSH0 PUSH1 0x20 DUP3 ADD SWAP1 POP DUP2 DUP2 SUB PUSH0 DUP4 ADD MSTORE PUSH2 0x1257 DUP2 PUSH2 0x121E JUMP JUMPDEST SWAP1 POP SWAP2 SWAP1 POP JUMP JUMPDEST PUSH32 0x4172726179206D69736D61746368000000000000000000000000000000000000 PUSH0 DUP3 ADD MSTORE POP JUMP JUMPDEST PUSH0 PUSH2 0x1292 PUSH1 0xE DUP4 PUSH2 0xF5F JUMP JUMPDEST SWAP2 POP PUSH2 0x129D DUP3 PUSH2 0x125E JUMP JUMPDEST PUSH1 0x20 DUP3 ADD SWAP1 POP SWAP2 SWAP1 POP JUMP JUMPDEST PUSH0 PUSH1 0x20 DUP3 ADD SWAP1 POP DUP2 DUP2 SUB PUSH0 DUP4 ADD MSTORE PUSH2 0x12BF DUP2 PUSH2 0x1286 JUMP JUMPDEST SWAP1 POP SWAP2 SWAP1 POP JUMP JUMPDEST PUSH32 0x4E487B7100000000000000000000000000000000000000000000000000000000 PUSH0 MSTORE PUSH1 0x32 PUSH1 0x4 MSTORE PUSH1 0x24 PUSH0 REVERT JUMPDEST PUSH0 PUSH2 0x12FD DUP3 PUSH2 0xCBD JUMP JUMPDEST SWAP2 POP PUSH2 0x1308 DUP4 PUSH2 0xCBD JUMP JUMPDEST SWAP3 POP DUP3 DUP3 MUL PUSH2 0x1316 DUP2 PUSH2 0xCBD JUMP JUMPDEST SWAP2 POP DUP3 DUP3 DIV DUP5 EQ DUP4 ISZERO OR PUSH2 0x132D JUMPI PUSH2 0x132C PUSH2 0xFD7 JUMP JUMPDEST JUMPDEST POP SWAP3 SWAP2 POP POP JUMP JUMPDEST PUSH32 0x4E487B7100000000000000000000000000000000000000000000000000000000 PUSH0 MSTORE PUSH1 0x12 PUSH1 0x4 MSTORE PUSH1 0x24 PUSH0 REVERT JUMPDEST PUSH0 PUSH2 0x136B DUP3 PUSH2 0xCBD JUMP JUMPDEST SWAP2 POP PUSH2 0x1376 DUP4 PUSH2 0xCBD JUMP JUMPDEST SWAP3 POP DUP3 PUSH2 0x1386 JUMPI PUSH2 0x1385 PUSH2 0x1334 JUMP JUMPDEST JUMPDEST DUP3 DUP3 DIV SWAP1 POP SWAP3 SWAP2 POP POP JUMP INVALID LOG2 PUSH5 0x6970667358 0x22 SLT KECCAK256 0xAD PUSH12 0xFCC3FF530949AB176E7A789B PUSH13 0x5DED159FB0EB89AF654611353A PUSH22 0x90C93064736F6C634300082200330000000000000000 "
    },
    "gasEstimates": {
      "creation": {
        "codeDepositCost": "1012600",
        "executionCost": "infinite",
        "totalCost": "infinite"
      },
      "external": {
        "balances(address)": "2803",
        "deposit(uint256)": "infinite",
        "ensRegistry()": "infinite",
        "executeWill(address,address[],uint256[])": "infinite",
        "lastActive(address)": "2868",
        "owner()": "2536",
        "ping()": "22410",
        "renounceOwnership()": "infinite",
        "transferOwnership(address)": "infinite",
        "usdc()": "infinite",
        "withdraw(uint256)": "infinite"
      }
    },
    "methodIdentifiers": {
      "balances(address)": "27e235e3",
      "deposit(uint256)": "b6b55f25",
      "ensRegistry()": "7d73b231",
      "executeWill(address,address[],uint256[])": "ed8c9776",
      "lastActive(address)": "c2ec28d6",
      "owner()": "8da5cb5b",
      "ping()": "5c36b186",
      "renounceOwnership()": "715018a6",
      "transferOwnership(address)": "f2fde38b",
      "usdc()": "3e413bee",
      "withdraw(uint256)": "2e1a7d4d"
    }
  },
  "storageLayout": {
    "storage": [
      {
        "astId": 582,
        "contract": "AgentTipWill.sol:AgentTipWill",
        "label": "_owner",
        "offset": 0,
        "slot": "0",
        "type": "t_address"
      },
      {
        "astId": 303,
        "contract": "AgentTipWill.sol:AgentTipWill",
        "label": "usdc",
        "offset": 0,
        "slot": "1",
        "type": "t_contract(IERC20)799"
      },
      {
        "astId": 306,
        "contract": "AgentTipWill.sol:AgentTipWill",
        "label": "ensRegistry",
        "offset": 0,
        "slot": "2",
        "type": "t_contract(IENSRegistry)276"
      },
      {
        "astId": 310,
        "contract": "AgentTipWill.sol:AgentTipWill",
        "label": "balances",
        "offset": 0,
        "slot": "3",
        "type": "t_mapping(t_address,t_uint256)"
      },
      {
        "astId": 314,
        "contract": "AgentTipWill.sol:AgentTipWill",
        "label": "lastActive",
        "offset": 0,
        "slot": "4",
        "type": "t_mapping(t_address,t_uint256)"
      }
    ],
    "types": {
      "t_address": {
        "encoding": "inplace",
        "label": "address",
        "numberOfBytes": "20"
      },
      "t_contract(IENSRegistry)276": {
        "encoding": "inplace",
        "label": "contract IENSRegistry",
        "numberOfBytes": "20"
      },
      "t_contract(IERC20)799": {
        "encoding": "inplace",
        "label": "contract IERC20",
        "numberOfBytes": "20"
      },
      "t_mapping(t_address,t_uint256)": {
        "encoding": "mapping",
        "key": "t_address",
        "label": "mapping(address => uint256)",
        "numberOfBytes": "32",
        "value": "t_uint256"
      },
      "t_uint256": {
        "encoding": "inplace",
        "label": "uint256",
        "numberOfBytes": "32"
      }
    }
  },
  "transientStorageLayout": {
    "storage": [],
    "types": null
  },
  "userdoc": {
    "kind": "user",
    "methods": {},
    "version": 1
  }
}